{
  "_format": "hh-sol-artifact-1",
  "contractName": "ArtistRegistration",
  "sourceName": "contracts/ArtistRegistration.sol",
  "abi": [
    {
      "inputs": [],
      "name": "RegisterAddress",
      "outputs": [
        {
          "internalType": "bool",
          "name": "",
          "type": "bool"
        }
      ],
      "stateMutability": "nonpayable",
      "type": "function"
    },
    {
      "inputs": [
        {
          "internalType": "uint256",
          "name": "",
          "type": "uint256"
        }
      ],
      "name": "albumDirectory",
      "outputs": [
        {
          "internalType": "uint256",
          "name": "albumID",
          "type": "uint256"
        },
        {
          "internalType": "address",
          "name": "artist",
          "type": "address"
        },
        {
          "internalType": "string",
          "name": "albumName",
          "type": "string"
        },
        {
          "internalType": "uint256",
          "name": "totalAlbumPurchases",
          "type": "uint256"
        },
        {
          "internalType": "uint256",
          "name": "totalSongPlays",
          "type": "uint256"
        }
      ],
      "stateMutability": "view",
      "type": "function"
    },
    {
      "inputs": [
        {
          "internalType": "address",
          "name": "",
          "type": "address"
        },
        {
          "internalType": "uint256",
          "name": "",
          "type": "uint256"
        }
      ],
      "name": "albumStats",
      "outputs": [
        {
          "internalType": "uint256",
          "name": "albumID",
          "type": "uint256"
        },
        {
          "internalType": "address",
          "name": "artist",
          "type": "address"
        },
        {
          "internalType": "string",
          "name": "albumName",
          "type": "string"
        },
        {
          "internalType": "uint256",
          "name": "totalAlbumPurchases",
          "type": "uint256"
        },
        {
          "internalType": "uint256",
          "name": "totalSongPlays",
          "type": "uint256"
        }
      ],
      "stateMutability": "view",
      "type": "function"
    },
    {
      "inputs": [
        {
          "internalType": "address",
          "name": "",
          "type": "address"
        },
        {
          "internalType": "uint256",
          "name": "",
          "type": "uint256"
        }
      ],
      "name": "artistAlbums",
      "outputs": [
        {
          "internalType": "uint256",
          "name": "albumID",
          "type": "uint256"
        },
        {
          "internalType": "address",
          "name": "artist",
          "type": "address"
        },
        {
          "internalType": "string",
          "name": "albumName",
          "type": "string"
        },
        {
          "internalType": "uint256",
          "name": "totalAlbumPurchases",
          "type": "uint256"
        },
        {
          "internalType": "uint256",
          "name": "totalSongPlays",
          "type": "uint256"
        }
      ],
      "stateMutability": "view",
      "type": "function"
    },
    {
      "inputs": [
        {
          "internalType": "address",
          "name": "userAddress",
          "type": "address"
        }
      ],
      "name": "getRegisteredAddress",
      "outputs": [
        {
          "internalType": "bool",
          "name": "",
          "type": "bool"
        }
      ],
      "stateMutability": "view",
      "type": "function"
    },
    {
      "inputs": [
        {
          "internalType": "address",
          "name": "",
          "type": "address"
        }
      ],
      "name": "registeredArtists",
      "outputs": [
        {
          "internalType": "bool",
          "name": "registered",
          "type": "bool"
        },
        {
          "internalType": "uint256",
          "name": "totalAlbumSales",
          "type": "uint256"
        },
        {
          "internalType": "uint256",
          "name": "totalSongPlays",
          "type": "uint256"
        }
      ],
      "stateMutability": "view",
      "type": "function"
    },
    {
      "inputs": [
        {
          "internalType": "address",
          "name": "",
          "type": "address"
        }
      ],
      "name": "registeredUsers",
      "outputs": [
        {
          "internalType": "bool",
          "name": "registered",
          "type": "bool"
        }
      ],
      "stateMutability": "view",
      "type": "function"
    },
    {
      "inputs": [],
      "name": "verifyRegistration",
      "outputs": [
        {
          "internalType": "bool",
          "name": "",
          "type": "bool"
        }
      ],
      "stateMutability": "view",
      "type": "function"
    }
  ],
  "bytecode": "0x608060405234801561001057600080fd5b50336000806101000a81548173ffffffffffffffffffffffffffffffffffffffff021916908373ffffffffffffffffffffffffffffffffffffffff160217905550610b00806100606000396000f3fe608060405234801561001057600080fd5b50600436106100885760003560e01c8063d9e73f3b1161005b578063d9e73f3b14610143578063dd9b476714610161578063f558369f14610195578063f6dc26b7146101c757610088565b80630e50cee51461008d5780634b64b2e9146100bd5780635ade5020146100db578063a786eef81461010f575b600080fd5b6100a760048036038101906100a291906107c3565b6101f7565b6040516100b491906108b7565b60405180910390f35b6100c5610222565b6040516100d291906108b7565b60405180910390f35b6100f560048036038101906100f09190610828565b610291565b604051610106959493929190610939565b60405180910390f35b610129600480360381019061012491906107ec565b61036f565b60405161013a959493929190610939565b60405180910390f35b61014b61045a565b60405161015891906108b7565b60405180910390f35b61017b600480360381019061017691906107ec565b6104bb565b60405161018c959493929190610939565b60405180910390f35b6101af60048036038101906101aa91906107c3565b6105b6565b6040516101be939291906108d2565b60405180910390f35b6101e160048036038101906101dc91906107c3565b6105ed565b6040516101ee91906108b7565b60405180910390f35b60036020528060005260406000206000915090508060000160009054906101000a900460ff16905081565b600060011515600360003373ffffffffffffffffffffffffffffffffffffffff1673ffffffffffffffffffffffffffffffffffffffff16815260200190815260200160002060000160009054906101000a900460ff1615151415610289576001905061028e565b600090505b90565b60056020528060005260406000206000915090508060000154908060010160009054906101000a900473ffffffffffffffffffffffffffffffffffffffff16908060020180546102e090610a2a565b80601f016020809104026020016040519081016040528092919081815260200182805461030c90610a2a565b80156103595780601f1061032e57610100808354040283529160200191610359565b820191906000526020600020905b81548152906001019060200180831161033c57829003601f168201915b5050505050908060050154908060060154905085565b6006602052816000526040600020602052806000526040600020600091509150508060000154908060010160009054906101000a900473ffffffffffffffffffffffffffffffffffffffff16908060020180546103cb90610a2a565b80601f01602080910402602001604051908101604052809291908181526020018280546103f790610a2a565b80156104445780601f1061041957610100808354040283529160200191610444565b820191906000526020600020905b81548152906001019060200180831161042757829003601f168201915b5050505050908060050154908060060154905085565b60006001600360003373ffffffffffffffffffffffffffffffffffffffff1673ffffffffffffffffffffffffffffffffffffffff16815260200190815260200160002060000160006101000a81548160ff0219169083151502179055905090565b600860205281600052604060002081815481106104d757600080fd5b9060005260206000209060070201600091509150508060000154908060010160009054906101000a900473ffffffffffffffffffffffffffffffffffffffff169080600201805461052790610a2a565b80601f016020809104026020016040519081016040528092919081815260200182805461055390610a2a565b80156105a05780601f10610575576101008083540402835291602001916105a0565b820191906000526020600020905b81548152906001019060200180831161058357829003601f168201915b5050505050908060050154908060060154905085565b60046020528060005260406000206000915090508060000160009054906101000a900460ff16908060020154908060030154905083565b600061067d6040518060400160405280601281526020017f5573657220697320726567697374657265640000000000000000000000000000815250600360003373ffffffffffffffffffffffffffffffffffffffff1673ffffffffffffffffffffffffffffffffffffffff16815260200190815260200160002060000160009054906101000a900460ff166106d4565b600360008373ffffffffffffffffffffffffffffffffffffffff1673ffffffffffffffffffffffffffffffffffffffff16815260200190815260200160002060000160009054906101000a900460ff169050919050565b61076c82826040516024016106ea929190610909565b6040516020818303038152906040527fc3b55635000000000000000000000000000000000000000000000000000000007bffffffffffffffffffffffffffffffffffffffffffffffffffffffff19166020820180517bffffffffffffffffffffffffffffffffffffffffffffffffffffffff8381831617835250505050610770565b5050565b60008151905060006a636f6e736f6c652e6c6f679050602083016000808483855afa5050505050565b6000813590506107a881610a9c565b92915050565b6000813590506107bd81610ab3565b92915050565b6000602082840312156107d557600080fd5b60006107e384828501610799565b91505092915050565b600080604083850312156107ff57600080fd5b600061080d85828601610799565b925050602061081e858286016107ae565b9150509250929050565b60006020828403121561083a57600080fd5b6000610848848285016107ae565b91505092915050565b61085a816109af565b82525050565b610869816109c1565b82525050565b600061087a82610993565b610884818561099e565b93506108948185602086016109f7565b61089d81610a8b565b840191505092915050565b6108b1816109ed565b82525050565b60006020820190506108cc6000830184610860565b92915050565b60006060820190506108e76000830186610860565b6108f460208301856108a8565b61090160408301846108a8565b949350505050565b60006040820190508181036000830152610923818561086f565b90506109326020830184610860565b9392505050565b600060a08201905061094e60008301886108a8565b61095b6020830187610851565b818103604083015261096d818661086f565b905061097c60608301856108a8565b61098960808301846108a8565b9695505050505050565b600081519050919050565b600082825260208201905092915050565b60006109ba826109cd565b9050919050565b60008115159050919050565b600073ffffffffffffffffffffffffffffffffffffffff82169050919050565b6000819050919050565b60005b83811015610a155780820151818401526020810190506109fa565b83811115610a24576000848401525b50505050565b60006002820490506001821680610a4257607f821691505b60208210811415610a5657610a55610a5c565b5b50919050565b7f4e487b7100000000000000000000000000000000000000000000000000000000600052602260045260246000fd5b6000601f19601f8301169050919050565b610aa5816109af565b8114610ab057600080fd5b50565b610abc816109ed565b8114610ac757600080fd5b5056fea264697066735822122097f3941f259b3422cfcb9c092c3adbfab42d80b3cc79a7121d1de43a68ea68ba64736f6c63430008040033",
  "linkReferences": {},
  "deployedLinkReferences": {}
}