{
  "_format": "hh-sol-artifact-1",
  "contractName": "UserInteraction",
  "sourceName": "contracts/UserInteraction.sol",
  "abi": [
    {
      "inputs": [],
      "stateMutability": "nonpayable",
      "type": "constructor"
    },
    {
      "inputs": [
        {
          "internalType": "address",
          "name": "",
          "type": "address"
        },
        {
          "internalType": "uint256",
          "name": "",
          "type": "uint256"
        }
      ],
      "name": "artistAlbums",
      "outputs": [
        {
          "internalType": "uint256",
          "name": "albumID",
          "type": "uint256"
        },
        {
          "internalType": "string",
          "name": "albumName",
          "type": "string"
        },
        {
          "internalType": "uint256",
          "name": "totalAlbumPurchases",
          "type": "uint256"
        }
      ],
      "stateMutability": "view",
      "type": "function"
    },
    {
      "inputs": [],
      "name": "owner",
      "outputs": [
        {
          "internalType": "address",
          "name": "",
          "type": "address"
        }
      ],
      "stateMutability": "view",
      "type": "function"
    },
    {
      "inputs": [
        {
          "internalType": "address",
          "name": "",
          "type": "address"
        }
      ],
      "name": "registeredUsers",
      "outputs": [
        {
          "internalType": "bool",
          "name": "registered",
          "type": "bool"
        }
      ],
      "stateMutability": "view",
      "type": "function"
    },
    {
      "inputs": [
        {
          "internalType": "address",
          "name": "",
          "type": "address"
        }
      ],
      "name": "userPurchases",
      "outputs": [
        {
          "internalType": "uint256",
          "name": "",
          "type": "uint256"
        }
      ],
      "stateMutability": "view",
      "type": "function"
    }
  ],
  "bytecode": "0x608060405234801561001057600080fd5b50336000806101000a81548173ffffffffffffffffffffffffffffffffffffffff021916908373ffffffffffffffffffffffffffffffffffffffff160217905550610528806100606000396000f3fe608060405234801561001057600080fd5b506004361061004c5760003560e01c80630e50cee51461005157806339f65c09146100815780638da5cb5b146100b1578063dd9b4767146100cf575b600080fd5b61006b60048036038101906100669190610261565b610101565b6040516100789190610347565b60405180910390f35b61009b60048036038101906100969190610261565b61012c565b6040516100a89190610362565b60405180910390f35b6100b9610144565b6040516100c6919061032c565b60405180910390f35b6100e960048036038101906100e4919061028a565b610168565b6040516100f89392919061037d565b60405180910390f35b60036020528060005260406000206000915090508060000160009054906101000a900460ff16905081565b60026020528060005260406000206000915090505481565b60008054906101000a900473ffffffffffffffffffffffffffffffffffffffff1681565b6001602052816000526040600020818154811061018457600080fd5b9060005260206000209060050201600091509150508060000154908060010180546101ae90610452565b80601f01602080910402602001604051908101604052809291908181526020018280546101da90610452565b80156102275780601f106101fc57610100808354040283529160200191610227565b820191906000526020600020905b81548152906001019060200180831161020a57829003601f168201915b5050505050908060040154905083565b600081359050610246816104c4565b92915050565b60008135905061025b816104db565b92915050565b60006020828403121561027357600080fd5b600061028184828501610237565b91505092915050565b6000806040838503121561029d57600080fd5b60006102ab85828601610237565b92505060206102bc8582860161024c565b9150509250929050565b6102cf816103d7565b82525050565b6102de816103e9565b82525050565b60006102ef826103bb565b6102f981856103c6565b935061030981856020860161041f565b610312816104b3565b840191505092915050565b61032681610415565b82525050565b600060208201905061034160008301846102c6565b92915050565b600060208201905061035c60008301846102d5565b92915050565b6000602082019050610377600083018461031d565b92915050565b6000606082019050610392600083018661031d565b81810360208301526103a481856102e4565b90506103b3604083018461031d565b949350505050565b600081519050919050565b600082825260208201905092915050565b60006103e2826103f5565b9050919050565b60008115159050919050565b600073ffffffffffffffffffffffffffffffffffffffff82169050919050565b6000819050919050565b60005b8381101561043d578082015181840152602081019050610422565b8381111561044c576000848401525b50505050565b6000600282049050600182168061046a57607f821691505b6020821081141561047e5761047d610484565b5b50919050565b7f4e487b7100000000000000000000000000000000000000000000000000000000600052602260045260246000fd5b6000601f19601f8301169050919050565b6104cd816103d7565b81146104d857600080fd5b50565b6104e481610415565b81146104ef57600080fd5b5056fea2646970667358221220dc0c3564efc2a9a7529b69f2bb5b9e1cef74d90244a4a591215f148b4f4a7eaa64736f6c63430008040033",
  "linkReferences": {},
  "deployedLinkReferences": {}
}