{
  "_format": "hh-sol-artifact-1",
  "contractName": "UserInteraction",
  "sourceName": "contracts/UserInteraction.sol",
  "abi": [
    {
      "anonymous": false,
      "inputs": [
        {
          "indexed": false,
          "internalType": "uint256",
          "name": "_albumID",
          "type": "uint256"
        }
      ],
      "name": "AlbumPurchased",
      "type": "event"
    },
    {
      "anonymous": false,
      "inputs": [
        {
          "indexed": false,
          "internalType": "address",
          "name": "_depositer",
          "type": "address"
        },
        {
          "indexed": false,
          "internalType": "uint256",
          "name": "_amount",
          "type": "uint256"
        }
      ],
      "name": "AmountDeposited",
      "type": "event"
    },
    {
      "anonymous": false,
      "inputs": [
        {
          "indexed": false,
          "internalType": "uint256",
          "name": "_songID",
          "type": "uint256"
        }
      ],
      "name": "SongPlayed",
      "type": "event"
    },
    {
      "anonymous": false,
      "inputs": [
        {
          "indexed": false,
          "internalType": "address",
          "name": "withdrawee",
          "type": "address"
        },
        {
          "indexed": false,
          "internalType": "uint256",
          "name": "_amount",
          "type": "uint256"
        },
        {
          "indexed": false,
          "internalType": "uint256",
          "name": "current_balance",
          "type": "uint256"
        }
      ],
      "name": "WithdrawalComplete",
      "type": "event"
    },
    {
      "stateMutability": "payable",
      "type": "fallback"
    },
    {
      "inputs": [
        {
          "internalType": "uint256",
          "name": "albumID",
          "type": "uint256"
        }
      ],
      "name": "Buy",
      "outputs": [],
      "stateMutability": "payable",
      "type": "function"
    },
    {
      "inputs": [
        {
          "internalType": "uint256",
          "name": "albumID",
          "type": "uint256"
        },
        {
          "internalType": "uint256",
          "name": "songID",
          "type": "uint256"
        }
      ],
      "name": "Play",
      "outputs": [
        {
          "internalType": "bool",
          "name": "",
          "type": "bool"
        }
      ],
      "stateMutability": "nonpayable",
      "type": "function"
    },
    {
      "inputs": [],
      "name": "RegisterAddress",
      "outputs": [
        {
          "internalType": "bool",
          "name": "",
          "type": "bool"
        }
      ],
      "stateMutability": "nonpayable",
      "type": "function"
    },
    {
      "inputs": [],
      "name": "albumCounter",
      "outputs": [
        {
          "internalType": "uint256",
          "name": "",
          "type": "uint256"
        }
      ],
      "stateMutability": "view",
      "type": "function"
    },
    {
      "inputs": [
        {
          "internalType": "address",
          "name": "",
          "type": "address"
        },
        {
          "internalType": "uint256",
          "name": "",
          "type": "uint256"
        }
      ],
      "name": "albumStats",
      "outputs": [
        {
          "internalType": "uint256",
          "name": "albumID",
          "type": "uint256"
        },
        {
          "internalType": "address",
          "name": "artist",
          "type": "address"
        },
        {
          "internalType": "string",
          "name": "albumName",
          "type": "string"
        },
        {
          "internalType": "uint256",
          "name": "totalAlbumPurchases",
          "type": "uint256"
        },
        {
          "internalType": "uint256",
          "name": "totalSongPlays",
          "type": "uint256"
        }
      ],
      "stateMutability": "view",
      "type": "function"
    },
    {
      "inputs": [],
      "name": "depositBalance",
      "outputs": [],
      "stateMutability": "payable",
      "type": "function"
    },
    {
      "inputs": [],
      "name": "getAlbumOwnership",
      "outputs": [
        {
          "internalType": "bool",
          "name": "",
          "type": "bool"
        }
      ],
      "stateMutability": "view",
      "type": "function"
    },
    {
      "inputs": [],
      "name": "getDepositBalance",
      "outputs": [
        {
          "internalType": "uint256",
          "name": "",
          "type": "uint256"
        }
      ],
      "stateMutability": "view",
      "type": "function"
    },
    {
      "inputs": [
        {
          "internalType": "uint256",
          "name": "songID",
          "type": "uint256"
        }
      ],
      "name": "getPlayCount",
      "outputs": [
        {
          "internalType": "uint256",
          "name": "",
          "type": "uint256"
        }
      ],
      "stateMutability": "view",
      "type": "function"
    },
    {
      "inputs": [
        {
          "internalType": "address",
          "name": "userAddress",
          "type": "address"
        }
      ],
      "name": "getRegisteredAddress",
      "outputs": [
        {
          "internalType": "bool",
          "name": "registration",
          "type": "bool"
        },
        {
          "internalType": "uint256[]",
          "name": "albumsOwned",
          "type": "uint256[]"
        }
      ],
      "stateMutability": "view",
      "type": "function"
    },
    {
      "inputs": [
        {
          "internalType": "uint256",
          "name": "songNumber",
          "type": "uint256"
        }
      ],
      "name": "getSongInfo",
      "outputs": [
        {
          "internalType": "uint256",
          "name": "id",
          "type": "uint256"
        },
        {
          "internalType": "string",
          "name": "title",
          "type": "string"
        },
        {
          "internalType": "uint256",
          "name": "playCount",
          "type": "uint256"
        }
      ],
      "stateMutability": "view",
      "type": "function"
    },
    {
      "inputs": [],
      "name": "getVault",
      "outputs": [
        {
          "internalType": "uint256",
          "name": "",
          "type": "uint256"
        }
      ],
      "stateMutability": "view",
      "type": "function"
    },
    {
      "inputs": [],
      "name": "getVaultAddress",
      "outputs": [
        {
          "internalType": "address",
          "name": "",
          "type": "address"
        }
      ],
      "stateMutability": "view",
      "type": "function"
    },
    {
      "inputs": [],
      "name": "owner",
      "outputs": [
        {
          "internalType": "address",
          "name": "",
          "type": "address"
        }
      ],
      "stateMutability": "view",
      "type": "function"
    },
    {
      "inputs": [
        {
          "internalType": "address",
          "name": "",
          "type": "address"
        }
      ],
      "name": "registeredUsers",
      "outputs": [
        {
          "internalType": "bool",
          "name": "registered",
          "type": "bool"
        }
      ],
      "stateMutability": "view",
      "type": "function"
    },
    {
      "inputs": [
        {
          "internalType": "uint256",
          "name": "",
          "type": "uint256"
        }
      ],
      "name": "songList",
      "outputs": [
        {
          "internalType": "uint256",
          "name": "songID",
          "type": "uint256"
        },
        {
          "internalType": "string",
          "name": "songName",
          "type": "string"
        },
        {
          "internalType": "uint256",
          "name": "playCount",
          "type": "uint256"
        }
      ],
      "stateMutability": "view",
      "type": "function"
    },
    {
      "inputs": [
        {
          "internalType": "uint256",
          "name": "",
          "type": "uint256"
        }
      ],
      "name": "totalSongCount",
      "outputs": [
        {
          "internalType": "uint256",
          "name": "",
          "type": "uint256"
        }
      ],
      "stateMutability": "view",
      "type": "function"
    },
    {
      "inputs": [
        {
          "internalType": "address",
          "name": "",
          "type": "address"
        }
      ],
      "name": "userAlbumPurchase",
      "outputs": [
        {
          "internalType": "bool",
          "name": "",
          "type": "bool"
        }
      ],
      "stateMutability": "view",
      "type": "function"
    },
    {
      "inputs": [
        {
          "internalType": "address",
          "name": "",
          "type": "address"
        }
      ],
      "name": "userPlayBalance",
      "outputs": [
        {
          "internalType": "uint256",
          "name": "",
          "type": "uint256"
        }
      ],
      "stateMutability": "view",
      "type": "function"
    },
    {
      "inputs": [],
      "name": "verifyRegistration",
      "outputs": [
        {
          "internalType": "bool",
          "name": "",
          "type": "bool"
        }
      ],
      "stateMutability": "view",
      "type": "function"
    },
    {
      "inputs": [
        {
          "internalType": "uint256",
          "name": "_amount",
          "type": "uint256"
        }
      ],
      "name": "withdrawBalance",
      "outputs": [
        {
          "internalType": "uint256",
          "name": "",
          "type": "uint256"
        }
      ],
      "stateMutability": "nonpayable",
      "type": "function"
    },
    {
      "stateMutability": "payable",
      "type": "receive"
    }
  ],
  "bytecode": "0x60806040523480156200001157600080fd5b50336000806101000a81548173ffffffffffffffffffffffffffffffffffffffff021916908373ffffffffffffffffffffffffffffffffffffffff160217905550600180819055506040518060600160405280600181526020016040518060400160405280600a81526020017f467574757265436c756200000000000000000000000000000000000000000000815250815260200160008152506003600060018152602001908152602001600020600082015181600001556020820151816001019080519060200190620000e7929190620000fb565b506040820151816002015590505062000210565b8280546200010990620001ab565b90600052602060002090601f0160209004810192826200012d576000855562000179565b82601f106200014857805160ff191683800117855562000179565b8280016001018555821562000179579182015b82811115620001785782518255916020019190600101906200015b565b5b5090506200018891906200018c565b5090565b5b80821115620001a75760008160009055506001016200018d565b5090565b60006002820490506001821680620001c457607f821691505b60208210811415620001db57620001da620001e1565b5b50919050565b7f4e487b7100000000000000000000000000000000000000000000000000000000600052602260045260246000fd5b611c6a80620002206000396000f3fe60806040526004361061012e5760003560e01c80638da5cb5b116100ab578063d799ed1d1161006f578063d799ed1d14610410578063d9e73f3b1461044d578063da76d5cd14610478578063de2ea5dc146104b5578063f6dc26b7146104f4578063f99bf3da1461053257610135565b80638da5cb5b146102ff57806399c794101461032a578063a786eef814610367578063bc3bd4a0146103a8578063bf441060146103e557610135565b80634b64b2e9116100f25780634b64b2e91461023757806361bc1a491461026257806365cacaa41461026c5780636a58b8bd146102975780638d928af8146102d457610135565b80630497de4a146101375780630e50cee5146101625780632e6e190e1461019f5780633a562377146101dc5780633e3282181461021b57610135565b3661013557005b005b34801561014357600080fd5b5061014c61055d565b604051610159919061185d565b60405180910390f35b34801561016e57600080fd5b506101896004803603810190610184919061149e565b6105a4565b6040516101969190611792565b60405180910390f35b3480156101ab57600080fd5b506101c660048036038101906101c1919061152c565b6105cf565b6040516101d39190611792565b60405180910390f35b3480156101e857600080fd5b5061020360048036038101906101fe9190611503565b610839565b604051610212939291906118d2565b60405180910390f35b61023560048036038101906102309190611503565b6108eb565b005b34801561024357600080fd5b5061024c610bb9565b6040516102599190611792565b60405180910390f35b61026a610c28565b005b34801561027857600080fd5b50610281610d26565b60405161028e9190611717565b60405180910390f35b3480156102a357600080fd5b506102be60048036038101906102b9919061149e565b610d2e565b6040516102cb919061185d565b60405180910390f35b3480156102e057600080fd5b506102e9610d46565b6040516102f6919061185d565b60405180910390f35b34801561030b57600080fd5b50610314610d4e565b6040516103219190611717565b60405180910390f35b34801561033657600080fd5b50610351600480360381019061034c9190611503565b610d72565b60405161035e919061185d565b60405180910390f35b34801561037357600080fd5b5061038e600480360381019061038991906114c7565b610d8f565b60405161039f959493929190611878565b60405180910390f35b3480156103b457600080fd5b506103cf60048036038101906103ca919061149e565b610e7a565b6040516103dc9190611792565b60405180910390f35b3480156103f157600080fd5b506103fa610e9a565b6040516104079190611792565b60405180910390f35b34801561041c57600080fd5b5061043760048036038101906104329190611503565b610f06565b604051610444919061185d565b60405180910390f35b34801561045957600080fd5b50610462610f1e565b60405161046f9190611792565b60405180910390f35b34801561048457600080fd5b5061049f600480360381019061049a9190611503565b610fec565b6040516104ac919061185d565b60405180910390f35b3480156104c157600080fd5b506104dc60048036038101906104d79190611503565b61129a565b6040516104eb939291906118d2565b60405180910390f35b34801561050057600080fd5b5061051b6004803603810190610516919061149e565b61137d565b6040516105299291906117ad565b60405180910390f35b34801561053e57600080fd5b5061054761146e565b604051610554919061185d565b60405180910390f35b6000600860003373ffffffffffffffffffffffffffffffffffffffff1673ffffffffffffffffffffffffffffffffffffffff16815260200190815260200160002054905090565b60026020528060005260406000206000915090508060000160009054906101000a900460ff16905081565b600060011515600260003373ffffffffffffffffffffffffffffffffffffffff1673ffffffffffffffffffffffffffffffffffffffff16815260200190815260200160002060000160009054906101000a900460ff1615151461063157600080fd5b6000600860003373ffffffffffffffffffffffffffffffffffffffff1673ffffffffffffffffffffffffffffffffffffffff16815260200190815260200160002054116106b3576040517f08c379a00000000000000000000000000000000000000000000000000000000081526004016106aa9061181d565b60405180910390fd5b6000650130bae7109390506000600460003373ffffffffffffffffffffffffffffffffffffffff1673ffffffffffffffffffffffffffffffffffffffff1681526020019081526020016000206000868152602001908152602001600020600401600085815260200190815260200160002060020154905060006006600086815260200190815260200160002054111561078257808061075190611aa7565b91505060066000858152602001908152602001600020600081548092919061077890611aa7565b91905055506107a0565b60019050600160066000868152602001908152602001600020819055505b81600860003373ffffffffffffffffffffffffffffffffffffffff1673ffffffffffffffffffffffffffffffffffffffff16815260200190815260200160002060008282546107ef91906119c6565b925050819055507fecea63078a56c9792847eee2d98eb57eb9d0e2231fdb3a61e9dfb793849b148884604051610825919061185d565b60405180910390a160019250505092915050565b600360205280600052604060002060009150905080600001549080600101805461086290611a75565b80601f016020809104026020016040519081016040528092919081815260200182805461088e90611a75565b80156108db5780601f106108b0576101008083540402835291602001916108db565b820191906000526020600020905b8154815290600101906020018083116108be57829003601f168201915b5050505050908060020154905083565b60011515600260003373ffffffffffffffffffffffffffffffffffffffff1673ffffffffffffffffffffffffffffffffffffffff16815260200190815260200160002060000160009054906101000a900460ff1615151461094b57600080fd5b600066094ffe72f165fc9050803414610999576040517f08c379a0000000000000000000000000000000000000000000000000000000008152600401610990906117dd565b60405180910390fd5b80600860003373ffffffffffffffffffffffffffffffffffffffff1673ffffffffffffffffffffffffffffffffffffffff16815260200190815260200160002060008282546109e891906119c6565b9250508190555060008060009054906101000a900473ffffffffffffffffffffffffffffffffffffffff1673ffffffffffffffffffffffffffffffffffffffff1682604051610a3690611702565b60006040518083038185875af1925050503d8060008114610a73576040519150601f19603f3d011682016040523d82523d6000602084013e610a78565b606091505b5050905080610abc576040517f08c379a0000000000000000000000000000000000000000000000000000000008152600401610ab3906117fd565b60405180910390fd5b600260003373ffffffffffffffffffffffffffffffffffffffff1673ffffffffffffffffffffffffffffffffffffffff1681526020019081526020016000206001018390806001815401808255809150506001900390600052602060002001600090919091909150556001600760003373ffffffffffffffffffffffffffffffffffffffff1673ffffffffffffffffffffffffffffffffffffffff16815260200190815260200160002060006101000a81548160ff0219169083151502179055507f7a9fe412b28c0e1c114b2e5ad7ee0881e9d26e4e9951b16abc1e1be22135fe4783604051610bac919061185d565b60405180910390a1505050565b600060011515600260003373ffffffffffffffffffffffffffffffffffffffff1673ffffffffffffffffffffffffffffffffffffffff16815260200190815260200160002060000160009054906101000a900460ff1615151415610c205760019050610c25565b600090505b90565b60011515600260003373ffffffffffffffffffffffffffffffffffffffff1673ffffffffffffffffffffffffffffffffffffffff16815260200190815260200160002060000160009054906101000a900460ff16151514610c8857600080fd5b60003411610c9557600080fd5b34600860003373ffffffffffffffffffffffffffffffffffffffff1673ffffffffffffffffffffffffffffffffffffffff1681526020019081526020016000206000828254610ce49190611970565b925050819055507faf31a4a3892de0f8039a2ac1ec5c05b946eaea69190ca344c5e239479b3995c93334604051610d1c929190611732565b60405180910390a1565b600030905090565b60086020528060005260406000206000915090505481565b600047905090565b60008054906101000a900473ffffffffffffffffffffffffffffffffffffffff1681565b600060066000838152602001908152602001600020549050919050565b6004602052816000526040600020602052806000526040600020600091509150508060000154908060010160009054906101000a900473ffffffffffffffffffffffffffffffffffffffff1690806002018054610deb90611a75565b80601f0160208091040260200160405190810160405280929190818152602001828054610e1790611a75565b8015610e645780601f10610e3957610100808354040283529160200191610e64565b820191906000526020600020905b815481529060010190602001808311610e4757829003601f168201915b5050505050908060050154908060060154905085565b60076020528060005260406000206000915054906101000a900460ff1681565b600060011515600760003373ffffffffffffffffffffffffffffffffffffffff1673ffffffffffffffffffffffffffffffffffffffff16815260200190815260200160002060009054906101000a900460ff1615151415610efe5760019050610f03565b600090505b90565b60066020528060005260406000206000915090505481565b60006001600260003373ffffffffffffffffffffffffffffffffffffffff1673ffffffffffffffffffffffffffffffffffffffff16815260200190815260200160002060000160006101000a81548160ff021916908315150217905550600260003373ffffffffffffffffffffffffffffffffffffffff1673ffffffffffffffffffffffffffffffffffffffff168152602001908152602001600020600101600090806001815401808255809150506001900390600052602060002001600090919091909150556001905090565b600060011515600260003373ffffffffffffffffffffffffffffffffffffffff1673ffffffffffffffffffffffffffffffffffffffff16815260200190815260200160002060000160009054906101000a900460ff1615151461104e57600080fd5b6000600860003373ffffffffffffffffffffffffffffffffffffffff1673ffffffffffffffffffffffffffffffffffffffff168152602001908152602001600020548311156110d2576040517f08c379a00000000000000000000000000000000000000000000000000000000081526004016110c99061183d565b60405180910390fd5b82600860003373ffffffffffffffffffffffffffffffffffffffff1673ffffffffffffffffffffffffffffffffffffffff168152602001908152602001600020600082825461112191906119c6565b9250508190555060003373ffffffffffffffffffffffffffffffffffffffff168460405161114e90611702565b60006040518083038185875af1925050503d806000811461118b576040519150601f19603f3d011682016040523d82523d6000602084013e611190565b606091505b50509050806111d4576040517f08c379a00000000000000000000000000000000000000000000000000000000081526004016111cb906117fd565b60405180910390fd5b7fcbc30e520b47f25934e3caa0d827b8cb3e61863b7762ea111ec852fd5c81d8f63385600860003373ffffffffffffffffffffffffffffffffffffffff1673ffffffffffffffffffffffffffffffffffffffff168152602001908152602001600020546040516112469392919061175b565b60405180910390a1600860003373ffffffffffffffffffffffffffffffffffffffff1673ffffffffffffffffffffffffffffffffffffffff1681526020019081526020016000205491508192505050919050565b60006060600060036000858152602001908152602001600020600001546003600086815260200190815260200160002060010160036000878152602001908152602001600020600201548180546112f090611a75565b80601f016020809104026020016040519081016040528092919081815260200182805461131c90611a75565b80156113695780601f1061133e57610100808354040283529160200191611369565b820191906000526020600020905b81548152906001019060200180831161134c57829003601f168201915b505050505091509250925092509193909250565b60006060600260008473ffffffffffffffffffffffffffffffffffffffff1673ffffffffffffffffffffffffffffffffffffffff16815260200190815260200160002060000160009054906101000a900460ff16600260008573ffffffffffffffffffffffffffffffffffffffff1673ffffffffffffffffffffffffffffffffffffffff1681526020019081526020016000206001018080548060200260200160405190810160405280929190818152602001828054801561145e57602002820191906000526020600020905b81548152602001906001019080831161144a575b5050505050905091509150915091565b60015481565b60008135905061148381611c06565b92915050565b60008135905061149881611c1d565b92915050565b6000602082840312156114b057600080fd5b60006114be84828501611474565b91505092915050565b600080604083850312156114da57600080fd5b60006114e885828601611474565b92505060206114f985828601611489565b9150509250929050565b60006020828403121561151557600080fd5b600061152384828501611489565b91505092915050565b6000806040838503121561153f57600080fd5b600061154d85828601611489565b925050602061155e85828601611489565b9150509250929050565b600061157483836116e4565b60208301905092915050565b611589816119fa565b82525050565b600061159a82611920565b6115a48185611943565b93506115af83611910565b8060005b838110156115e05781516115c78882611568565b97506115d283611936565b9250506001810190506115b3565b5085935050505092915050565b6115f681611a0c565b82525050565b60006116078261192b565b611611818561195f565b9350611621818560208601611a42565b61162a81611b4e565b840191505092915050565b6000611642600d8361195f565b915061164d82611b5f565b602082019050919050565b600061166560148361195f565b915061167082611b88565b602082019050919050565b600061168860158361195f565b915061169382611bb1565b602082019050919050565b60006116ab600083611954565b91506116b682611bda565b600082019050919050565b60006116ce60108361195f565b91506116d982611bdd565b602082019050919050565b6116ed81611a38565b82525050565b6116fc81611a38565b82525050565b600061170d8261169e565b9150819050919050565b600060208201905061172c6000830184611580565b92915050565b60006040820190506117476000830185611580565b61175460208301846116f3565b9392505050565b60006060820190506117706000830186611580565b61177d60208301856116f3565b61178a60408301846116f3565b949350505050565b60006020820190506117a760008301846115ed565b92915050565b60006040820190506117c260008301856115ed565b81810360208301526117d4818461158f565b90509392505050565b600060208201905081810360008301526117f681611635565b9050919050565b6000602082019050818103600083015261181681611658565b9050919050565b600060208201905081810360008301526118368161167b565b9050919050565b60006020820190508181036000830152611856816116c1565b9050919050565b600060208201905061187260008301846116f3565b92915050565b600060a08201905061188d60008301886116f3565b61189a6020830187611580565b81810360408301526118ac81866115fc565b90506118bb60608301856116f3565b6118c860808301846116f3565b9695505050505050565b60006060820190506118e760008301866116f3565b81810360208301526118f981856115fc565b905061190860408301846116f3565b949350505050565b6000819050602082019050919050565b600081519050919050565b600081519050919050565b6000602082019050919050565b600082825260208201905092915050565b600081905092915050565b600082825260208201905092915050565b600061197b82611a38565b915061198683611a38565b9250827fffffffffffffffffffffffffffffffffffffffffffffffffffffffffffffffff038211156119bb576119ba611af0565b5b828201905092915050565b60006119d182611a38565b91506119dc83611a38565b9250828210156119ef576119ee611af0565b5b828203905092915050565b6000611a0582611a18565b9050919050565b60008115159050919050565b600073ffffffffffffffffffffffffffffffffffffffff82169050919050565b6000819050919050565b60005b83811015611a60578082015181840152602081019050611a45565b83811115611a6f576000848401525b50505050565b60006002820490506001821680611a8d57607f821691505b60208210811415611aa157611aa0611b1f565b5b50919050565b6000611ab282611a38565b91507fffffffffffffffffffffffffffffffffffffffffffffffffffffffffffffffff821415611ae557611ae4611af0565b5b600182019050919050565b7f4e487b7100000000000000000000000000000000000000000000000000000000600052601160045260246000fd5b7f4e487b7100000000000000000000000000000000000000000000000000000000600052602260045260246000fd5b6000601f19601f8301169050919050565b7f707269636520746f6f206c6f7700000000000000000000000000000000000000600082015250565b7f4661696c656420746f2073656e64204574686572000000000000000000000000600082015250565b7f6465706f7369742065746820746f206c697374656e0000000000000000000000600082015250565b50565b7f6e6f7420656e6f7567682076616c756500000000000000000000000000000000600082015250565b611c0f816119fa565b8114611c1a57600080fd5b50565b611c2681611a38565b8114611c3157600080fd5b5056fea2646970667358221220eb5532fbf82dbf8e17b829972cf2591be24063eb90c4ce252b065b776cf7680e64736f6c63430008040033",
  "linkReferences": {},
  "deployedLinkReferences": {}
}