{
  "_format": "hh-sol-artifact-1",
  "contractName": "UserInteraction",
  "sourceName": "contracts/UserInteraction.sol",
  "abi": [
    {
      "anonymous": false,
      "inputs": [
        {
          "indexed": false,
          "internalType": "uint256",
          "name": "_albumID",
          "type": "uint256"
        }
      ],
      "name": "AlbumPurchased",
      "type": "event"
    },
    {
      "anonymous": false,
      "inputs": [
        {
          "indexed": false,
          "internalType": "address",
          "name": "_depositer",
          "type": "address"
        },
        {
          "indexed": false,
          "internalType": "uint256",
          "name": "_amount",
          "type": "uint256"
        }
      ],
      "name": "AmountDeposited",
      "type": "event"
    },
    {
      "anonymous": false,
      "inputs": [
        {
          "indexed": false,
          "internalType": "uint256",
          "name": "_songID",
          "type": "uint256"
        }
      ],
      "name": "SongPlayed",
      "type": "event"
    },
    {
      "anonymous": false,
      "inputs": [
        {
          "indexed": false,
          "internalType": "address",
          "name": "withdrawee",
          "type": "address"
        },
        {
          "indexed": false,
          "internalType": "uint256",
          "name": "_amount",
          "type": "uint256"
        },
        {
          "indexed": false,
          "internalType": "uint256",
          "name": "current_balance",
          "type": "uint256"
        }
      ],
      "name": "WithdrawalComplete",
      "type": "event"
    },
    {
      "stateMutability": "payable",
      "type": "fallback"
    },
    {
      "inputs": [
        {
          "internalType": "uint256",
          "name": "albumID",
          "type": "uint256"
        }
      ],
      "name": "Buy",
      "outputs": [],
      "stateMutability": "payable",
      "type": "function"
    },
    {
      "inputs": [
        {
          "internalType": "uint256",
          "name": "albumID",
          "type": "uint256"
        },
        {
          "internalType": "uint256",
          "name": "songID",
          "type": "uint256"
        }
      ],
      "name": "Play",
      "outputs": [
        {
          "internalType": "bool",
          "name": "",
          "type": "bool"
        }
      ],
      "stateMutability": "nonpayable",
      "type": "function"
    },
    {
      "inputs": [],
      "name": "RegisterAddress",
      "outputs": [
        {
          "internalType": "bool",
          "name": "",
          "type": "bool"
        }
      ],
      "stateMutability": "nonpayable",
      "type": "function"
    },
    {
      "inputs": [
        {
          "internalType": "uint256",
          "name": "",
          "type": "uint256"
        }
      ],
      "name": "albumDirectory",
      "outputs": [
        {
          "internalType": "uint256",
          "name": "albumID",
          "type": "uint256"
        },
        {
          "internalType": "address",
          "name": "artist",
          "type": "address"
        },
        {
          "internalType": "string",
          "name": "albumName",
          "type": "string"
        },
        {
          "internalType": "uint256",
          "name": "totalAlbumPurchases",
          "type": "uint256"
        },
        {
          "internalType": "uint256",
          "name": "totalSongPlays",
          "type": "uint256"
        }
      ],
      "stateMutability": "view",
      "type": "function"
    },
    {
      "inputs": [
        {
          "internalType": "address",
          "name": "",
          "type": "address"
        },
        {
          "internalType": "uint256",
          "name": "",
          "type": "uint256"
        }
      ],
      "name": "albumStats",
      "outputs": [
        {
          "internalType": "uint256",
          "name": "albumID",
          "type": "uint256"
        },
        {
          "internalType": "address",
          "name": "artist",
          "type": "address"
        },
        {
          "internalType": "string",
          "name": "albumName",
          "type": "string"
        },
        {
          "internalType": "uint256",
          "name": "totalAlbumPurchases",
          "type": "uint256"
        },
        {
          "internalType": "uint256",
          "name": "totalSongPlays",
          "type": "uint256"
        }
      ],
      "stateMutability": "view",
      "type": "function"
    },
    {
      "inputs": [],
      "name": "depositBalance",
      "outputs": [],
      "stateMutability": "payable",
      "type": "function"
    },
    {
      "inputs": [],
      "name": "getAlbumOwnership",
      "outputs": [
        {
          "internalType": "bool",
          "name": "",
          "type": "bool"
        }
      ],
      "stateMutability": "view",
      "type": "function"
    },
    {
      "inputs": [],
      "name": "getDepositBalance",
      "outputs": [
        {
          "internalType": "uint256",
          "name": "",
          "type": "uint256"
        }
      ],
      "stateMutability": "view",
      "type": "function"
    },
    {
      "inputs": [
        {
          "internalType": "uint256",
          "name": "songID",
          "type": "uint256"
        }
      ],
      "name": "getPlayCount",
      "outputs": [
        {
          "internalType": "uint256",
          "name": "",
          "type": "uint256"
        }
      ],
      "stateMutability": "view",
      "type": "function"
    },
    {
      "inputs": [
        {
          "internalType": "address",
          "name": "userAddress",
          "type": "address"
        }
      ],
      "name": "getRegisteredAddress",
      "outputs": [
        {
          "internalType": "bool",
          "name": "",
          "type": "bool"
        }
      ],
      "stateMutability": "view",
      "type": "function"
    },
    {
      "inputs": [],
      "name": "getVault",
      "outputs": [
        {
          "internalType": "uint256",
          "name": "",
          "type": "uint256"
        }
      ],
      "stateMutability": "view",
      "type": "function"
    },
    {
      "inputs": [],
      "name": "getVaultAddress",
      "outputs": [
        {
          "internalType": "address",
          "name": "",
          "type": "address"
        }
      ],
      "stateMutability": "view",
      "type": "function"
    },
    {
      "inputs": [],
      "name": "owner",
      "outputs": [
        {
          "internalType": "address",
          "name": "",
          "type": "address"
        }
      ],
      "stateMutability": "view",
      "type": "function"
    },
    {
      "inputs": [
        {
          "internalType": "address",
          "name": "",
          "type": "address"
        }
      ],
      "name": "registeredArtists",
      "outputs": [
        {
          "internalType": "bool",
          "name": "registered",
          "type": "bool"
        },
        {
          "internalType": "uint256",
          "name": "totalAlbumSales",
          "type": "uint256"
        },
        {
          "internalType": "uint256",
          "name": "totalSongPlays",
          "type": "uint256"
        }
      ],
      "stateMutability": "view",
      "type": "function"
    },
    {
      "inputs": [
        {
          "internalType": "address",
          "name": "",
          "type": "address"
        }
      ],
      "name": "registeredUsers",
      "outputs": [
        {
          "internalType": "bool",
          "name": "registered",
          "type": "bool"
        }
      ],
      "stateMutability": "view",
      "type": "function"
    },
    {
      "inputs": [
        {
          "internalType": "uint256",
          "name": "",
          "type": "uint256"
        }
      ],
      "name": "totalSongCount",
      "outputs": [
        {
          "internalType": "uint256",
          "name": "",
          "type": "uint256"
        }
      ],
      "stateMutability": "view",
      "type": "function"
    },
    {
      "inputs": [
        {
          "internalType": "address",
          "name": "",
          "type": "address"
        }
      ],
      "name": "userAlbumPurchase",
      "outputs": [
        {
          "internalType": "bool",
          "name": "",
          "type": "bool"
        }
      ],
      "stateMutability": "view",
      "type": "function"
    },
    {
      "inputs": [
        {
          "internalType": "address",
          "name": "",
          "type": "address"
        }
      ],
      "name": "userPlayBalance",
      "outputs": [
        {
          "internalType": "uint256",
          "name": "",
          "type": "uint256"
        }
      ],
      "stateMutability": "view",
      "type": "function"
    },
    {
      "inputs": [],
      "name": "verifyRegistration",
      "outputs": [
        {
          "internalType": "bool",
          "name": "",
          "type": "bool"
        }
      ],
      "stateMutability": "view",
      "type": "function"
    },
    {
      "inputs": [
        {
          "internalType": "uint256",
          "name": "_amount",
          "type": "uint256"
        }
      ],
      "name": "withdrawBalance",
      "outputs": [],
      "stateMutability": "nonpayable",
      "type": "function"
    },
    {
      "stateMutability": "payable",
      "type": "receive"
    }
  ],
  "bytecode": "0x608060405234801561001057600080fd5b50336000806101000a81548173ffffffffffffffffffffffffffffffffffffffff021916908373ffffffffffffffffffffffffffffffffffffffff1602179055506118ff806100606000396000f3fe6080604052600436106101235760003560e01c80638da5cb5b116100a0578063d799ed1d11610064578063d799ed1d14610407578063d9e73f3b14610444578063da76d5cd1461046f578063f558369f14610498578063f6dc26b7146104d75761012a565b80638da5cb5b146102f657806399c7941014610321578063a786eef81461035e578063bc3bd4a01461039f578063bf441060146103dc5761012a565b80635ade5020116100e75780635ade50201461021857806361bc1a491461025957806365cacaa4146102635780636a58b8bd1461028e5780638d928af8146102cb5761012a565b80630497de4a1461012c5780630e50cee5146101575780632e6e190e146101945780633e328218146101d15780634b64b2e9146101ed5761012a565b3661012a57005b005b34801561013857600080fd5b50610141610514565b60405161014e9190611569565b60405180910390f35b34801561016357600080fd5b5061017e60048036038101906101799190611228565b61055b565b60405161018b9190611497565b60405180910390f35b3480156101a057600080fd5b506101bb60048036038101906101b691906112b6565b610586565b6040516101c89190611497565b60405180910390f35b6101eb60048036038101906101e6919061128d565b6107f0565b005b3480156101f957600080fd5b50610202610a68565b60405161020f9190611497565b60405180910390f35b34801561022457600080fd5b5061023f600480360381019061023a919061128d565b610ad7565b604051610250959493929190611584565b60405180910390f35b610261610bb5565b005b34801561026f57600080fd5b50610278610cb3565b604051610285919061141c565b60405180910390f35b34801561029a57600080fd5b506102b560048036038101906102b09190611228565b610cbb565b6040516102c29190611569565b60405180910390f35b3480156102d757600080fd5b506102e0610cd3565b6040516102ed9190611569565b60405180910390f35b34801561030257600080fd5b5061030b610cdb565b604051610318919061141c565b60405180910390f35b34801561032d57600080fd5b506103486004803603810190610343919061128d565b610cff565b6040516103559190611569565b60405180910390f35b34801561036a57600080fd5b5061038560048036038101906103809190611251565b610d1c565b604051610396959493929190611584565b60405180910390f35b3480156103ab57600080fd5b506103c660048036038101906103c19190611228565b610e07565b6040516103d39190611497565b60405180910390f35b3480156103e857600080fd5b506103f1610e27565b6040516103fe9190611497565b60405180910390f35b34801561041357600080fd5b5061042e6004803603810190610429919061128d565b610e93565b60405161043b9190611569565b60405180910390f35b34801561045057600080fd5b50610459610eab565b6040516104669190611497565b60405180910390f35b34801561047b57600080fd5b506104966004803603810190610491919061128d565b610f0c565b005b3480156104a457600080fd5b506104bf60048036038101906104ba9190611228565b61116e565b6040516104ce939291906114b2565b60405180910390f35b3480156104e357600080fd5b506104fe60048036038101906104f99190611228565b6111a5565b60405161050b9190611497565b60405180910390f35b6000600a60003373ffffffffffffffffffffffffffffffffffffffff1673ffffffffffffffffffffffffffffffffffffffff16815260200190815260200160002054905090565b60036020528060005260406000206000915090508060000160009054906101000a900460ff16905081565b600060011515600360003373ffffffffffffffffffffffffffffffffffffffff1673ffffffffffffffffffffffffffffffffffffffff16815260200190815260200160002060000160009054906101000a900460ff161515146105e857600080fd5b6000600a60003373ffffffffffffffffffffffffffffffffffffffff1673ffffffffffffffffffffffffffffffffffffffff168152602001908152602001600020541161066a576040517f08c379a000000000000000000000000000000000000000000000000000000000815260040161066190611529565b60405180910390fd5b6000650130bae7109390506000600660003373ffffffffffffffffffffffffffffffffffffffff1673ffffffffffffffffffffffffffffffffffffffff168152602001908152602001600020600086815260200190815260200160002060040160008581526020019081526020016000206003015490506000600860008681526020019081526020016000205411156107395780806107089061173c565b91505060086000858152602001908152602001600020600081548092919061072f9061173c565b9190505550610757565b60019050600160086000868152602001908152602001600020819055505b81600a60003373ffffffffffffffffffffffffffffffffffffffff1673ffffffffffffffffffffffffffffffffffffffff16815260200190815260200160002060008282546107a6919061165b565b925050819055507fecea63078a56c9792847eee2d98eb57eb9d0e2231fdb3a61e9dfb793849b1488846040516107dc9190611569565b60405180910390a160019250505092915050565b60011515600360003373ffffffffffffffffffffffffffffffffffffffff1673ffffffffffffffffffffffffffffffffffffffff16815260200190815260200160002060000160009054906101000a900460ff1615151461085057600080fd5b600066094ffe72f165fc905080341461089e576040517f08c379a0000000000000000000000000000000000000000000000000000000008152600401610895906114e9565b60405180910390fd5b60008060009054906101000a900473ffffffffffffffffffffffffffffffffffffffff1673ffffffffffffffffffffffffffffffffffffffff16826040516108e590611407565b60006040518083038185875af1925050503d8060008114610922576040519150601f19603f3d011682016040523d82523d6000602084013e610927565b606091505b505090508061096b576040517f08c379a000000000000000000000000000000000000000000000000000000000815260040161096290611509565b60405180910390fd5b600360003373ffffffffffffffffffffffffffffffffffffffff1673ffffffffffffffffffffffffffffffffffffffff1681526020019081526020016000206001018390806001815401808255809150506001900390600052602060002001600090919091909150556001600960003373ffffffffffffffffffffffffffffffffffffffff1673ffffffffffffffffffffffffffffffffffffffff16815260200190815260200160002060006101000a81548160ff0219169083151502179055507f7a9fe412b28c0e1c114b2e5ad7ee0881e9d26e4e9951b16abc1e1be22135fe4783604051610a5b9190611569565b60405180910390a1505050565b600060011515600360003373ffffffffffffffffffffffffffffffffffffffff1673ffffffffffffffffffffffffffffffffffffffff16815260200190815260200160002060000160009054906101000a900460ff1615151415610acf5760019050610ad4565b600090505b90565b60056020528060005260406000206000915090508060000154908060010160009054906101000a900473ffffffffffffffffffffffffffffffffffffffff1690806002018054610b269061170a565b80601f0160208091040260200160405190810160405280929190818152602001828054610b529061170a565b8015610b9f5780601f10610b7457610100808354040283529160200191610b9f565b820191906000526020600020905b815481529060010190602001808311610b8257829003601f168201915b5050505050908060050154908060060154905085565b60011515600360003373ffffffffffffffffffffffffffffffffffffffff1673ffffffffffffffffffffffffffffffffffffffff16815260200190815260200160002060000160009054906101000a900460ff16151514610c1557600080fd5b60003411610c2257600080fd5b34600a60003373ffffffffffffffffffffffffffffffffffffffff1673ffffffffffffffffffffffffffffffffffffffff1681526020019081526020016000206000828254610c719190611605565b925050819055507faf31a4a3892de0f8039a2ac1ec5c05b946eaea69190ca344c5e239479b3995c93334604051610ca9929190611437565b60405180910390a1565b600030905090565b600a6020528060005260406000206000915090505481565b600047905090565b60008054906101000a900473ffffffffffffffffffffffffffffffffffffffff1681565b600060086000838152602001908152602001600020549050919050565b6006602052816000526040600020602052806000526040600020600091509150508060000154908060010160009054906101000a900473ffffffffffffffffffffffffffffffffffffffff1690806002018054610d789061170a565b80601f0160208091040260200160405190810160405280929190818152602001828054610da49061170a565b8015610df15780601f10610dc657610100808354040283529160200191610df1565b820191906000526020600020905b815481529060010190602001808311610dd457829003601f168201915b5050505050908060050154908060060154905085565b60096020528060005260406000206000915054906101000a900460ff1681565b600060011515600960003373ffffffffffffffffffffffffffffffffffffffff1673ffffffffffffffffffffffffffffffffffffffff16815260200190815260200160002060009054906101000a900460ff1615151415610e8b5760019050610e90565b600090505b90565b60086020528060005260406000206000915090505481565b60006001600360003373ffffffffffffffffffffffffffffffffffffffff1673ffffffffffffffffffffffffffffffffffffffff16815260200190815260200160002060000160006101000a81548160ff0219169083151502179055905090565b60011515600360003373ffffffffffffffffffffffffffffffffffffffff1673ffffffffffffffffffffffffffffffffffffffff16815260200190815260200160002060000160009054906101000a900460ff16151514610f6c57600080fd5b600a60003373ffffffffffffffffffffffffffffffffffffffff1673ffffffffffffffffffffffffffffffffffffffff16815260200190815260200160002054811115610fee576040517f08c379a0000000000000000000000000000000000000000000000000000000008152600401610fe590611549565b60405180910390fd5b80600a60003373ffffffffffffffffffffffffffffffffffffffff1673ffffffffffffffffffffffffffffffffffffffff168152602001908152602001600020600082825461103d919061165b565b9250508190555060003373ffffffffffffffffffffffffffffffffffffffff168260405161106a90611407565b60006040518083038185875af1925050503d80600081146110a7576040519150601f19603f3d011682016040523d82523d6000602084013e6110ac565b606091505b50509050806110f0576040517f08c379a00000000000000000000000000000000000000000000000000000000081526004016110e790611509565b60405180910390fd5b7fcbc30e520b47f25934e3caa0d827b8cb3e61863b7762ea111ec852fd5c81d8f63383600a60003373ffffffffffffffffffffffffffffffffffffffff1673ffffffffffffffffffffffffffffffffffffffff1681526020019081526020016000205460405161116293929190611460565b60405180910390a15050565b60046020528060005260406000206000915090508060000160009054906101000a900460ff16908060020154908060030154905083565b6000600360008373ffffffffffffffffffffffffffffffffffffffff1673ffffffffffffffffffffffffffffffffffffffff16815260200190815260200160002060000160009054906101000a900460ff169050919050565b60008135905061120d8161189b565b92915050565b600081359050611222816118b2565b92915050565b60006020828403121561123a57600080fd5b6000611248848285016111fe565b91505092915050565b6000806040838503121561126457600080fd5b6000611272858286016111fe565b925050602061128385828601611213565b9150509250929050565b60006020828403121561129f57600080fd5b60006112ad84828501611213565b91505092915050565b600080604083850312156112c957600080fd5b60006112d785828601611213565b92505060206112e885828601611213565b9150509250929050565b6112fb8161168f565b82525050565b61130a816116a1565b82525050565b600061131b826115de565b61132581856115f4565b93506113358185602086016116d7565b61133e816117e3565b840191505092915050565b6000611356600d836115f4565b9150611361826117f4565b602082019050919050565b60006113796014836115f4565b91506113848261181d565b602082019050919050565b600061139c6015836115f4565b91506113a782611846565b602082019050919050565b60006113bf6000836115e9565b91506113ca8261186f565b600082019050919050565b60006113e26010836115f4565b91506113ed82611872565b602082019050919050565b611401816116cd565b82525050565b6000611412826113b2565b9150819050919050565b600060208201905061143160008301846112f2565b92915050565b600060408201905061144c60008301856112f2565b61145960208301846113f8565b9392505050565b600060608201905061147560008301866112f2565b61148260208301856113f8565b61148f60408301846113f8565b949350505050565b60006020820190506114ac6000830184611301565b92915050565b60006060820190506114c76000830186611301565b6114d460208301856113f8565b6114e160408301846113f8565b949350505050565b6000602082019050818103600083015261150281611349565b9050919050565b600060208201905081810360008301526115228161136c565b9050919050565b600060208201905081810360008301526115428161138f565b9050919050565b60006020820190508181036000830152611562816113d5565b9050919050565b600060208201905061157e60008301846113f8565b92915050565b600060a08201905061159960008301886113f8565b6115a660208301876112f2565b81810360408301526115b88186611310565b90506115c760608301856113f8565b6115d460808301846113f8565b9695505050505050565b600081519050919050565b600081905092915050565b600082825260208201905092915050565b6000611610826116cd565b915061161b836116cd565b9250827fffffffffffffffffffffffffffffffffffffffffffffffffffffffffffffffff038211156116505761164f611785565b5b828201905092915050565b6000611666826116cd565b9150611671836116cd565b92508282101561168457611683611785565b5b828203905092915050565b600061169a826116ad565b9050919050565b60008115159050919050565b600073ffffffffffffffffffffffffffffffffffffffff82169050919050565b6000819050919050565b60005b838110156116f55780820151818401526020810190506116da565b83811115611704576000848401525b50505050565b6000600282049050600182168061172257607f821691505b60208210811415611736576117356117b4565b5b50919050565b6000611747826116cd565b91507fffffffffffffffffffffffffffffffffffffffffffffffffffffffffffffffff82141561177a57611779611785565b5b600182019050919050565b7f4e487b7100000000000000000000000000000000000000000000000000000000600052601160045260246000fd5b7f4e487b7100000000000000000000000000000000000000000000000000000000600052602260045260246000fd5b6000601f19601f8301169050919050565b7f707269636520746f6f206c6f7700000000000000000000000000000000000000600082015250565b7f4661696c656420746f2073656e64204574686572000000000000000000000000600082015250565b7f6465706f7369742065746820746f206c697374656e0000000000000000000000600082015250565b50565b7f6e6f7420656e6f7567682076616c756500000000000000000000000000000000600082015250565b6118a48161168f565b81146118af57600080fd5b50565b6118bb816116cd565b81146118c657600080fd5b5056fea26469706673582212200fd3de1d9be0e88eb1a307948b71d94794267c7cdca3eccba7779650fbb4a4cf64736f6c63430008040033",
  "linkReferences": {},
  "deployedLinkReferences": {}
}