{
  "_format": "hh-sol-artifact-1",
  "contractName": "RootContract",
  "sourceName": "contracts/RootContract.sol",
  "abi": [
    {
      "inputs": [],
      "stateMutability": "nonpayable",
      "type": "constructor"
    },
    {
      "anonymous": false,
      "inputs": [
        {
          "indexed": false,
          "internalType": "address",
          "name": "registree",
          "type": "address"
        },
        {
          "indexed": false,
          "internalType": "bool",
          "name": "registered",
          "type": "bool"
        }
      ],
      "name": "UserRegistered",
      "type": "event"
    },
    {
      "stateMutability": "payable",
      "type": "fallback"
    },
    {
      "inputs": [],
      "name": "RegisterAddress",
      "outputs": [
        {
          "internalType": "bool",
          "name": "",
          "type": "bool"
        }
      ],
      "stateMutability": "nonpayable",
      "type": "function"
    },
    {
      "inputs": [],
      "name": "albumCounter",
      "outputs": [
        {
          "internalType": "uint256",
          "name": "",
          "type": "uint256"
        }
      ],
      "stateMutability": "view",
      "type": "function"
    },
    {
      "inputs": [
        {
          "internalType": "address",
          "name": "",
          "type": "address"
        },
        {
          "internalType": "uint256",
          "name": "",
          "type": "uint256"
        }
      ],
      "name": "albumStats",
      "outputs": [
        {
          "internalType": "uint256",
          "name": "albumID",
          "type": "uint256"
        },
        {
          "internalType": "address",
          "name": "artist",
          "type": "address"
        },
        {
          "internalType": "string",
          "name": "albumName",
          "type": "string"
        },
        {
          "internalType": "uint256",
          "name": "totalAlbumPurchases",
          "type": "uint256"
        },
        {
          "internalType": "uint256",
          "name": "totalSongPlays",
          "type": "uint256"
        }
      ],
      "stateMutability": "view",
      "type": "function"
    },
    {
      "inputs": [
        {
          "internalType": "address",
          "name": "userAddress",
          "type": "address"
        }
      ],
      "name": "getRegisteredAddress",
      "outputs": [
        {
          "internalType": "bool",
          "name": "registration",
          "type": "bool"
        },
        {
          "internalType": "uint256[]",
          "name": "albumsOwned",
          "type": "uint256[]"
        }
      ],
      "stateMutability": "view",
      "type": "function"
    },
    {
      "inputs": [
        {
          "internalType": "uint256",
          "name": "songNumber",
          "type": "uint256"
        }
      ],
      "name": "getSongInfo",
      "outputs": [
        {
          "internalType": "uint256",
          "name": "id",
          "type": "uint256"
        },
        {
          "internalType": "string",
          "name": "title",
          "type": "string"
        },
        {
          "internalType": "uint256",
          "name": "playCount",
          "type": "uint256"
        }
      ],
      "stateMutability": "view",
      "type": "function"
    },
    {
      "inputs": [],
      "name": "owner",
      "outputs": [
        {
          "internalType": "address",
          "name": "",
          "type": "address"
        }
      ],
      "stateMutability": "view",
      "type": "function"
    },
    {
      "inputs": [
        {
          "internalType": "address",
          "name": "",
          "type": "address"
        }
      ],
      "name": "registeredUsers",
      "outputs": [
        {
          "internalType": "bool",
          "name": "registered",
          "type": "bool"
        }
      ],
      "stateMutability": "view",
      "type": "function"
    },
    {
      "inputs": [
        {
          "internalType": "uint256",
          "name": "",
          "type": "uint256"
        }
      ],
      "name": "songList",
      "outputs": [
        {
          "internalType": "uint256",
          "name": "songID",
          "type": "uint256"
        },
        {
          "internalType": "string",
          "name": "songName",
          "type": "string"
        },
        {
          "internalType": "uint256",
          "name": "playCount",
          "type": "uint256"
        }
      ],
      "stateMutability": "view",
      "type": "function"
    },
    {
      "inputs": [],
      "name": "verifyRegistration",
      "outputs": [
        {
          "internalType": "bool",
          "name": "",
          "type": "bool"
        }
      ],
      "stateMutability": "view",
      "type": "function"
    },
    {
      "stateMutability": "payable",
      "type": "receive"
    }
  ],
  "bytecode": "0x60806040523480156200001157600080fd5b50600160008190555033600160006101000a81548173ffffffffffffffffffffffffffffffffffffffff021916908373ffffffffffffffffffffffffffffffffffffffff16021790555060016002819055506040518060600160405280600181526020016040518060400160405280600b81526020017f5368656e616e6967616e730000000000000000000000000000000000000000008152508152602001600081525060046000808152602001908152602001600020600082015181600001556020820151816001019080519060200190620000f09291906200023c565b50604082015181600201559050506040518060600160405280600281526020016040518060400160405280600c81526020017f496e7465724477656c6c657200000000000000000000000000000000000000008152508152602001600081525060046000600181526020019081526020016000206000820151816000015560208201518160010190805190602001906200018c9291906200023c565b50604082015181600201559050506040518060600160405280600381526020016040518060400160405280600981526020017f4c612053746f7269610000000000000000000000000000000000000000000000815250815260200160008152506004600060028152602001908152602001600020600082015181600001556020820151816001019080519060200190620002289291906200023c565b506040820151816002015590505062000351565b8280546200024a906200031b565b90600052602060002090601f0160209004810192826200026e5760008555620002ba565b82601f106200028957805160ff1916838001178555620002ba565b82800160010185558215620002ba579182015b82811115620002b95782518255916020019190600101906200029c565b5b509050620002c99190620002cd565b5090565b5b80821115620002e8576000816000905550600101620002ce565b5090565b7f4e487b7100000000000000000000000000000000000000000000000000000000600052602260045260246000fd5b600060028204905060018216806200033457607f821691505b602082108114156200034b576200034a620002ec565b5b50919050565b610c5480620003616000396000f3fe60806040526004361061008a5760003560e01c8063a786eef811610059578063a786eef814610165578063d9e73f3b146101a6578063de2ea5dc146101d1578063f6dc26b714610210578063f99bf3da1461024e57610091565b80630e50cee5146100935780633a562377146100d05780634b64b2e91461010f5780638da5cb5b1461013a57610091565b3661009157005b005b34801561009f57600080fd5b506100ba60048036038101906100b5919061081b565b610279565b6040516100c79190610863565b60405180910390f35b3480156100dc57600080fd5b506100f760048036038101906100f291906108b4565b6102a4565b60405161010693929190610989565b60405180910390f35b34801561011b57600080fd5b50610124610356565b6040516101319190610863565b60405180910390f35b34801561014657600080fd5b5061014f6103c5565b60405161015c91906109d6565b60405180910390f35b34801561017157600080fd5b5061018c600480360381019061018791906109f1565b6103eb565b60405161019d959493929190610a31565b60405180910390f35b3480156101b257600080fd5b506101bb6104d6565b6040516101c89190610863565b60405180910390f35b3480156101dd57600080fd5b506101f860048036038101906101f391906108b4565b6105de565b60405161020793929190610989565b60405180910390f35b34801561021c57600080fd5b506102376004803603810190610232919061081b565b6106c1565b604051610245929190610b49565b60405180910390f35b34801561025a57600080fd5b506102636107b2565b6040516102709190610b79565b60405180910390f35b60036020528060005260406000206000915090508060000160009054906101000a900460ff16905081565b60046020528060005260406000206000915090508060000154908060010180546102cd90610bc3565b80601f01602080910402602001604051908101604052809291908181526020018280546102f990610bc3565b80156103465780601f1061031b57610100808354040283529160200191610346565b820191906000526020600020905b81548152906001019060200180831161032957829003601f168201915b5050505050908060020154905083565b600060011515600360003373ffffffffffffffffffffffffffffffffffffffff1673ffffffffffffffffffffffffffffffffffffffff16815260200190815260200160002060000160009054906101000a900460ff16151514156103bd57600190506103c2565b600090505b90565b600160009054906101000a900473ffffffffffffffffffffffffffffffffffffffff1681565b6005602052816000526040600020602052806000526040600020600091509150508060000154908060010160009054906101000a900473ffffffffffffffffffffffffffffffffffffffff169080600201805461044790610bc3565b80601f016020809104026020016040519081016040528092919081815260200182805461047390610bc3565b80156104c05780601f10610495576101008083540402835291602001916104c0565b820191906000526020600020905b8154815290600101906020018083116104a357829003601f168201915b5050505050908060050154908060060154905085565b60006001600360003373ffffffffffffffffffffffffffffffffffffffff1673ffffffffffffffffffffffffffffffffffffffff16815260200190815260200160002060000160006101000a81548160ff021916908315150217905550600360003373ffffffffffffffffffffffffffffffffffffffff1673ffffffffffffffffffffffffffffffffffffffff168152602001908152602001600020600101600090806001815401808255809150506001900390600052602060002001600090919091909150557f28a24a60e275c9be5babc23ecefd3240b1fcd56ef4d3fe4818437200b55ae5ff3360016040516105cf929190610bf5565b60405180910390a16001905090565b600060606000600460008581526020019081526020016000206000015460046000868152602001908152602001600020600101600460008781526020019081526020016000206002015481805461063490610bc3565b80601f016020809104026020016040519081016040528092919081815260200182805461066090610bc3565b80156106ad5780601f10610682576101008083540402835291602001916106ad565b820191906000526020600020905b81548152906001019060200180831161069057829003601f168201915b505050505091509250925092509193909250565b60006060600360008473ffffffffffffffffffffffffffffffffffffffff1673ffffffffffffffffffffffffffffffffffffffff16815260200190815260200160002060000160009054906101000a900460ff16600360008573ffffffffffffffffffffffffffffffffffffffff1673ffffffffffffffffffffffffffffffffffffffff168152602001908152602001600020600101808054806020026020016040519081016040528092919081815260200182805480156107a257602002820191906000526020600020905b81548152602001906001019080831161078e575b5050505050905091509150915091565b60025481565b600080fd5b600073ffffffffffffffffffffffffffffffffffffffff82169050919050565b60006107e8826107bd565b9050919050565b6107f8816107dd565b811461080357600080fd5b50565b600081359050610815816107ef565b92915050565b600060208284031215610831576108306107b8565b5b600061083f84828501610806565b91505092915050565b60008115159050919050565b61085d81610848565b82525050565b60006020820190506108786000830184610854565b92915050565b6000819050919050565b6108918161087e565b811461089c57600080fd5b50565b6000813590506108ae81610888565b92915050565b6000602082840312156108ca576108c96107b8565b5b60006108d88482850161089f565b91505092915050565b6108ea8161087e565b82525050565b600081519050919050565b600082825260208201905092915050565b60005b8381101561092a57808201518184015260208101905061090f565b83811115610939576000848401525b50505050565b6000601f19601f8301169050919050565b600061095b826108f0565b61096581856108fb565b935061097581856020860161090c565b61097e8161093f565b840191505092915050565b600060608201905061099e60008301866108e1565b81810360208301526109b08185610950565b90506109bf60408301846108e1565b949350505050565b6109d0816107dd565b82525050565b60006020820190506109eb60008301846109c7565b92915050565b60008060408385031215610a0857610a076107b8565b5b6000610a1685828601610806565b9250506020610a278582860161089f565b9150509250929050565b600060a082019050610a4660008301886108e1565b610a5360208301876109c7565b8181036040830152610a658186610950565b9050610a7460608301856108e1565b610a8160808301846108e1565b9695505050505050565b600081519050919050565b600082825260208201905092915050565b6000819050602082019050919050565b610ac08161087e565b82525050565b6000610ad28383610ab7565b60208301905092915050565b6000602082019050919050565b6000610af682610a8b565b610b008185610a96565b9350610b0b83610aa7565b8060005b83811015610b3c578151610b238882610ac6565b9750610b2e83610ade565b925050600181019050610b0f565b5085935050505092915050565b6000604082019050610b5e6000830185610854565b8181036020830152610b708184610aeb565b90509392505050565b6000602082019050610b8e60008301846108e1565b92915050565b7f4e487b7100000000000000000000000000000000000000000000000000000000600052602260045260246000fd5b60006002820490506001821680610bdb57607f821691505b60208210811415610bef57610bee610b94565b5b50919050565b6000604082019050610c0a60008301856109c7565b610c176020830184610854565b939250505056fea2646970667358221220f6c4979fdd8359d9ce574704f5c68d7812f3f41cfd1c89f195eb7cca22f20fbf64736f6c634300080a0033",
  "linkReferences": {},
  "deployedLinkReferences": {}
}