{
  "_format": "hh-sol-artifact-1",
  "contractName": "RootContract",
  "sourceName": "contracts/RootContract.sol",
  "abi": [
    {
      "inputs": [],
      "stateMutability": "nonpayable",
      "type": "constructor"
    },
    {
      "inputs": [],
      "name": "RegisterAddress",
      "outputs": [
        {
          "internalType": "bool",
          "name": "",
          "type": "bool"
        }
      ],
      "stateMutability": "nonpayable",
      "type": "function"
    },
    {
      "inputs": [
        {
          "internalType": "uint256",
          "name": "",
          "type": "uint256"
        }
      ],
      "name": "albumDirectory",
      "outputs": [
        {
          "internalType": "uint256",
          "name": "albumID",
          "type": "uint256"
        },
        {
          "internalType": "address",
          "name": "artist",
          "type": "address"
        },
        {
          "internalType": "string",
          "name": "albumName",
          "type": "string"
        },
        {
          "internalType": "uint256",
          "name": "totalAlbumPurchases",
          "type": "uint256"
        },
        {
          "internalType": "uint256",
          "name": "totalSongPlays",
          "type": "uint256"
        }
      ],
      "stateMutability": "view",
      "type": "function"
    },
    {
      "inputs": [
        {
          "internalType": "address",
          "name": "",
          "type": "address"
        },
        {
          "internalType": "uint256",
          "name": "",
          "type": "uint256"
        }
      ],
      "name": "albumStats",
      "outputs": [
        {
          "internalType": "uint256",
          "name": "albumID",
          "type": "uint256"
        },
        {
          "internalType": "address",
          "name": "artist",
          "type": "address"
        },
        {
          "internalType": "string",
          "name": "albumName",
          "type": "string"
        },
        {
          "internalType": "uint256",
          "name": "totalAlbumPurchases",
          "type": "uint256"
        },
        {
          "internalType": "uint256",
          "name": "totalSongPlays",
          "type": "uint256"
        }
      ],
      "stateMutability": "view",
      "type": "function"
    },
    {
      "inputs": [
        {
          "internalType": "address",
          "name": "userAddress",
          "type": "address"
        }
      ],
      "name": "getRegisteredAddress",
      "outputs": [
        {
          "internalType": "bool",
          "name": "",
          "type": "bool"
        }
      ],
      "stateMutability": "view",
      "type": "function"
    },
    {
      "inputs": [
        {
          "internalType": "address",
          "name": "",
          "type": "address"
        }
      ],
      "name": "registeredArtists",
      "outputs": [
        {
          "internalType": "bool",
          "name": "registered",
          "type": "bool"
        },
        {
          "internalType": "uint256",
          "name": "totalAlbumSales",
          "type": "uint256"
        },
        {
          "internalType": "uint256",
          "name": "totalSongPlays",
          "type": "uint256"
        }
      ],
      "stateMutability": "view",
      "type": "function"
    },
    {
      "inputs": [
        {
          "internalType": "address",
          "name": "",
          "type": "address"
        }
      ],
      "name": "registeredUsers",
      "outputs": [
        {
          "internalType": "bool",
          "name": "registered",
          "type": "bool"
        }
      ],
      "stateMutability": "view",
      "type": "function"
    },
    {
      "inputs": [],
      "name": "verifyRegistration",
      "outputs": [
        {
          "internalType": "bool",
          "name": "",
          "type": "bool"
        }
      ],
      "stateMutability": "view",
      "type": "function"
    }
  ],
  "bytecode": "0x608060405234801561001057600080fd5b50336000806101000a81548173ffffffffffffffffffffffffffffffffffffffff021916908373ffffffffffffffffffffffffffffffffffffffff1602179055506109c6806100606000396000f3fe608060405234801561001057600080fd5b506004361061007d5760003560e01c8063a786eef81161005b578063a786eef814610104578063d9e73f3b14610138578063f558369f14610156578063f6dc26b7146101885761007d565b80630e50cee5146100825780634b64b2e9146100b25780635ade5020146100d0575b600080fd5b61009c60048036038101906100979190610689565b6101b8565b6040516100a9919061077d565b60405180910390f35b6100ba6101e3565b6040516100c7919061077d565b60405180910390f35b6100ea60048036038101906100e591906106ee565b610252565b6040516100fb9594939291906107ff565b60405180910390f35b61011e600480360381019061011991906106b2565b610330565b60405161012f9594939291906107ff565b60405180910390f35b61014061041b565b60405161014d919061077d565b60405180910390f35b610170600480360381019061016b9190610689565b61047c565b60405161017f93929190610798565b60405180910390f35b6101a2600480360381019061019d9190610689565b6104b3565b6040516101af919061077d565b60405180910390f35b60036020528060005260406000206000915090508060000160009054906101000a900460ff16905081565b600060011515600360003373ffffffffffffffffffffffffffffffffffffffff1673ffffffffffffffffffffffffffffffffffffffff16815260200190815260200160002060000160009054906101000a900460ff161515141561024a576001905061024f565b600090505b90565b60056020528060005260406000206000915090508060000154908060010160009054906101000a900473ffffffffffffffffffffffffffffffffffffffff16908060020180546102a1906108f0565b80601f01602080910402602001604051908101604052809291908181526020018280546102cd906108f0565b801561031a5780601f106102ef5761010080835404028352916020019161031a565b820191906000526020600020905b8154815290600101906020018083116102fd57829003601f168201915b5050505050908060050154908060060154905085565b6006602052816000526040600020602052806000526040600020600091509150508060000154908060010160009054906101000a900473ffffffffffffffffffffffffffffffffffffffff169080600201805461038c906108f0565b80601f01602080910402602001604051908101604052809291908181526020018280546103b8906108f0565b80156104055780601f106103da57610100808354040283529160200191610405565b820191906000526020600020905b8154815290600101906020018083116103e857829003601f168201915b5050505050908060050154908060060154905085565b60006001600360003373ffffffffffffffffffffffffffffffffffffffff1673ffffffffffffffffffffffffffffffffffffffff16815260200190815260200160002060000160006101000a81548160ff0219169083151502179055905090565b60046020528060005260406000206000915090508060000160009054906101000a900460ff16908060020154908060030154905083565b60006105436040518060400160405280601281526020017f5573657220697320726567697374657265640000000000000000000000000000815250600360003373ffffffffffffffffffffffffffffffffffffffff1673ffffffffffffffffffffffffffffffffffffffff16815260200190815260200160002060000160009054906101000a900460ff1661059a565b600360008373ffffffffffffffffffffffffffffffffffffffff1673ffffffffffffffffffffffffffffffffffffffff16815260200190815260200160002060000160009054906101000a900460ff169050919050565b61063282826040516024016105b09291906107cf565b6040516020818303038152906040527fc3b55635000000000000000000000000000000000000000000000000000000007bffffffffffffffffffffffffffffffffffffffffffffffffffffffff19166020820180517bffffffffffffffffffffffffffffffffffffffffffffffffffffffff8381831617835250505050610636565b5050565b60008151905060006a636f6e736f6c652e6c6f679050602083016000808483855afa5050505050565b60008135905061066e81610962565b92915050565b60008135905061068381610979565b92915050565b60006020828403121561069b57600080fd5b60006106a98482850161065f565b91505092915050565b600080604083850312156106c557600080fd5b60006106d38582860161065f565b92505060206106e485828601610674565b9150509250929050565b60006020828403121561070057600080fd5b600061070e84828501610674565b91505092915050565b61072081610875565b82525050565b61072f81610887565b82525050565b600061074082610859565b61074a8185610864565b935061075a8185602086016108bd565b61076381610951565b840191505092915050565b610777816108b3565b82525050565b60006020820190506107926000830184610726565b92915050565b60006060820190506107ad6000830186610726565b6107ba602083018561076e565b6107c7604083018461076e565b949350505050565b600060408201905081810360008301526107e98185610735565b90506107f86020830184610726565b9392505050565b600060a082019050610814600083018861076e565b6108216020830187610717565b81810360408301526108338186610735565b9050610842606083018561076e565b61084f608083018461076e565b9695505050505050565b600081519050919050565b600082825260208201905092915050565b600061088082610893565b9050919050565b60008115159050919050565b600073ffffffffffffffffffffffffffffffffffffffff82169050919050565b6000819050919050565b60005b838110156108db5780820151818401526020810190506108c0565b838111156108ea576000848401525b50505050565b6000600282049050600182168061090857607f821691505b6020821081141561091c5761091b610922565b5b50919050565b7f4e487b7100000000000000000000000000000000000000000000000000000000600052602260045260246000fd5b6000601f19601f8301169050919050565b61096b81610875565b811461097657600080fd5b50565b610982816108b3565b811461098d57600080fd5b5056fea2646970667358221220c7120d6b42bce0adb3b49978c4220628e06e7dbfe789f408dd4b00588b30340664736f6c63430008040033",
  "linkReferences": {},
  "deployedLinkReferences": {}
}