{
  "_format": "hh-sol-artifact-1",
  "contractName": "PaymentChannelFactory",
  "sourceName": "contracts/PaymentChannelFactory.sol",
  "abi": [
    {
      "inputs": [
        {
          "internalType": "address payable",
          "name": "_vault",
          "type": "address"
        },
        {
          "internalType": "uint256",
          "name": "duration",
          "type": "uint256"
        }
      ],
      "stateMutability": "payable",
      "type": "constructor"
    },
    {
      "inputs": [],
      "name": "balance",
      "outputs": [
        {
          "internalType": "uint256",
          "name": "",
          "type": "uint256"
        }
      ],
      "stateMutability": "view",
      "type": "function"
    },
    {
      "inputs": [],
      "name": "claimTimeout",
      "outputs": [],
      "stateMutability": "nonpayable",
      "type": "function"
    },
    {
      "inputs": [
        {
          "internalType": "address",
          "name": "signer",
          "type": "address"
        },
        {
          "internalType": "bytes32",
          "name": "hash",
          "type": "bytes32"
        },
        {
          "internalType": "bytes",
          "name": "signature",
          "type": "bytes"
        },
        {
          "internalType": "uint256",
          "name": "amount",
          "type": "uint256"
        }
      ],
      "name": "closeTransaction",
      "outputs": [],
      "stateMutability": "nonpayable",
      "type": "function"
    },
    {
      "inputs": [],
      "name": "expiration",
      "outputs": [
        {
          "internalType": "uint256",
          "name": "",
          "type": "uint256"
        }
      ],
      "stateMutability": "view",
      "type": "function"
    },
    {
      "inputs": [
        {
          "internalType": "uint256",
          "name": "newExpiration",
          "type": "uint256"
        }
      ],
      "name": "extendTimeout",
      "outputs": [],
      "stateMutability": "nonpayable",
      "type": "function"
    },
    {
      "inputs": [],
      "name": "sender",
      "outputs": [
        {
          "internalType": "address payable",
          "name": "",
          "type": "address"
        }
      ],
      "stateMutability": "view",
      "type": "function"
    },
    {
      "inputs": [],
      "name": "vault",
      "outputs": [
        {
          "internalType": "address payable",
          "name": "",
          "type": "address"
        }
      ],
      "stateMutability": "view",
      "type": "function"
    }
  ],
  "bytecode": "0x608060405260405162000ef238038062000ef28339818101604052810190620000299190620000f4565b336000806101000a81548173ffffffffffffffffffffffffffffffffffffffff021916908373ffffffffffffffffffffffffffffffffffffffff16021790555081600160006101000a81548173ffffffffffffffffffffffffffffffffffffffff021916908373ffffffffffffffffffffffffffffffffffffffff1602179055508042620000b8919062000135565b600281905550505062000233565b600081519050620000d781620001ff565b92915050565b600081519050620000ee8162000219565b92915050565b600080604083850312156200010857600080fd5b60006200011885828601620000c6565b92505060206200012b85828601620000dd565b9150509250929050565b60006200014282620001c6565b91506200014f83620001c6565b9250827fffffffffffffffffffffffffffffffffffffffffffffffffffffffffffffffff03821115620001875762000186620001d0565b5b828201905092915050565b60006200019f82620001a6565b9050919050565b600073ffffffffffffffffffffffffffffffffffffffff82169050919050565b6000819050919050565b7f4e487b7100000000000000000000000000000000000000000000000000000000600052601160045260246000fd5b6200020a8162000192565b81146200021657600080fd5b50565b6200022481620001c6565b81146200023057600080fd5b50565b610caf80620002436000396000f3fe608060405234801561001057600080fd5b506004361061007d5760003560e01c8063b69ef8a81161005b578063b69ef8a8146100c8578063fbfa77cf146100e6578063fdd61ee514610104578063ffe50332146101205761007d565b80630e1da6c3146100825780634665096d1461008c57806367e404ce146100aa575b600080fd5b61008a61013c565b005b610094610184565b6040516100a19190610a41565b60405180910390f35b6100b261018a565b6040516100bf91906109b1565b60405180910390f35b6100d06101ae565b6040516100dd9190610a41565b60405180910390f35b6100ee6101b4565b6040516100fb91906109b1565b60405180910390f35b61011e60048036038101906101199190610827565b6101da565b005b61013a600480360381019061013591906108cb565b6102ea565b005b60025442101561014b57600080fd5b60008054906101000a900473ffffffffffffffffffffffffffffffffffffffff1673ffffffffffffffffffffffffffffffffffffffff16ff5b60025481565b60008054906101000a900473ffffffffffffffffffffffffffffffffffffffff1681565b60035481565b600160009054906101000a900473ffffffffffffffffffffffffffffffffffffffff1681565b600160009054906101000a900473ffffffffffffffffffffffffffffffffffffffff1673ffffffffffffffffffffffffffffffffffffffff163373ffffffffffffffffffffffffffffffffffffffff161461023457600080fd5b61023f84848461035c565b61024857600080fd5b600160009054906101000a900473ffffffffffffffffffffffffffffffffffffffff1673ffffffffffffffffffffffffffffffffffffffff166108fc829081150290604051600060405180830381858888f193505050501580156102b0573d6000803e3d6000fd5b5060008054906101000a900473ffffffffffffffffffffffffffffffffffffffff1673ffffffffffffffffffffffffffffffffffffffff16ff5b3373ffffffffffffffffffffffffffffffffffffffff16600160009054906101000a900473ffffffffffffffffffffffffffffffffffffffff1673ffffffffffffffffffffffffffffffffffffffff161461034457600080fd5b600254811161035257600080fd5b8060028190555050565b600080600061036b858561058d565b91509150600060048111156103a9577f4e487b7100000000000000000000000000000000000000000000000000000000600052602160045260246000fd5b8160048111156103e2577f4e487b7100000000000000000000000000000000000000000000000000000000600052602160045260246000fd5b14801561041a57508573ffffffffffffffffffffffffffffffffffffffff168273ffffffffffffffffffffffffffffffffffffffff16145b1561042a57600192505050610586565b6000808773ffffffffffffffffffffffffffffffffffffffff16631626ba7e60e01b888860405160240161045f9291906109cc565b604051602081830303815290604052907bffffffffffffffffffffffffffffffffffffffffffffffffffffffff19166020820180517bffffffffffffffffffffffffffffffffffffffffffffffffffffffff83818316178352505050506040516104c9919061099a565b600060405180830381855afa9150503d8060008114610504576040519150601f19603f3d011682016040523d82523d6000602084013e610509565b606091505b509150915081801561051c575060208151145b801561057f5750631626ba7e60e01b7bffffffffffffffffffffffffffffffffffffffffffffffffffffffff19168180602001905181019061055e91906108a2565b7bffffffffffffffffffffffffffffffffffffffffffffffffffffffff1916145b9450505050505b9392505050565b6000806041835114156105cf5760008060006020860151925060408601519150606086015160001a90506105c387828585610610565b94509450505050610609565b6040835114156106005760008060208501519150604085015190506105f586838361071d565b935093505050610609565b60006002915091505b9250929050565b6000807f7fffffffffffffffffffffffffffffff5d576e7357a4501ddfe92f46681b20a08360001c111561064b576000600391509150610714565b601b8560ff16141580156106635750601c8560ff1614155b15610675576000600491509150610714565b60006001878787876040516000815260200160405260405161069a94939291906109fc565b6020604051602081039080840390855afa1580156106bc573d6000803e3d6000fd5b505050602060405103519050600073ffffffffffffffffffffffffffffffffffffffff168173ffffffffffffffffffffffffffffffffffffffff16141561070b57600060019250925050610714565b80600092509250505b94509492505050565b6000806000807f7fffffffffffffffffffffffffffffffffffffffffffffffffffffffffffffff85169150601b8560ff1c01905061075d87828885610610565b935093505050935093915050565b600061077e61077984610a81565b610a5c565b90508281526020810184848401111561079657600080fd5b6107a1848285610b6a565b509392505050565b6000813590506107b881610c1d565b92915050565b6000813590506107cd81610c34565b92915050565b6000815190506107e281610c4b565b92915050565b600082601f8301126107f957600080fd5b813561080984826020860161076b565b91505092915050565b60008135905061082181610c62565b92915050565b6000806000806080858703121561083d57600080fd5b600061084b878288016107a9565b945050602061085c878288016107be565b935050604085013567ffffffffffffffff81111561087957600080fd5b610885878288016107e8565b925050606061089687828801610812565b91505092959194509250565b6000602082840312156108b457600080fd5b60006108c2848285016107d3565b91505092915050565b6000602082840312156108dd57600080fd5b60006108eb84828501610812565b91505092915050565b6108fd81610aeb565b82525050565b61090c81610afd565b82525050565b600061091d82610ab2565b6109278185610abd565b9350610937818560208601610b79565b61094081610c0c565b840191505092915050565b600061095682610ab2565b6109608185610ace565b9350610970818560208601610b79565b80840191505092915050565b61098581610b53565b82525050565b61099481610b5d565b82525050565b60006109a6828461094b565b915081905092915050565b60006020820190506109c660008301846108f4565b92915050565b60006040820190506109e16000830185610903565b81810360208301526109f38184610912565b90509392505050565b6000608082019050610a116000830187610903565b610a1e602083018661098b565b610a2b6040830185610903565b610a386060830184610903565b95945050505050565b6000602082019050610a56600083018461097c565b92915050565b6000610a66610a77565b9050610a728282610bac565b919050565b6000604051905090565b600067ffffffffffffffff821115610a9c57610a9b610bdd565b5b610aa582610c0c565b9050602081019050919050565b600081519050919050565b600082825260208201905092915050565b600081905092915050565b6000610ae482610b33565b9050919050565b6000610af682610b33565b9050919050565b6000819050919050565b60007fffffffff0000000000000000000000000000000000000000000000000000000082169050919050565b600073ffffffffffffffffffffffffffffffffffffffff82169050919050565b6000819050919050565b600060ff82169050919050565b82818337600083830152505050565b60005b83811015610b97578082015181840152602081019050610b7c565b83811115610ba6576000848401525b50505050565b610bb582610c0c565b810181811067ffffffffffffffff82111715610bd457610bd3610bdd565b5b80604052505050565b7f4e487b7100000000000000000000000000000000000000000000000000000000600052604160045260246000fd5b6000601f19601f8301169050919050565b610c2681610ad9565b8114610c3157600080fd5b50565b610c3d81610afd565b8114610c4857600080fd5b50565b610c5481610b07565b8114610c5f57600080fd5b50565b610c6b81610b53565b8114610c7657600080fd5b5056fea2646970667358221220b091ae21422d8cb116dc3843643faba4ebf51d71e62848e7d00f754d604bf55e64736f6c63430008040033",
  "linkReferences": {},
  "deployedLinkReferences": {}
}