{
  "_format": "hh-sol-artifact-1",
  "contractName": "UserInteraction",
  "sourceName": "contracts/UserInteraction.sol",
  "abi": [
    {
      "anonymous": false,
      "inputs": [
        {
          "indexed": false,
          "internalType": "uint256",
          "name": "_albumID",
          "type": "uint256"
        },
        {
          "indexed": false,
          "internalType": "bool",
          "name": "success",
          "type": "bool"
        }
      ],
      "name": "AlbumPurchased",
      "type": "event"
    },
    {
      "anonymous": false,
      "inputs": [
        {
          "indexed": false,
          "internalType": "address",
          "name": "_depositer",
          "type": "address"
        },
        {
          "indexed": false,
          "internalType": "uint256",
          "name": "_amount",
          "type": "uint256"
        },
        {
          "indexed": false,
          "internalType": "bool",
          "name": "success",
          "type": "bool"
        }
      ],
      "name": "AmountDeposited",
      "type": "event"
    },
    {
      "anonymous": false,
      "inputs": [
        {
          "indexed": false,
          "internalType": "uint256",
          "name": "_songID",
          "type": "uint256"
        },
        {
          "indexed": false,
          "internalType": "bool",
          "name": "success",
          "type": "bool"
        }
      ],
      "name": "SongPlayed",
      "type": "event"
    },
    {
      "anonymous": false,
      "inputs": [
        {
          "indexed": false,
          "internalType": "address",
          "name": "registree",
          "type": "address"
        },
        {
          "indexed": false,
          "internalType": "bool",
          "name": "registered",
          "type": "bool"
        }
      ],
      "name": "UserRegistered",
      "type": "event"
    },
    {
      "anonymous": false,
      "inputs": [
        {
          "indexed": false,
          "internalType": "address",
          "name": "withdrawee",
          "type": "address"
        },
        {
          "indexed": false,
          "internalType": "uint256",
          "name": "_amount",
          "type": "uint256"
        },
        {
          "indexed": false,
          "internalType": "uint256",
          "name": "current_balance",
          "type": "uint256"
        },
        {
          "indexed": false,
          "internalType": "bool",
          "name": "success",
          "type": "bool"
        }
      ],
      "name": "WithdrawalComplete",
      "type": "event"
    },
    {
      "stateMutability": "payable",
      "type": "fallback"
    },
    {
      "inputs": [
        {
          "internalType": "uint256",
          "name": "albumID",
          "type": "uint256"
        }
      ],
      "name": "Buy",
      "outputs": [],
      "stateMutability": "payable",
      "type": "function"
    },
    {
      "inputs": [
        {
          "internalType": "uint256",
          "name": "albumID",
          "type": "uint256"
        },
        {
          "internalType": "uint256",
          "name": "songID",
          "type": "uint256"
        }
      ],
      "name": "Play",
      "outputs": [
        {
          "internalType": "bool",
          "name": "",
          "type": "bool"
        }
      ],
      "stateMutability": "nonpayable",
      "type": "function"
    },
    {
      "inputs": [],
      "name": "RegisterAddress",
      "outputs": [
        {
          "internalType": "bool",
          "name": "",
          "type": "bool"
        }
      ],
      "stateMutability": "nonpayable",
      "type": "function"
    },
    {
      "inputs": [],
      "name": "albumCounter",
      "outputs": [
        {
          "internalType": "uint256",
          "name": "",
          "type": "uint256"
        }
      ],
      "stateMutability": "view",
      "type": "function"
    },
    {
      "inputs": [
        {
          "internalType": "address",
          "name": "",
          "type": "address"
        },
        {
          "internalType": "uint256",
          "name": "",
          "type": "uint256"
        }
      ],
      "name": "albumStats",
      "outputs": [
        {
          "internalType": "uint256",
          "name": "albumID",
          "type": "uint256"
        },
        {
          "internalType": "address",
          "name": "artist",
          "type": "address"
        },
        {
          "internalType": "string",
          "name": "albumName",
          "type": "string"
        },
        {
          "internalType": "uint256",
          "name": "totalAlbumPurchases",
          "type": "uint256"
        },
        {
          "internalType": "uint256",
          "name": "totalSongPlays",
          "type": "uint256"
        }
      ],
      "stateMutability": "view",
      "type": "function"
    },
    {
      "inputs": [],
      "name": "depositBalance",
      "outputs": [],
      "stateMutability": "payable",
      "type": "function"
    },
    {
      "inputs": [],
      "name": "getAlbumOwnership",
      "outputs": [
        {
          "internalType": "bool",
          "name": "",
          "type": "bool"
        }
      ],
      "stateMutability": "view",
      "type": "function"
    },
    {
      "inputs": [],
      "name": "getDepositBalance",
      "outputs": [
        {
          "internalType": "uint256",
          "name": "",
          "type": "uint256"
        }
      ],
      "stateMutability": "view",
      "type": "function"
    },
    {
      "inputs": [
        {
          "internalType": "uint256",
          "name": "songID",
          "type": "uint256"
        }
      ],
      "name": "getPlayCount",
      "outputs": [
        {
          "internalType": "uint256",
          "name": "",
          "type": "uint256"
        }
      ],
      "stateMutability": "view",
      "type": "function"
    },
    {
      "inputs": [
        {
          "internalType": "address",
          "name": "userAddress",
          "type": "address"
        }
      ],
      "name": "getRegisteredAddress",
      "outputs": [
        {
          "internalType": "bool",
          "name": "registration",
          "type": "bool"
        },
        {
          "internalType": "uint256[]",
          "name": "albumsOwned",
          "type": "uint256[]"
        }
      ],
      "stateMutability": "view",
      "type": "function"
    },
    {
      "inputs": [
        {
          "internalType": "uint256",
          "name": "songNumber",
          "type": "uint256"
        }
      ],
      "name": "getSongInfo",
      "outputs": [
        {
          "internalType": "uint256",
          "name": "id",
          "type": "uint256"
        },
        {
          "internalType": "string",
          "name": "title",
          "type": "string"
        },
        {
          "internalType": "uint256",
          "name": "playCount",
          "type": "uint256"
        }
      ],
      "stateMutability": "view",
      "type": "function"
    },
    {
      "inputs": [],
      "name": "owner",
      "outputs": [
        {
          "internalType": "address",
          "name": "",
          "type": "address"
        }
      ],
      "stateMutability": "view",
      "type": "function"
    },
    {
      "inputs": [
        {
          "internalType": "address",
          "name": "",
          "type": "address"
        }
      ],
      "name": "registeredUsers",
      "outputs": [
        {
          "internalType": "bool",
          "name": "registered",
          "type": "bool"
        }
      ],
      "stateMutability": "view",
      "type": "function"
    },
    {
      "inputs": [
        {
          "internalType": "uint256",
          "name": "",
          "type": "uint256"
        }
      ],
      "name": "songList",
      "outputs": [
        {
          "internalType": "uint256",
          "name": "songID",
          "type": "uint256"
        },
        {
          "internalType": "string",
          "name": "songName",
          "type": "string"
        },
        {
          "internalType": "uint256",
          "name": "playCount",
          "type": "uint256"
        }
      ],
      "stateMutability": "view",
      "type": "function"
    },
    {
      "inputs": [
        {
          "internalType": "uint256",
          "name": "",
          "type": "uint256"
        }
      ],
      "name": "totalSongCount",
      "outputs": [
        {
          "internalType": "uint256",
          "name": "",
          "type": "uint256"
        }
      ],
      "stateMutability": "view",
      "type": "function"
    },
    {
      "inputs": [
        {
          "internalType": "address",
          "name": "",
          "type": "address"
        }
      ],
      "name": "userAlbumPurchase",
      "outputs": [
        {
          "internalType": "bool",
          "name": "",
          "type": "bool"
        }
      ],
      "stateMutability": "view",
      "type": "function"
    },
    {
      "inputs": [
        {
          "internalType": "address",
          "name": "",
          "type": "address"
        }
      ],
      "name": "userPlayBalance",
      "outputs": [
        {
          "internalType": "uint256",
          "name": "",
          "type": "uint256"
        }
      ],
      "stateMutability": "view",
      "type": "function"
    },
    {
      "inputs": [],
      "name": "verifyRegistration",
      "outputs": [
        {
          "internalType": "bool",
          "name": "",
          "type": "bool"
        }
      ],
      "stateMutability": "view",
      "type": "function"
    },
    {
      "inputs": [
        {
          "internalType": "uint256",
          "name": "_amount",
          "type": "uint256"
        }
      ],
      "name": "withdrawBalance",
      "outputs": [],
      "stateMutability": "nonpayable",
      "type": "function"
    },
    {
      "stateMutability": "payable",
      "type": "receive"
    }
  ],
  "bytecode": "0x60806040523480156200001157600080fd5b50600160008190555033600160006101000a81548173ffffffffffffffffffffffffffffffffffffffff021916908373ffffffffffffffffffffffffffffffffffffffff16021790555060016002819055506040518060600160405280600181526020016040518060400160405280600b81526020017f5368656e616e6967616e730000000000000000000000000000000000000000008152508152602001600081525060046000808152602001908152602001600020600082015181600001556020820151816001019080519060200190620000f09291906200023c565b50604082015181600201559050506040518060600160405280600281526020016040518060400160405280600c81526020017f496e7465724477656c6c657200000000000000000000000000000000000000008152508152602001600081525060046000600181526020019081526020016000206000820151816000015560208201518160010190805190602001906200018c9291906200023c565b50604082015181600201559050506040518060600160405280600381526020016040518060400160405280600981526020017f4c612053746f7269610000000000000000000000000000000000000000000000815250815260200160008152506004600060028152602001908152602001600020600082015181600001556020820151816001019080519060200190620002289291906200023c565b506040820151816002015590505062000351565b8280546200024a90620002ec565b90600052602060002090601f0160209004810192826200026e5760008555620002ba565b82601f106200028957805160ff1916838001178555620002ba565b82800160010185558215620002ba579182015b82811115620002b95782518255916020019190600101906200029c565b5b509050620002c99190620002cd565b5090565b5b80821115620002e8576000816000905550600101620002ce565b5090565b600060028204905060018216806200030557607f821691505b602082108114156200031c576200031b62000322565b5b50919050565b7f4e487b7100000000000000000000000000000000000000000000000000000000600052602260045260246000fd5b611bfc80620003616000396000f3fe6080604052600436106101185760003560e01c806399c79410116100a0578063d9e73f3b11610064578063d9e73f3b146103e1578063da76d5cd1461040c578063de2ea5dc14610435578063f6dc26b714610474578063f99bf3da146104b25761011f565b806399c79410146102be578063a786eef8146102fb578063bc3bd4a01461033c578063bf44106014610379578063d799ed1d146103a45761011f565b80633e328218116100e75780633e328218146102055780634b64b2e91461022157806361bc1a491461024c5780636a58b8bd146102565780638da5cb5b146102935761011f565b80630497de4a146101215780630e50cee51461014c5780632e6e190e146101895780633a562377146101c65761011f565b3661011f57005b005b34801561012d57600080fd5b506101366104dd565b604051610143919061186d565b60405180910390f35b34801561015857600080fd5b50610173600480360381019061016e91906113fe565b610524565b60405161018091906117a2565b60405180910390f35b34801561019557600080fd5b506101b060048036038101906101ab919061148c565b61054f565b6040516101bd91906117a2565b60405180910390f35b3480156101d257600080fd5b506101ed60048036038101906101e89190611463565b6107bc565b6040516101fc9392919061190b565b60405180910390f35b61021f600480360381019061021a9190611463565b61086e565b005b34801561022d57600080fd5b50610236610b40565b60405161024391906117a2565b60405180910390f35b610254610baf565b005b34801561026257600080fd5b5061027d600480360381019061027891906113fe565b610ca3565b60405161028a919061186d565b60405180910390f35b34801561029f57600080fd5b506102a8610cbb565b6040516102b591906116e2565b60405180910390f35b3480156102ca57600080fd5b506102e560048036038101906102e09190611463565b610ce1565b6040516102f2919061186d565b60405180910390f35b34801561030757600080fd5b50610322600480360381019061031d9190611427565b610cfe565b604051610333959493929190611888565b60405180910390f35b34801561034857600080fd5b50610363600480360381019061035e91906113fe565b610de9565b60405161037091906117a2565b60405180910390f35b34801561038557600080fd5b5061038e610e09565b60405161039b91906117a2565b60405180910390f35b3480156103b057600080fd5b506103cb60048036038101906103c69190611463565b610e75565b6040516103d8919061186d565b60405180910390f35b3480156103ed57600080fd5b506103f6610e8d565b60405161040391906117a2565b60405180910390f35b34801561041857600080fd5b50610433600480360381019061042e9190611463565b610f95565b005b34801561044157600080fd5b5061045c60048036038101906104579190611463565b6111fa565b60405161046b9392919061190b565b60405180910390f35b34801561048057600080fd5b5061049b600480360381019061049691906113fe565b6112dd565b6040516104a99291906117bd565b60405180910390f35b3480156104be57600080fd5b506104c76113ce565b6040516104d4919061186d565b60405180910390f35b6000600860003373ffffffffffffffffffffffffffffffffffffffff1673ffffffffffffffffffffffffffffffffffffffff16815260200190815260200160002054905090565b60036020528060005260406000206000915090508060000160009054906101000a900460ff16905081565b600060011515600360003373ffffffffffffffffffffffffffffffffffffffff1673ffffffffffffffffffffffffffffffffffffffff16815260200190815260200160002060000160009054906101000a900460ff161515146105b157600080fd5b6000650130bae7109390506000600860003373ffffffffffffffffffffffffffffffffffffffff1673ffffffffffffffffffffffffffffffffffffffff168152602001908152602001600020541161063e576040517f08c379a00000000000000000000000000000000000000000000000000000000081526004016106359061182d565b60405180910390fd5b6000600560003373ffffffffffffffffffffffffffffffffffffffff1673ffffffffffffffffffffffffffffffffffffffff168152602001908152602001600020600086815260200190815260200160002060040160008581526020019081526020016000206002015490506000600660008681526020019081526020016000205411156107025780806106d190611ae0565b9150506006600085815260200190815260200160002060008154809291906106f890611ae0565b9190505550610720565b60019050600160066000868152602001908152602001600020819055505b81600860003373ffffffffffffffffffffffffffffffffffffffff1673ffffffffffffffffffffffffffffffffffffffff168152602001908152602001600020600082825461076f91906119ff565b925050819055507fbb7eb7164d332a76845305e9657c6e6e1557690f62c51bb3142a30bdd9a757078460016040516107a89291906118e2565b60405180910390a160019250505092915050565b60046020528060005260406000206000915090508060000154908060010180546107e590611aae565b80601f016020809104026020016040519081016040528092919081815260200182805461081190611aae565b801561085e5780601f106108335761010080835404028352916020019161085e565b820191906000526020600020905b81548152906001019060200180831161084157829003601f168201915b5050505050908060020154905083565b60011515600360003373ffffffffffffffffffffffffffffffffffffffff1673ffffffffffffffffffffffffffffffffffffffff16815260200190815260200160002060000160009054906101000a900460ff161515146108ce57600080fd5b600066094ffe72f165fc905080341461091c576040517f08c379a0000000000000000000000000000000000000000000000000000000008152600401610913906117ed565b60405180910390fd5b80600860003373ffffffffffffffffffffffffffffffffffffffff1673ffffffffffffffffffffffffffffffffffffffff168152602001908152602001600020600082825461096b91906119ff565b925050819055506000600160009054906101000a900473ffffffffffffffffffffffffffffffffffffffff1673ffffffffffffffffffffffffffffffffffffffff16826040516109ba906116cd565b60006040518083038185875af1925050503d80600081146109f7576040519150601f19603f3d011682016040523d82523d6000602084013e6109fc565b606091505b5050905080610a40576040517f08c379a0000000000000000000000000000000000000000000000000000000008152600401610a379061180d565b60405180910390fd5b600360003373ffffffffffffffffffffffffffffffffffffffff1673ffffffffffffffffffffffffffffffffffffffff1681526020019081526020016000206001018390806001815401808255809150506001900390600052602060002001600090919091909150556001600760003373ffffffffffffffffffffffffffffffffffffffff1673ffffffffffffffffffffffffffffffffffffffff16815260200190815260200160002060006101000a81548160ff0219169083151502179055507f98114562ef3b3c5ad63c855c5ce939d087bb1e8d73ecd13111fc2b20f7e59a25836001604051610b339291906118e2565b60405180910390a1505050565b600060011515600360003373ffffffffffffffffffffffffffffffffffffffff1673ffffffffffffffffffffffffffffffffffffffff16815260200190815260200160002060000160009054906101000a900460ff1615151415610ba75760019050610bac565b600090505b90565b60011515600360003373ffffffffffffffffffffffffffffffffffffffff1673ffffffffffffffffffffffffffffffffffffffff16815260200190815260200160002060000160009054906101000a900460ff16151514610c0f57600080fd5b34600860003373ffffffffffffffffffffffffffffffffffffffff1673ffffffffffffffffffffffffffffffffffffffff1681526020019081526020016000206000828254610c5e91906119a9565b925050819055507f520c4ea8c325231e5eaa6218eaaa8f78402f02349f15dba724eb30ebfc756f3133346001604051610c9993929190611726565b60405180910390a1565b60086020528060005260406000206000915090505481565b600160009054906101000a900473ffffffffffffffffffffffffffffffffffffffff1681565b600060066000838152602001908152602001600020549050919050565b6005602052816000526040600020602052806000526040600020600091509150508060000154908060010160009054906101000a900473ffffffffffffffffffffffffffffffffffffffff1690806002018054610d5a90611aae565b80601f0160208091040260200160405190810160405280929190818152602001828054610d8690611aae565b8015610dd35780601f10610da857610100808354040283529160200191610dd3565b820191906000526020600020905b815481529060010190602001808311610db657829003601f168201915b5050505050908060050154908060060154905085565b60076020528060005260406000206000915054906101000a900460ff1681565b600060011515600760003373ffffffffffffffffffffffffffffffffffffffff1673ffffffffffffffffffffffffffffffffffffffff16815260200190815260200160002060009054906101000a900460ff1615151415610e6d5760019050610e72565b600090505b90565b60066020528060005260406000206000915090505481565b60006001600360003373ffffffffffffffffffffffffffffffffffffffff1673ffffffffffffffffffffffffffffffffffffffff16815260200190815260200160002060000160006101000a81548160ff021916908315150217905550600360003373ffffffffffffffffffffffffffffffffffffffff1673ffffffffffffffffffffffffffffffffffffffff168152602001908152602001600020600101600090806001815401808255809150506001900390600052602060002001600090919091909150557f28a24a60e275c9be5babc23ecefd3240b1fcd56ef4d3fe4818437200b55ae5ff336001604051610f869291906116fd565b60405180910390a16001905090565b60011515600360003373ffffffffffffffffffffffffffffffffffffffff1673ffffffffffffffffffffffffffffffffffffffff16815260200190815260200160002060000160009054906101000a900460ff16151514610ff557600080fd5b600860003373ffffffffffffffffffffffffffffffffffffffff1673ffffffffffffffffffffffffffffffffffffffff16815260200190815260200160002054811115611077576040517f08c379a000000000000000000000000000000000000000000000000000000000815260040161106e9061184d565b60405180910390fd5b80600860003373ffffffffffffffffffffffffffffffffffffffff1673ffffffffffffffffffffffffffffffffffffffff16815260200190815260200160002060008282546110c691906119ff565b9250508190555060003373ffffffffffffffffffffffffffffffffffffffff16826040516110f3906116cd565b60006040518083038185875af1925050503d8060008114611130576040519150601f19603f3d011682016040523d82523d6000602084013e611135565b606091505b5050905080611179576040517f08c379a00000000000000000000000000000000000000000000000000000000081526004016111709061180d565b60405180910390fd5b7fca1ca4a4ed1d761392f1f336a9f048057be1d9003241ad675ceb40512068fa0a3383600860003373ffffffffffffffffffffffffffffffffffffffff1673ffffffffffffffffffffffffffffffffffffffff1681526020019081526020016000205460016040516111ee949392919061175d565b60405180910390a15050565b600060606000600460008581526020019081526020016000206000015460046000868152602001908152602001600020600101600460008781526020019081526020016000206002015481805461125090611aae565b80601f016020809104026020016040519081016040528092919081815260200182805461127c90611aae565b80156112c95780601f1061129e576101008083540402835291602001916112c9565b820191906000526020600020905b8154815290600101906020018083116112ac57829003601f168201915b505050505091509250925092509193909250565b60006060600360008473ffffffffffffffffffffffffffffffffffffffff1673ffffffffffffffffffffffffffffffffffffffff16815260200190815260200160002060000160009054906101000a900460ff16600360008573ffffffffffffffffffffffffffffffffffffffff1673ffffffffffffffffffffffffffffffffffffffff168152602001908152602001600020600101808054806020026020016040519081016040528092919081815260200182805480156113be57602002820191906000526020600020905b8154815260200190600101908083116113aa575b5050505050905091509150915091565b60025481565b6000813590506113e381611b98565b92915050565b6000813590506113f881611baf565b92915050565b60006020828403121561141057600080fd5b600061141e848285016113d4565b91505092915050565b6000806040838503121561143a57600080fd5b6000611448858286016113d4565b9250506020611459858286016113e9565b9150509250929050565b60006020828403121561147557600080fd5b6000611483848285016113e9565b91505092915050565b6000806040838503121561149f57600080fd5b60006114ad858286016113e9565b92505060206114be858286016113e9565b9150509250929050565b60006114d483836116af565b60208301905092915050565b6114e981611a33565b82525050565b60006114fa82611959565b611504818561197c565b935061150f83611949565b8060005b8381101561154057815161152788826114c8565b97506115328361196f565b925050600181019050611513565b5085935050505092915050565b61155681611a45565b82525050565b600061156782611964565b6115718185611998565b9350611581818560208601611a7b565b61158a81611b87565b840191505092915050565b60006115a2600d83611998565b91507f707269636520746f6f206c6f77000000000000000000000000000000000000006000830152602082019050919050565b60006115e2601483611998565b91507f4661696c656420746f2073656e642045746865720000000000000000000000006000830152602082019050919050565b6000611622601583611998565b91507f6465706f7369742065746820746f206c697374656e00000000000000000000006000830152602082019050919050565b600061166260008361198d565b9150600082019050919050565b600061167c601083611998565b91507f6e6f7420656e6f7567682076616c7565000000000000000000000000000000006000830152602082019050919050565b6116b881611a71565b82525050565b6116c781611a71565b82525050565b60006116d882611655565b9150819050919050565b60006020820190506116f760008301846114e0565b92915050565b600060408201905061171260008301856114e0565b61171f602083018461154d565b9392505050565b600060608201905061173b60008301866114e0565b61174860208301856116be565b611755604083018461154d565b949350505050565b600060808201905061177260008301876114e0565b61177f60208301866116be565b61178c60408301856116be565b611799606083018461154d565b95945050505050565b60006020820190506117b7600083018461154d565b92915050565b60006040820190506117d2600083018561154d565b81810360208301526117e481846114ef565b90509392505050565b6000602082019050818103600083015261180681611595565b9050919050565b60006020820190508181036000830152611826816115d5565b9050919050565b6000602082019050818103600083015261184681611615565b9050919050565b600060208201905081810360008301526118668161166f565b9050919050565b600060208201905061188260008301846116be565b92915050565b600060a08201905061189d60008301886116be565b6118aa60208301876114e0565b81810360408301526118bc818661155c565b90506118cb60608301856116be565b6118d860808301846116be565b9695505050505050565b60006040820190506118f760008301856116be565b611904602083018461154d565b9392505050565b600060608201905061192060008301866116be565b8181036020830152611932818561155c565b905061194160408301846116be565b949350505050565b6000819050602082019050919050565b600081519050919050565b600081519050919050565b6000602082019050919050565b600082825260208201905092915050565b600081905092915050565b600082825260208201905092915050565b60006119b482611a71565b91506119bf83611a71565b9250827fffffffffffffffffffffffffffffffffffffffffffffffffffffffffffffffff038211156119f4576119f3611b29565b5b828201905092915050565b6000611a0a82611a71565b9150611a1583611a71565b925082821015611a2857611a27611b29565b5b828203905092915050565b6000611a3e82611a51565b9050919050565b60008115159050919050565b600073ffffffffffffffffffffffffffffffffffffffff82169050919050565b6000819050919050565b60005b83811015611a99578082015181840152602081019050611a7e565b83811115611aa8576000848401525b50505050565b60006002820490506001821680611ac657607f821691505b60208210811415611ada57611ad9611b58565b5b50919050565b6000611aeb82611a71565b91507fffffffffffffffffffffffffffffffffffffffffffffffffffffffffffffffff821415611b1e57611b1d611b29565b5b600182019050919050565b7f4e487b7100000000000000000000000000000000000000000000000000000000600052601160045260246000fd5b7f4e487b7100000000000000000000000000000000000000000000000000000000600052602260045260246000fd5b6000601f19601f8301169050919050565b611ba181611a33565b8114611bac57600080fd5b50565b611bb881611a71565b8114611bc357600080fd5b5056fea2646970667358221220e88174cc68d1b53dfa33eaecb9f9008a221263a68007427ea10ab0256657db5864736f6c63430008000033",
  "linkReferences": {},
  "deployedLinkReferences": {}
}