{
  "_format": "hh-sol-artifact-1",
  "contractName": "UserInteraction",
  "sourceName": "contracts/UserInteraction.sol",
  "abi": [
    {
      "anonymous": false,
      "inputs": [
        {
          "indexed": false,
          "internalType": "uint256",
          "name": "_albumID",
          "type": "uint256"
        },
        {
          "indexed": false,
          "internalType": "bool",
          "name": "success",
          "type": "bool"
        }
      ],
      "name": "AlbumPurchased",
      "type": "event"
    },
    {
      "anonymous": false,
      "inputs": [
        {
          "indexed": false,
          "internalType": "address",
          "name": "_depositer",
          "type": "address"
        },
        {
          "indexed": false,
          "internalType": "uint256",
          "name": "_amount",
          "type": "uint256"
        },
        {
          "indexed": false,
          "internalType": "bool",
          "name": "success",
          "type": "bool"
        }
      ],
      "name": "AmountDeposited",
      "type": "event"
    },
    {
      "anonymous": false,
      "inputs": [
        {
          "indexed": false,
          "internalType": "uint256",
          "name": "_songID",
          "type": "uint256"
        },
        {
          "indexed": false,
          "internalType": "bool",
          "name": "success",
          "type": "bool"
        }
      ],
      "name": "SongPlayed",
      "type": "event"
    },
    {
      "anonymous": false,
      "inputs": [
        {
          "indexed": false,
          "internalType": "address",
          "name": "registree",
          "type": "address"
        },
        {
          "indexed": false,
          "internalType": "bool",
          "name": "registered",
          "type": "bool"
        }
      ],
      "name": "UserRegistered",
      "type": "event"
    },
    {
      "anonymous": false,
      "inputs": [
        {
          "indexed": false,
          "internalType": "address",
          "name": "withdrawee",
          "type": "address"
        },
        {
          "indexed": false,
          "internalType": "uint256",
          "name": "_amount",
          "type": "uint256"
        },
        {
          "indexed": false,
          "internalType": "uint256",
          "name": "current_balance",
          "type": "uint256"
        },
        {
          "indexed": false,
          "internalType": "bool",
          "name": "success",
          "type": "bool"
        }
      ],
      "name": "WithdrawalComplete",
      "type": "event"
    },
    {
      "stateMutability": "payable",
      "type": "fallback"
    },
    {
      "inputs": [
        {
          "internalType": "uint256",
          "name": "albumID",
          "type": "uint256"
        }
      ],
      "name": "Buy",
      "outputs": [],
      "stateMutability": "payable",
      "type": "function"
    },
    {
      "inputs": [
        {
          "internalType": "uint256",
          "name": "albumID",
          "type": "uint256"
        },
        {
          "internalType": "uint256",
          "name": "songID",
          "type": "uint256"
        }
      ],
      "name": "Play",
      "outputs": [
        {
          "internalType": "bool",
          "name": "",
          "type": "bool"
        }
      ],
      "stateMutability": "nonpayable",
      "type": "function"
    },
    {
      "inputs": [],
      "name": "RegisterAddress",
      "outputs": [
        {
          "internalType": "bool",
          "name": "",
          "type": "bool"
        }
      ],
      "stateMutability": "nonpayable",
      "type": "function"
    },
    {
      "inputs": [],
      "name": "albumCounter",
      "outputs": [
        {
          "internalType": "uint256",
          "name": "",
          "type": "uint256"
        }
      ],
      "stateMutability": "view",
      "type": "function"
    },
    {
      "inputs": [
        {
          "internalType": "address",
          "name": "",
          "type": "address"
        },
        {
          "internalType": "uint256",
          "name": "",
          "type": "uint256"
        }
      ],
      "name": "albumStats",
      "outputs": [
        {
          "internalType": "uint256",
          "name": "albumID",
          "type": "uint256"
        },
        {
          "internalType": "address",
          "name": "artist",
          "type": "address"
        },
        {
          "internalType": "string",
          "name": "albumName",
          "type": "string"
        },
        {
          "internalType": "uint256",
          "name": "totalAlbumPurchases",
          "type": "uint256"
        },
        {
          "internalType": "uint256",
          "name": "totalSongPlays",
          "type": "uint256"
        }
      ],
      "stateMutability": "view",
      "type": "function"
    },
    {
      "inputs": [],
      "name": "depositBalance",
      "outputs": [],
      "stateMutability": "payable",
      "type": "function"
    },
    {
      "inputs": [],
      "name": "getAlbumOwnership",
      "outputs": [
        {
          "internalType": "bool",
          "name": "",
          "type": "bool"
        }
      ],
      "stateMutability": "view",
      "type": "function"
    },
    {
      "inputs": [],
      "name": "getDepositBalance",
      "outputs": [
        {
          "internalType": "uint256",
          "name": "",
          "type": "uint256"
        }
      ],
      "stateMutability": "view",
      "type": "function"
    },
    {
      "inputs": [
        {
          "internalType": "uint256",
          "name": "songID",
          "type": "uint256"
        }
      ],
      "name": "getPlayCount",
      "outputs": [
        {
          "internalType": "uint256",
          "name": "",
          "type": "uint256"
        }
      ],
      "stateMutability": "view",
      "type": "function"
    },
    {
      "inputs": [
        {
          "internalType": "address",
          "name": "userAddress",
          "type": "address"
        }
      ],
      "name": "getRegisteredAddress",
      "outputs": [
        {
          "internalType": "bool",
          "name": "registration",
          "type": "bool"
        },
        {
          "internalType": "uint256[]",
          "name": "albumsOwned",
          "type": "uint256[]"
        }
      ],
      "stateMutability": "view",
      "type": "function"
    },
    {
      "inputs": [
        {
          "internalType": "uint256",
          "name": "songNumber",
          "type": "uint256"
        }
      ],
      "name": "getSongInfo",
      "outputs": [
        {
          "internalType": "uint256",
          "name": "id",
          "type": "uint256"
        },
        {
          "internalType": "string",
          "name": "title",
          "type": "string"
        },
        {
          "internalType": "uint256",
          "name": "playCount",
          "type": "uint256"
        }
      ],
      "stateMutability": "view",
      "type": "function"
    },
    {
      "inputs": [],
      "name": "getVault",
      "outputs": [
        {
          "internalType": "uint256",
          "name": "",
          "type": "uint256"
        }
      ],
      "stateMutability": "view",
      "type": "function"
    },
    {
      "inputs": [],
      "name": "getVaultAddress",
      "outputs": [
        {
          "internalType": "address",
          "name": "",
          "type": "address"
        }
      ],
      "stateMutability": "view",
      "type": "function"
    },
    {
      "inputs": [],
      "name": "owner",
      "outputs": [
        {
          "internalType": "address",
          "name": "",
          "type": "address"
        }
      ],
      "stateMutability": "view",
      "type": "function"
    },
    {
      "inputs": [
        {
          "internalType": "address",
          "name": "",
          "type": "address"
        }
      ],
      "name": "registeredUsers",
      "outputs": [
        {
          "internalType": "bool",
          "name": "registered",
          "type": "bool"
        }
      ],
      "stateMutability": "view",
      "type": "function"
    },
    {
      "inputs": [
        {
          "internalType": "uint256",
          "name": "",
          "type": "uint256"
        }
      ],
      "name": "songList",
      "outputs": [
        {
          "internalType": "uint256",
          "name": "songID",
          "type": "uint256"
        },
        {
          "internalType": "string",
          "name": "songName",
          "type": "string"
        },
        {
          "internalType": "uint256",
          "name": "playCount",
          "type": "uint256"
        }
      ],
      "stateMutability": "view",
      "type": "function"
    },
    {
      "inputs": [
        {
          "internalType": "uint256",
          "name": "",
          "type": "uint256"
        }
      ],
      "name": "totalSongCount",
      "outputs": [
        {
          "internalType": "uint256",
          "name": "",
          "type": "uint256"
        }
      ],
      "stateMutability": "view",
      "type": "function"
    },
    {
      "inputs": [
        {
          "internalType": "address",
          "name": "",
          "type": "address"
        }
      ],
      "name": "userAlbumPurchase",
      "outputs": [
        {
          "internalType": "bool",
          "name": "",
          "type": "bool"
        }
      ],
      "stateMutability": "view",
      "type": "function"
    },
    {
      "inputs": [
        {
          "internalType": "address",
          "name": "",
          "type": "address"
        }
      ],
      "name": "userPlayBalance",
      "outputs": [
        {
          "internalType": "uint256",
          "name": "",
          "type": "uint256"
        }
      ],
      "stateMutability": "view",
      "type": "function"
    },
    {
      "inputs": [],
      "name": "verifyRegistration",
      "outputs": [
        {
          "internalType": "bool",
          "name": "",
          "type": "bool"
        }
      ],
      "stateMutability": "view",
      "type": "function"
    },
    {
      "inputs": [],
      "name": "withdrawBalance",
      "outputs": [
        {
          "internalType": "uint256",
          "name": "",
          "type": "uint256"
        }
      ],
      "stateMutability": "payable",
      "type": "function"
    },
    {
      "stateMutability": "payable",
      "type": "receive"
    }
  ],
  "bytecode": "0x60806040523480156200001157600080fd5b50600160008190555033600160006101000a81548173ffffffffffffffffffffffffffffffffffffffff021916908373ffffffffffffffffffffffffffffffffffffffff16021790555060016002819055506040518060600160405280600181526020016040518060400160405280600a81526020017f467574757265436c756200000000000000000000000000000000000000000000815250815260200160008152506004600060018152602001908152602001600020600082015181600001556020820151816001019080519060200190620000f192919062000105565b50604082015181600201559050506200021a565b8280546200011390620001b5565b90600052602060002090601f01602090048101928262000137576000855562000183565b82601f106200015257805160ff191683800117855562000183565b8280016001018555821562000183579182015b828111156200018257825182559160200191906001019062000165565b5b50905062000192919062000196565b5090565b5b80821115620001b157600081600090555060010162000197565b5090565b60006002820490506001821680620001ce57607f821691505b60208210811415620001e557620001e4620001eb565b5b50919050565b7f4e487b7100000000000000000000000000000000000000000000000000000000600052602260045260246000fd5b611db5806200022a6000396000f3fe60806040526004361061012e5760003560e01c80638d928af8116100ab578063bf4410601161006f578063bf44106014610403578063d799ed1d1461042e578063d9e73f3b1461046b578063de2ea5dc14610496578063f6dc26b7146104d5578063f99bf3da1461051357610135565b80638d928af8146102f25780638da5cb5b1461031d57806399c7941014610348578063a786eef814610385578063bc3bd4a0146103c657610135565b80634b64b2e9116100f25780634b64b2e9146102375780635fd8c7101461026257806361bc1a491461028057806365cacaa41461028a5780636a58b8bd146102b557610135565b80630497de4a146101375780630e50cee5146101625780632e6e190e1461019f5780633a562377146101dc5780633e3282181461021b57610135565b3661013557005b005b34801561014357600080fd5b5061014c61053e565b6040516101599190611956565b60405180910390f35b34801561016e57600080fd5b506101896004803603810190610184919061150f565b610585565b604051610196919061186b565b60405180910390f35b3480156101ab57600080fd5b506101c660048036038101906101c1919061159d565b6105b0565b6040516101d3919061186b565b60405180910390f35b3480156101e857600080fd5b5061020360048036038101906101fe9190611574565b61081d565b604051610212939291906119f4565b60405180910390f35b61023560048036038101906102309190611574565b6108cf565b005b34801561024357600080fd5b5061024c610ba1565b604051610259919061186b565b60405180910390f35b61026a610c10565b6040516102779190611956565b60405180910390f35b610288610f15565b005b34801561029657600080fd5b5061029f611009565b6040516102ac91906117ab565b60405180910390f35b3480156102c157600080fd5b506102dc60048036038101906102d7919061150f565b611011565b6040516102e99190611956565b60405180910390f35b3480156102fe57600080fd5b50610307611029565b6040516103149190611956565b60405180910390f35b34801561032957600080fd5b50610332611031565b60405161033f91906117ab565b60405180910390f35b34801561035457600080fd5b5061036f600480360381019061036a9190611574565b611057565b60405161037c9190611956565b60405180910390f35b34801561039157600080fd5b506103ac60048036038101906103a79190611538565b611074565b6040516103bd959493929190611971565b60405180910390f35b3480156103d257600080fd5b506103ed60048036038101906103e8919061150f565b61115f565b6040516103fa919061186b565b60405180910390f35b34801561040f57600080fd5b5061041861117f565b604051610425919061186b565b60405180910390f35b34801561043a57600080fd5b5061045560048036038101906104509190611574565b6111eb565b6040516104629190611956565b60405180910390f35b34801561047757600080fd5b50610480611203565b60405161048d919061186b565b60405180910390f35b3480156104a257600080fd5b506104bd60048036038101906104b89190611574565b61130b565b6040516104cc939291906119f4565b60405180910390f35b3480156104e157600080fd5b506104fc60048036038101906104f7919061150f565b6113ee565b60405161050a929190611886565b60405180910390f35b34801561051f57600080fd5b506105286114df565b6040516105359190611956565b60405180910390f35b6000600960003373ffffffffffffffffffffffffffffffffffffffff1673ffffffffffffffffffffffffffffffffffffffff16815260200190815260200160002054905090565b60036020528060005260406000206000915090508060000160009054906101000a900460ff16905081565b600060011515600360003373ffffffffffffffffffffffffffffffffffffffff1673ffffffffffffffffffffffffffffffffffffffff16815260200190815260200160002060000160009054906101000a900460ff1615151461061257600080fd5b6000600960003373ffffffffffffffffffffffffffffffffffffffff1673ffffffffffffffffffffffffffffffffffffffff1681526020019081526020016000205411610694576040517f08c379a000000000000000000000000000000000000000000000000000000000815260040161068b906118f6565b60405180910390fd5b6000650130bae7109390506000600560003373ffffffffffffffffffffffffffffffffffffffff1673ffffffffffffffffffffffffffffffffffffffff1681526020019081526020016000206000868152602001908152602001600020600401600085815260200190815260200160002060020154905060006007600086815260200190815260200160002054111561076357808061073290611bc9565b91505060076000858152602001908152602001600020600081548092919061075990611bc9565b9190505550610781565b60019050600160076000868152602001908152602001600020819055505b81600960003373ffffffffffffffffffffffffffffffffffffffff1673ffffffffffffffffffffffffffffffffffffffff16815260200190815260200160002060008282546107d09190611ae8565b925050819055507fbb7eb7164d332a76845305e9657c6e6e1557690f62c51bb3142a30bdd9a757078460016040516108099291906119cb565b60405180910390a160019250505092915050565b600460205280600052604060002060009150905080600001549080600101805461084690611b97565b80601f016020809104026020016040519081016040528092919081815260200182805461087290611b97565b80156108bf5780601f10610894576101008083540402835291602001916108bf565b820191906000526020600020905b8154815290600101906020018083116108a257829003601f168201915b5050505050908060020154905083565b60011515600360003373ffffffffffffffffffffffffffffffffffffffff1673ffffffffffffffffffffffffffffffffffffffff16815260200190815260200160002060000160009054906101000a900460ff1615151461092f57600080fd5b600066094ffe72f165fc905080341461097d576040517f08c379a0000000000000000000000000000000000000000000000000000000008152600401610974906118b6565b60405180910390fd5b80600960003373ffffffffffffffffffffffffffffffffffffffff1673ffffffffffffffffffffffffffffffffffffffff16815260200190815260200160002060008282546109cc9190611ae8565b925050819055506000600160009054906101000a900473ffffffffffffffffffffffffffffffffffffffff1673ffffffffffffffffffffffffffffffffffffffff1682604051610a1b90611796565b60006040518083038185875af1925050503d8060008114610a58576040519150601f19603f3d011682016040523d82523d6000602084013e610a5d565b606091505b5050905080610aa1576040517f08c379a0000000000000000000000000000000000000000000000000000000008152600401610a98906118d6565b60405180910390fd5b600360003373ffffffffffffffffffffffffffffffffffffffff1673ffffffffffffffffffffffffffffffffffffffff1681526020019081526020016000206001018390806001815401808255809150506001900390600052602060002001600090919091909150556001600860003373ffffffffffffffffffffffffffffffffffffffff1673ffffffffffffffffffffffffffffffffffffffff16815260200190815260200160002060006101000a81548160ff0219169083151502179055507f98114562ef3b3c5ad63c855c5ce939d087bb1e8d73ecd13111fc2b20f7e59a25836001604051610b949291906119cb565b60405180910390a1505050565b600060011515600360003373ffffffffffffffffffffffffffffffffffffffff1673ffffffffffffffffffffffffffffffffffffffff16815260200190815260200160002060000160009054906101000a900460ff1615151415610c085760019050610c0d565b600090505b90565b600060011515600360003373ffffffffffffffffffffffffffffffffffffffff1673ffffffffffffffffffffffffffffffffffffffff16815260200190815260200160002060000160009054906101000a900460ff16151514610c7257600080fd5b60026000541415610cb8576040517f08c379a0000000000000000000000000000000000000000000000000000000008152600401610caf90611916565b60405180910390fd5b60026000819055506000600960003373ffffffffffffffffffffffffffffffffffffffff1673ffffffffffffffffffffffffffffffffffffffff16815260200190815260200160002054341115610d44576040517f08c379a0000000000000000000000000000000000000000000000000000000008152600401610d3b90611936565b60405180910390fd5b34600960003373ffffffffffffffffffffffffffffffffffffffff1673ffffffffffffffffffffffffffffffffffffffff1681526020019081526020016000206000828254610d939190611ae8565b9250508190555060003373ffffffffffffffffffffffffffffffffffffffff1634604051610dc090611796565b60006040518083038185875af1925050503d8060008114610dfd576040519150601f19603f3d011682016040523d82523d6000602084013e610e02565b606091505b5050905080610e46576040517f08c379a0000000000000000000000000000000000000000000000000000000008152600401610e3d906118d6565b60405180910390fd5b7fca1ca4a4ed1d761392f1f336a9f048057be1d9003241ad675ceb40512068fa0a3334600960003373ffffffffffffffffffffffffffffffffffffffff1673ffffffffffffffffffffffffffffffffffffffff168152602001908152602001600020546001604051610ebb9493929190611826565b60405180910390a1600960003373ffffffffffffffffffffffffffffffffffffffff1673ffffffffffffffffffffffffffffffffffffffff1681526020019081526020016000205491508192505050600160008190555090565b60011515600360003373ffffffffffffffffffffffffffffffffffffffff1673ffffffffffffffffffffffffffffffffffffffff16815260200190815260200160002060000160009054906101000a900460ff16151514610f7557600080fd5b34600960003373ffffffffffffffffffffffffffffffffffffffff1673ffffffffffffffffffffffffffffffffffffffff1681526020019081526020016000206000828254610fc49190611a92565b925050819055507f520c4ea8c325231e5eaa6218eaaa8f78402f02349f15dba724eb30ebfc756f3133346001604051610fff939291906117ef565b60405180910390a1565b600030905090565b60096020528060005260406000206000915090505481565b600047905090565b600160009054906101000a900473ffffffffffffffffffffffffffffffffffffffff1681565b600060076000838152602001908152602001600020549050919050565b6005602052816000526040600020602052806000526040600020600091509150508060000154908060010160009054906101000a900473ffffffffffffffffffffffffffffffffffffffff16908060020180546110d090611b97565b80601f01602080910402602001604051908101604052809291908181526020018280546110fc90611b97565b80156111495780601f1061111e57610100808354040283529160200191611149565b820191906000526020600020905b81548152906001019060200180831161112c57829003601f168201915b5050505050908060050154908060060154905085565b60086020528060005260406000206000915054906101000a900460ff1681565b600060011515600860003373ffffffffffffffffffffffffffffffffffffffff1673ffffffffffffffffffffffffffffffffffffffff16815260200190815260200160002060009054906101000a900460ff16151514156111e357600190506111e8565b600090505b90565b60076020528060005260406000206000915090505481565b60006001600360003373ffffffffffffffffffffffffffffffffffffffff1673ffffffffffffffffffffffffffffffffffffffff16815260200190815260200160002060000160006101000a81548160ff021916908315150217905550600360003373ffffffffffffffffffffffffffffffffffffffff1673ffffffffffffffffffffffffffffffffffffffff168152602001908152602001600020600101600090806001815401808255809150506001900390600052602060002001600090919091909150557f28a24a60e275c9be5babc23ecefd3240b1fcd56ef4d3fe4818437200b55ae5ff3360016040516112fc9291906117c6565b60405180910390a16001905090565b600060606000600460008581526020019081526020016000206000015460046000868152602001908152602001600020600101600460008781526020019081526020016000206002015481805461136190611b97565b80601f016020809104026020016040519081016040528092919081815260200182805461138d90611b97565b80156113da5780601f106113af576101008083540402835291602001916113da565b820191906000526020600020905b8154815290600101906020018083116113bd57829003601f168201915b505050505091509250925092509193909250565b60006060600360008473ffffffffffffffffffffffffffffffffffffffff1673ffffffffffffffffffffffffffffffffffffffff16815260200190815260200160002060000160009054906101000a900460ff16600360008573ffffffffffffffffffffffffffffffffffffffff1673ffffffffffffffffffffffffffffffffffffffff168152602001908152602001600020600101808054806020026020016040519081016040528092919081815260200182805480156114cf57602002820191906000526020600020905b8154815260200190600101908083116114bb575b5050505050905091509150915091565b60025481565b6000813590506114f481611d51565b92915050565b60008135905061150981611d68565b92915050565b60006020828403121561152157600080fd5b600061152f848285016114e5565b91505092915050565b6000806040838503121561154b57600080fd5b6000611559858286016114e5565b925050602061156a858286016114fa565b9150509250929050565b60006020828403121561158657600080fd5b6000611594848285016114fa565b91505092915050565b600080604083850312156115b057600080fd5b60006115be858286016114fa565b92505060206115cf858286016114fa565b9150509250929050565b60006115e58383611778565b60208301905092915050565b6115fa81611b1c565b82525050565b600061160b82611a42565b6116158185611a65565b935061162083611a32565b8060005b8381101561165157815161163888826115d9565b975061164383611a58565b925050600181019050611624565b5085935050505092915050565b61166781611b2e565b82525050565b600061167882611a4d565b6116828185611a81565b9350611692818560208601611b64565b61169b81611c70565b840191505092915050565b60006116b3600d83611a81565b91506116be82611c81565b602082019050919050565b60006116d6601483611a81565b91506116e182611caa565b602082019050919050565b60006116f9601583611a81565b915061170482611cd3565b602082019050919050565b600061171c600083611a76565b915061172782611cfc565b600082019050919050565b600061173f601f83611a81565b915061174a82611cff565b602082019050919050565b6000611762601083611a81565b915061176d82611d28565b602082019050919050565b61178181611b5a565b82525050565b61179081611b5a565b82525050565b60006117a18261170f565b9150819050919050565b60006020820190506117c060008301846115f1565b92915050565b60006040820190506117db60008301856115f1565b6117e8602083018461165e565b9392505050565b600060608201905061180460008301866115f1565b6118116020830185611787565b61181e604083018461165e565b949350505050565b600060808201905061183b60008301876115f1565b6118486020830186611787565b6118556040830185611787565b611862606083018461165e565b95945050505050565b6000602082019050611880600083018461165e565b92915050565b600060408201905061189b600083018561165e565b81810360208301526118ad8184611600565b90509392505050565b600060208201905081810360008301526118cf816116a6565b9050919050565b600060208201905081810360008301526118ef816116c9565b9050919050565b6000602082019050818103600083015261190f816116ec565b9050919050565b6000602082019050818103600083015261192f81611732565b9050919050565b6000602082019050818103600083015261194f81611755565b9050919050565b600060208201905061196b6000830184611787565b92915050565b600060a0820190506119866000830188611787565b61199360208301876115f1565b81810360408301526119a5818661166d565b90506119b46060830185611787565b6119c16080830184611787565b9695505050505050565b60006040820190506119e06000830185611787565b6119ed602083018461165e565b9392505050565b6000606082019050611a096000830186611787565b8181036020830152611a1b818561166d565b9050611a2a6040830184611787565b949350505050565b6000819050602082019050919050565b600081519050919050565b600081519050919050565b6000602082019050919050565b600082825260208201905092915050565b600081905092915050565b600082825260208201905092915050565b6000611a9d82611b5a565b9150611aa883611b5a565b9250827fffffffffffffffffffffffffffffffffffffffffffffffffffffffffffffffff03821115611add57611adc611c12565b5b828201905092915050565b6000611af382611b5a565b9150611afe83611b5a565b925082821015611b1157611b10611c12565b5b828203905092915050565b6000611b2782611b3a565b9050919050565b60008115159050919050565b600073ffffffffffffffffffffffffffffffffffffffff82169050919050565b6000819050919050565b60005b83811015611b82578082015181840152602081019050611b67565b83811115611b91576000848401525b50505050565b60006002820490506001821680611baf57607f821691505b60208210811415611bc357611bc2611c41565b5b50919050565b6000611bd482611b5a565b91507fffffffffffffffffffffffffffffffffffffffffffffffffffffffffffffffff821415611c0757611c06611c12565b5b600182019050919050565b7f4e487b7100000000000000000000000000000000000000000000000000000000600052601160045260246000fd5b7f4e487b7100000000000000000000000000000000000000000000000000000000600052602260045260246000fd5b6000601f19601f8301169050919050565b7f707269636520746f6f206c6f7700000000000000000000000000000000000000600082015250565b7f4661696c656420746f2073656e64204574686572000000000000000000000000600082015250565b7f6465706f7369742065746820746f206c697374656e0000000000000000000000600082015250565b50565b7f5265656e7472616e637947756172643a207265656e7472616e742063616c6c00600082015250565b7f6e6f7420656e6f7567682076616c756500000000000000000000000000000000600082015250565b611d5a81611b1c565b8114611d6557600080fd5b50565b611d7181611b5a565b8114611d7c57600080fd5b5056fea2646970667358221220fa656b8db3dd6d437d9b21e32732eca72359f9b1f013fbec5c843cc5222ceab364736f6c63430008040033",
  "linkReferences": {},
  "deployedLinkReferences": {}
}