{
  "_format": "hh-sol-artifact-1",
  "contractName": "UserInteraction",
  "sourceName": "contracts/UserInteraction.sol",
  "abi": [
    {
      "anonymous": false,
      "inputs": [
        {
          "indexed": false,
          "internalType": "uint256",
          "name": "_albumID",
          "type": "uint256"
        },
        {
          "indexed": false,
          "internalType": "bool",
          "name": "success",
          "type": "bool"
        }
      ],
      "name": "AlbumPurchased",
      "type": "event"
    },
    {
      "anonymous": false,
      "inputs": [
        {
          "indexed": false,
          "internalType": "address",
          "name": "_depositer",
          "type": "address"
        },
        {
          "indexed": false,
          "internalType": "uint256",
          "name": "_amount",
          "type": "uint256"
        },
        {
          "indexed": false,
          "internalType": "bool",
          "name": "success",
          "type": "bool"
        }
      ],
      "name": "AmountDeposited",
      "type": "event"
    },
    {
      "anonymous": false,
      "inputs": [
        {
          "indexed": false,
          "internalType": "uint256",
          "name": "_songID",
          "type": "uint256"
        },
        {
          "indexed": false,
          "internalType": "bool",
          "name": "success",
          "type": "bool"
        }
      ],
      "name": "SongPlayed",
      "type": "event"
    },
    {
      "anonymous": false,
      "inputs": [
        {
          "indexed": false,
          "internalType": "address",
          "name": "registree",
          "type": "address"
        },
        {
          "indexed": false,
          "internalType": "bool",
          "name": "registered",
          "type": "bool"
        }
      ],
      "name": "UserRegistered",
      "type": "event"
    },
    {
      "anonymous": false,
      "inputs": [
        {
          "indexed": false,
          "internalType": "address",
          "name": "withdrawee",
          "type": "address"
        },
        {
          "indexed": false,
          "internalType": "uint256",
          "name": "_amount",
          "type": "uint256"
        },
        {
          "indexed": false,
          "internalType": "uint256",
          "name": "current_balance",
          "type": "uint256"
        },
        {
          "indexed": false,
          "internalType": "bool",
          "name": "success",
          "type": "bool"
        }
      ],
      "name": "WithdrawalComplete",
      "type": "event"
    },
    {
      "stateMutability": "payable",
      "type": "fallback"
    },
    {
      "inputs": [
        {
          "internalType": "uint256",
          "name": "albumID",
          "type": "uint256"
        }
      ],
      "name": "Buy",
      "outputs": [],
      "stateMutability": "payable",
      "type": "function"
    },
    {
      "inputs": [
        {
          "internalType": "uint256",
          "name": "albumID",
          "type": "uint256"
        },
        {
          "internalType": "uint256",
          "name": "songID",
          "type": "uint256"
        }
      ],
      "name": "Play",
      "outputs": [
        {
          "internalType": "bool",
          "name": "",
          "type": "bool"
        }
      ],
      "stateMutability": "nonpayable",
      "type": "function"
    },
    {
      "inputs": [],
      "name": "RegisterAddress",
      "outputs": [
        {
          "internalType": "bool",
          "name": "",
          "type": "bool"
        }
      ],
      "stateMutability": "nonpayable",
      "type": "function"
    },
    {
      "inputs": [],
      "name": "albumCounter",
      "outputs": [
        {
          "internalType": "uint256",
          "name": "",
          "type": "uint256"
        }
      ],
      "stateMutability": "view",
      "type": "function"
    },
    {
      "inputs": [
        {
          "internalType": "address",
          "name": "",
          "type": "address"
        },
        {
          "internalType": "uint256",
          "name": "",
          "type": "uint256"
        }
      ],
      "name": "albumStats",
      "outputs": [
        {
          "internalType": "uint256",
          "name": "albumID",
          "type": "uint256"
        },
        {
          "internalType": "address",
          "name": "artist",
          "type": "address"
        },
        {
          "internalType": "string",
          "name": "albumName",
          "type": "string"
        },
        {
          "internalType": "uint256",
          "name": "totalAlbumPurchases",
          "type": "uint256"
        },
        {
          "internalType": "uint256",
          "name": "totalSongPlays",
          "type": "uint256"
        }
      ],
      "stateMutability": "view",
      "type": "function"
    },
    {
      "inputs": [],
      "name": "depositBalance",
      "outputs": [],
      "stateMutability": "payable",
      "type": "function"
    },
    {
      "inputs": [],
      "name": "getAlbumOwnership",
      "outputs": [
        {
          "internalType": "bool",
          "name": "",
          "type": "bool"
        }
      ],
      "stateMutability": "view",
      "type": "function"
    },
    {
      "inputs": [],
      "name": "getDepositBalance",
      "outputs": [
        {
          "internalType": "uint256",
          "name": "",
          "type": "uint256"
        }
      ],
      "stateMutability": "view",
      "type": "function"
    },
    {
      "inputs": [
        {
          "internalType": "uint256",
          "name": "songID",
          "type": "uint256"
        }
      ],
      "name": "getPlayCount",
      "outputs": [
        {
          "internalType": "uint256",
          "name": "",
          "type": "uint256"
        }
      ],
      "stateMutability": "view",
      "type": "function"
    },
    {
      "inputs": [
        {
          "internalType": "address",
          "name": "userAddress",
          "type": "address"
        }
      ],
      "name": "getRegisteredAddress",
      "outputs": [
        {
          "internalType": "bool",
          "name": "registration",
          "type": "bool"
        },
        {
          "internalType": "uint256[]",
          "name": "albumsOwned",
          "type": "uint256[]"
        }
      ],
      "stateMutability": "view",
      "type": "function"
    },
    {
      "inputs": [
        {
          "internalType": "uint256",
          "name": "songNumber",
          "type": "uint256"
        }
      ],
      "name": "getSongInfo",
      "outputs": [
        {
          "internalType": "uint256",
          "name": "id",
          "type": "uint256"
        },
        {
          "internalType": "string",
          "name": "title",
          "type": "string"
        },
        {
          "internalType": "uint256",
          "name": "playCount",
          "type": "uint256"
        }
      ],
      "stateMutability": "view",
      "type": "function"
    },
    {
      "inputs": [],
      "name": "owner",
      "outputs": [
        {
          "internalType": "address",
          "name": "",
          "type": "address"
        }
      ],
      "stateMutability": "view",
      "type": "function"
    },
    {
      "inputs": [
        {
          "internalType": "address",
          "name": "",
          "type": "address"
        }
      ],
      "name": "registeredUsers",
      "outputs": [
        {
          "internalType": "bool",
          "name": "registered",
          "type": "bool"
        }
      ],
      "stateMutability": "view",
      "type": "function"
    },
    {
      "inputs": [
        {
          "internalType": "uint256",
          "name": "",
          "type": "uint256"
        }
      ],
      "name": "songList",
      "outputs": [
        {
          "internalType": "uint256",
          "name": "songID",
          "type": "uint256"
        },
        {
          "internalType": "string",
          "name": "songName",
          "type": "string"
        },
        {
          "internalType": "uint256",
          "name": "playCount",
          "type": "uint256"
        }
      ],
      "stateMutability": "view",
      "type": "function"
    },
    {
      "inputs": [
        {
          "internalType": "uint256",
          "name": "",
          "type": "uint256"
        }
      ],
      "name": "totalSongCount",
      "outputs": [
        {
          "internalType": "uint256",
          "name": "",
          "type": "uint256"
        }
      ],
      "stateMutability": "view",
      "type": "function"
    },
    {
      "inputs": [
        {
          "internalType": "address",
          "name": "",
          "type": "address"
        }
      ],
      "name": "userAlbumPurchase",
      "outputs": [
        {
          "internalType": "bool",
          "name": "",
          "type": "bool"
        }
      ],
      "stateMutability": "view",
      "type": "function"
    },
    {
      "inputs": [
        {
          "internalType": "address",
          "name": "",
          "type": "address"
        }
      ],
      "name": "userPlayBalance",
      "outputs": [
        {
          "internalType": "uint256",
          "name": "",
          "type": "uint256"
        }
      ],
      "stateMutability": "view",
      "type": "function"
    },
    {
      "inputs": [],
      "name": "verifyRegistration",
      "outputs": [
        {
          "internalType": "bool",
          "name": "",
          "type": "bool"
        }
      ],
      "stateMutability": "view",
      "type": "function"
    },
    {
      "inputs": [],
      "name": "withdrawBalance",
      "outputs": [
        {
          "internalType": "uint256",
          "name": "",
          "type": "uint256"
        }
      ],
      "stateMutability": "payable",
      "type": "function"
    },
    {
      "stateMutability": "payable",
      "type": "receive"
    }
  ],
  "bytecode": "0x60806040523480156200001157600080fd5b50600160008190555033600160006101000a81548173ffffffffffffffffffffffffffffffffffffffff021916908373ffffffffffffffffffffffffffffffffffffffff16021790555060016002819055506040518060600160405280600181526020016040518060400160405280600a81526020017f467574757265436c756200000000000000000000000000000000000000000000815250815260200160008152506004600060018152602001908152602001600020600082015181600001556020820151816001019080519060200190620000f192919062000105565b50604082015181600201559050506200021a565b8280546200011390620001b5565b90600052602060002090601f01602090048101928262000137576000855562000183565b82601f106200015257805160ff191683800117855562000183565b8280016001018555821562000183579182015b828111156200018257825182559160200191906001019062000165565b5b50905062000192919062000196565b5090565b5b80821115620001b157600081600090555060010162000197565b5090565b60006002820490506001821680620001ce57607f821691505b60208210811415620001e557620001e4620001eb565b5b50919050565b7f4e487b7100000000000000000000000000000000000000000000000000000000600052602260045260246000fd5b611cf1806200022a6000396000f3fe6080604052600436106101185760003560e01c80638da5cb5b116100a0578063d799ed1d11610064578063d799ed1d146103c2578063d9e73f3b146103ff578063de2ea5dc1461042a578063f6dc26b714610469578063f99bf3da146104a75761011f565b80638da5cb5b146102b157806399c79410146102dc578063a786eef814610319578063bc3bd4a01461035a578063bf441060146103975761011f565b80633e328218116100e75780633e328218146102055780634b64b2e9146102215780635fd8c7101461024c57806361bc1a491461026a5780636a58b8bd146102745761011f565b80630497de4a146101215780630e50cee51461014c5780632e6e190e146101895780633a562377146101c65761011f565b3661011f57005b005b34801561012d57600080fd5b506101366104d2565b6040516101439190611962565b60405180910390f35b34801561015857600080fd5b50610173600480360381019061016e9190611493565b610519565b6040516101809190611877565b60405180910390f35b34801561019557600080fd5b506101b060048036038101906101ab9190611521565b610544565b6040516101bd9190611877565b60405180910390f35b3480156101d257600080fd5b506101ed60048036038101906101e891906114f8565b6107b1565b6040516101fc93929190611a00565b60405180910390f35b61021f600480360381019061021a91906114f8565b610863565b005b34801561022d57600080fd5b50610236610b35565b6040516102439190611877565b60405180910390f35b610254610ba4565b6040516102619190611962565b60405180910390f35b610272610ea9565b005b34801561028057600080fd5b5061029b60048036038101906102969190611493565b610f9d565b6040516102a89190611962565b60405180910390f35b3480156102bd57600080fd5b506102c6610fb5565b6040516102d391906117b7565b60405180910390f35b3480156102e857600080fd5b5061030360048036038101906102fe91906114f8565b610fdb565b6040516103109190611962565b60405180910390f35b34801561032557600080fd5b50610340600480360381019061033b91906114bc565b610ff8565b60405161035195949392919061197d565b60405180910390f35b34801561036657600080fd5b50610381600480360381019061037c9190611493565b6110e3565b60405161038e9190611877565b60405180910390f35b3480156103a357600080fd5b506103ac611103565b6040516103b99190611877565b60405180910390f35b3480156103ce57600080fd5b506103e960048036038101906103e491906114f8565b61116f565b6040516103f69190611962565b60405180910390f35b34801561040b57600080fd5b50610414611187565b6040516104219190611877565b60405180910390f35b34801561043657600080fd5b50610451600480360381019061044c91906114f8565b61128f565b60405161046093929190611a00565b60405180910390f35b34801561047557600080fd5b50610490600480360381019061048b9190611493565b611372565b60405161049e929190611892565b60405180910390f35b3480156104b357600080fd5b506104bc611463565b6040516104c99190611962565b60405180910390f35b6000600960003373ffffffffffffffffffffffffffffffffffffffff1673ffffffffffffffffffffffffffffffffffffffff16815260200190815260200160002054905090565b60036020528060005260406000206000915090508060000160009054906101000a900460ff16905081565b600060011515600360003373ffffffffffffffffffffffffffffffffffffffff1673ffffffffffffffffffffffffffffffffffffffff16815260200190815260200160002060000160009054906101000a900460ff161515146105a657600080fd5b6000650130bae7109390506000600960003373ffffffffffffffffffffffffffffffffffffffff1673ffffffffffffffffffffffffffffffffffffffff1681526020019081526020016000205411610633576040517f08c379a000000000000000000000000000000000000000000000000000000000815260040161062a90611902565b60405180910390fd5b6000600560003373ffffffffffffffffffffffffffffffffffffffff1673ffffffffffffffffffffffffffffffffffffffff168152602001908152602001600020600086815260200190815260200160002060040160008581526020019081526020016000206002015490506000600760008681526020019081526020016000205411156106f75780806106c690611bd5565b9150506007600085815260200190815260200160002060008154809291906106ed90611bd5565b9190505550610715565b60019050600160076000868152602001908152602001600020819055505b81600960003373ffffffffffffffffffffffffffffffffffffffff1673ffffffffffffffffffffffffffffffffffffffff16815260200190815260200160002060008282546107649190611af4565b925050819055507fbb7eb7164d332a76845305e9657c6e6e1557690f62c51bb3142a30bdd9a7570784600160405161079d9291906119d7565b60405180910390a160019250505092915050565b60046020528060005260406000206000915090508060000154908060010180546107da90611ba3565b80601f016020809104026020016040519081016040528092919081815260200182805461080690611ba3565b80156108535780601f1061082857610100808354040283529160200191610853565b820191906000526020600020905b81548152906001019060200180831161083657829003601f168201915b5050505050908060020154905083565b60011515600360003373ffffffffffffffffffffffffffffffffffffffff1673ffffffffffffffffffffffffffffffffffffffff16815260200190815260200160002060000160009054906101000a900460ff161515146108c357600080fd5b600066094ffe72f165fc9050803414610911576040517f08c379a0000000000000000000000000000000000000000000000000000000008152600401610908906118c2565b60405180910390fd5b80600960003373ffffffffffffffffffffffffffffffffffffffff1673ffffffffffffffffffffffffffffffffffffffff16815260200190815260200160002060008282546109609190611af4565b925050819055506000600160009054906101000a900473ffffffffffffffffffffffffffffffffffffffff1673ffffffffffffffffffffffffffffffffffffffff16826040516109af906117a2565b60006040518083038185875af1925050503d80600081146109ec576040519150601f19603f3d011682016040523d82523d6000602084013e6109f1565b606091505b5050905080610a35576040517f08c379a0000000000000000000000000000000000000000000000000000000008152600401610a2c906118e2565b60405180910390fd5b600360003373ffffffffffffffffffffffffffffffffffffffff1673ffffffffffffffffffffffffffffffffffffffff1681526020019081526020016000206001018390806001815401808255809150506001900390600052602060002001600090919091909150556001600860003373ffffffffffffffffffffffffffffffffffffffff1673ffffffffffffffffffffffffffffffffffffffff16815260200190815260200160002060006101000a81548160ff0219169083151502179055507f98114562ef3b3c5ad63c855c5ce939d087bb1e8d73ecd13111fc2b20f7e59a25836001604051610b289291906119d7565b60405180910390a1505050565b600060011515600360003373ffffffffffffffffffffffffffffffffffffffff1673ffffffffffffffffffffffffffffffffffffffff16815260200190815260200160002060000160009054906101000a900460ff1615151415610b9c5760019050610ba1565b600090505b90565b600060011515600360003373ffffffffffffffffffffffffffffffffffffffff1673ffffffffffffffffffffffffffffffffffffffff16815260200190815260200160002060000160009054906101000a900460ff16151514610c0657600080fd5b60026000541415610c4c576040517f08c379a0000000000000000000000000000000000000000000000000000000008152600401610c4390611922565b60405180910390fd5b60026000819055506000600960003373ffffffffffffffffffffffffffffffffffffffff1673ffffffffffffffffffffffffffffffffffffffff16815260200190815260200160002054341115610cd8576040517f08c379a0000000000000000000000000000000000000000000000000000000008152600401610ccf90611942565b60405180910390fd5b34600960003373ffffffffffffffffffffffffffffffffffffffff1673ffffffffffffffffffffffffffffffffffffffff1681526020019081526020016000206000828254610d279190611af4565b9250508190555060003373ffffffffffffffffffffffffffffffffffffffff1634604051610d54906117a2565b60006040518083038185875af1925050503d8060008114610d91576040519150601f19603f3d011682016040523d82523d6000602084013e610d96565b606091505b5050905080610dda576040517f08c379a0000000000000000000000000000000000000000000000000000000008152600401610dd1906118e2565b60405180910390fd5b7fca1ca4a4ed1d761392f1f336a9f048057be1d9003241ad675ceb40512068fa0a3334600960003373ffffffffffffffffffffffffffffffffffffffff1673ffffffffffffffffffffffffffffffffffffffff168152602001908152602001600020546001604051610e4f9493929190611832565b60405180910390a1600960003373ffffffffffffffffffffffffffffffffffffffff1673ffffffffffffffffffffffffffffffffffffffff1681526020019081526020016000205491508192505050600160008190555090565b60011515600360003373ffffffffffffffffffffffffffffffffffffffff1673ffffffffffffffffffffffffffffffffffffffff16815260200190815260200160002060000160009054906101000a900460ff16151514610f0957600080fd5b34600960003373ffffffffffffffffffffffffffffffffffffffff1673ffffffffffffffffffffffffffffffffffffffff1681526020019081526020016000206000828254610f589190611a9e565b925050819055507f520c4ea8c325231e5eaa6218eaaa8f78402f02349f15dba724eb30ebfc756f3133346001604051610f93939291906117fb565b60405180910390a1565b60096020528060005260406000206000915090505481565b600160009054906101000a900473ffffffffffffffffffffffffffffffffffffffff1681565b600060076000838152602001908152602001600020549050919050565b6005602052816000526040600020602052806000526040600020600091509150508060000154908060010160009054906101000a900473ffffffffffffffffffffffffffffffffffffffff169080600201805461105490611ba3565b80601f016020809104026020016040519081016040528092919081815260200182805461108090611ba3565b80156110cd5780601f106110a2576101008083540402835291602001916110cd565b820191906000526020600020905b8154815290600101906020018083116110b057829003601f168201915b5050505050908060050154908060060154905085565b60086020528060005260406000206000915054906101000a900460ff1681565b600060011515600860003373ffffffffffffffffffffffffffffffffffffffff1673ffffffffffffffffffffffffffffffffffffffff16815260200190815260200160002060009054906101000a900460ff1615151415611167576001905061116c565b600090505b90565b60076020528060005260406000206000915090505481565b60006001600360003373ffffffffffffffffffffffffffffffffffffffff1673ffffffffffffffffffffffffffffffffffffffff16815260200190815260200160002060000160006101000a81548160ff021916908315150217905550600360003373ffffffffffffffffffffffffffffffffffffffff1673ffffffffffffffffffffffffffffffffffffffff168152602001908152602001600020600101600090806001815401808255809150506001900390600052602060002001600090919091909150557f28a24a60e275c9be5babc23ecefd3240b1fcd56ef4d3fe4818437200b55ae5ff3360016040516112809291906117d2565b60405180910390a16001905090565b60006060600060046000858152602001908152602001600020600001546004600086815260200190815260200160002060010160046000878152602001908152602001600020600201548180546112e590611ba3565b80601f016020809104026020016040519081016040528092919081815260200182805461131190611ba3565b801561135e5780601f106113335761010080835404028352916020019161135e565b820191906000526020600020905b81548152906001019060200180831161134157829003601f168201915b505050505091509250925092509193909250565b60006060600360008473ffffffffffffffffffffffffffffffffffffffff1673ffffffffffffffffffffffffffffffffffffffff16815260200190815260200160002060000160009054906101000a900460ff16600360008573ffffffffffffffffffffffffffffffffffffffff1673ffffffffffffffffffffffffffffffffffffffff1681526020019081526020016000206001018080548060200260200160405190810160405280929190818152602001828054801561145357602002820191906000526020600020905b81548152602001906001019080831161143f575b5050505050905091509150915091565b60025481565b60008135905061147881611c8d565b92915050565b60008135905061148d81611ca4565b92915050565b6000602082840312156114a557600080fd5b60006114b384828501611469565b91505092915050565b600080604083850312156114cf57600080fd5b60006114dd85828601611469565b92505060206114ee8582860161147e565b9150509250929050565b60006020828403121561150a57600080fd5b60006115188482850161147e565b91505092915050565b6000806040838503121561153457600080fd5b60006115428582860161147e565b92505060206115538582860161147e565b9150509250929050565b60006115698383611784565b60208301905092915050565b61157e81611b28565b82525050565b600061158f82611a4e565b6115998185611a71565b93506115a483611a3e565b8060005b838110156115d55781516115bc888261155d565b97506115c783611a64565b9250506001810190506115a8565b5085935050505092915050565b6115eb81611b3a565b82525050565b60006115fc82611a59565b6116068185611a8d565b9350611616818560208601611b70565b61161f81611c7c565b840191505092915050565b6000611637600d83611a8d565b91507f707269636520746f6f206c6f77000000000000000000000000000000000000006000830152602082019050919050565b6000611677601483611a8d565b91507f4661696c656420746f2073656e642045746865720000000000000000000000006000830152602082019050919050565b60006116b7601583611a8d565b91507f6465706f7369742065746820746f206c697374656e00000000000000000000006000830152602082019050919050565b60006116f7600083611a82565b9150600082019050919050565b6000611711601f83611a8d565b91507f5265656e7472616e637947756172643a207265656e7472616e742063616c6c006000830152602082019050919050565b6000611751601083611a8d565b91507f6e6f7420656e6f7567682076616c7565000000000000000000000000000000006000830152602082019050919050565b61178d81611b66565b82525050565b61179c81611b66565b82525050565b60006117ad826116ea565b9150819050919050565b60006020820190506117cc6000830184611575565b92915050565b60006040820190506117e76000830185611575565b6117f460208301846115e2565b9392505050565b60006060820190506118106000830186611575565b61181d6020830185611793565b61182a60408301846115e2565b949350505050565b60006080820190506118476000830187611575565b6118546020830186611793565b6118616040830185611793565b61186e60608301846115e2565b95945050505050565b600060208201905061188c60008301846115e2565b92915050565b60006040820190506118a760008301856115e2565b81810360208301526118b98184611584565b90509392505050565b600060208201905081810360008301526118db8161162a565b9050919050565b600060208201905081810360008301526118fb8161166a565b9050919050565b6000602082019050818103600083015261191b816116aa565b9050919050565b6000602082019050818103600083015261193b81611704565b9050919050565b6000602082019050818103600083015261195b81611744565b9050919050565b60006020820190506119776000830184611793565b92915050565b600060a0820190506119926000830188611793565b61199f6020830187611575565b81810360408301526119b181866115f1565b90506119c06060830185611793565b6119cd6080830184611793565b9695505050505050565b60006040820190506119ec6000830185611793565b6119f960208301846115e2565b9392505050565b6000606082019050611a156000830186611793565b8181036020830152611a2781856115f1565b9050611a366040830184611793565b949350505050565b6000819050602082019050919050565b600081519050919050565b600081519050919050565b6000602082019050919050565b600082825260208201905092915050565b600081905092915050565b600082825260208201905092915050565b6000611aa982611b66565b9150611ab483611b66565b9250827fffffffffffffffffffffffffffffffffffffffffffffffffffffffffffffffff03821115611ae957611ae8611c1e565b5b828201905092915050565b6000611aff82611b66565b9150611b0a83611b66565b925082821015611b1d57611b1c611c1e565b5b828203905092915050565b6000611b3382611b46565b9050919050565b60008115159050919050565b600073ffffffffffffffffffffffffffffffffffffffff82169050919050565b6000819050919050565b60005b83811015611b8e578082015181840152602081019050611b73565b83811115611b9d576000848401525b50505050565b60006002820490506001821680611bbb57607f821691505b60208210811415611bcf57611bce611c4d565b5b50919050565b6000611be082611b66565b91507fffffffffffffffffffffffffffffffffffffffffffffffffffffffffffffffff821415611c1357611c12611c1e565b5b600182019050919050565b7f4e487b7100000000000000000000000000000000000000000000000000000000600052601160045260246000fd5b7f4e487b7100000000000000000000000000000000000000000000000000000000600052602260045260246000fd5b6000601f19601f8301169050919050565b611c9681611b28565b8114611ca157600080fd5b50565b611cad81611b66565b8114611cb857600080fd5b5056fea26469706673582212200458ec8100cf05005c3fc243b5fd18e0a8f4b6cbf1c98ceade5096b3c163526564736f6c63430008000033",
  "linkReferences": {},
  "deployedLinkReferences": {}
}