{
  "_format": "hh-sol-artifact-1",
  "contractName": "UserInteraction",
  "sourceName": "contracts/UserInteraction.sol",
  "abi": [
    {
      "inputs": [],
      "stateMutability": "nonpayable",
      "type": "constructor"
    },
    {
      "inputs": [
        {
          "internalType": "uint256",
          "name": "albumID",
          "type": "uint256"
        },
        {
          "internalType": "uint256",
          "name": "price",
          "type": "uint256"
        }
      ],
      "name": "Buy",
      "outputs": [
        {
          "internalType": "bool",
          "name": "",
          "type": "bool"
        }
      ],
      "stateMutability": "payable",
      "type": "function"
    },
    {
      "inputs": [
        {
          "internalType": "uint256",
          "name": "albumID",
          "type": "uint256"
        },
        {
          "internalType": "uint256",
          "name": "songID",
          "type": "uint256"
        }
      ],
      "name": "Play",
      "outputs": [],
      "stateMutability": "payable",
      "type": "function"
    },
    {
      "inputs": [],
      "name": "RegisterAddress",
      "outputs": [
        {
          "internalType": "bool",
          "name": "",
          "type": "bool"
        }
      ],
      "stateMutability": "nonpayable",
      "type": "function"
    },
    {
      "inputs": [
        {
          "internalType": "uint256",
          "name": "",
          "type": "uint256"
        }
      ],
      "name": "albumDirectory",
      "outputs": [
        {
          "internalType": "uint256",
          "name": "albumID",
          "type": "uint256"
        },
        {
          "internalType": "address",
          "name": "artist",
          "type": "address"
        },
        {
          "internalType": "string",
          "name": "albumName",
          "type": "string"
        },
        {
          "internalType": "uint256",
          "name": "totalAlbumPurchases",
          "type": "uint256"
        },
        {
          "internalType": "uint256",
          "name": "totalSongPlays",
          "type": "uint256"
        }
      ],
      "stateMutability": "view",
      "type": "function"
    },
    {
      "inputs": [
        {
          "internalType": "address",
          "name": "",
          "type": "address"
        },
        {
          "internalType": "uint256",
          "name": "",
          "type": "uint256"
        }
      ],
      "name": "albumStats",
      "outputs": [
        {
          "internalType": "uint256",
          "name": "albumID",
          "type": "uint256"
        },
        {
          "internalType": "address",
          "name": "artist",
          "type": "address"
        },
        {
          "internalType": "string",
          "name": "albumName",
          "type": "string"
        },
        {
          "internalType": "uint256",
          "name": "totalAlbumPurchases",
          "type": "uint256"
        },
        {
          "internalType": "uint256",
          "name": "totalSongPlays",
          "type": "uint256"
        }
      ],
      "stateMutability": "view",
      "type": "function"
    },
    {
      "inputs": [
        {
          "internalType": "address",
          "name": "userAddress",
          "type": "address"
        }
      ],
      "name": "getRegisteredAddress",
      "outputs": [
        {
          "internalType": "bool",
          "name": "",
          "type": "bool"
        }
      ],
      "stateMutability": "view",
      "type": "function"
    },
    {
      "inputs": [],
      "name": "getUserChannelAddress",
      "outputs": [
        {
          "internalType": "address",
          "name": "",
          "type": "address"
        }
      ],
      "stateMutability": "view",
      "type": "function"
    },
    {
      "inputs": [
        {
          "internalType": "address payable",
          "name": "_vault",
          "type": "address"
        },
        {
          "internalType": "uint256",
          "name": "_duration",
          "type": "uint256"
        }
      ],
      "name": "newPaymentChannel",
      "outputs": [
        {
          "internalType": "address",
          "name": "userChannel",
          "type": "address"
        }
      ],
      "stateMutability": "nonpayable",
      "type": "function"
    },
    {
      "inputs": [
        {
          "internalType": "address",
          "name": "",
          "type": "address"
        }
      ],
      "name": "registeredArtists",
      "outputs": [
        {
          "internalType": "bool",
          "name": "registered",
          "type": "bool"
        },
        {
          "internalType": "uint256",
          "name": "totalAlbumSales",
          "type": "uint256"
        },
        {
          "internalType": "uint256",
          "name": "totalSongPlays",
          "type": "uint256"
        }
      ],
      "stateMutability": "view",
      "type": "function"
    },
    {
      "inputs": [
        {
          "internalType": "address",
          "name": "",
          "type": "address"
        }
      ],
      "name": "registeredUsers",
      "outputs": [
        {
          "internalType": "bool",
          "name": "registered",
          "type": "bool"
        }
      ],
      "stateMutability": "view",
      "type": "function"
    },
    {
      "inputs": [
        {
          "internalType": "address",
          "name": "",
          "type": "address"
        }
      ],
      "name": "userPaymentChannel",
      "outputs": [
        {
          "internalType": "address",
          "name": "",
          "type": "address"
        }
      ],
      "stateMutability": "view",
      "type": "function"
    },
    {
      "inputs": [
        {
          "internalType": "address",
          "name": "",
          "type": "address"
        }
      ],
      "name": "userPurchases",
      "outputs": [
        {
          "internalType": "uint256",
          "name": "",
          "type": "uint256"
        }
      ],
      "stateMutability": "view",
      "type": "function"
    },
    {
      "inputs": [],
      "name": "verifyRegistration",
      "outputs": [
        {
          "internalType": "bool",
          "name": "",
          "type": "bool"
        }
      ],
      "stateMutability": "view",
      "type": "function"
    }
  ],
  "bytecode": "0x608060405234801561001057600080fd5b50336000806101000a81548173ffffffffffffffffffffffffffffffffffffffff021916908373ffffffffffffffffffffffffffffffffffffffff160217905550612121806100606000396000f3fe608060405260043610620000d45760003560e01c80638a4f1f9a116200008b578063c898f3251162000061578063c898f32514620002eb578063d9e73f3b146200032f578063f558369f146200035f578063f6dc26b714620003a557620000d4565b80638a4f1f9a146200022f578063a786eef81462000273578063bdd2ae7a14620002bb57620000d4565b80630e50cee514620000d95780632e6e190e146200011d57806339f65c09146200013d5780634b64b2e914620001815780635ade502014620001b157806376911b5d14620001f9575b600080fd5b348015620000e657600080fd5b50620001056004803603810190620000ff919062000d00565b620003e9565b60405162000114919062000eea565b60405180910390f35b6200013b600480360381019062000135919062000dda565b62000414565b005b3480156200014a57600080fd5b5062000169600480360381019062000163919062000d00565b620005c7565b60405162000178919062000f78565b60405180910390f35b3480156200018e57600080fd5b5062000199620005df565b604051620001a8919062000eea565b60405180910390f35b348015620001be57600080fd5b50620001dd6004803603810190620001d7919062000dae565b62000650565b604051620001f095949392919062000f95565b60405180910390f35b62000217600480360381019062000211919062000dda565b62000736565b60405162000226919062000eea565b60405180910390f35b3480156200023c57600080fd5b506200025b600480360381019062000255919062000d00565b62000813565b6040516200026a919062000ea0565b60405180910390f35b3480156200028057600080fd5b506200029f600480360381019062000299919062000d6d565b62000846565b604051620002b295949392919062000f95565b60405180910390f35b348015620002c857600080fd5b50620002d362000939565b604051620002e2919062000ea0565b60405180910390f35b348015620002f857600080fd5b5062000317600480360381019062000311919062000d2c565b620009a0565b60405162000326919062000ea0565b60405180910390f35b3480156200033c57600080fd5b506200034762000a63565b60405162000356919062000eea565b60405180910390f35b3480156200036c57600080fd5b506200038b600480360381019062000385919062000d00565b62000ac4565b6040516200039c9392919062000f07565b60405180910390f35b348015620003b257600080fd5b50620003d16004803603810190620003cb919062000d00565b62000afb565b604051620003e0919062000eea565b60405180910390f35b60036020528060005260406000206000915090508060000160009054906101000a900460ff16905081565b60011515600360003373ffffffffffffffffffffffffffffffffffffffff1673ffffffffffffffffffffffffffffffffffffffff16815260200190815260200160002060000160009054906101000a900460ff161515146200047557600080fd5b6000600660003373ffffffffffffffffffffffffffffffffffffffff1673ffffffffffffffffffffffffffffffffffffffff1681526020019081526020016000206000848152602001908152602001600020600401600083815260200190815260200160002060030154905060018111156200056457600181620004fa919062001015565b506001600660003373ffffffffffffffffffffffffffffffffffffffff1673ffffffffffffffffffffffffffffffffffffffff1681526020019081526020016000206000858152602001908152602001600020600601546200055d919062001015565b50620005c2565b600190506001600660003373ffffffffffffffffffffffffffffffffffffffff1673ffffffffffffffffffffffffffffffffffffffff1681526020019081526020016000206000858152602001908152602001600020600601819055505b505050565b60086020528060005260406000206000915090505481565b600060011515600360003373ffffffffffffffffffffffffffffffffffffffff1673ffffffffffffffffffffffffffffffffffffffff16815260200190815260200160002060000160009054906101000a900460ff16151514156200064857600190506200064d565b600090505b90565b60056020528060005260406000206000915090508060000154908060010160009054906101000a900473ffffffffffffffffffffffffffffffffffffffff1690806002018054620006a19062001106565b80601f0160208091040260200160405190810160405280929190818152602001828054620006cf9062001106565b8015620007205780601f10620006f45761010080835404028352916020019162000720565b820191906000526020600020905b8154815290600101906020018083116200070257829003601f168201915b5050505050908060050154908060060154905085565b6000600360003373ffffffffffffffffffffffffffffffffffffffff1673ffffffffffffffffffffffffffffffffffffffff16815260200190815260200160002060010183908060018154018082558091505060019003906000526020600020016000909190919091505560008054906101000a900473ffffffffffffffffffffffffffffffffffffffff1673ffffffffffffffffffffffffffffffffffffffff166108fc349081150290604051600060405180830381858888f1935050505015801562000808573d6000803e3d6000fd5b506001905092915050565b60096020528060005260406000206000915054906101000a900473ffffffffffffffffffffffffffffffffffffffff1681565b6006602052816000526040600020602052806000526040600020600091509150508060000154908060010160009054906101000a900473ffffffffffffffffffffffffffffffffffffffff1690806002018054620008a49062001106565b80601f0160208091040260200160405190810160405280929190818152602001828054620008d29062001106565b8015620009235780601f10620008f75761010080835404028352916020019162000923565b820191906000526020600020905b8154815290600101906020018083116200090557829003601f168201915b5050505050908060050154908060060154905085565b6000600960003373ffffffffffffffffffffffffffffffffffffffff1673ffffffffffffffffffffffffffffffffffffffff16815260200190815260200160002060009054906101000a900473ffffffffffffffffffffffffffffffffffffffff16905090565b60008282604051620009b29062000cad565b620009bf92919062000ebd565b604051809103906000f080158015620009dc573d6000803e3d6000fd5b50905080600960003373ffffffffffffffffffffffffffffffffffffffff1673ffffffffffffffffffffffffffffffffffffffff16815260200190815260200160002060006101000a81548173ffffffffffffffffffffffffffffffffffffffff021916908373ffffffffffffffffffffffffffffffffffffffff16021790555092915050565b60006001600360003373ffffffffffffffffffffffffffffffffffffffff1673ffffffffffffffffffffffffffffffffffffffff16815260200190815260200160002060000160006101000a81548160ff0219169083151502179055905090565b60046020528060005260406000206000915090508060000160009054906101000a900460ff16908060020154908060030154905083565b600062000b8d6040518060400160405280601281526020017f5573657220697320726567697374657265640000000000000000000000000000815250600360003373ffffffffffffffffffffffffffffffffffffffff1673ffffffffffffffffffffffffffffffffffffffff16815260200190815260200160002060000160009054906101000a900460ff1662000be4565b600360008373ffffffffffffffffffffffffffffffffffffffff1673ffffffffffffffffffffffffffffffffffffffff16815260200190815260200160002060000160009054906101000a900460ff169050919050565b62000c80828260405160240162000bfd92919062000f44565b6040516020818303038152906040527fc3b55635000000000000000000000000000000000000000000000000000000007bffffffffffffffffffffffffffffffffffffffffffffffffffffffff19166020820180517bffffffffffffffffffffffffffffffffffffffffffffffffffffffff838183161783525050505062000c84565b5050565b60008151905060006a636f6e736f6c652e6c6f679050602083016000808483855afa5050505050565b610ef280620011fa83390190565b60008135905062000ccc81620011ab565b92915050565b60008135905062000ce381620011c5565b92915050565b60008135905062000cfa81620011df565b92915050565b60006020828403121562000d1357600080fd5b600062000d238482850162000cbb565b91505092915050565b6000806040838503121562000d4057600080fd5b600062000d508582860162000cd2565b925050602062000d638582860162000ce9565b9150509250929050565b6000806040838503121562000d8157600080fd5b600062000d918582860162000cbb565b925050602062000da48582860162000ce9565b9150509250929050565b60006020828403121562000dc157600080fd5b600062000dd18482850162000ce9565b91505092915050565b6000806040838503121562000dee57600080fd5b600062000dfe8582860162000ce9565b925050602062000e118582860162000ce9565b9150509250929050565b62000e268162001086565b82525050565b62000e378162001072565b82525050565b62000e48816200109a565b82525050565b600062000e5b8262000ff9565b62000e67818562001004565b935062000e79818560208601620010d0565b62000e84816200119a565b840191505092915050565b62000e9a81620010c6565b82525050565b600060208201905062000eb7600083018462000e2c565b92915050565b600060408201905062000ed4600083018562000e1b565b62000ee3602083018462000e8f565b9392505050565b600060208201905062000f01600083018462000e3d565b92915050565b600060608201905062000f1e600083018662000e3d565b62000f2d602083018562000e8f565b62000f3c604083018462000e8f565b949350505050565b6000604082019050818103600083015262000f60818562000e4e565b905062000f71602083018462000e3d565b9392505050565b600060208201905062000f8f600083018462000e8f565b92915050565b600060a08201905062000fac600083018862000e8f565b62000fbb602083018762000e2c565b818103604083015262000fcf818662000e4e565b905062000fe0606083018562000e8f565b62000fef608083018462000e8f565b9695505050505050565b600081519050919050565b600082825260208201905092915050565b60006200102282620010c6565b91506200102f83620010c6565b9250827fffffffffffffffffffffffffffffffffffffffffffffffffffffffffffffffff038211156200106757620010666200113c565b5b828201905092915050565b60006200107f82620010a6565b9050919050565b60006200109382620010a6565b9050919050565b60008115159050919050565b600073ffffffffffffffffffffffffffffffffffffffff82169050919050565b6000819050919050565b60005b83811015620010f0578082015181840152602081019050620010d3565b8381111562001100576000848401525b50505050565b600060028204905060018216806200111f57607f821691505b602082108114156200113657620011356200116b565b5b50919050565b7f4e487b7100000000000000000000000000000000000000000000000000000000600052601160045260246000fd5b7f4e487b7100000000000000000000000000000000000000000000000000000000600052602260045260246000fd5b6000601f19601f8301169050919050565b620011b68162001072565b8114620011c257600080fd5b50565b620011d08162001086565b8114620011dc57600080fd5b50565b620011ea81620010c6565b8114620011f657600080fd5b5056fe608060405260405162000ef238038062000ef28339818101604052810190620000299190620000f4565b336000806101000a81548173ffffffffffffffffffffffffffffffffffffffff021916908373ffffffffffffffffffffffffffffffffffffffff16021790555081600160006101000a81548173ffffffffffffffffffffffffffffffffffffffff021916908373ffffffffffffffffffffffffffffffffffffffff1602179055508042620000b8919062000135565b600281905550505062000233565b600081519050620000d781620001ff565b92915050565b600081519050620000ee8162000219565b92915050565b600080604083850312156200010857600080fd5b60006200011885828601620000c6565b92505060206200012b85828601620000dd565b9150509250929050565b60006200014282620001c6565b91506200014f83620001c6565b9250827fffffffffffffffffffffffffffffffffffffffffffffffffffffffffffffffff03821115620001875762000186620001d0565b5b828201905092915050565b60006200019f82620001a6565b9050919050565b600073ffffffffffffffffffffffffffffffffffffffff82169050919050565b6000819050919050565b7f4e487b7100000000000000000000000000000000000000000000000000000000600052601160045260246000fd5b6200020a8162000192565b81146200021657600080fd5b50565b6200022481620001c6565b81146200023057600080fd5b50565b610caf80620002436000396000f3fe608060405234801561001057600080fd5b506004361061007d5760003560e01c8063b69ef8a81161005b578063b69ef8a8146100c8578063fbfa77cf146100e6578063fdd61ee514610104578063ffe50332146101205761007d565b80630e1da6c3146100825780634665096d1461008c57806367e404ce146100aa575b600080fd5b61008a61013c565b005b610094610184565b6040516100a19190610a41565b60405180910390f35b6100b261018a565b6040516100bf91906109b1565b60405180910390f35b6100d06101ae565b6040516100dd9190610a41565b60405180910390f35b6100ee6101b4565b6040516100fb91906109b1565b60405180910390f35b61011e60048036038101906101199190610827565b6101da565b005b61013a600480360381019061013591906108cb565b6102ea565b005b60025442101561014b57600080fd5b60008054906101000a900473ffffffffffffffffffffffffffffffffffffffff1673ffffffffffffffffffffffffffffffffffffffff16ff5b60025481565b60008054906101000a900473ffffffffffffffffffffffffffffffffffffffff1681565b60035481565b600160009054906101000a900473ffffffffffffffffffffffffffffffffffffffff1681565b600160009054906101000a900473ffffffffffffffffffffffffffffffffffffffff1673ffffffffffffffffffffffffffffffffffffffff163373ffffffffffffffffffffffffffffffffffffffff161461023457600080fd5b61023f84848461035c565b61024857600080fd5b600160009054906101000a900473ffffffffffffffffffffffffffffffffffffffff1673ffffffffffffffffffffffffffffffffffffffff166108fc829081150290604051600060405180830381858888f193505050501580156102b0573d6000803e3d6000fd5b5060008054906101000a900473ffffffffffffffffffffffffffffffffffffffff1673ffffffffffffffffffffffffffffffffffffffff16ff5b3373ffffffffffffffffffffffffffffffffffffffff16600160009054906101000a900473ffffffffffffffffffffffffffffffffffffffff1673ffffffffffffffffffffffffffffffffffffffff161461034457600080fd5b600254811161035257600080fd5b8060028190555050565b600080600061036b858561058d565b91509150600060048111156103a9577f4e487b7100000000000000000000000000000000000000000000000000000000600052602160045260246000fd5b8160048111156103e2577f4e487b7100000000000000000000000000000000000000000000000000000000600052602160045260246000fd5b14801561041a57508573ffffffffffffffffffffffffffffffffffffffff168273ffffffffffffffffffffffffffffffffffffffff16145b1561042a57600192505050610586565b6000808773ffffffffffffffffffffffffffffffffffffffff16631626ba7e60e01b888860405160240161045f9291906109cc565b604051602081830303815290604052907bffffffffffffffffffffffffffffffffffffffffffffffffffffffff19166020820180517bffffffffffffffffffffffffffffffffffffffffffffffffffffffff83818316178352505050506040516104c9919061099a565b600060405180830381855afa9150503d8060008114610504576040519150601f19603f3d011682016040523d82523d6000602084013e610509565b606091505b509150915081801561051c575060208151145b801561057f5750631626ba7e60e01b7bffffffffffffffffffffffffffffffffffffffffffffffffffffffff19168180602001905181019061055e91906108a2565b7bffffffffffffffffffffffffffffffffffffffffffffffffffffffff1916145b9450505050505b9392505050565b6000806041835114156105cf5760008060006020860151925060408601519150606086015160001a90506105c387828585610610565b94509450505050610609565b6040835114156106005760008060208501519150604085015190506105f586838361071d565b935093505050610609565b60006002915091505b9250929050565b6000807f7fffffffffffffffffffffffffffffff5d576e7357a4501ddfe92f46681b20a08360001c111561064b576000600391509150610714565b601b8560ff16141580156106635750601c8560ff1614155b15610675576000600491509150610714565b60006001878787876040516000815260200160405260405161069a94939291906109fc565b6020604051602081039080840390855afa1580156106bc573d6000803e3d6000fd5b505050602060405103519050600073ffffffffffffffffffffffffffffffffffffffff168173ffffffffffffffffffffffffffffffffffffffff16141561070b57600060019250925050610714565b80600092509250505b94509492505050565b6000806000807f7fffffffffffffffffffffffffffffffffffffffffffffffffffffffffffffff85169150601b8560ff1c01905061075d87828885610610565b935093505050935093915050565b600061077e61077984610a81565b610a5c565b90508281526020810184848401111561079657600080fd5b6107a1848285610b6a565b509392505050565b6000813590506107b881610c1d565b92915050565b6000813590506107cd81610c34565b92915050565b6000815190506107e281610c4b565b92915050565b600082601f8301126107f957600080fd5b813561080984826020860161076b565b91505092915050565b60008135905061082181610c62565b92915050565b6000806000806080858703121561083d57600080fd5b600061084b878288016107a9565b945050602061085c878288016107be565b935050604085013567ffffffffffffffff81111561087957600080fd5b610885878288016107e8565b925050606061089687828801610812565b91505092959194509250565b6000602082840312156108b457600080fd5b60006108c2848285016107d3565b91505092915050565b6000602082840312156108dd57600080fd5b60006108eb84828501610812565b91505092915050565b6108fd81610aeb565b82525050565b61090c81610afd565b82525050565b600061091d82610ab2565b6109278185610abd565b9350610937818560208601610b79565b61094081610c0c565b840191505092915050565b600061095682610ab2565b6109608185610ace565b9350610970818560208601610b79565b80840191505092915050565b61098581610b53565b82525050565b61099481610b5d565b82525050565b60006109a6828461094b565b915081905092915050565b60006020820190506109c660008301846108f4565b92915050565b60006040820190506109e16000830185610903565b81810360208301526109f38184610912565b90509392505050565b6000608082019050610a116000830187610903565b610a1e602083018661098b565b610a2b6040830185610903565b610a386060830184610903565b95945050505050565b6000602082019050610a56600083018461097c565b92915050565b6000610a66610a77565b9050610a728282610bac565b919050565b6000604051905090565b600067ffffffffffffffff821115610a9c57610a9b610bdd565b5b610aa582610c0c565b9050602081019050919050565b600081519050919050565b600082825260208201905092915050565b600081905092915050565b6000610ae482610b33565b9050919050565b6000610af682610b33565b9050919050565b6000819050919050565b60007fffffffff0000000000000000000000000000000000000000000000000000000082169050919050565b600073ffffffffffffffffffffffffffffffffffffffff82169050919050565b6000819050919050565b600060ff82169050919050565b82818337600083830152505050565b60005b83811015610b97578082015181840152602081019050610b7c565b83811115610ba6576000848401525b50505050565b610bb582610c0c565b810181811067ffffffffffffffff82111715610bd457610bd3610bdd565b5b80604052505050565b7f4e487b7100000000000000000000000000000000000000000000000000000000600052604160045260246000fd5b6000601f19601f8301169050919050565b610c2681610ad9565b8114610c3157600080fd5b50565b610c3d81610afd565b8114610c4857600080fd5b50565b610c5481610b07565b8114610c5f57600080fd5b50565b610c6b81610b53565b8114610c7657600080fd5b5056fea2646970667358221220b091ae21422d8cb116dc3843643faba4ebf51d71e62848e7d00f754d604bf55e64736f6c63430008040033a26469706673582212206c86ff9b2d9257fa1fd655840f8923ff9974d6233cd3934660095bb609f91b6f64736f6c63430008040033",
  "linkReferences": {},
  "deployedLinkReferences": {}
}