{
  "_format": "hh-sol-artifact-1",
  "contractName": "UserInteraction",
  "sourceName": "contracts/UserInteraction.sol",
  "abi": [
    {
      "anonymous": false,
      "inputs": [
        {
          "indexed": false,
          "internalType": "uint256",
          "name": "_albumID",
          "type": "uint256"
        }
      ],
      "name": "AlbumPurchased",
      "type": "event"
    },
    {
      "anonymous": false,
      "inputs": [
        {
          "indexed": false,
          "internalType": "address",
          "name": "_depositer",
          "type": "address"
        },
        {
          "indexed": false,
          "internalType": "uint256",
          "name": "_amount",
          "type": "uint256"
        },
        {
          "indexed": false,
          "internalType": "bool",
          "name": "success",
          "type": "bool"
        }
      ],
      "name": "AmountDeposited",
      "type": "event"
    },
    {
      "anonymous": false,
      "inputs": [
        {
          "indexed": false,
          "internalType": "uint256",
          "name": "_songID",
          "type": "uint256"
        }
      ],
      "name": "SongPlayed",
      "type": "event"
    },
    {
      "anonymous": false,
      "inputs": [
        {
          "indexed": false,
          "internalType": "address",
          "name": "registree",
          "type": "address"
        },
        {
          "indexed": false,
          "internalType": "bool",
          "name": "registered",
          "type": "bool"
        }
      ],
      "name": "UserRegistered",
      "type": "event"
    },
    {
      "anonymous": false,
      "inputs": [
        {
          "indexed": false,
          "internalType": "address",
          "name": "withdrawee",
          "type": "address"
        },
        {
          "indexed": false,
          "internalType": "uint256",
          "name": "_amount",
          "type": "uint256"
        },
        {
          "indexed": false,
          "internalType": "uint256",
          "name": "current_balance",
          "type": "uint256"
        }
      ],
      "name": "WithdrawalComplete",
      "type": "event"
    },
    {
      "stateMutability": "payable",
      "type": "fallback"
    },
    {
      "inputs": [
        {
          "internalType": "uint256",
          "name": "albumID",
          "type": "uint256"
        }
      ],
      "name": "Buy",
      "outputs": [],
      "stateMutability": "payable",
      "type": "function"
    },
    {
      "inputs": [
        {
          "internalType": "uint256",
          "name": "albumID",
          "type": "uint256"
        },
        {
          "internalType": "uint256",
          "name": "songID",
          "type": "uint256"
        }
      ],
      "name": "Play",
      "outputs": [
        {
          "internalType": "bool",
          "name": "",
          "type": "bool"
        }
      ],
      "stateMutability": "nonpayable",
      "type": "function"
    },
    {
      "inputs": [],
      "name": "RegisterAddress",
      "outputs": [
        {
          "internalType": "bool",
          "name": "",
          "type": "bool"
        }
      ],
      "stateMutability": "nonpayable",
      "type": "function"
    },
    {
      "inputs": [],
      "name": "albumCounter",
      "outputs": [
        {
          "internalType": "uint256",
          "name": "",
          "type": "uint256"
        }
      ],
      "stateMutability": "view",
      "type": "function"
    },
    {
      "inputs": [
        {
          "internalType": "address",
          "name": "",
          "type": "address"
        },
        {
          "internalType": "uint256",
          "name": "",
          "type": "uint256"
        }
      ],
      "name": "albumStats",
      "outputs": [
        {
          "internalType": "uint256",
          "name": "albumID",
          "type": "uint256"
        },
        {
          "internalType": "address",
          "name": "artist",
          "type": "address"
        },
        {
          "internalType": "string",
          "name": "albumName",
          "type": "string"
        },
        {
          "internalType": "uint256",
          "name": "totalAlbumPurchases",
          "type": "uint256"
        },
        {
          "internalType": "uint256",
          "name": "totalSongPlays",
          "type": "uint256"
        }
      ],
      "stateMutability": "view",
      "type": "function"
    },
    {
      "inputs": [],
      "name": "depositBalance",
      "outputs": [],
      "stateMutability": "payable",
      "type": "function"
    },
    {
      "inputs": [],
      "name": "getAlbumOwnership",
      "outputs": [
        {
          "internalType": "bool",
          "name": "",
          "type": "bool"
        }
      ],
      "stateMutability": "view",
      "type": "function"
    },
    {
      "inputs": [],
      "name": "getDepositBalance",
      "outputs": [
        {
          "internalType": "uint256",
          "name": "",
          "type": "uint256"
        }
      ],
      "stateMutability": "view",
      "type": "function"
    },
    {
      "inputs": [
        {
          "internalType": "uint256",
          "name": "songID",
          "type": "uint256"
        }
      ],
      "name": "getPlayCount",
      "outputs": [
        {
          "internalType": "uint256",
          "name": "",
          "type": "uint256"
        }
      ],
      "stateMutability": "view",
      "type": "function"
    },
    {
      "inputs": [
        {
          "internalType": "address",
          "name": "userAddress",
          "type": "address"
        }
      ],
      "name": "getRegisteredAddress",
      "outputs": [
        {
          "internalType": "bool",
          "name": "registration",
          "type": "bool"
        },
        {
          "internalType": "uint256[]",
          "name": "albumsOwned",
          "type": "uint256[]"
        }
      ],
      "stateMutability": "view",
      "type": "function"
    },
    {
      "inputs": [
        {
          "internalType": "uint256",
          "name": "songNumber",
          "type": "uint256"
        }
      ],
      "name": "getSongInfo",
      "outputs": [
        {
          "internalType": "uint256",
          "name": "id",
          "type": "uint256"
        },
        {
          "internalType": "string",
          "name": "title",
          "type": "string"
        },
        {
          "internalType": "uint256",
          "name": "playCount",
          "type": "uint256"
        }
      ],
      "stateMutability": "view",
      "type": "function"
    },
    {
      "inputs": [],
      "name": "getVault",
      "outputs": [
        {
          "internalType": "uint256",
          "name": "",
          "type": "uint256"
        }
      ],
      "stateMutability": "view",
      "type": "function"
    },
    {
      "inputs": [],
      "name": "getVaultAddress",
      "outputs": [
        {
          "internalType": "address",
          "name": "",
          "type": "address"
        }
      ],
      "stateMutability": "view",
      "type": "function"
    },
    {
      "inputs": [],
      "name": "owner",
      "outputs": [
        {
          "internalType": "address",
          "name": "",
          "type": "address"
        }
      ],
      "stateMutability": "view",
      "type": "function"
    },
    {
      "inputs": [
        {
          "internalType": "address",
          "name": "",
          "type": "address"
        }
      ],
      "name": "registeredUsers",
      "outputs": [
        {
          "internalType": "bool",
          "name": "registered",
          "type": "bool"
        }
      ],
      "stateMutability": "view",
      "type": "function"
    },
    {
      "inputs": [
        {
          "internalType": "uint256",
          "name": "",
          "type": "uint256"
        }
      ],
      "name": "songList",
      "outputs": [
        {
          "internalType": "uint256",
          "name": "songID",
          "type": "uint256"
        },
        {
          "internalType": "string",
          "name": "songName",
          "type": "string"
        },
        {
          "internalType": "uint256",
          "name": "playCount",
          "type": "uint256"
        }
      ],
      "stateMutability": "view",
      "type": "function"
    },
    {
      "inputs": [
        {
          "internalType": "uint256",
          "name": "",
          "type": "uint256"
        }
      ],
      "name": "totalSongCount",
      "outputs": [
        {
          "internalType": "uint256",
          "name": "",
          "type": "uint256"
        }
      ],
      "stateMutability": "view",
      "type": "function"
    },
    {
      "inputs": [
        {
          "internalType": "address",
          "name": "",
          "type": "address"
        }
      ],
      "name": "userAlbumPurchase",
      "outputs": [
        {
          "internalType": "bool",
          "name": "",
          "type": "bool"
        }
      ],
      "stateMutability": "view",
      "type": "function"
    },
    {
      "inputs": [
        {
          "internalType": "address",
          "name": "",
          "type": "address"
        }
      ],
      "name": "userPlayBalance",
      "outputs": [
        {
          "internalType": "uint256",
          "name": "",
          "type": "uint256"
        }
      ],
      "stateMutability": "view",
      "type": "function"
    },
    {
      "inputs": [],
      "name": "verifyRegistration",
      "outputs": [
        {
          "internalType": "bool",
          "name": "",
          "type": "bool"
        }
      ],
      "stateMutability": "view",
      "type": "function"
    },
    {
      "inputs": [
        {
          "internalType": "uint256",
          "name": "_amount",
          "type": "uint256"
        }
      ],
      "name": "withdrawBalance",
      "outputs": [
        {
          "internalType": "uint256",
          "name": "",
          "type": "uint256"
        }
      ],
      "stateMutability": "nonpayable",
      "type": "function"
    },
    {
      "stateMutability": "payable",
      "type": "receive"
    }
  ],
  "bytecode": "0x60806040523480156200001157600080fd5b50600160008190555033600160006101000a81548173ffffffffffffffffffffffffffffffffffffffff021916908373ffffffffffffffffffffffffffffffffffffffff16021790555060016002819055506040518060600160405280600181526020016040518060400160405280600a81526020017f467574757265436c756200000000000000000000000000000000000000000000815250815260200160008152506004600060018152602001908152602001600020600082015181600001556020820151816001019080519060200190620000f192919062000105565b50604082015181600201559050506200021a565b8280546200011390620001b5565b90600052602060002090601f01602090048101928262000137576000855562000183565b82601f106200015257805160ff191683800117855562000183565b8280016001018555821562000183579182015b828111156200018257825182559160200191906001019062000165565b5b50905062000192919062000196565b5090565b5b80821115620001b157600081600090555060010162000197565b5090565b60006002820490506001821680620001ce57607f821691505b60208210811415620001e557620001e4620001eb565b5b50919050565b7f4e487b7100000000000000000000000000000000000000000000000000000000600052602260045260246000fd5b611d96806200022a6000396000f3fe60806040526004361061012e5760003560e01c80638da5cb5b116100ab578063d799ed1d1161006f578063d799ed1d14610410578063d9e73f3b1461044d578063da76d5cd14610478578063de2ea5dc146104b5578063f6dc26b7146104f4578063f99bf3da1461053257610135565b80638da5cb5b146102ff57806399c794101461032a578063a786eef814610367578063bc3bd4a0146103a8578063bf441060146103e557610135565b80634b64b2e9116100f25780634b64b2e91461023757806361bc1a491461026257806365cacaa41461026c5780636a58b8bd146102975780638d928af8146102d457610135565b80630497de4a146101375780630e50cee5146101625780632e6e190e1461019f5780633a562377146101dc5780633e3282181461021b57610135565b3661013557005b005b34801561014357600080fd5b5061014c61055d565b6040516101599190611960565b60405180910390f35b34801561016e57600080fd5b5061018960048036038101906101849190611527565b6105a4565b6040516101969190611875565b60405180910390f35b3480156101ab57600080fd5b506101c660048036038101906101c191906115b5565b6105cf565b6040516101d39190611875565b60405180910390f35b3480156101e857600080fd5b5061020360048036038101906101fe919061158c565b610839565b604051610212939291906119d5565b60405180910390f35b6102356004803603810190610230919061158c565b6108eb565b005b34801561024357600080fd5b5061024c610bba565b6040516102599190611875565b60405180910390f35b61026a610c29565b005b34801561027857600080fd5b50610281610d1d565b60405161028e91906117c3565b60405180910390f35b3480156102a357600080fd5b506102be60048036038101906102b99190611527565b610d25565b6040516102cb9190611960565b60405180910390f35b3480156102e057600080fd5b506102e9610d3d565b6040516102f69190611960565b60405180910390f35b34801561030b57600080fd5b50610314610d45565b60405161032191906117c3565b60405180910390f35b34801561033657600080fd5b50610351600480360381019061034c919061158c565b610d6b565b60405161035e9190611960565b60405180910390f35b34801561037357600080fd5b5061038e60048036038101906103899190611550565b610d88565b60405161039f95949392919061197b565b60405180910390f35b3480156103b457600080fd5b506103cf60048036038101906103ca9190611527565b610e73565b6040516103dc9190611875565b60405180910390f35b3480156103f157600080fd5b506103fa610e93565b6040516104079190611875565b60405180910390f35b34801561041c57600080fd5b506104376004803603810190610432919061158c565b610eff565b6040516104449190611960565b60405180910390f35b34801561045957600080fd5b50610462610f17565b60405161046f9190611875565b60405180910390f35b34801561048457600080fd5b5061049f600480360381019061049a919061158c565b61101f565b6040516104ac9190611960565b60405180910390f35b3480156104c157600080fd5b506104dc60048036038101906104d7919061158c565b611323565b6040516104eb939291906119d5565b60405180910390f35b34801561050057600080fd5b5061051b60048036038101906105169190611527565b611406565b604051610529929190611890565b60405180910390f35b34801561053e57600080fd5b506105476114f7565b6040516105549190611960565b60405180910390f35b6000600960003373ffffffffffffffffffffffffffffffffffffffff1673ffffffffffffffffffffffffffffffffffffffff16815260200190815260200160002054905090565b60036020528060005260406000206000915090508060000160009054906101000a900460ff16905081565b600060011515600360003373ffffffffffffffffffffffffffffffffffffffff1673ffffffffffffffffffffffffffffffffffffffff16815260200190815260200160002060000160009054906101000a900460ff1615151461063157600080fd5b6000600960003373ffffffffffffffffffffffffffffffffffffffff1673ffffffffffffffffffffffffffffffffffffffff16815260200190815260200160002054116106b3576040517f08c379a00000000000000000000000000000000000000000000000000000000081526004016106aa90611900565b60405180910390fd5b6000650130bae7109390506000600560003373ffffffffffffffffffffffffffffffffffffffff1673ffffffffffffffffffffffffffffffffffffffff1681526020019081526020016000206000868152602001908152602001600020600401600085815260200190815260200160002060020154905060006007600086815260200190815260200160002054111561078257808061075190611baa565b91505060076000858152602001908152602001600020600081548092919061077890611baa565b91905055506107a0565b60019050600160076000868152602001908152602001600020819055505b81600960003373ffffffffffffffffffffffffffffffffffffffff1673ffffffffffffffffffffffffffffffffffffffff16815260200190815260200160002060008282546107ef9190611ac9565b925050819055507fecea63078a56c9792847eee2d98eb57eb9d0e2231fdb3a61e9dfb793849b1488846040516108259190611960565b60405180910390a160019250505092915050565b600460205280600052604060002060009150905080600001549080600101805461086290611b78565b80601f016020809104026020016040519081016040528092919081815260200182805461088e90611b78565b80156108db5780601f106108b0576101008083540402835291602001916108db565b820191906000526020600020905b8154815290600101906020018083116108be57829003601f168201915b5050505050908060020154905083565b60011515600360003373ffffffffffffffffffffffffffffffffffffffff1673ffffffffffffffffffffffffffffffffffffffff16815260200190815260200160002060000160009054906101000a900460ff1615151461094b57600080fd5b600066094ffe72f165fc9050803414610999576040517f08c379a0000000000000000000000000000000000000000000000000000000008152600401610990906118c0565b60405180910390fd5b80600960003373ffffffffffffffffffffffffffffffffffffffff1673ffffffffffffffffffffffffffffffffffffffff16815260200190815260200160002060008282546109e89190611ac9565b925050819055506000600160009054906101000a900473ffffffffffffffffffffffffffffffffffffffff1673ffffffffffffffffffffffffffffffffffffffff1682604051610a37906117ae565b60006040518083038185875af1925050503d8060008114610a74576040519150601f19603f3d011682016040523d82523d6000602084013e610a79565b606091505b5050905080610abd576040517f08c379a0000000000000000000000000000000000000000000000000000000008152600401610ab4906118e0565b60405180910390fd5b600360003373ffffffffffffffffffffffffffffffffffffffff1673ffffffffffffffffffffffffffffffffffffffff1681526020019081526020016000206001018390806001815401808255809150506001900390600052602060002001600090919091909150556001600860003373ffffffffffffffffffffffffffffffffffffffff1673ffffffffffffffffffffffffffffffffffffffff16815260200190815260200160002060006101000a81548160ff0219169083151502179055507f7a9fe412b28c0e1c114b2e5ad7ee0881e9d26e4e9951b16abc1e1be22135fe4783604051610bad9190611960565b60405180910390a1505050565b600060011515600360003373ffffffffffffffffffffffffffffffffffffffff1673ffffffffffffffffffffffffffffffffffffffff16815260200190815260200160002060000160009054906101000a900460ff1615151415610c215760019050610c26565b600090505b90565b60011515600360003373ffffffffffffffffffffffffffffffffffffffff1673ffffffffffffffffffffffffffffffffffffffff16815260200190815260200160002060000160009054906101000a900460ff16151514610c8957600080fd5b34600960003373ffffffffffffffffffffffffffffffffffffffff1673ffffffffffffffffffffffffffffffffffffffff1681526020019081526020016000206000828254610cd89190611a73565b925050819055507f520c4ea8c325231e5eaa6218eaaa8f78402f02349f15dba724eb30ebfc756f3133346001604051610d1393929190611807565b60405180910390a1565b600030905090565b60096020528060005260406000206000915090505481565b600047905090565b600160009054906101000a900473ffffffffffffffffffffffffffffffffffffffff1681565b600060076000838152602001908152602001600020549050919050565b6005602052816000526040600020602052806000526040600020600091509150508060000154908060010160009054906101000a900473ffffffffffffffffffffffffffffffffffffffff1690806002018054610de490611b78565b80601f0160208091040260200160405190810160405280929190818152602001828054610e1090611b78565b8015610e5d5780601f10610e3257610100808354040283529160200191610e5d565b820191906000526020600020905b815481529060010190602001808311610e4057829003601f168201915b5050505050908060050154908060060154905085565b60086020528060005260406000206000915054906101000a900460ff1681565b600060011515600860003373ffffffffffffffffffffffffffffffffffffffff1673ffffffffffffffffffffffffffffffffffffffff16815260200190815260200160002060009054906101000a900460ff1615151415610ef75760019050610efc565b600090505b90565b60076020528060005260406000206000915090505481565b60006001600360003373ffffffffffffffffffffffffffffffffffffffff1673ffffffffffffffffffffffffffffffffffffffff16815260200190815260200160002060000160006101000a81548160ff021916908315150217905550600360003373ffffffffffffffffffffffffffffffffffffffff1673ffffffffffffffffffffffffffffffffffffffff168152602001908152602001600020600101600090806001815401808255809150506001900390600052602060002001600090919091909150557f28a24a60e275c9be5babc23ecefd3240b1fcd56ef4d3fe4818437200b55ae5ff3360016040516110109291906117de565b60405180910390a16001905090565b600060011515600360003373ffffffffffffffffffffffffffffffffffffffff1673ffffffffffffffffffffffffffffffffffffffff16815260200190815260200160002060000160009054906101000a900460ff1615151461108157600080fd5b600260005414156110c7576040517f08c379a00000000000000000000000000000000000000000000000000000000081526004016110be90611920565b60405180910390fd5b60026000819055506000600960003373ffffffffffffffffffffffffffffffffffffffff1673ffffffffffffffffffffffffffffffffffffffff16815260200190815260200160002054831115611153576040517f08c379a000000000000000000000000000000000000000000000000000000000815260040161114a90611940565b60405180910390fd5b82600960003373ffffffffffffffffffffffffffffffffffffffff1673ffffffffffffffffffffffffffffffffffffffff16815260200190815260200160002060008282546111a29190611ac9565b9250508190555060003373ffffffffffffffffffffffffffffffffffffffff16846040516111cf906117ae565b60006040518083038185875af1925050503d806000811461120c576040519150601f19603f3d011682016040523d82523d6000602084013e611211565b606091505b5050905080611255576040517f08c379a000000000000000000000000000000000000000000000000000000000815260040161124c906118e0565b60405180910390fd5b7fcbc30e520b47f25934e3caa0d827b8cb3e61863b7762ea111ec852fd5c81d8f63385600960003373ffffffffffffffffffffffffffffffffffffffff1673ffffffffffffffffffffffffffffffffffffffff168152602001908152602001600020546040516112c79392919061183e565b60405180910390a1600960003373ffffffffffffffffffffffffffffffffffffffff1673ffffffffffffffffffffffffffffffffffffffff16815260200190815260200160002054915081925050506001600081905550919050565b600060606000600460008581526020019081526020016000206000015460046000868152602001908152602001600020600101600460008781526020019081526020016000206002015481805461137990611b78565b80601f01602080910402602001604051908101604052809291908181526020018280546113a590611b78565b80156113f25780601f106113c7576101008083540402835291602001916113f2565b820191906000526020600020905b8154815290600101906020018083116113d557829003601f168201915b505050505091509250925092509193909250565b60006060600360008473ffffffffffffffffffffffffffffffffffffffff1673ffffffffffffffffffffffffffffffffffffffff16815260200190815260200160002060000160009054906101000a900460ff16600360008573ffffffffffffffffffffffffffffffffffffffff1673ffffffffffffffffffffffffffffffffffffffff168152602001908152602001600020600101808054806020026020016040519081016040528092919081815260200182805480156114e757602002820191906000526020600020905b8154815260200190600101908083116114d3575b5050505050905091509150915091565b60025481565b60008135905061150c81611d32565b92915050565b60008135905061152181611d49565b92915050565b60006020828403121561153957600080fd5b6000611547848285016114fd565b91505092915050565b6000806040838503121561156357600080fd5b6000611571858286016114fd565b925050602061158285828601611512565b9150509250929050565b60006020828403121561159e57600080fd5b60006115ac84828501611512565b91505092915050565b600080604083850312156115c857600080fd5b60006115d685828601611512565b92505060206115e785828601611512565b9150509250929050565b60006115fd8383611790565b60208301905092915050565b61161281611afd565b82525050565b600061162382611a23565b61162d8185611a46565b935061163883611a13565b8060005b8381101561166957815161165088826115f1565b975061165b83611a39565b92505060018101905061163c565b5085935050505092915050565b61167f81611b0f565b82525050565b600061169082611a2e565b61169a8185611a62565b93506116aa818560208601611b45565b6116b381611c51565b840191505092915050565b60006116cb600d83611a62565b91506116d682611c62565b602082019050919050565b60006116ee601483611a62565b91506116f982611c8b565b602082019050919050565b6000611711601583611a62565b915061171c82611cb4565b602082019050919050565b6000611734600083611a57565b915061173f82611cdd565b600082019050919050565b6000611757601f83611a62565b915061176282611ce0565b602082019050919050565b600061177a601083611a62565b915061178582611d09565b602082019050919050565b61179981611b3b565b82525050565b6117a881611b3b565b82525050565b60006117b982611727565b9150819050919050565b60006020820190506117d86000830184611609565b92915050565b60006040820190506117f36000830185611609565b6118006020830184611676565b9392505050565b600060608201905061181c6000830186611609565b611829602083018561179f565b6118366040830184611676565b949350505050565b60006060820190506118536000830186611609565b611860602083018561179f565b61186d604083018461179f565b949350505050565b600060208201905061188a6000830184611676565b92915050565b60006040820190506118a56000830185611676565b81810360208301526118b78184611618565b90509392505050565b600060208201905081810360008301526118d9816116be565b9050919050565b600060208201905081810360008301526118f9816116e1565b9050919050565b6000602082019050818103600083015261191981611704565b9050919050565b600060208201905081810360008301526119398161174a565b9050919050565b600060208201905081810360008301526119598161176d565b9050919050565b6000602082019050611975600083018461179f565b92915050565b600060a082019050611990600083018861179f565b61199d6020830187611609565b81810360408301526119af8186611685565b90506119be606083018561179f565b6119cb608083018461179f565b9695505050505050565b60006060820190506119ea600083018661179f565b81810360208301526119fc8185611685565b9050611a0b604083018461179f565b949350505050565b6000819050602082019050919050565b600081519050919050565b600081519050919050565b6000602082019050919050565b600082825260208201905092915050565b600081905092915050565b600082825260208201905092915050565b6000611a7e82611b3b565b9150611a8983611b3b565b9250827fffffffffffffffffffffffffffffffffffffffffffffffffffffffffffffffff03821115611abe57611abd611bf3565b5b828201905092915050565b6000611ad482611b3b565b9150611adf83611b3b565b925082821015611af257611af1611bf3565b5b828203905092915050565b6000611b0882611b1b565b9050919050565b60008115159050919050565b600073ffffffffffffffffffffffffffffffffffffffff82169050919050565b6000819050919050565b60005b83811015611b63578082015181840152602081019050611b48565b83811115611b72576000848401525b50505050565b60006002820490506001821680611b9057607f821691505b60208210811415611ba457611ba3611c22565b5b50919050565b6000611bb582611b3b565b91507fffffffffffffffffffffffffffffffffffffffffffffffffffffffffffffffff821415611be857611be7611bf3565b5b600182019050919050565b7f4e487b7100000000000000000000000000000000000000000000000000000000600052601160045260246000fd5b7f4e487b7100000000000000000000000000000000000000000000000000000000600052602260045260246000fd5b6000601f19601f8301169050919050565b7f707269636520746f6f206c6f7700000000000000000000000000000000000000600082015250565b7f4661696c656420746f2073656e64204574686572000000000000000000000000600082015250565b7f6465706f7369742065746820746f206c697374656e0000000000000000000000600082015250565b50565b7f5265656e7472616e637947756172643a207265656e7472616e742063616c6c00600082015250565b7f6e6f7420656e6f7567682076616c756500000000000000000000000000000000600082015250565b611d3b81611afd565b8114611d4657600080fd5b50565b611d5281611b3b565b8114611d5d57600080fd5b5056fea26469706673582212202229ccc27635c728194886c7a630d44a4c3f4f849a60bfd6c2c248fd603e6b1764736f6c63430008040033",
  "linkReferences": {},
  "deployedLinkReferences": {}
}