{
  "_format": "hh-sol-artifact-1",
  "contractName": "UserInteraction",
  "sourceName": "contracts/UserInteraction.sol",
  "abi": [
    {
      "anonymous": false,
      "inputs": [
        {
          "indexed": false,
          "internalType": "uint256",
          "name": "_albumID",
          "type": "uint256"
        },
        {
          "indexed": false,
          "internalType": "bool",
          "name": "success",
          "type": "bool"
        }
      ],
      "name": "AlbumPurchased",
      "type": "event"
    },
    {
      "anonymous": false,
      "inputs": [
        {
          "indexed": false,
          "internalType": "address",
          "name": "_depositer",
          "type": "address"
        },
        {
          "indexed": false,
          "internalType": "uint256",
          "name": "_amount",
          "type": "uint256"
        },
        {
          "indexed": false,
          "internalType": "bool",
          "name": "success",
          "type": "bool"
        }
      ],
      "name": "AmountDeposited",
      "type": "event"
    },
    {
      "anonymous": false,
      "inputs": [
        {
          "indexed": false,
          "internalType": "uint256",
          "name": "_songID",
          "type": "uint256"
        },
        {
          "indexed": false,
          "internalType": "bool",
          "name": "success",
          "type": "bool"
        }
      ],
      "name": "SongPlayed",
      "type": "event"
    },
    {
      "anonymous": false,
      "inputs": [
        {
          "indexed": false,
          "internalType": "address",
          "name": "registree",
          "type": "address"
        },
        {
          "indexed": false,
          "internalType": "bool",
          "name": "registered",
          "type": "bool"
        }
      ],
      "name": "UserRegistered",
      "type": "event"
    },
    {
      "anonymous": false,
      "inputs": [
        {
          "indexed": false,
          "internalType": "address",
          "name": "withdrawee",
          "type": "address"
        },
        {
          "indexed": false,
          "internalType": "uint256",
          "name": "_amount",
          "type": "uint256"
        },
        {
          "indexed": false,
          "internalType": "uint256",
          "name": "current_balance",
          "type": "uint256"
        },
        {
          "indexed": false,
          "internalType": "bool",
          "name": "success",
          "type": "bool"
        }
      ],
      "name": "WithdrawalComplete",
      "type": "event"
    },
    {
      "stateMutability": "payable",
      "type": "fallback"
    },
    {
      "inputs": [
        {
          "internalType": "uint256",
          "name": "albumID",
          "type": "uint256"
        }
      ],
      "name": "Buy",
      "outputs": [],
      "stateMutability": "payable",
      "type": "function"
    },
    {
      "inputs": [
        {
          "internalType": "uint256",
          "name": "albumID",
          "type": "uint256"
        },
        {
          "internalType": "uint256",
          "name": "songID",
          "type": "uint256"
        }
      ],
      "name": "Play",
      "outputs": [
        {
          "internalType": "bool",
          "name": "",
          "type": "bool"
        }
      ],
      "stateMutability": "nonpayable",
      "type": "function"
    },
    {
      "inputs": [],
      "name": "RegisterAddress",
      "outputs": [
        {
          "internalType": "bool",
          "name": "",
          "type": "bool"
        }
      ],
      "stateMutability": "nonpayable",
      "type": "function"
    },
    {
      "inputs": [],
      "name": "albumCounter",
      "outputs": [
        {
          "internalType": "uint256",
          "name": "",
          "type": "uint256"
        }
      ],
      "stateMutability": "view",
      "type": "function"
    },
    {
      "inputs": [
        {
          "internalType": "address",
          "name": "",
          "type": "address"
        },
        {
          "internalType": "uint256",
          "name": "",
          "type": "uint256"
        }
      ],
      "name": "albumStats",
      "outputs": [
        {
          "internalType": "uint256",
          "name": "albumID",
          "type": "uint256"
        },
        {
          "internalType": "address",
          "name": "artist",
          "type": "address"
        },
        {
          "internalType": "string",
          "name": "albumName",
          "type": "string"
        },
        {
          "internalType": "uint256",
          "name": "totalAlbumPurchases",
          "type": "uint256"
        },
        {
          "internalType": "uint256",
          "name": "totalSongPlays",
          "type": "uint256"
        }
      ],
      "stateMutability": "view",
      "type": "function"
    },
    {
      "inputs": [],
      "name": "depositBalance",
      "outputs": [],
      "stateMutability": "payable",
      "type": "function"
    },
    {
      "inputs": [],
      "name": "getAlbumOwnership",
      "outputs": [
        {
          "internalType": "bool",
          "name": "",
          "type": "bool"
        }
      ],
      "stateMutability": "view",
      "type": "function"
    },
    {
      "inputs": [],
      "name": "getDepositBalance",
      "outputs": [
        {
          "internalType": "uint256",
          "name": "",
          "type": "uint256"
        }
      ],
      "stateMutability": "view",
      "type": "function"
    },
    {
      "inputs": [
        {
          "internalType": "uint256",
          "name": "songID",
          "type": "uint256"
        }
      ],
      "name": "getPlayCount",
      "outputs": [
        {
          "internalType": "uint256",
          "name": "",
          "type": "uint256"
        }
      ],
      "stateMutability": "view",
      "type": "function"
    },
    {
      "inputs": [
        {
          "internalType": "address",
          "name": "userAddress",
          "type": "address"
        }
      ],
      "name": "getRegisteredAddress",
      "outputs": [
        {
          "internalType": "bool",
          "name": "registration",
          "type": "bool"
        },
        {
          "internalType": "uint256[]",
          "name": "albumsOwned",
          "type": "uint256[]"
        }
      ],
      "stateMutability": "view",
      "type": "function"
    },
    {
      "inputs": [
        {
          "internalType": "uint256",
          "name": "songNumber",
          "type": "uint256"
        }
      ],
      "name": "getSongInfo",
      "outputs": [
        {
          "internalType": "uint256",
          "name": "id",
          "type": "uint256"
        },
        {
          "internalType": "string",
          "name": "title",
          "type": "string"
        },
        {
          "internalType": "uint256",
          "name": "playCount",
          "type": "uint256"
        }
      ],
      "stateMutability": "view",
      "type": "function"
    },
    {
      "inputs": [],
      "name": "owner",
      "outputs": [
        {
          "internalType": "address",
          "name": "",
          "type": "address"
        }
      ],
      "stateMutability": "view",
      "type": "function"
    },
    {
      "inputs": [
        {
          "internalType": "address",
          "name": "destination",
          "type": "address"
        }
      ],
      "name": "ownerRedirectFullBalance",
      "outputs": [],
      "stateMutability": "nonpayable",
      "type": "function"
    },
    {
      "inputs": [
        {
          "internalType": "address",
          "name": "",
          "type": "address"
        }
      ],
      "name": "registeredUsers",
      "outputs": [
        {
          "internalType": "bool",
          "name": "registered",
          "type": "bool"
        }
      ],
      "stateMutability": "view",
      "type": "function"
    },
    {
      "inputs": [
        {
          "internalType": "uint256",
          "name": "",
          "type": "uint256"
        }
      ],
      "name": "songList",
      "outputs": [
        {
          "internalType": "uint256",
          "name": "songID",
          "type": "uint256"
        },
        {
          "internalType": "string",
          "name": "songName",
          "type": "string"
        },
        {
          "internalType": "uint256",
          "name": "playCount",
          "type": "uint256"
        }
      ],
      "stateMutability": "view",
      "type": "function"
    },
    {
      "inputs": [
        {
          "internalType": "uint256",
          "name": "",
          "type": "uint256"
        }
      ],
      "name": "totalSongCount",
      "outputs": [
        {
          "internalType": "uint256",
          "name": "",
          "type": "uint256"
        }
      ],
      "stateMutability": "view",
      "type": "function"
    },
    {
      "inputs": [
        {
          "internalType": "address",
          "name": "",
          "type": "address"
        }
      ],
      "name": "userAlbumPurchase",
      "outputs": [
        {
          "internalType": "bool",
          "name": "",
          "type": "bool"
        }
      ],
      "stateMutability": "view",
      "type": "function"
    },
    {
      "inputs": [
        {
          "internalType": "address",
          "name": "",
          "type": "address"
        }
      ],
      "name": "userPlayBalance",
      "outputs": [
        {
          "internalType": "uint256",
          "name": "",
          "type": "uint256"
        }
      ],
      "stateMutability": "view",
      "type": "function"
    },
    {
      "inputs": [],
      "name": "verifyRegistration",
      "outputs": [
        {
          "internalType": "bool",
          "name": "",
          "type": "bool"
        }
      ],
      "stateMutability": "view",
      "type": "function"
    },
    {
      "inputs": [
        {
          "internalType": "uint256",
          "name": "_amount",
          "type": "uint256"
        }
      ],
      "name": "withdrawBalance",
      "outputs": [],
      "stateMutability": "nonpayable",
      "type": "function"
    },
    {
      "stateMutability": "payable",
      "type": "receive"
    }
  ],
  "bytecode": "0x60806040523480156200001157600080fd5b50600160008190555033600160006101000a81548173ffffffffffffffffffffffffffffffffffffffff021916908373ffffffffffffffffffffffffffffffffffffffff16021790555060016002819055506040518060600160405280600181526020016040518060400160405280600b81526020017f5368656e616e6967616e730000000000000000000000000000000000000000008152508152602001600081525060046000808152602001908152602001600020600082015181600001556020820151816001019080519060200190620000f09291906200023c565b50604082015181600201559050506040518060600160405280600281526020016040518060400160405280600c81526020017f496e7465724477656c6c657200000000000000000000000000000000000000008152508152602001600081525060046000600181526020019081526020016000206000820151816000015560208201518160010190805190602001906200018c9291906200023c565b50604082015181600201559050506040518060600160405280600381526020016040518060400160405280600981526020017f4c612053746f7269610000000000000000000000000000000000000000000000815250815260200160008152506004600060028152602001908152602001600020600082015181600001556020820151816001019080519060200190620002289291906200023c565b506040820151816002015590505062000351565b8280546200024a90620002ec565b90600052602060002090601f0160209004810192826200026e5760008555620002ba565b82601f106200028957805160ff1916838001178555620002ba565b82800160010185558215620002ba579182015b82811115620002b95782518255916020019190600101906200029c565b5b509050620002c99190620002cd565b5090565b5b80821115620002e8576000816000905550600101620002ce565b5090565b600060028204905060018216806200030557607f821691505b602082108114156200031c576200031b62000322565b5b50919050565b7f4e487b7100000000000000000000000000000000000000000000000000000000600052602260045260246000fd5b611d3a80620003616000396000f3fe6080604052600436106101235760003560e01c806399c79410116100a0578063d9e73f3b11610064578063d9e73f3b14610415578063da76d5cd14610440578063de2ea5dc14610469578063f6dc26b7146104a8578063f99bf3da146104e65761012a565b806399c79410146102f2578063a786eef81461032f578063bc3bd4a014610370578063bf441060146103ad578063d799ed1d146103d85761012a565b80634b64b2e9116100e75780634b64b2e91461022c5780635548b0581461025757806361bc1a49146102805780636a58b8bd1461028a5780638da5cb5b146102c75761012a565b80630497de4a1461012c5780630e50cee5146101575780632e6e190e146101945780633a562377146101d15780633e328218146102105761012a565b3661012a57005b005b34801561013857600080fd5b50610141610511565b60405161014e91906119ab565b60405180910390f35b34801561016357600080fd5b5061017e6004803603810190610179919061153c565b610558565b60405161018b91906118e0565b60405180910390f35b3480156101a057600080fd5b506101bb60048036038101906101b691906115ca565b610583565b6040516101c891906118e0565b60405180910390f35b3480156101dd57600080fd5b506101f860048036038101906101f391906115a1565b6107f0565b60405161020793929190611a49565b60405180910390f35b61022a600480360381019061022591906115a1565b6108a2565b005b34801561023857600080fd5b50610241610b74565b60405161024e91906118e0565b60405180910390f35b34801561026357600080fd5b5061027e6004803603810190610279919061153c565b610be3565b005b610288610ced565b005b34801561029657600080fd5b506102b160048036038101906102ac919061153c565b610de1565b6040516102be91906119ab565b60405180910390f35b3480156102d357600080fd5b506102dc610df9565b6040516102e99190611820565b60405180910390f35b3480156102fe57600080fd5b50610319600480360381019061031491906115a1565b610e1f565b60405161032691906119ab565b60405180910390f35b34801561033b57600080fd5b5061035660048036038101906103519190611565565b610e3c565b6040516103679594939291906119c6565b60405180910390f35b34801561037c57600080fd5b506103976004803603810190610392919061153c565b610f27565b6040516103a491906118e0565b60405180910390f35b3480156103b957600080fd5b506103c2610f47565b6040516103cf91906118e0565b60405180910390f35b3480156103e457600080fd5b506103ff60048036038101906103fa91906115a1565b610fb3565b60405161040c91906119ab565b60405180910390f35b34801561042157600080fd5b5061042a610fcb565b60405161043791906118e0565b60405180910390f35b34801561044c57600080fd5b50610467600480360381019061046291906115a1565b6110d3565b005b34801561047557600080fd5b50610490600480360381019061048b91906115a1565b611338565b60405161049f93929190611a49565b60405180910390f35b3480156104b457600080fd5b506104cf60048036038101906104ca919061153c565b61141b565b6040516104dd9291906118fb565b60405180910390f35b3480156104f257600080fd5b506104fb61150c565b60405161050891906119ab565b60405180910390f35b6000600860003373ffffffffffffffffffffffffffffffffffffffff1673ffffffffffffffffffffffffffffffffffffffff16815260200190815260200160002054905090565b60036020528060005260406000206000915090508060000160009054906101000a900460ff16905081565b600060011515600360003373ffffffffffffffffffffffffffffffffffffffff1673ffffffffffffffffffffffffffffffffffffffff16815260200190815260200160002060000160009054906101000a900460ff161515146105e557600080fd5b6000650130bae7109390506000600860003373ffffffffffffffffffffffffffffffffffffffff1673ffffffffffffffffffffffffffffffffffffffff1681526020019081526020016000205411610672576040517f08c379a00000000000000000000000000000000000000000000000000000000081526004016106699061196b565b60405180910390fd5b6000600560003373ffffffffffffffffffffffffffffffffffffffff1673ffffffffffffffffffffffffffffffffffffffff1681526020019081526020016000206000868152602001908152602001600020600401600085815260200190815260200160002060020154905060006006600086815260200190815260200160002054111561073657808061070590611c1e565b91505060066000858152602001908152602001600020600081548092919061072c90611c1e565b9190505550610754565b60019050600160066000868152602001908152602001600020819055505b81600860003373ffffffffffffffffffffffffffffffffffffffff1673ffffffffffffffffffffffffffffffffffffffff16815260200190815260200160002060008282546107a39190611b3d565b925050819055507fbb7eb7164d332a76845305e9657c6e6e1557690f62c51bb3142a30bdd9a757078460016040516107dc929190611a20565b60405180910390a160019250505092915050565b600460205280600052604060002060009150905080600001549080600101805461081990611bec565b80601f016020809104026020016040519081016040528092919081815260200182805461084590611bec565b80156108925780601f1061086757610100808354040283529160200191610892565b820191906000526020600020905b81548152906001019060200180831161087557829003601f168201915b5050505050908060020154905083565b60011515600360003373ffffffffffffffffffffffffffffffffffffffff1673ffffffffffffffffffffffffffffffffffffffff16815260200190815260200160002060000160009054906101000a900460ff1615151461090257600080fd5b600066094ffe72f165fc9050803414610950576040517f08c379a00000000000000000000000000000000000000000000000000000000081526004016109479061192b565b60405180910390fd5b80600860003373ffffffffffffffffffffffffffffffffffffffff1673ffffffffffffffffffffffffffffffffffffffff168152602001908152602001600020600082825461099f9190611b3d565b925050819055506000600160009054906101000a900473ffffffffffffffffffffffffffffffffffffffff1673ffffffffffffffffffffffffffffffffffffffff16826040516109ee9061180b565b60006040518083038185875af1925050503d8060008114610a2b576040519150601f19603f3d011682016040523d82523d6000602084013e610a30565b606091505b5050905080610a74576040517f08c379a0000000000000000000000000000000000000000000000000000000008152600401610a6b9061194b565b60405180910390fd5b600360003373ffffffffffffffffffffffffffffffffffffffff1673ffffffffffffffffffffffffffffffffffffffff1681526020019081526020016000206001018390806001815401808255809150506001900390600052602060002001600090919091909150556001600760003373ffffffffffffffffffffffffffffffffffffffff1673ffffffffffffffffffffffffffffffffffffffff16815260200190815260200160002060006101000a81548160ff0219169083151502179055507f98114562ef3b3c5ad63c855c5ce939d087bb1e8d73ecd13111fc2b20f7e59a25836001604051610b67929190611a20565b60405180910390a1505050565b600060011515600360003373ffffffffffffffffffffffffffffffffffffffff1673ffffffffffffffffffffffffffffffffffffffff16815260200190815260200160002060000160009054906101000a900460ff1615151415610bdb5760019050610be0565b600090505b90565b600160009054906101000a900473ffffffffffffffffffffffffffffffffffffffff1673ffffffffffffffffffffffffffffffffffffffff163373ffffffffffffffffffffffffffffffffffffffff1614610c3d57600080fd5b60008173ffffffffffffffffffffffffffffffffffffffff1647604051610c639061180b565b60006040518083038185875af1925050503d8060008114610ca0576040519150601f19603f3d011682016040523d82523d6000602084013e610ca5565b606091505b5050905080610ce9576040517f08c379a0000000000000000000000000000000000000000000000000000000008152600401610ce09061194b565b60405180910390fd5b5050565b60011515600360003373ffffffffffffffffffffffffffffffffffffffff1673ffffffffffffffffffffffffffffffffffffffff16815260200190815260200160002060000160009054906101000a900460ff16151514610d4d57600080fd5b34600860003373ffffffffffffffffffffffffffffffffffffffff1673ffffffffffffffffffffffffffffffffffffffff1681526020019081526020016000206000828254610d9c9190611ae7565b925050819055507f520c4ea8c325231e5eaa6218eaaa8f78402f02349f15dba724eb30ebfc756f3133346001604051610dd793929190611864565b60405180910390a1565b60086020528060005260406000206000915090505481565b600160009054906101000a900473ffffffffffffffffffffffffffffffffffffffff1681565b600060066000838152602001908152602001600020549050919050565b6005602052816000526040600020602052806000526040600020600091509150508060000154908060010160009054906101000a900473ffffffffffffffffffffffffffffffffffffffff1690806002018054610e9890611bec565b80601f0160208091040260200160405190810160405280929190818152602001828054610ec490611bec565b8015610f115780601f10610ee657610100808354040283529160200191610f11565b820191906000526020600020905b815481529060010190602001808311610ef457829003601f168201915b5050505050908060050154908060060154905085565b60076020528060005260406000206000915054906101000a900460ff1681565b600060011515600760003373ffffffffffffffffffffffffffffffffffffffff1673ffffffffffffffffffffffffffffffffffffffff16815260200190815260200160002060009054906101000a900460ff1615151415610fab5760019050610fb0565b600090505b90565b60066020528060005260406000206000915090505481565b60006001600360003373ffffffffffffffffffffffffffffffffffffffff1673ffffffffffffffffffffffffffffffffffffffff16815260200190815260200160002060000160006101000a81548160ff021916908315150217905550600360003373ffffffffffffffffffffffffffffffffffffffff1673ffffffffffffffffffffffffffffffffffffffff168152602001908152602001600020600101600090806001815401808255809150506001900390600052602060002001600090919091909150557f28a24a60e275c9be5babc23ecefd3240b1fcd56ef4d3fe4818437200b55ae5ff3360016040516110c492919061183b565b60405180910390a16001905090565b60011515600360003373ffffffffffffffffffffffffffffffffffffffff1673ffffffffffffffffffffffffffffffffffffffff16815260200190815260200160002060000160009054906101000a900460ff1615151461113357600080fd5b600860003373ffffffffffffffffffffffffffffffffffffffff1673ffffffffffffffffffffffffffffffffffffffff168152602001908152602001600020548111156111b5576040517f08c379a00000000000000000000000000000000000000000000000000000000081526004016111ac9061198b565b60405180910390fd5b80600860003373ffffffffffffffffffffffffffffffffffffffff1673ffffffffffffffffffffffffffffffffffffffff16815260200190815260200160002060008282546112049190611b3d565b9250508190555060003373ffffffffffffffffffffffffffffffffffffffff16826040516112319061180b565b60006040518083038185875af1925050503d806000811461126e576040519150601f19603f3d011682016040523d82523d6000602084013e611273565b606091505b50509050806112b7576040517f08c379a00000000000000000000000000000000000000000000000000000000081526004016112ae9061194b565b60405180910390fd5b7fca1ca4a4ed1d761392f1f336a9f048057be1d9003241ad675ceb40512068fa0a3383600860003373ffffffffffffffffffffffffffffffffffffffff1673ffffffffffffffffffffffffffffffffffffffff16815260200190815260200160002054600160405161132c949392919061189b565b60405180910390a15050565b600060606000600460008581526020019081526020016000206000015460046000868152602001908152602001600020600101600460008781526020019081526020016000206002015481805461138e90611bec565b80601f01602080910402602001604051908101604052809291908181526020018280546113ba90611bec565b80156114075780601f106113dc57610100808354040283529160200191611407565b820191906000526020600020905b8154815290600101906020018083116113ea57829003601f168201915b505050505091509250925092509193909250565b60006060600360008473ffffffffffffffffffffffffffffffffffffffff1673ffffffffffffffffffffffffffffffffffffffff16815260200190815260200160002060000160009054906101000a900460ff16600360008573ffffffffffffffffffffffffffffffffffffffff1673ffffffffffffffffffffffffffffffffffffffff168152602001908152602001600020600101808054806020026020016040519081016040528092919081815260200182805480156114fc57602002820191906000526020600020905b8154815260200190600101908083116114e8575b5050505050905091509150915091565b60025481565b60008135905061152181611cd6565b92915050565b60008135905061153681611ced565b92915050565b60006020828403121561154e57600080fd5b600061155c84828501611512565b91505092915050565b6000806040838503121561157857600080fd5b600061158685828601611512565b925050602061159785828601611527565b9150509250929050565b6000602082840312156115b357600080fd5b60006115c184828501611527565b91505092915050565b600080604083850312156115dd57600080fd5b60006115eb85828601611527565b92505060206115fc85828601611527565b9150509250929050565b600061161283836117ed565b60208301905092915050565b61162781611b71565b82525050565b600061163882611a97565b6116428185611aba565b935061164d83611a87565b8060005b8381101561167e5781516116658882611606565b975061167083611aad565b925050600181019050611651565b5085935050505092915050565b61169481611b83565b82525050565b60006116a582611aa2565b6116af8185611ad6565b93506116bf818560208601611bb9565b6116c881611cc5565b840191505092915050565b60006116e0600d83611ad6565b91507f707269636520746f6f206c6f77000000000000000000000000000000000000006000830152602082019050919050565b6000611720601483611ad6565b91507f4661696c656420746f2073656e642045746865720000000000000000000000006000830152602082019050919050565b6000611760601583611ad6565b91507f6465706f7369742065746820746f206c697374656e00000000000000000000006000830152602082019050919050565b60006117a0600083611acb565b9150600082019050919050565b60006117ba601083611ad6565b91507f6e6f7420656e6f7567682076616c7565000000000000000000000000000000006000830152602082019050919050565b6117f681611baf565b82525050565b61180581611baf565b82525050565b600061181682611793565b9150819050919050565b6000602082019050611835600083018461161e565b92915050565b6000604082019050611850600083018561161e565b61185d602083018461168b565b9392505050565b6000606082019050611879600083018661161e565b61188660208301856117fc565b611893604083018461168b565b949350505050565b60006080820190506118b0600083018761161e565b6118bd60208301866117fc565b6118ca60408301856117fc565b6118d7606083018461168b565b95945050505050565b60006020820190506118f5600083018461168b565b92915050565b6000604082019050611910600083018561168b565b8181036020830152611922818461162d565b90509392505050565b60006020820190508181036000830152611944816116d3565b9050919050565b6000602082019050818103600083015261196481611713565b9050919050565b6000602082019050818103600083015261198481611753565b9050919050565b600060208201905081810360008301526119a4816117ad565b9050919050565b60006020820190506119c060008301846117fc565b92915050565b600060a0820190506119db60008301886117fc565b6119e8602083018761161e565b81810360408301526119fa818661169a565b9050611a0960608301856117fc565b611a1660808301846117fc565b9695505050505050565b6000604082019050611a3560008301856117fc565b611a42602083018461168b565b9392505050565b6000606082019050611a5e60008301866117fc565b8181036020830152611a70818561169a565b9050611a7f60408301846117fc565b949350505050565b6000819050602082019050919050565b600081519050919050565b600081519050919050565b6000602082019050919050565b600082825260208201905092915050565b600081905092915050565b600082825260208201905092915050565b6000611af282611baf565b9150611afd83611baf565b9250827fffffffffffffffffffffffffffffffffffffffffffffffffffffffffffffffff03821115611b3257611b31611c67565b5b828201905092915050565b6000611b4882611baf565b9150611b5383611baf565b925082821015611b6657611b65611c67565b5b828203905092915050565b6000611b7c82611b8f565b9050919050565b60008115159050919050565b600073ffffffffffffffffffffffffffffffffffffffff82169050919050565b6000819050919050565b60005b83811015611bd7578082015181840152602081019050611bbc565b83811115611be6576000848401525b50505050565b60006002820490506001821680611c0457607f821691505b60208210811415611c1857611c17611c96565b5b50919050565b6000611c2982611baf565b91507fffffffffffffffffffffffffffffffffffffffffffffffffffffffffffffffff821415611c5c57611c5b611c67565b5b600182019050919050565b7f4e487b7100000000000000000000000000000000000000000000000000000000600052601160045260246000fd5b7f4e487b7100000000000000000000000000000000000000000000000000000000600052602260045260246000fd5b6000601f19601f8301169050919050565b611cdf81611b71565b8114611cea57600080fd5b50565b611cf681611baf565b8114611d0157600080fd5b5056fea264697066735822122043f6faea52771b2870516a85da19a4afa30ccf7779785e83085f1098521b24a164736f6c63430008000033",
  "linkReferences": {},
  "deployedLinkReferences": {}
}