{
  "_format": "hh-sol-artifact-1",
  "contractName": "UserInteraction",
  "sourceName": "contracts/UserInteraction.sol",
  "abi": [
    {
      "inputs": [],
      "stateMutability": "nonpayable",
      "type": "constructor"
    },
    {
      "anonymous": false,
      "inputs": [
        {
          "indexed": false,
          "internalType": "uint256",
          "name": "_albumID",
          "type": "uint256"
        },
        {
          "indexed": false,
          "internalType": "bool",
          "name": "success",
          "type": "bool"
        }
      ],
      "name": "AlbumPurchased",
      "type": "event"
    },
    {
      "anonymous": false,
      "inputs": [
        {
          "indexed": false,
          "internalType": "address",
          "name": "_depositer",
          "type": "address"
        },
        {
          "indexed": false,
          "internalType": "uint256",
          "name": "_amount",
          "type": "uint256"
        },
        {
          "indexed": false,
          "internalType": "bool",
          "name": "success",
          "type": "bool"
        }
      ],
      "name": "AmountDeposited",
      "type": "event"
    },
    {
      "anonymous": false,
      "inputs": [
        {
          "indexed": false,
          "internalType": "uint256",
          "name": "_songID",
          "type": "uint256"
        },
        {
          "indexed": false,
          "internalType": "bool",
          "name": "success",
          "type": "bool"
        }
      ],
      "name": "SongPlayed",
      "type": "event"
    },
    {
      "anonymous": false,
      "inputs": [
        {
          "indexed": false,
          "internalType": "address",
          "name": "registree",
          "type": "address"
        },
        {
          "indexed": false,
          "internalType": "bool",
          "name": "registered",
          "type": "bool"
        }
      ],
      "name": "UserRegistered",
      "type": "event"
    },
    {
      "anonymous": false,
      "inputs": [
        {
          "indexed": false,
          "internalType": "address",
          "name": "withdrawee",
          "type": "address"
        },
        {
          "indexed": false,
          "internalType": "uint256",
          "name": "_amount",
          "type": "uint256"
        },
        {
          "indexed": false,
          "internalType": "uint256",
          "name": "current_balance",
          "type": "uint256"
        },
        {
          "indexed": false,
          "internalType": "bool",
          "name": "success",
          "type": "bool"
        }
      ],
      "name": "WithdrawalComplete",
      "type": "event"
    },
    {
      "stateMutability": "payable",
      "type": "fallback"
    },
    {
      "inputs": [
        {
          "internalType": "uint256",
          "name": "albumID",
          "type": "uint256"
        }
      ],
      "name": "Buy",
      "outputs": [],
      "stateMutability": "payable",
      "type": "function"
    },
    {
      "inputs": [],
      "name": "ChainLinkContract",
      "outputs": [
        {
          "internalType": "contract PriceConsumerV3",
          "name": "",
          "type": "address"
        }
      ],
      "stateMutability": "view",
      "type": "function"
    },
    {
      "inputs": [
        {
          "internalType": "uint256",
          "name": "albumID",
          "type": "uint256"
        },
        {
          "internalType": "uint256",
          "name": "songID",
          "type": "uint256"
        }
      ],
      "name": "Play",
      "outputs": [
        {
          "internalType": "bool",
          "name": "",
          "type": "bool"
        }
      ],
      "stateMutability": "nonpayable",
      "type": "function"
    },
    {
      "inputs": [],
      "name": "RegisterAddress",
      "outputs": [
        {
          "internalType": "bool",
          "name": "",
          "type": "bool"
        }
      ],
      "stateMutability": "nonpayable",
      "type": "function"
    },
    {
      "inputs": [],
      "name": "albumCounter",
      "outputs": [
        {
          "internalType": "uint256",
          "name": "",
          "type": "uint256"
        }
      ],
      "stateMutability": "view",
      "type": "function"
    },
    {
      "inputs": [
        {
          "internalType": "address",
          "name": "",
          "type": "address"
        },
        {
          "internalType": "uint256",
          "name": "",
          "type": "uint256"
        }
      ],
      "name": "albumStats",
      "outputs": [
        {
          "internalType": "uint256",
          "name": "albumID",
          "type": "uint256"
        },
        {
          "internalType": "address",
          "name": "artist",
          "type": "address"
        },
        {
          "internalType": "string",
          "name": "albumName",
          "type": "string"
        },
        {
          "internalType": "uint256",
          "name": "totalAlbumPurchases",
          "type": "uint256"
        },
        {
          "internalType": "uint256",
          "name": "totalSongPlays",
          "type": "uint256"
        }
      ],
      "stateMutability": "view",
      "type": "function"
    },
    {
      "inputs": [],
      "name": "depositBalance",
      "outputs": [],
      "stateMutability": "payable",
      "type": "function"
    },
    {
      "inputs": [
        {
          "internalType": "uint256",
          "name": "songID",
          "type": "uint256"
        },
        {
          "internalType": "uint256",
          "name": "songID2",
          "type": "uint256"
        },
        {
          "internalType": "uint256",
          "name": "songID3",
          "type": "uint256"
        }
      ],
      "name": "getAggregatePlayCount",
      "outputs": [
        {
          "internalType": "uint256",
          "name": "",
          "type": "uint256"
        }
      ],
      "stateMutability": "view",
      "type": "function"
    },
    {
      "inputs": [],
      "name": "getAlbumOwnership",
      "outputs": [
        {
          "internalType": "bool",
          "name": "",
          "type": "bool"
        }
      ],
      "stateMutability": "view",
      "type": "function"
    },
    {
      "inputs": [],
      "name": "getDepositBalance",
      "outputs": [
        {
          "internalType": "uint256",
          "name": "",
          "type": "uint256"
        }
      ],
      "stateMutability": "view",
      "type": "function"
    },
    {
      "inputs": [],
      "name": "getEthPriceToday",
      "outputs": [
        {
          "internalType": "int256",
          "name": "",
          "type": "int256"
        }
      ],
      "stateMutability": "view",
      "type": "function"
    },
    {
      "inputs": [
        {
          "internalType": "uint256",
          "name": "songID",
          "type": "uint256"
        }
      ],
      "name": "getPlayCount",
      "outputs": [
        {
          "internalType": "uint256",
          "name": "",
          "type": "uint256"
        }
      ],
      "stateMutability": "view",
      "type": "function"
    },
    {
      "inputs": [
        {
          "internalType": "address",
          "name": "userAddress",
          "type": "address"
        }
      ],
      "name": "getRegisteredAddress",
      "outputs": [
        {
          "internalType": "bool",
          "name": "registration",
          "type": "bool"
        },
        {
          "internalType": "uint256[]",
          "name": "albumsOwned",
          "type": "uint256[]"
        }
      ],
      "stateMutability": "view",
      "type": "function"
    },
    {
      "inputs": [
        {
          "internalType": "uint256",
          "name": "songNumber",
          "type": "uint256"
        }
      ],
      "name": "getSongInfo",
      "outputs": [
        {
          "internalType": "uint256",
          "name": "id",
          "type": "uint256"
        },
        {
          "internalType": "string",
          "name": "title",
          "type": "string"
        },
        {
          "internalType": "uint256",
          "name": "playCount",
          "type": "uint256"
        }
      ],
      "stateMutability": "view",
      "type": "function"
    },
    {
      "inputs": [],
      "name": "getTotalAlbumsPurchased",
      "outputs": [
        {
          "internalType": "uint256",
          "name": "",
          "type": "uint256"
        }
      ],
      "stateMutability": "view",
      "type": "function"
    },
    {
      "inputs": [
        {
          "internalType": "uint256",
          "name": "albumID",
          "type": "uint256"
        },
        {
          "internalType": "uint256",
          "name": "songID",
          "type": "uint256"
        }
      ],
      "name": "getUserPlayCount",
      "outputs": [
        {
          "internalType": "uint256",
          "name": "",
          "type": "uint256"
        }
      ],
      "stateMutability": "view",
      "type": "function"
    },
    {
      "inputs": [],
      "name": "owner",
      "outputs": [
        {
          "internalType": "address",
          "name": "",
          "type": "address"
        }
      ],
      "stateMutability": "view",
      "type": "function"
    },
    {
      "inputs": [
        {
          "internalType": "address",
          "name": "destination",
          "type": "address"
        }
      ],
      "name": "ownerRedirectFullBalance",
      "outputs": [],
      "stateMutability": "nonpayable",
      "type": "function"
    },
    {
      "inputs": [
        {
          "internalType": "address",
          "name": "",
          "type": "address"
        }
      ],
      "name": "registeredUsers",
      "outputs": [
        {
          "internalType": "bool",
          "name": "registered",
          "type": "bool"
        }
      ],
      "stateMutability": "view",
      "type": "function"
    },
    {
      "inputs": [
        {
          "internalType": "uint256",
          "name": "",
          "type": "uint256"
        }
      ],
      "name": "songList",
      "outputs": [
        {
          "internalType": "uint256",
          "name": "songID",
          "type": "uint256"
        },
        {
          "internalType": "string",
          "name": "songName",
          "type": "string"
        },
        {
          "internalType": "uint256",
          "name": "playCount",
          "type": "uint256"
        }
      ],
      "stateMutability": "view",
      "type": "function"
    },
    {
      "inputs": [
        {
          "internalType": "uint256",
          "name": "",
          "type": "uint256"
        }
      ],
      "name": "totalSongCount",
      "outputs": [
        {
          "internalType": "uint256",
          "name": "",
          "type": "uint256"
        }
      ],
      "stateMutability": "view",
      "type": "function"
    },
    {
      "inputs": [
        {
          "internalType": "address",
          "name": "",
          "type": "address"
        }
      ],
      "name": "userAlbumPurchase",
      "outputs": [
        {
          "internalType": "bool",
          "name": "",
          "type": "bool"
        }
      ],
      "stateMutability": "view",
      "type": "function"
    },
    {
      "inputs": [
        {
          "internalType": "address",
          "name": "",
          "type": "address"
        }
      ],
      "name": "userPlayBalance",
      "outputs": [
        {
          "internalType": "uint256",
          "name": "",
          "type": "uint256"
        }
      ],
      "stateMutability": "view",
      "type": "function"
    },
    {
      "inputs": [],
      "name": "verifyRegistration",
      "outputs": [
        {
          "internalType": "bool",
          "name": "",
          "type": "bool"
        }
      ],
      "stateMutability": "view",
      "type": "function"
    },
    {
      "inputs": [
        {
          "internalType": "uint256",
          "name": "_amount",
          "type": "uint256"
        }
      ],
      "name": "withdrawBalance",
      "outputs": [],
      "stateMutability": "nonpayable",
      "type": "function"
    },
    {
      "stateMutability": "payable",
      "type": "receive"
    }
  ],
  "bytecode": "0x608060405260006009553480156200001657600080fd5b50600160008190555033600160006101000a81548173ffffffffffffffffffffffffffffffffffffffff021916908373ffffffffffffffffffffffffffffffffffffffff16021790555060016002819055506040518060600160405280600181526020016040518060400160405280600b81526020017f5368656e616e6967616e730000000000000000000000000000000000000000008152508152602001600081525060046000808152602001908152602001600020600082015181600001556020820151816001019080519060200190620000f592919062000296565b50604082015181600201559050506040518060600160405280600281526020016040518060400160405280600c81526020017f496e7465724477656c6c657200000000000000000000000000000000000000008152508152602001600081525060046000600181526020019081526020016000206000820151816000015560208201518160010190805190602001906200019192919062000296565b50604082015181600201559050506040518060600160405280600381526020016040518060400160405280600981526020017f4c612053746f72696100000000000000000000000000000000000000000000008152508152602001600081525060046000600281526020019081526020016000206000820151816000015560208201518160010190805190602001906200022d92919062000296565b50604082015181600201559050507380d1188714a4d2b4befec0571ed583d4b03c4b1b600a60006101000a81548173ffffffffffffffffffffffffffffffffffffffff021916908373ffffffffffffffffffffffffffffffffffffffff160217905550620003ab565b828054620002a49062000375565b90600052602060002090601f016020900481019282620002c8576000855562000314565b82601f10620002e357805160ff191683800117855562000314565b8280016001018555821562000314579182015b8281111562000313578251825591602001919060010190620002f6565b5b50905062000323919062000327565b5090565b5b808211156200034257600081600090555060010162000328565b5090565b7f4e487b7100000000000000000000000000000000000000000000000000000000600052602260045260246000fd5b600060028204905060018216806200038e57607f821691505b60208210811415620003a557620003a462000346565b5b50919050565b6124c380620003bb6000396000f3fe60806040526004361061016a5760003560e01c806399c79410116100d1578063d9e73f3b1161008a578063de2ea5dc11610064578063de2ea5dc14610580578063f03a4eee146105bf578063f6dc26b7146105ea578063f99bf3da1461062857610171565b8063d9e73f3b14610501578063da76d5cd1461052c578063dd0318931461055557610171565b806399c79410146103b3578063a786eef8146103f0578063bc3bd4a014610431578063bf4410601461046e578063d0ee55be14610499578063d799ed1d146104c457610171565b80635548b058116101235780635548b0581461029e5780635ae169f2146102c757806361bc1a49146103045780636a58b8bd1461030e5780637c01ee761461034b5780638da5cb5b1461038857610171565b80630497de4a146101735780630e50cee51461019e5780632e6e190e146101db5780633a562377146102185780633e328218146102575780634b64b2e91461027357610171565b3661017157005b005b34801561017f57600080fd5b50610188610653565b6040516101959190611a75565b60405180910390f35b3480156101aa57600080fd5b506101c560048036038101906101c09190611af3565b61069a565b6040516101d29190611b3b565b60405180910390f35b3480156101e757600080fd5b5061020260048036038101906101fd9190611b82565b6106c5565b60405161020f9190611b3b565b60405180910390f35b34801561022457600080fd5b5061023f600480360381019061023a9190611bc2565b6109fe565b60405161024e93929190611c88565b60405180910390f35b610271600480360381019061026c9190611bc2565b610ab0565b005b34801561027f57600080fd5b50610288610f29565b6040516102959190611b3b565b60405180910390f35b3480156102aa57600080fd5b506102c560048036038101906102c09190611af3565b610f98565b005b3480156102d357600080fd5b506102ee60048036038101906102e99190611cc6565b6110a2565b6040516102fb9190611a75565b60405180910390f35b61030c6110fd565b005b34801561031a57600080fd5b5061033560048036038101906103309190611af3565b6111f1565b6040516103429190611a75565b60405180910390f35b34801561035757600080fd5b50610372600480360381019061036d9190611b82565b611209565b60405161037f9190611a75565b60405180910390f35b34801561039457600080fd5b5061039d61127b565b6040516103aa9190611d28565b60405180910390f35b3480156103bf57600080fd5b506103da60048036038101906103d59190611bc2565b6112a1565b6040516103e79190611a75565b60405180910390f35b3480156103fc57600080fd5b5061041760048036038101906104129190611d43565b6112be565b604051610428959493929190611d83565b60405180910390f35b34801561043d57600080fd5b5061045860048036038101906104539190611af3565b6113a9565b6040516104659190611b3b565b60405180910390f35b34801561047a57600080fd5b506104836113c9565b6040516104909190611b3b565b60405180910390f35b3480156104a557600080fd5b506104ae611435565b6040516104bb9190611a75565b60405180910390f35b3480156104d057600080fd5b506104eb60048036038101906104e69190611bc2565b61143f565b6040516104f89190611a75565b60405180910390f35b34801561050d57600080fd5b50610516611457565b6040516105239190611b3b565b60405180910390f35b34801561053857600080fd5b50610553600480360381019061054e9190611bc2565b61155f565b005b34801561056157600080fd5b5061056a6117c4565b6040516105779190611df6565b60405180910390f35b34801561058c57600080fd5b506105a760048036038101906105a29190611bc2565b61185c565b6040516105b693929190611c88565b60405180910390f35b3480156105cb57600080fd5b506105d461193f565b6040516105e19190611e70565b60405180910390f35b3480156105f657600080fd5b50610611600480360381019061060c9190611af3565b611965565b60405161061f929190611f49565b60405180910390f35b34801561063457600080fd5b5061063d611a56565b60405161064a9190611a75565b60405180910390f35b6000600860003373ffffffffffffffffffffffffffffffffffffffff1673ffffffffffffffffffffffffffffffffffffffff16815260200190815260200160002054905090565b60036020528060005260406000206000915090508060000160009054906101000a900460ff16905081565b600060011515600360003373ffffffffffffffffffffffffffffffffffffffff1673ffffffffffffffffffffffffffffffffffffffff16815260200190815260200160002060000160009054906101000a900460ff1615151461072757600080fd5b6000600760003373ffffffffffffffffffffffffffffffffffffffff1673ffffffffffffffffffffffffffffffffffffffff16815260200190815260200160002060009054906101000a900460ff1661078657650130bae71093610789565b60005b65ffffffffffff1690506000600860003373ffffffffffffffffffffffffffffffffffffffff1673ffffffffffffffffffffffffffffffffffffffff1681526020019081526020016000205411610815576040517f08c379a000000000000000000000000000000000000000000000000000000000815260040161080c90611fc5565b60405180910390fd5b6000600660008581526020019081526020016000205411156108dc57600560003373ffffffffffffffffffffffffffffffffffffffff1673ffffffffffffffffffffffffffffffffffffffff1681526020019081526020016000206000858152602001908152602001600020600401600084815260200190815260200160002060020160008154809291906108a990612014565b91905055506006600084815260200190815260200160002060008154809291906108d290612014565b9190505550610963565b6001600560003373ffffffffffffffffffffffffffffffffffffffff1673ffffffffffffffffffffffffffffffffffffffff1681526020019081526020016000206000868152602001908152602001600020600401600085815260200190815260200160002060020181905550600160066000858152602001908152602001600020819055505b80600860003373ffffffffffffffffffffffffffffffffffffffff1673ffffffffffffffffffffffffffffffffffffffff16815260200190815260200160002060008282546109b2919061205d565b925050819055507fbb7eb7164d332a76845305e9657c6e6e1557690f62c51bb3142a30bdd9a757078360016040516109eb929190612091565b60405180910390a1600191505092915050565b6004602052806000526040600020600091509050806000015490806001018054610a27906120e9565b80601f0160208091040260200160405190810160405280929190818152602001828054610a53906120e9565b8015610aa05780601f10610a7557610100808354040283529160200191610aa0565b820191906000526020600020905b815481529060010190602001808311610a8357829003601f168201915b5050505050908060020154905083565b60011515600360003373ffffffffffffffffffffffffffffffffffffffff1673ffffffffffffffffffffffffffffffffffffffff16815260200190815260200160002060000160009054906101000a900460ff16151514610b1057600080fd5b600066094ffe72f165fc9050803414610b5e576040517f08c379a0000000000000000000000000000000000000000000000000000000008152600401610b5590612167565b60405180910390fd5b600080600860003373ffffffffffffffffffffffffffffffffffffffff1673ffffffffffffffffffffffffffffffffffffffff1681526020019081526020016000205411610bac5781610bf8565b81600860003373ffffffffffffffffffffffffffffffffffffffff1673ffffffffffffffffffffffffffffffffffffffff16815260200190815260200160002054610bf79190612187565b5b9050600360003373ffffffffffffffffffffffffffffffffffffffff1673ffffffffffffffffffffffffffffffffffffffff1681526020019081526020016000206001018390806001815401808255809150506001900390600052602060002001600090919091909150556001600760003373ffffffffffffffffffffffffffffffffffffffff1673ffffffffffffffffffffffffffffffffffffffff16815260200190815260200160002060006101000a81548160ff021916908315150217905550600160096000828254610cce919061221b565b925050819055506000811315610dd5576000600860003373ffffffffffffffffffffffffffffffffffffffff1673ffffffffffffffffffffffffffffffffffffffff1681526020019081526020016000208190555060003373ffffffffffffffffffffffffffffffffffffffff1682604051610d49906122a2565b60006040518083038185875af1925050503d8060008114610d86576040519150601f19603f3d011682016040523d82523d6000602084013e610d8b565b606091505b5050905080610dcf576040517f08c379a0000000000000000000000000000000000000000000000000000000008152600401610dc690612303565b60405180910390fd5b50610eea565b6000600860003373ffffffffffffffffffffffffffffffffffffffff1673ffffffffffffffffffffffffffffffffffffffff168152602001908152602001600020819055506000600160009054906101000a900473ffffffffffffffffffffffffffffffffffffffff1673ffffffffffffffffffffffffffffffffffffffff1682604051610e62906122a2565b60006040518083038185875af1925050503d8060008114610e9f576040519150601f19603f3d011682016040523d82523d6000602084013e610ea4565b606091505b5050905080610ee8576040517f08c379a0000000000000000000000000000000000000000000000000000000008152600401610edf90612303565b60405180910390fd5b505b7f98114562ef3b3c5ad63c855c5ce939d087bb1e8d73ecd13111fc2b20f7e59a25836001604051610f1c929190612091565b60405180910390a1505050565b600060011515600360003373ffffffffffffffffffffffffffffffffffffffff1673ffffffffffffffffffffffffffffffffffffffff16815260200190815260200160002060000160009054906101000a900460ff1615151415610f905760019050610f95565b600090505b90565b600160009054906101000a900473ffffffffffffffffffffffffffffffffffffffff1673ffffffffffffffffffffffffffffffffffffffff163373ffffffffffffffffffffffffffffffffffffffff1614610ff257600080fd5b60008173ffffffffffffffffffffffffffffffffffffffff1647604051611018906122a2565b60006040518083038185875af1925050503d8060008114611055576040519150601f19603f3d011682016040523d82523d6000602084013e61105a565b606091505b505090508061109e576040517f08c379a000000000000000000000000000000000000000000000000000000000815260040161109590612303565b60405180910390fd5b5050565b60006006600083815260200190815260200160002054600660008581526020019081526020016000205460066000878152602001908152602001600020546110ea919061221b565b6110f4919061221b565b90509392505050565b60011515600360003373ffffffffffffffffffffffffffffffffffffffff1673ffffffffffffffffffffffffffffffffffffffff16815260200190815260200160002060000160009054906101000a900460ff1615151461115d57600080fd5b34600860003373ffffffffffffffffffffffffffffffffffffffff1673ffffffffffffffffffffffffffffffffffffffff16815260200190815260200160002060008282546111ac919061221b565b925050819055507f520c4ea8c325231e5eaa6218eaaa8f78402f02349f15dba724eb30ebfc756f31333460016040516111e793929190612323565b60405180910390a1565b60086020528060005260406000206000915090505481565b6000600560003373ffffffffffffffffffffffffffffffffffffffff1673ffffffffffffffffffffffffffffffffffffffff1681526020019081526020016000206000848152602001908152602001600020600401600083815260200190815260200160002060020154905092915050565b600160009054906101000a900473ffffffffffffffffffffffffffffffffffffffff1681565b600060066000838152602001908152602001600020549050919050565b6005602052816000526040600020602052806000526040600020600091509150508060000154908060010160009054906101000a900473ffffffffffffffffffffffffffffffffffffffff169080600201805461131a906120e9565b80601f0160208091040260200160405190810160405280929190818152602001828054611346906120e9565b80156113935780601f1061136857610100808354040283529160200191611393565b820191906000526020600020905b81548152906001019060200180831161137657829003601f168201915b5050505050908060050154908060060154905085565b60076020528060005260406000206000915054906101000a900460ff1681565b600060011515600760003373ffffffffffffffffffffffffffffffffffffffff1673ffffffffffffffffffffffffffffffffffffffff16815260200190815260200160002060009054906101000a900460ff161515141561142d5760019050611432565b600090505b90565b6000600954905090565b60066020528060005260406000206000915090505481565b60006001600360003373ffffffffffffffffffffffffffffffffffffffff1673ffffffffffffffffffffffffffffffffffffffff16815260200190815260200160002060000160006101000a81548160ff021916908315150217905550600360003373ffffffffffffffffffffffffffffffffffffffff1673ffffffffffffffffffffffffffffffffffffffff168152602001908152602001600020600101600090806001815401808255809150506001900390600052602060002001600090919091909150557f28a24a60e275c9be5babc23ecefd3240b1fcd56ef4d3fe4818437200b55ae5ff33600160405161155092919061235a565b60405180910390a16001905090565b60011515600360003373ffffffffffffffffffffffffffffffffffffffff1673ffffffffffffffffffffffffffffffffffffffff16815260200190815260200160002060000160009054906101000a900460ff161515146115bf57600080fd5b600860003373ffffffffffffffffffffffffffffffffffffffff1673ffffffffffffffffffffffffffffffffffffffff16815260200190815260200160002054811115611641576040517f08c379a0000000000000000000000000000000000000000000000000000000008152600401611638906123cf565b60405180910390fd5b80600860003373ffffffffffffffffffffffffffffffffffffffff1673ffffffffffffffffffffffffffffffffffffffff1681526020019081526020016000206000828254611690919061205d565b9250508190555060003373ffffffffffffffffffffffffffffffffffffffff16826040516116bd906122a2565b60006040518083038185875af1925050503d80600081146116fa576040519150601f19603f3d011682016040523d82523d6000602084013e6116ff565b606091505b5050905080611743576040517f08c379a000000000000000000000000000000000000000000000000000000000815260040161173a90612303565b60405180910390fd5b7fca1ca4a4ed1d761392f1f336a9f048057be1d9003241ad675ceb40512068fa0a3383600860003373ffffffffffffffffffffffffffffffffffffffff1673ffffffffffffffffffffffffffffffffffffffff1681526020019081526020016000205460016040516117b894939291906123ef565b60405180910390a15050565b6000600a60009054906101000a900473ffffffffffffffffffffffffffffffffffffffff1673ffffffffffffffffffffffffffffffffffffffff16638e15f4736040518163ffffffff1660e01b8152600401602060405180830381865afa158015611833573d6000803e3d6000fd5b505050506040513d601f19601f820116820180604052508101906118579190612460565b905090565b60006060600060046000858152602001908152602001600020600001546004600086815260200190815260200160002060010160046000878152602001908152602001600020600201548180546118b2906120e9565b80601f01602080910402602001604051908101604052809291908181526020018280546118de906120e9565b801561192b5780601f106119005761010080835404028352916020019161192b565b820191906000526020600020905b81548152906001019060200180831161190e57829003601f168201915b505050505091509250925092509193909250565b600a60009054906101000a900473ffffffffffffffffffffffffffffffffffffffff1681565b60006060600360008473ffffffffffffffffffffffffffffffffffffffff1673ffffffffffffffffffffffffffffffffffffffff16815260200190815260200160002060000160009054906101000a900460ff16600360008573ffffffffffffffffffffffffffffffffffffffff1673ffffffffffffffffffffffffffffffffffffffff16815260200190815260200160002060010180805480602002602001604051908101604052809291908181526020018280548015611a4657602002820191906000526020600020905b815481526020019060010190808311611a32575b5050505050905091509150915091565b60025481565b6000819050919050565b611a6f81611a5c565b82525050565b6000602082019050611a8a6000830184611a66565b92915050565b600080fd5b600073ffffffffffffffffffffffffffffffffffffffff82169050919050565b6000611ac082611a95565b9050919050565b611ad081611ab5565b8114611adb57600080fd5b50565b600081359050611aed81611ac7565b92915050565b600060208284031215611b0957611b08611a90565b5b6000611b1784828501611ade565b91505092915050565b60008115159050919050565b611b3581611b20565b82525050565b6000602082019050611b506000830184611b2c565b92915050565b611b5f81611a5c565b8114611b6a57600080fd5b50565b600081359050611b7c81611b56565b92915050565b60008060408385031215611b9957611b98611a90565b5b6000611ba785828601611b6d565b9250506020611bb885828601611b6d565b9150509250929050565b600060208284031215611bd857611bd7611a90565b5b6000611be684828501611b6d565b91505092915050565b600081519050919050565b600082825260208201905092915050565b60005b83811015611c29578082015181840152602081019050611c0e565b83811115611c38576000848401525b50505050565b6000601f19601f8301169050919050565b6000611c5a82611bef565b611c648185611bfa565b9350611c74818560208601611c0b565b611c7d81611c3e565b840191505092915050565b6000606082019050611c9d6000830186611a66565b8181036020830152611caf8185611c4f565b9050611cbe6040830184611a66565b949350505050565b600080600060608486031215611cdf57611cde611a90565b5b6000611ced86828701611b6d565b9350506020611cfe86828701611b6d565b9250506040611d0f86828701611b6d565b9150509250925092565b611d2281611ab5565b82525050565b6000602082019050611d3d6000830184611d19565b92915050565b60008060408385031215611d5a57611d59611a90565b5b6000611d6885828601611ade565b9250506020611d7985828601611b6d565b9150509250929050565b600060a082019050611d986000830188611a66565b611da56020830187611d19565b8181036040830152611db78186611c4f565b9050611dc66060830185611a66565b611dd36080830184611a66565b9695505050505050565b6000819050919050565b611df081611ddd565b82525050565b6000602082019050611e0b6000830184611de7565b92915050565b6000819050919050565b6000611e36611e31611e2c84611a95565b611e11565b611a95565b9050919050565b6000611e4882611e1b565b9050919050565b6000611e5a82611e3d565b9050919050565b611e6a81611e4f565b82525050565b6000602082019050611e856000830184611e61565b92915050565b600081519050919050565b600082825260208201905092915050565b6000819050602082019050919050565b611ec081611a5c565b82525050565b6000611ed28383611eb7565b60208301905092915050565b6000602082019050919050565b6000611ef682611e8b565b611f008185611e96565b9350611f0b83611ea7565b8060005b83811015611f3c578151611f238882611ec6565b9750611f2e83611ede565b925050600181019050611f0f565b5085935050505092915050565b6000604082019050611f5e6000830185611b2c565b8181036020830152611f708184611eeb565b90509392505050565b7f6465706f7369742065746820746f206c697374656e0000000000000000000000600082015250565b6000611faf601583611bfa565b9150611fba82611f79565b602082019050919050565b60006020820190508181036000830152611fde81611fa2565b9050919050565b7f4e487b7100000000000000000000000000000000000000000000000000000000600052601160045260246000fd5b600061201f82611a5c565b91507fffffffffffffffffffffffffffffffffffffffffffffffffffffffffffffffff82141561205257612051611fe5565b5b600182019050919050565b600061206882611a5c565b915061207383611a5c565b92508282101561208657612085611fe5565b5b828203905092915050565b60006040820190506120a66000830185611a66565b6120b36020830184611b2c565b9392505050565b7f4e487b7100000000000000000000000000000000000000000000000000000000600052602260045260246000fd5b6000600282049050600182168061210157607f821691505b60208210811415612115576121146120ba565b5b50919050565b7f707269636520746f6f206c6f7700000000000000000000000000000000000000600082015250565b6000612151600d83611bfa565b915061215c8261211b565b602082019050919050565b6000602082019050818103600083015261218081612144565b9050919050565b600061219282611ddd565b915061219d83611ddd565b9250827f8000000000000000000000000000000000000000000000000000000000000000018212600084121516156121d8576121d7611fe5565b5b827f7fffffffffffffffffffffffffffffffffffffffffffffffffffffffffffffff0182136000841216156122105761220f611fe5565b5b828203905092915050565b600061222682611a5c565b915061223183611a5c565b9250827fffffffffffffffffffffffffffffffffffffffffffffffffffffffffffffffff0382111561226657612265611fe5565b5b828201905092915050565b600081905092915050565b50565b600061228c600083612271565b91506122978261227c565b600082019050919050565b60006122ad8261227f565b9150819050919050565b7f4661696c656420746f2073656e64204574686572000000000000000000000000600082015250565b60006122ed601483611bfa565b91506122f8826122b7565b602082019050919050565b6000602082019050818103600083015261231c816122e0565b9050919050565b60006060820190506123386000830186611d19565b6123456020830185611a66565b6123526040830184611b2c565b949350505050565b600060408201905061236f6000830185611d19565b61237c6020830184611b2c565b9392505050565b7f6e6f7420656e6f7567682076616c756500000000000000000000000000000000600082015250565b60006123b9601083611bfa565b91506123c482612383565b602082019050919050565b600060208201905081810360008301526123e8816123ac565b9050919050565b60006080820190506124046000830187611d19565b6124116020830186611a66565b61241e6040830185611a66565b61242b6060830184611b2c565b95945050505050565b61243d81611ddd565b811461244857600080fd5b50565b60008151905061245a81612434565b92915050565b60006020828403121561247657612475611a90565b5b60006124848482850161244b565b9150509291505056fea2646970667358221220ec66d61bdbac05bdf244e6c28e2f6b6dce4c65ba10243aeb976ca95e3117574c64736f6c634300080a0033",
  "linkReferences": {},
  "deployedLinkReferences": {}
}