{
  "_format": "hh-sol-artifact-1",
  "contractName": "UserInteraction",
  "sourceName": "contracts/UserInteraction.sol",
  "abi": [
    {
      "anonymous": false,
      "inputs": [
        {
          "indexed": false,
          "internalType": "uint256",
          "name": "_albumID",
          "type": "uint256"
        },
        {
          "indexed": false,
          "internalType": "bool",
          "name": "success",
          "type": "bool"
        }
      ],
      "name": "AlbumPurchased",
      "type": "event"
    },
    {
      "anonymous": false,
      "inputs": [
        {
          "indexed": false,
          "internalType": "address",
          "name": "_depositer",
          "type": "address"
        },
        {
          "indexed": false,
          "internalType": "uint256",
          "name": "_amount",
          "type": "uint256"
        },
        {
          "indexed": false,
          "internalType": "bool",
          "name": "success",
          "type": "bool"
        }
      ],
      "name": "AmountDeposited",
      "type": "event"
    },
    {
      "anonymous": false,
      "inputs": [
        {
          "indexed": false,
          "internalType": "uint256",
          "name": "_songID",
          "type": "uint256"
        },
        {
          "indexed": false,
          "internalType": "bool",
          "name": "success",
          "type": "bool"
        }
      ],
      "name": "SongPlayed",
      "type": "event"
    },
    {
      "anonymous": false,
      "inputs": [
        {
          "indexed": false,
          "internalType": "address",
          "name": "registree",
          "type": "address"
        },
        {
          "indexed": false,
          "internalType": "bool",
          "name": "registered",
          "type": "bool"
        }
      ],
      "name": "UserRegistered",
      "type": "event"
    },
    {
      "anonymous": false,
      "inputs": [
        {
          "indexed": false,
          "internalType": "address",
          "name": "withdrawee",
          "type": "address"
        },
        {
          "indexed": false,
          "internalType": "uint256",
          "name": "_amount",
          "type": "uint256"
        },
        {
          "indexed": false,
          "internalType": "uint256",
          "name": "current_balance",
          "type": "uint256"
        },
        {
          "indexed": false,
          "internalType": "bool",
          "name": "success",
          "type": "bool"
        }
      ],
      "name": "WithdrawalComplete",
      "type": "event"
    },
    {
      "stateMutability": "payable",
      "type": "fallback"
    },
    {
      "inputs": [
        {
          "internalType": "uint256",
          "name": "albumID",
          "type": "uint256"
        }
      ],
      "name": "Buy",
      "outputs": [],
      "stateMutability": "payable",
      "type": "function"
    },
    {
      "inputs": [
        {
          "internalType": "uint256",
          "name": "albumID",
          "type": "uint256"
        },
        {
          "internalType": "uint256",
          "name": "songID",
          "type": "uint256"
        }
      ],
      "name": "Play",
      "outputs": [
        {
          "internalType": "bool",
          "name": "",
          "type": "bool"
        }
      ],
      "stateMutability": "nonpayable",
      "type": "function"
    },
    {
      "inputs": [],
      "name": "RegisterAddress",
      "outputs": [
        {
          "internalType": "bool",
          "name": "",
          "type": "bool"
        }
      ],
      "stateMutability": "nonpayable",
      "type": "function"
    },
    {
      "inputs": [],
      "name": "albumCounter",
      "outputs": [
        {
          "internalType": "uint256",
          "name": "",
          "type": "uint256"
        }
      ],
      "stateMutability": "view",
      "type": "function"
    },
    {
      "inputs": [
        {
          "internalType": "address",
          "name": "",
          "type": "address"
        },
        {
          "internalType": "uint256",
          "name": "",
          "type": "uint256"
        }
      ],
      "name": "albumStats",
      "outputs": [
        {
          "internalType": "uint256",
          "name": "albumID",
          "type": "uint256"
        },
        {
          "internalType": "address",
          "name": "artist",
          "type": "address"
        },
        {
          "internalType": "string",
          "name": "albumName",
          "type": "string"
        },
        {
          "internalType": "uint256",
          "name": "totalAlbumPurchases",
          "type": "uint256"
        },
        {
          "internalType": "uint256",
          "name": "totalSongPlays",
          "type": "uint256"
        }
      ],
      "stateMutability": "view",
      "type": "function"
    },
    {
      "inputs": [],
      "name": "depositBalance",
      "outputs": [],
      "stateMutability": "payable",
      "type": "function"
    },
    {
      "inputs": [
        {
          "internalType": "uint256",
          "name": "songID",
          "type": "uint256"
        },
        {
          "internalType": "uint256",
          "name": "songID2",
          "type": "uint256"
        },
        {
          "internalType": "uint256",
          "name": "songID3",
          "type": "uint256"
        }
      ],
      "name": "getAggregatePlayCount",
      "outputs": [
        {
          "internalType": "uint256",
          "name": "",
          "type": "uint256"
        }
      ],
      "stateMutability": "view",
      "type": "function"
    },
    {
      "inputs": [],
      "name": "getAlbumOwnership",
      "outputs": [
        {
          "internalType": "bool",
          "name": "",
          "type": "bool"
        }
      ],
      "stateMutability": "view",
      "type": "function"
    },
    {
      "inputs": [],
      "name": "getDepositBalance",
      "outputs": [
        {
          "internalType": "uint256",
          "name": "",
          "type": "uint256"
        }
      ],
      "stateMutability": "view",
      "type": "function"
    },
    {
      "inputs": [
        {
          "internalType": "uint256",
          "name": "songID",
          "type": "uint256"
        }
      ],
      "name": "getPlayCount",
      "outputs": [
        {
          "internalType": "uint256",
          "name": "",
          "type": "uint256"
        }
      ],
      "stateMutability": "view",
      "type": "function"
    },
    {
      "inputs": [
        {
          "internalType": "address",
          "name": "userAddress",
          "type": "address"
        }
      ],
      "name": "getRegisteredAddress",
      "outputs": [
        {
          "internalType": "bool",
          "name": "registration",
          "type": "bool"
        },
        {
          "internalType": "uint256[]",
          "name": "albumsOwned",
          "type": "uint256[]"
        }
      ],
      "stateMutability": "view",
      "type": "function"
    },
    {
      "inputs": [
        {
          "internalType": "uint256",
          "name": "songNumber",
          "type": "uint256"
        }
      ],
      "name": "getSongInfo",
      "outputs": [
        {
          "internalType": "uint256",
          "name": "id",
          "type": "uint256"
        },
        {
          "internalType": "string",
          "name": "title",
          "type": "string"
        },
        {
          "internalType": "uint256",
          "name": "playCount",
          "type": "uint256"
        }
      ],
      "stateMutability": "view",
      "type": "function"
    },
    {
      "inputs": [],
      "name": "getTotalAlbumsPurchased",
      "outputs": [
        {
          "internalType": "uint256",
          "name": "",
          "type": "uint256"
        }
      ],
      "stateMutability": "view",
      "type": "function"
    },
    {
      "inputs": [
        {
          "internalType": "uint256",
          "name": "albumID",
          "type": "uint256"
        },
        {
          "internalType": "uint256",
          "name": "songID",
          "type": "uint256"
        }
      ],
      "name": "getUserPlayCount",
      "outputs": [
        {
          "internalType": "uint256",
          "name": "",
          "type": "uint256"
        }
      ],
      "stateMutability": "view",
      "type": "function"
    },
    {
      "inputs": [],
      "name": "owner",
      "outputs": [
        {
          "internalType": "address",
          "name": "",
          "type": "address"
        }
      ],
      "stateMutability": "view",
      "type": "function"
    },
    {
      "inputs": [
        {
          "internalType": "address",
          "name": "destination",
          "type": "address"
        }
      ],
      "name": "ownerRedirectFullBalance",
      "outputs": [],
      "stateMutability": "nonpayable",
      "type": "function"
    },
    {
      "inputs": [
        {
          "internalType": "address",
          "name": "",
          "type": "address"
        }
      ],
      "name": "registeredUsers",
      "outputs": [
        {
          "internalType": "bool",
          "name": "registered",
          "type": "bool"
        }
      ],
      "stateMutability": "view",
      "type": "function"
    },
    {
      "inputs": [
        {
          "internalType": "uint256",
          "name": "",
          "type": "uint256"
        }
      ],
      "name": "songList",
      "outputs": [
        {
          "internalType": "uint256",
          "name": "songID",
          "type": "uint256"
        },
        {
          "internalType": "string",
          "name": "songName",
          "type": "string"
        },
        {
          "internalType": "uint256",
          "name": "playCount",
          "type": "uint256"
        }
      ],
      "stateMutability": "view",
      "type": "function"
    },
    {
      "inputs": [
        {
          "internalType": "uint256",
          "name": "",
          "type": "uint256"
        }
      ],
      "name": "totalSongCount",
      "outputs": [
        {
          "internalType": "uint256",
          "name": "",
          "type": "uint256"
        }
      ],
      "stateMutability": "view",
      "type": "function"
    },
    {
      "inputs": [
        {
          "internalType": "address",
          "name": "",
          "type": "address"
        }
      ],
      "name": "userAlbumPurchase",
      "outputs": [
        {
          "internalType": "bool",
          "name": "",
          "type": "bool"
        }
      ],
      "stateMutability": "view",
      "type": "function"
    },
    {
      "inputs": [
        {
          "internalType": "address",
          "name": "",
          "type": "address"
        }
      ],
      "name": "userPlayBalance",
      "outputs": [
        {
          "internalType": "uint256",
          "name": "",
          "type": "uint256"
        }
      ],
      "stateMutability": "view",
      "type": "function"
    },
    {
      "inputs": [],
      "name": "verifyRegistration",
      "outputs": [
        {
          "internalType": "bool",
          "name": "",
          "type": "bool"
        }
      ],
      "stateMutability": "view",
      "type": "function"
    },
    {
      "inputs": [
        {
          "internalType": "uint256",
          "name": "_amount",
          "type": "uint256"
        }
      ],
      "name": "withdrawBalance",
      "outputs": [],
      "stateMutability": "nonpayable",
      "type": "function"
    },
    {
      "stateMutability": "payable",
      "type": "receive"
    }
  ],
  "bytecode": "0x60806040523480156200001157600080fd5b50600160008190555033600160006101000a81548173ffffffffffffffffffffffffffffffffffffffff021916908373ffffffffffffffffffffffffffffffffffffffff16021790555060016002819055506040518060600160405280600181526020016040518060400160405280600b81526020017f5368656e616e6967616e730000000000000000000000000000000000000000008152508152602001600081525060046000808152602001908152602001600020600082015181600001556020820151816001019080519060200190620000f09291906200023c565b50604082015181600201559050506040518060600160405280600281526020016040518060400160405280600c81526020017f496e7465724477656c6c657200000000000000000000000000000000000000008152508152602001600081525060046000600181526020019081526020016000206000820151816000015560208201518160010190805190602001906200018c9291906200023c565b50604082015181600201559050506040518060600160405280600381526020016040518060400160405280600981526020017f4c612053746f7269610000000000000000000000000000000000000000000000815250815260200160008152506004600060028152602001908152602001600020600082015181600001556020820151816001019080519060200190620002289291906200023c565b506040820151816002015590505062000351565b8280546200024a90620002ec565b90600052602060002090601f0160209004810192826200026e5760008555620002ba565b82601f106200028957805160ff1916838001178555620002ba565b82800160010185558215620002ba579182015b82811115620002b95782518255916020019190600101906200029c565b5b509050620002c99190620002cd565b5090565b5b80821115620002e8576000816000905550600101620002ce565b5090565b600060028204905060018216806200030557607f821691505b602082108114156200031c576200031b62000322565b5b50919050565b7f4e487b7100000000000000000000000000000000000000000000000000000000600052602260045260246000fd5b61200c80620003616000396000f3fe6080604052600436106101445760003560e01c80638da5cb5b116100b6578063d799ed1d1161006f578063d799ed1d1461049e578063d9e73f3b146104db578063da76d5cd14610506578063de2ea5dc1461052f578063f6dc26b71461056e578063f99bf3da146105ac5761014b565b80638da5cb5b1461036257806399c794101461038d578063a786eef8146103ca578063bc3bd4a01461040b578063bf44106014610448578063d0ee55be146104735761014b565b80634b64b2e9116101085780634b64b2e91461024d5780635548b058146102785780635ae169f2146102a157806361bc1a49146102de5780636a58b8bd146102e85780637c01ee76146103255761014b565b80630497de4a1461014d5780630e50cee5146101785780632e6e190e146101b55780633a562377146101f25780633e328218146102315761014b565b3661014b57005b005b34801561015957600080fd5b506101626105d7565b60405161016f9190611c7d565b60405180910390f35b34801561018457600080fd5b5061019f600480360381019061019a91906117bf565b61061e565b6040516101ac9190611bb2565b60405180910390f35b3480156101c157600080fd5b506101dc60048036038101906101d7919061184d565b610649565b6040516101e99190611bb2565b60405180910390f35b3480156101fe57600080fd5b5061021960048036038101906102149190611824565b610982565b60405161022893929190611d1b565b60405180910390f35b61024b60048036038101906102469190611824565b610a34565b005b34801561025957600080fd5b50610262610d20565b60405161026f9190611bb2565b60405180910390f35b34801561028457600080fd5b5061029f600480360381019061029a91906117bf565b610d8f565b005b3480156102ad57600080fd5b506102c860048036038101906102c39190611889565b610e99565b6040516102d59190611c7d565b60405180910390f35b6102e6610ef4565b005b3480156102f457600080fd5b5061030f600480360381019061030a91906117bf565b610fe8565b60405161031c9190611c7d565b60405180910390f35b34801561033157600080fd5b5061034c6004803603810190610347919061184d565b611000565b6040516103599190611c7d565b60405180910390f35b34801561036e57600080fd5b50610377611072565b6040516103849190611af2565b60405180910390f35b34801561039957600080fd5b506103b460048036038101906103af9190611824565b611098565b6040516103c19190611c7d565b60405180910390f35b3480156103d657600080fd5b506103f160048036038101906103ec91906117e8565b6110b5565b604051610402959493929190611c98565b60405180910390f35b34801561041757600080fd5b50610432600480360381019061042d91906117bf565b6111a0565b60405161043f9190611bb2565b60405180910390f35b34801561045457600080fd5b5061045d6111c0565b60405161046a9190611bb2565b60405180910390f35b34801561047f57600080fd5b5061048861122c565b6040516104959190611c7d565b60405180910390f35b3480156104aa57600080fd5b506104c560048036038101906104c09190611824565b611236565b6040516104d29190611c7d565b60405180910390f35b3480156104e757600080fd5b506104f061124e565b6040516104fd9190611bb2565b60405180910390f35b34801561051257600080fd5b5061052d60048036038101906105289190611824565b611356565b005b34801561053b57600080fd5b5061055660048036038101906105519190611824565b6115bb565b60405161056593929190611d1b565b60405180910390f35b34801561057a57600080fd5b50610595600480360381019061059091906117bf565b61169e565b6040516105a3929190611bcd565b60405180910390f35b3480156105b857600080fd5b506105c161178f565b6040516105ce9190611c7d565b60405180910390f35b6000600860003373ffffffffffffffffffffffffffffffffffffffff1673ffffffffffffffffffffffffffffffffffffffff16815260200190815260200160002054905090565b60036020528060005260406000206000915090508060000160009054906101000a900460ff16905081565b600060011515600360003373ffffffffffffffffffffffffffffffffffffffff1673ffffffffffffffffffffffffffffffffffffffff16815260200190815260200160002060000160009054906101000a900460ff161515146106ab57600080fd5b6000600760003373ffffffffffffffffffffffffffffffffffffffff1673ffffffffffffffffffffffffffffffffffffffff16815260200190815260200160002060009054906101000a900460ff1661070a57650130bae7109361070d565b60005b65ffffffffffff1690506000600860003373ffffffffffffffffffffffffffffffffffffffff1673ffffffffffffffffffffffffffffffffffffffff1681526020019081526020016000205411610799576040517f08c379a000000000000000000000000000000000000000000000000000000000815260040161079090611c3d565b60405180910390fd5b60006006600085815260200190815260200160002054111561086057600560003373ffffffffffffffffffffffffffffffffffffffff1673ffffffffffffffffffffffffffffffffffffffff16815260200190815260200160002060008581526020019081526020016000206004016000848152602001908152602001600020600201600081548092919061082d90611ef0565b919050555060066000848152602001908152602001600020600081548092919061085690611ef0565b91905055506108e7565b6001600560003373ffffffffffffffffffffffffffffffffffffffff1673ffffffffffffffffffffffffffffffffffffffff1681526020019081526020016000206000868152602001908152602001600020600401600085815260200190815260200160002060020181905550600160066000858152602001908152602001600020819055505b80600860003373ffffffffffffffffffffffffffffffffffffffff1673ffffffffffffffffffffffffffffffffffffffff16815260200190815260200160002060008282546109369190611e0f565b925050819055507fbb7eb7164d332a76845305e9657c6e6e1557690f62c51bb3142a30bdd9a7570783600160405161096f929190611cf2565b60405180910390a1600191505092915050565b60046020528060005260406000206000915090508060000154908060010180546109ab90611ebe565b80601f01602080910402602001604051908101604052809291908181526020018280546109d790611ebe565b8015610a245780601f106109f957610100808354040283529160200191610a24565b820191906000526020600020905b815481529060010190602001808311610a0757829003601f168201915b5050505050908060020154905083565b60011515600360003373ffffffffffffffffffffffffffffffffffffffff1673ffffffffffffffffffffffffffffffffffffffff16815260200190815260200160002060000160009054906101000a900460ff16151514610a9457600080fd5b600066094ffe72f165fc9050803414610ae2576040517f08c379a0000000000000000000000000000000000000000000000000000000008152600401610ad990611bfd565b60405180910390fd5b80600860003373ffffffffffffffffffffffffffffffffffffffff1673ffffffffffffffffffffffffffffffffffffffff1681526020019081526020016000206000828254610b319190611e0f565b925050819055506000600160009054906101000a900473ffffffffffffffffffffffffffffffffffffffff1673ffffffffffffffffffffffffffffffffffffffff1682604051610b8090611add565b60006040518083038185875af1925050503d8060008114610bbd576040519150601f19603f3d011682016040523d82523d6000602084013e610bc2565b606091505b5050905080610c06576040517f08c379a0000000000000000000000000000000000000000000000000000000008152600401610bfd90611c1d565b60405180910390fd5b600360003373ffffffffffffffffffffffffffffffffffffffff1673ffffffffffffffffffffffffffffffffffffffff1681526020019081526020016000206001018390806001815401808255809150506001900390600052602060002001600090919091909150556001600760003373ffffffffffffffffffffffffffffffffffffffff1673ffffffffffffffffffffffffffffffffffffffff16815260200190815260200160002060006101000a81548160ff021916908315150217905550600160096000828254610cda9190611db9565b925050819055507f98114562ef3b3c5ad63c855c5ce939d087bb1e8d73ecd13111fc2b20f7e59a25836001604051610d13929190611cf2565b60405180910390a1505050565b600060011515600360003373ffffffffffffffffffffffffffffffffffffffff1673ffffffffffffffffffffffffffffffffffffffff16815260200190815260200160002060000160009054906101000a900460ff1615151415610d875760019050610d8c565b600090505b90565b600160009054906101000a900473ffffffffffffffffffffffffffffffffffffffff1673ffffffffffffffffffffffffffffffffffffffff163373ffffffffffffffffffffffffffffffffffffffff1614610de957600080fd5b60008173ffffffffffffffffffffffffffffffffffffffff1647604051610e0f90611add565b60006040518083038185875af1925050503d8060008114610e4c576040519150601f19603f3d011682016040523d82523d6000602084013e610e51565b606091505b5050905080610e95576040517f08c379a0000000000000000000000000000000000000000000000000000000008152600401610e8c90611c1d565b60405180910390fd5b5050565b6000600660008381526020019081526020016000205460066000858152602001908152602001600020546006600087815260200190815260200160002054610ee19190611db9565b610eeb9190611db9565b90509392505050565b60011515600360003373ffffffffffffffffffffffffffffffffffffffff1673ffffffffffffffffffffffffffffffffffffffff16815260200190815260200160002060000160009054906101000a900460ff16151514610f5457600080fd5b34600860003373ffffffffffffffffffffffffffffffffffffffff1673ffffffffffffffffffffffffffffffffffffffff1681526020019081526020016000206000828254610fa39190611db9565b925050819055507f520c4ea8c325231e5eaa6218eaaa8f78402f02349f15dba724eb30ebfc756f3133346001604051610fde93929190611b36565b60405180910390a1565b60086020528060005260406000206000915090505481565b6000600560003373ffffffffffffffffffffffffffffffffffffffff1673ffffffffffffffffffffffffffffffffffffffff1681526020019081526020016000206000848152602001908152602001600020600401600083815260200190815260200160002060020154905092915050565b600160009054906101000a900473ffffffffffffffffffffffffffffffffffffffff1681565b600060066000838152602001908152602001600020549050919050565b6005602052816000526040600020602052806000526040600020600091509150508060000154908060010160009054906101000a900473ffffffffffffffffffffffffffffffffffffffff169080600201805461111190611ebe565b80601f016020809104026020016040519081016040528092919081815260200182805461113d90611ebe565b801561118a5780601f1061115f5761010080835404028352916020019161118a565b820191906000526020600020905b81548152906001019060200180831161116d57829003601f168201915b5050505050908060050154908060060154905085565b60076020528060005260406000206000915054906101000a900460ff1681565b600060011515600760003373ffffffffffffffffffffffffffffffffffffffff1673ffffffffffffffffffffffffffffffffffffffff16815260200190815260200160002060009054906101000a900460ff16151514156112245760019050611229565b600090505b90565b6000600954905090565b60066020528060005260406000206000915090505481565b60006001600360003373ffffffffffffffffffffffffffffffffffffffff1673ffffffffffffffffffffffffffffffffffffffff16815260200190815260200160002060000160006101000a81548160ff021916908315150217905550600360003373ffffffffffffffffffffffffffffffffffffffff1673ffffffffffffffffffffffffffffffffffffffff168152602001908152602001600020600101600090806001815401808255809150506001900390600052602060002001600090919091909150557f28a24a60e275c9be5babc23ecefd3240b1fcd56ef4d3fe4818437200b55ae5ff336001604051611347929190611b0d565b60405180910390a16001905090565b60011515600360003373ffffffffffffffffffffffffffffffffffffffff1673ffffffffffffffffffffffffffffffffffffffff16815260200190815260200160002060000160009054906101000a900460ff161515146113b657600080fd5b600860003373ffffffffffffffffffffffffffffffffffffffff1673ffffffffffffffffffffffffffffffffffffffff16815260200190815260200160002054811115611438576040517f08c379a000000000000000000000000000000000000000000000000000000000815260040161142f90611c5d565b60405180910390fd5b80600860003373ffffffffffffffffffffffffffffffffffffffff1673ffffffffffffffffffffffffffffffffffffffff16815260200190815260200160002060008282546114879190611e0f565b9250508190555060003373ffffffffffffffffffffffffffffffffffffffff16826040516114b490611add565b60006040518083038185875af1925050503d80600081146114f1576040519150601f19603f3d011682016040523d82523d6000602084013e6114f6565b606091505b505090508061153a576040517f08c379a000000000000000000000000000000000000000000000000000000000815260040161153190611c1d565b60405180910390fd5b7fca1ca4a4ed1d761392f1f336a9f048057be1d9003241ad675ceb40512068fa0a3383600860003373ffffffffffffffffffffffffffffffffffffffff1673ffffffffffffffffffffffffffffffffffffffff1681526020019081526020016000205460016040516115af9493929190611b6d565b60405180910390a15050565b600060606000600460008581526020019081526020016000206000015460046000868152602001908152602001600020600101600460008781526020019081526020016000206002015481805461161190611ebe565b80601f016020809104026020016040519081016040528092919081815260200182805461163d90611ebe565b801561168a5780601f1061165f5761010080835404028352916020019161168a565b820191906000526020600020905b81548152906001019060200180831161166d57829003601f168201915b505050505091509250925092509193909250565b60006060600360008473ffffffffffffffffffffffffffffffffffffffff1673ffffffffffffffffffffffffffffffffffffffff16815260200190815260200160002060000160009054906101000a900460ff16600360008573ffffffffffffffffffffffffffffffffffffffff1673ffffffffffffffffffffffffffffffffffffffff1681526020019081526020016000206001018080548060200260200160405190810160405280929190818152602001828054801561177f57602002820191906000526020600020905b81548152602001906001019080831161176b575b5050505050905091509150915091565b60025481565b6000813590506117a481611fa8565b92915050565b6000813590506117b981611fbf565b92915050565b6000602082840312156117d157600080fd5b60006117df84828501611795565b91505092915050565b600080604083850312156117fb57600080fd5b600061180985828601611795565b925050602061181a858286016117aa565b9150509250929050565b60006020828403121561183657600080fd5b6000611844848285016117aa565b91505092915050565b6000806040838503121561186057600080fd5b600061186e858286016117aa565b925050602061187f858286016117aa565b9150509250929050565b60008060006060848603121561189e57600080fd5b60006118ac868287016117aa565b93505060206118bd868287016117aa565b92505060406118ce868287016117aa565b9150509250925092565b60006118e48383611abf565b60208301905092915050565b6118f981611e43565b82525050565b600061190a82611d69565b6119148185611d8c565b935061191f83611d59565b8060005b8381101561195057815161193788826118d8565b975061194283611d7f565b925050600181019050611923565b5085935050505092915050565b61196681611e55565b82525050565b600061197782611d74565b6119818185611da8565b9350611991818560208601611e8b565b61199a81611f97565b840191505092915050565b60006119b2600d83611da8565b91507f707269636520746f6f206c6f77000000000000000000000000000000000000006000830152602082019050919050565b60006119f2601483611da8565b91507f4661696c656420746f2073656e642045746865720000000000000000000000006000830152602082019050919050565b6000611a32601583611da8565b91507f6465706f7369742065746820746f206c697374656e00000000000000000000006000830152602082019050919050565b6000611a72600083611d9d565b9150600082019050919050565b6000611a8c601083611da8565b91507f6e6f7420656e6f7567682076616c7565000000000000000000000000000000006000830152602082019050919050565b611ac881611e81565b82525050565b611ad781611e81565b82525050565b6000611ae882611a65565b9150819050919050565b6000602082019050611b0760008301846118f0565b92915050565b6000604082019050611b2260008301856118f0565b611b2f602083018461195d565b9392505050565b6000606082019050611b4b60008301866118f0565b611b586020830185611ace565b611b65604083018461195d565b949350505050565b6000608082019050611b8260008301876118f0565b611b8f6020830186611ace565b611b9c6040830185611ace565b611ba9606083018461195d565b95945050505050565b6000602082019050611bc7600083018461195d565b92915050565b6000604082019050611be2600083018561195d565b8181036020830152611bf481846118ff565b90509392505050565b60006020820190508181036000830152611c16816119a5565b9050919050565b60006020820190508181036000830152611c36816119e5565b9050919050565b60006020820190508181036000830152611c5681611a25565b9050919050565b60006020820190508181036000830152611c7681611a7f565b9050919050565b6000602082019050611c926000830184611ace565b92915050565b600060a082019050611cad6000830188611ace565b611cba60208301876118f0565b8181036040830152611ccc818661196c565b9050611cdb6060830185611ace565b611ce86080830184611ace565b9695505050505050565b6000604082019050611d076000830185611ace565b611d14602083018461195d565b9392505050565b6000606082019050611d306000830186611ace565b8181036020830152611d42818561196c565b9050611d516040830184611ace565b949350505050565b6000819050602082019050919050565b600081519050919050565b600081519050919050565b6000602082019050919050565b600082825260208201905092915050565b600081905092915050565b600082825260208201905092915050565b6000611dc482611e81565b9150611dcf83611e81565b9250827fffffffffffffffffffffffffffffffffffffffffffffffffffffffffffffffff03821115611e0457611e03611f39565b5b828201905092915050565b6000611e1a82611e81565b9150611e2583611e81565b925082821015611e3857611e37611f39565b5b828203905092915050565b6000611e4e82611e61565b9050919050565b60008115159050919050565b600073ffffffffffffffffffffffffffffffffffffffff82169050919050565b6000819050919050565b60005b83811015611ea9578082015181840152602081019050611e8e565b83811115611eb8576000848401525b50505050565b60006002820490506001821680611ed657607f821691505b60208210811415611eea57611ee9611f68565b5b50919050565b6000611efb82611e81565b91507fffffffffffffffffffffffffffffffffffffffffffffffffffffffffffffffff821415611f2e57611f2d611f39565b5b600182019050919050565b7f4e487b7100000000000000000000000000000000000000000000000000000000600052601160045260246000fd5b7f4e487b7100000000000000000000000000000000000000000000000000000000600052602260045260246000fd5b6000601f19601f8301169050919050565b611fb181611e43565b8114611fbc57600080fd5b50565b611fc881611e81565b8114611fd357600080fd5b5056fea26469706673582212204aaa3b2244ce02ff4a82b2ac6611fdadd0cd97199ab7a6e8a20010bcc67a7e5064736f6c63430008000033",
  "linkReferences": {},
  "deployedLinkReferences": {}
}