{
  "_format": "hh-sol-artifact-1",
  "contractName": "UserInteraction",
  "sourceName": "contracts/UserInteraction.sol",
  "abi": [
    {
      "anonymous": false,
      "inputs": [
        {
          "indexed": false,
          "internalType": "uint256",
          "name": "_albumID",
          "type": "uint256"
        },
        {
          "indexed": false,
          "internalType": "bool",
          "name": "success",
          "type": "bool"
        }
      ],
      "name": "AlbumPurchased",
      "type": "event"
    },
    {
      "anonymous": false,
      "inputs": [
        {
          "indexed": false,
          "internalType": "address",
          "name": "_depositer",
          "type": "address"
        },
        {
          "indexed": false,
          "internalType": "uint256",
          "name": "_amount",
          "type": "uint256"
        },
        {
          "indexed": false,
          "internalType": "bool",
          "name": "success",
          "type": "bool"
        }
      ],
      "name": "AmountDeposited",
      "type": "event"
    },
    {
      "anonymous": false,
      "inputs": [
        {
          "indexed": false,
          "internalType": "uint256",
          "name": "_songID",
          "type": "uint256"
        },
        {
          "indexed": false,
          "internalType": "bool",
          "name": "success",
          "type": "bool"
        }
      ],
      "name": "SongPlayed",
      "type": "event"
    },
    {
      "anonymous": false,
      "inputs": [
        {
          "indexed": false,
          "internalType": "address",
          "name": "registree",
          "type": "address"
        },
        {
          "indexed": false,
          "internalType": "bool",
          "name": "registered",
          "type": "bool"
        }
      ],
      "name": "UserRegistered",
      "type": "event"
    },
    {
      "anonymous": false,
      "inputs": [
        {
          "indexed": false,
          "internalType": "address",
          "name": "withdrawee",
          "type": "address"
        },
        {
          "indexed": false,
          "internalType": "uint256",
          "name": "_amount",
          "type": "uint256"
        },
        {
          "indexed": false,
          "internalType": "uint256",
          "name": "current_balance",
          "type": "uint256"
        },
        {
          "indexed": false,
          "internalType": "bool",
          "name": "success",
          "type": "bool"
        }
      ],
      "name": "WithdrawalComplete",
      "type": "event"
    },
    {
      "stateMutability": "payable",
      "type": "fallback"
    },
    {
      "inputs": [
        {
          "internalType": "uint256",
          "name": "albumID",
          "type": "uint256"
        }
      ],
      "name": "Buy",
      "outputs": [],
      "stateMutability": "payable",
      "type": "function"
    },
    {
      "inputs": [
        {
          "internalType": "uint256",
          "name": "albumID",
          "type": "uint256"
        },
        {
          "internalType": "uint256",
          "name": "songID",
          "type": "uint256"
        }
      ],
      "name": "Play",
      "outputs": [
        {
          "internalType": "bool",
          "name": "",
          "type": "bool"
        }
      ],
      "stateMutability": "nonpayable",
      "type": "function"
    },
    {
      "inputs": [],
      "name": "RegisterAddress",
      "outputs": [
        {
          "internalType": "bool",
          "name": "",
          "type": "bool"
        }
      ],
      "stateMutability": "nonpayable",
      "type": "function"
    },
    {
      "inputs": [],
      "name": "albumCounter",
      "outputs": [
        {
          "internalType": "uint256",
          "name": "",
          "type": "uint256"
        }
      ],
      "stateMutability": "view",
      "type": "function"
    },
    {
      "inputs": [
        {
          "internalType": "address",
          "name": "",
          "type": "address"
        },
        {
          "internalType": "uint256",
          "name": "",
          "type": "uint256"
        }
      ],
      "name": "albumStats",
      "outputs": [
        {
          "internalType": "uint256",
          "name": "albumID",
          "type": "uint256"
        },
        {
          "internalType": "address",
          "name": "artist",
          "type": "address"
        },
        {
          "internalType": "string",
          "name": "albumName",
          "type": "string"
        },
        {
          "internalType": "uint256",
          "name": "totalAlbumPurchases",
          "type": "uint256"
        },
        {
          "internalType": "uint256",
          "name": "totalSongPlays",
          "type": "uint256"
        }
      ],
      "stateMutability": "view",
      "type": "function"
    },
    {
      "inputs": [],
      "name": "depositBalance",
      "outputs": [],
      "stateMutability": "payable",
      "type": "function"
    },
    {
      "inputs": [],
      "name": "getAlbumOwnership",
      "outputs": [
        {
          "internalType": "bool",
          "name": "",
          "type": "bool"
        }
      ],
      "stateMutability": "view",
      "type": "function"
    },
    {
      "inputs": [],
      "name": "getDepositBalance",
      "outputs": [
        {
          "internalType": "uint256",
          "name": "",
          "type": "uint256"
        }
      ],
      "stateMutability": "view",
      "type": "function"
    },
    {
      "inputs": [],
      "name": "getEthPrice",
      "outputs": [
        {
          "internalType": "uint256",
          "name": "",
          "type": "uint256"
        }
      ],
      "stateMutability": "view",
      "type": "function"
    },
    {
      "inputs": [],
      "name": "getLatestPrice",
      "outputs": [
        {
          "internalType": "int256",
          "name": "",
          "type": "int256"
        }
      ],
      "stateMutability": "view",
      "type": "function"
    },
    {
      "inputs": [
        {
          "internalType": "uint256",
          "name": "songID",
          "type": "uint256"
        }
      ],
      "name": "getPlayCount",
      "outputs": [
        {
          "internalType": "uint256",
          "name": "",
          "type": "uint256"
        }
      ],
      "stateMutability": "view",
      "type": "function"
    },
    {
      "inputs": [
        {
          "internalType": "address",
          "name": "userAddress",
          "type": "address"
        }
      ],
      "name": "getRegisteredAddress",
      "outputs": [
        {
          "internalType": "bool",
          "name": "registration",
          "type": "bool"
        },
        {
          "internalType": "uint256[]",
          "name": "albumsOwned",
          "type": "uint256[]"
        }
      ],
      "stateMutability": "view",
      "type": "function"
    },
    {
      "inputs": [
        {
          "internalType": "uint256",
          "name": "songNumber",
          "type": "uint256"
        }
      ],
      "name": "getSongInfo",
      "outputs": [
        {
          "internalType": "uint256",
          "name": "id",
          "type": "uint256"
        },
        {
          "internalType": "string",
          "name": "title",
          "type": "string"
        },
        {
          "internalType": "uint256",
          "name": "playCount",
          "type": "uint256"
        }
      ],
      "stateMutability": "view",
      "type": "function"
    },
    {
      "inputs": [],
      "name": "getVault",
      "outputs": [
        {
          "internalType": "uint256",
          "name": "",
          "type": "uint256"
        }
      ],
      "stateMutability": "view",
      "type": "function"
    },
    {
      "inputs": [],
      "name": "getVaultAddress",
      "outputs": [
        {
          "internalType": "address",
          "name": "",
          "type": "address"
        }
      ],
      "stateMutability": "view",
      "type": "function"
    },
    {
      "inputs": [],
      "name": "owner",
      "outputs": [
        {
          "internalType": "address",
          "name": "",
          "type": "address"
        }
      ],
      "stateMutability": "view",
      "type": "function"
    },
    {
      "inputs": [
        {
          "internalType": "address",
          "name": "",
          "type": "address"
        }
      ],
      "name": "registeredUsers",
      "outputs": [
        {
          "internalType": "bool",
          "name": "registered",
          "type": "bool"
        }
      ],
      "stateMutability": "view",
      "type": "function"
    },
    {
      "inputs": [
        {
          "internalType": "uint256",
          "name": "",
          "type": "uint256"
        }
      ],
      "name": "songList",
      "outputs": [
        {
          "internalType": "uint256",
          "name": "songID",
          "type": "uint256"
        },
        {
          "internalType": "string",
          "name": "songName",
          "type": "string"
        },
        {
          "internalType": "uint256",
          "name": "playCount",
          "type": "uint256"
        }
      ],
      "stateMutability": "view",
      "type": "function"
    },
    {
      "inputs": [
        {
          "internalType": "uint256",
          "name": "",
          "type": "uint256"
        }
      ],
      "name": "totalSongCount",
      "outputs": [
        {
          "internalType": "uint256",
          "name": "",
          "type": "uint256"
        }
      ],
      "stateMutability": "view",
      "type": "function"
    },
    {
      "inputs": [
        {
          "internalType": "address",
          "name": "",
          "type": "address"
        }
      ],
      "name": "userAlbumPurchase",
      "outputs": [
        {
          "internalType": "bool",
          "name": "",
          "type": "bool"
        }
      ],
      "stateMutability": "view",
      "type": "function"
    },
    {
      "inputs": [
        {
          "internalType": "address",
          "name": "",
          "type": "address"
        }
      ],
      "name": "userPlayBalance",
      "outputs": [
        {
          "internalType": "uint256",
          "name": "",
          "type": "uint256"
        }
      ],
      "stateMutability": "view",
      "type": "function"
    },
    {
      "inputs": [],
      "name": "verifyRegistration",
      "outputs": [
        {
          "internalType": "bool",
          "name": "",
          "type": "bool"
        }
      ],
      "stateMutability": "view",
      "type": "function"
    },
    {
      "inputs": [],
      "name": "withdrawBalance",
      "outputs": [
        {
          "internalType": "uint256",
          "name": "",
          "type": "uint256"
        }
      ],
      "stateMutability": "payable",
      "type": "function"
    },
    {
      "stateMutability": "payable",
      "type": "receive"
    }
  ],
  "bytecode": "0x60806040523480156200001157600080fd5b50600160008190555033600160006101000a81548173ffffffffffffffffffffffffffffffffffffffff021916908373ffffffffffffffffffffffffffffffffffffffff16021790555060016002819055506040518060600160405280600181526020016040518060400160405280600a81526020017f467574757265436c756200000000000000000000000000000000000000000000815250815260200160008152506004600060018152602001908152602001600020600082015181600001556020820151816001019080519060200190620000f19291906200015a565b5060408201518160020155905050739326bfa02add2366b30bacb125260af641031331600760006101000a81548173ffffffffffffffffffffffffffffffffffffffff021916908373ffffffffffffffffffffffffffffffffffffffff1602179055506200026f565b82805462000168906200020a565b90600052602060002090601f0160209004810192826200018c5760008555620001d8565b82601f10620001a757805160ff1916838001178555620001d8565b82800160010185558215620001d8579182015b82811115620001d7578251825591602001919060010190620001ba565b5b509050620001e79190620001eb565b5090565b5b8082111562000206576000816000905550600101620001ec565b5090565b600060028204905060018216806200022357607f821691505b602082108114156200023a576200023962000240565b5b50919050565b7f4e487b7100000000000000000000000000000000000000000000000000000000600052602260045260246000fd5b611fd4806200027f6000396000f3fe6080604052600436106101445760003560e01c80638d928af8116100b6578063bf4410601161006f578063bf4410601461046f578063d799ed1d1461049a578063d9e73f3b146104d7578063de2ea5dc14610502578063f6dc26b714610541578063f99bf3da1461057f5761014b565b80638d928af8146103335780638da5cb5b1461035e5780638e15f4731461038957806399c79410146103b4578063a786eef8146103f1578063bc3bd4a0146104325761014b565b80634b64b2e9116101085780634b64b2e91461024d5780635fd8c7101461027857806361bc1a491461029657806365cacaa4146102a057806367c9b017146102cb5780636a58b8bd146102f65761014b565b80630497de4a1461014d5780630e50cee5146101785780632e6e190e146101b55780633a562377146101f25780633e328218146102315761014b565b3661014b57005b005b34801561015957600080fd5b506101626105aa565b60405161016f9190611bf7565b60405180910390f35b34801561018457600080fd5b5061019f600480360381019061019a9190611687565b6105f1565b6040516101ac9190611af1565b60405180910390f35b3480156101c157600080fd5b506101dc60048036038101906101d79190611715565b61061c565b6040516101e99190611af1565b60405180910390f35b3480156101fe57600080fd5b50610219600480360381019061021491906116ec565b610889565b60405161022893929190611c95565b60405180910390f35b61024b600480360381019061024691906116ec565b61093b565b005b34801561025957600080fd5b50610262610c0d565b60405161026f9190611af1565b60405180910390f35b610280610c7c565b60405161028d9190611bf7565b60405180910390f35b61029e610f81565b005b3480156102ac57600080fd5b506102b5611075565b6040516102c29190611a31565b60405180910390f35b3480156102d757600080fd5b506102e061107d565b6040516102ed9190611bf7565b60405180910390f35b34801561030257600080fd5b5061031d60048036038101906103189190611687565b61108c565b60405161032a9190611bf7565b60405180910390f35b34801561033f57600080fd5b506103486110a4565b6040516103559190611bf7565b60405180910390f35b34801561036a57600080fd5b506103736110ac565b6040516103809190611a31565b60405180910390f35b34801561039557600080fd5b5061039e6110d2565b6040516103ab9190611b3c565b60405180910390f35b3480156103c057600080fd5b506103db60048036038101906103d691906116ec565b611190565b6040516103e89190611bf7565b60405180910390f35b3480156103fd57600080fd5b50610418600480360381019061041391906116b0565b6111ad565b604051610429959493929190611c12565b60405180910390f35b34801561043e57600080fd5b5061045960048036038101906104549190611687565b611298565b6040516104669190611af1565b60405180910390f35b34801561047b57600080fd5b506104846112b8565b6040516104919190611af1565b60405180910390f35b3480156104a657600080fd5b506104c160048036038101906104bc91906116ec565b611324565b6040516104ce9190611bf7565b60405180910390f35b3480156104e357600080fd5b506104ec61133c565b6040516104f99190611af1565b60405180910390f35b34801561050e57600080fd5b50610529600480360381019061052491906116ec565b611444565b60405161053893929190611c95565b60405180910390f35b34801561054d57600080fd5b5061056860048036038101906105639190611687565b611527565b604051610576929190611b0c565b60405180910390f35b34801561058b57600080fd5b50610594611618565b6040516105a19190611bf7565b60405180910390f35b6000600a60003373ffffffffffffffffffffffffffffffffffffffff1673ffffffffffffffffffffffffffffffffffffffff16815260200190815260200160002054905090565b60036020528060005260406000206000915090508060000160009054906101000a900460ff16905081565b600060011515600360003373ffffffffffffffffffffffffffffffffffffffff1673ffffffffffffffffffffffffffffffffffffffff16815260200190815260200160002060000160009054906101000a900460ff1615151461067e57600080fd5b6000650130bae7109390506000600a60003373ffffffffffffffffffffffffffffffffffffffff1673ffffffffffffffffffffffffffffffffffffffff168152602001908152602001600020541161070b576040517f08c379a000000000000000000000000000000000000000000000000000000000815260040161070290611b97565b60405180910390fd5b6000600560003373ffffffffffffffffffffffffffffffffffffffff1673ffffffffffffffffffffffffffffffffffffffff168152602001908152602001600020600086815260200190815260200160002060040160008581526020019081526020016000206002015490506000600860008681526020019081526020016000205411156107cf57808061079e90611e8a565b9150506008600085815260200190815260200160002060008154809291906107c590611e8a565b91905055506107ed565b60019050600160086000868152602001908152602001600020819055505b81600a60003373ffffffffffffffffffffffffffffffffffffffff1673ffffffffffffffffffffffffffffffffffffffff168152602001908152602001600020600082825461083c9190611d89565b925050819055507fbb7eb7164d332a76845305e9657c6e6e1557690f62c51bb3142a30bdd9a75707846001604051610875929190611c6c565b60405180910390a160019250505092915050565b60046020528060005260406000206000915090508060000154908060010180546108b290611e58565b80601f01602080910402602001604051908101604052809291908181526020018280546108de90611e58565b801561092b5780601f106109005761010080835404028352916020019161092b565b820191906000526020600020905b81548152906001019060200180831161090e57829003601f168201915b5050505050908060020154905083565b60011515600360003373ffffffffffffffffffffffffffffffffffffffff1673ffffffffffffffffffffffffffffffffffffffff16815260200190815260200160002060000160009054906101000a900460ff1615151461099b57600080fd5b600066094ffe72f165fc90508034146109e9576040517f08c379a00000000000000000000000000000000000000000000000000000000081526004016109e090611b57565b60405180910390fd5b80600a60003373ffffffffffffffffffffffffffffffffffffffff1673ffffffffffffffffffffffffffffffffffffffff1681526020019081526020016000206000828254610a389190611d89565b925050819055506000600160009054906101000a900473ffffffffffffffffffffffffffffffffffffffff1673ffffffffffffffffffffffffffffffffffffffff1682604051610a8790611a1c565b60006040518083038185875af1925050503d8060008114610ac4576040519150601f19603f3d011682016040523d82523d6000602084013e610ac9565b606091505b5050905080610b0d576040517f08c379a0000000000000000000000000000000000000000000000000000000008152600401610b0490611b77565b60405180910390fd5b600360003373ffffffffffffffffffffffffffffffffffffffff1673ffffffffffffffffffffffffffffffffffffffff1681526020019081526020016000206001018390806001815401808255809150506001900390600052602060002001600090919091909150556001600960003373ffffffffffffffffffffffffffffffffffffffff1673ffffffffffffffffffffffffffffffffffffffff16815260200190815260200160002060006101000a81548160ff0219169083151502179055507f98114562ef3b3c5ad63c855c5ce939d087bb1e8d73ecd13111fc2b20f7e59a25836001604051610c00929190611c6c565b60405180910390a1505050565b600060011515600360003373ffffffffffffffffffffffffffffffffffffffff1673ffffffffffffffffffffffffffffffffffffffff16815260200190815260200160002060000160009054906101000a900460ff1615151415610c745760019050610c79565b600090505b90565b600060011515600360003373ffffffffffffffffffffffffffffffffffffffff1673ffffffffffffffffffffffffffffffffffffffff16815260200190815260200160002060000160009054906101000a900460ff16151514610cde57600080fd5b60026000541415610d24576040517f08c379a0000000000000000000000000000000000000000000000000000000008152600401610d1b90611bb7565b60405180910390fd5b60026000819055506000600a60003373ffffffffffffffffffffffffffffffffffffffff1673ffffffffffffffffffffffffffffffffffffffff16815260200190815260200160002054341115610db0576040517f08c379a0000000000000000000000000000000000000000000000000000000008152600401610da790611bd7565b60405180910390fd5b34600a60003373ffffffffffffffffffffffffffffffffffffffff1673ffffffffffffffffffffffffffffffffffffffff1681526020019081526020016000206000828254610dff9190611d89565b9250508190555060003373ffffffffffffffffffffffffffffffffffffffff1634604051610e2c90611a1c565b60006040518083038185875af1925050503d8060008114610e69576040519150601f19603f3d011682016040523d82523d6000602084013e610e6e565b606091505b5050905080610eb2576040517f08c379a0000000000000000000000000000000000000000000000000000000008152600401610ea990611b77565b60405180910390fd5b7fca1ca4a4ed1d761392f1f336a9f048057be1d9003241ad675ceb40512068fa0a3334600a60003373ffffffffffffffffffffffffffffffffffffffff1673ffffffffffffffffffffffffffffffffffffffff168152602001908152602001600020546001604051610f279493929190611aac565b60405180910390a1600a60003373ffffffffffffffffffffffffffffffffffffffff1673ffffffffffffffffffffffffffffffffffffffff1681526020019081526020016000205491508192505050600160008190555090565b60011515600360003373ffffffffffffffffffffffffffffffffffffffff1673ffffffffffffffffffffffffffffffffffffffff16815260200190815260200160002060000160009054906101000a900460ff16151514610fe157600080fd5b34600a60003373ffffffffffffffffffffffffffffffffffffffff1673ffffffffffffffffffffffffffffffffffffffff16815260200190815260200160002060008282546110309190611d33565b925050819055507f520c4ea8c325231e5eaa6218eaaa8f78402f02349f15dba724eb30ebfc756f313334600160405161106b93929190611a75565b60405180910390a1565b600030905090565b60006110876110d2565b905090565b600a6020528060005260406000206000915090505481565b600047905090565b600160009054906101000a900473ffffffffffffffffffffffffffffffffffffffff1681565b600080600080600080600760009054906101000a900473ffffffffffffffffffffffffffffffffffffffff1673ffffffffffffffffffffffffffffffffffffffff1663feaf968c6040518163ffffffff1660e01b815260040160a06040518083038186803b15801561114357600080fd5b505afa158015611157573d6000803e3d6000fd5b505050506040513d601f19601f8201168201806040525081019061117b9190611751565b94509450945094509450839550505050505090565b600060086000838152602001908152602001600020549050919050565b6005602052816000526040600020602052806000526040600020600091509150508060000154908060010160009054906101000a900473ffffffffffffffffffffffffffffffffffffffff169080600201805461120990611e58565b80601f016020809104026020016040519081016040528092919081815260200182805461123590611e58565b80156112825780601f1061125757610100808354040283529160200191611282565b820191906000526020600020905b81548152906001019060200180831161126557829003601f168201915b5050505050908060050154908060060154905085565b60096020528060005260406000206000915054906101000a900460ff1681565b600060011515600960003373ffffffffffffffffffffffffffffffffffffffff1673ffffffffffffffffffffffffffffffffffffffff16815260200190815260200160002060009054906101000a900460ff161515141561131c5760019050611321565b600090505b90565b60086020528060005260406000206000915090505481565b60006001600360003373ffffffffffffffffffffffffffffffffffffffff1673ffffffffffffffffffffffffffffffffffffffff16815260200190815260200160002060000160006101000a81548160ff021916908315150217905550600360003373ffffffffffffffffffffffffffffffffffffffff1673ffffffffffffffffffffffffffffffffffffffff168152602001908152602001600020600101600090806001815401808255809150506001900390600052602060002001600090919091909150557f28a24a60e275c9be5babc23ecefd3240b1fcd56ef4d3fe4818437200b55ae5ff336001604051611435929190611a4c565b60405180910390a16001905090565b600060606000600460008581526020019081526020016000206000015460046000868152602001908152602001600020600101600460008781526020019081526020016000206002015481805461149a90611e58565b80601f01602080910402602001604051908101604052809291908181526020018280546114c690611e58565b80156115135780601f106114e857610100808354040283529160200191611513565b820191906000526020600020905b8154815290600101906020018083116114f657829003601f168201915b505050505091509250925092509193909250565b60006060600360008473ffffffffffffffffffffffffffffffffffffffff1673ffffffffffffffffffffffffffffffffffffffff16815260200190815260200160002060000160009054906101000a900460ff16600360008573ffffffffffffffffffffffffffffffffffffffff1673ffffffffffffffffffffffffffffffffffffffff1681526020019081526020016000206001018080548060200260200160405190810160405280929190818152602001828054801561160857602002820191906000526020600020905b8154815260200190600101908083116115f4575b5050505050905091509150915091565b60025481565b60008135905061162d81611f42565b92915050565b60008151905061164281611f59565b92915050565b60008135905061165781611f70565b92915050565b60008151905061166c81611f70565b92915050565b60008151905061168181611f87565b92915050565b60006020828403121561169957600080fd5b60006116a78482850161161e565b91505092915050565b600080604083850312156116c357600080fd5b60006116d18582860161161e565b92505060206116e285828601611648565b9150509250929050565b6000602082840312156116fe57600080fd5b600061170c84828501611648565b91505092915050565b6000806040838503121561172857600080fd5b600061173685828601611648565b925050602061174785828601611648565b9150509250929050565b600080600080600060a0868803121561176957600080fd5b600061177788828901611672565b955050602061178888828901611633565b94505060406117998882890161165d565b93505060606117aa8882890161165d565b92505060806117bb88828901611672565b9150509295509295909350565b60006117d483836119fe565b60208301905092915050565b6117e981611dbd565b82525050565b60006117fa82611ce3565b6118048185611d06565b935061180f83611cd3565b8060005b8381101561184057815161182788826117c8565b975061183283611cf9565b925050600181019050611813565b5085935050505092915050565b61185681611dcf565b82525050565b61186581611ddb565b82525050565b600061187682611cee565b6118808185611d22565b9350611890818560208601611e25565b61189981611f31565b840191505092915050565b60006118b1600d83611d22565b91507f707269636520746f6f206c6f77000000000000000000000000000000000000006000830152602082019050919050565b60006118f1601483611d22565b91507f4661696c656420746f2073656e642045746865720000000000000000000000006000830152602082019050919050565b6000611931601583611d22565b91507f6465706f7369742065746820746f206c697374656e00000000000000000000006000830152602082019050919050565b6000611971600083611d17565b9150600082019050919050565b600061198b601f83611d22565b91507f5265656e7472616e637947756172643a207265656e7472616e742063616c6c006000830152602082019050919050565b60006119cb601083611d22565b91507f6e6f7420656e6f7567682076616c7565000000000000000000000000000000006000830152602082019050919050565b611a0781611e05565b82525050565b611a1681611e05565b82525050565b6000611a2782611964565b9150819050919050565b6000602082019050611a4660008301846117e0565b92915050565b6000604082019050611a6160008301856117e0565b611a6e602083018461184d565b9392505050565b6000606082019050611a8a60008301866117e0565b611a976020830185611a0d565b611aa4604083018461184d565b949350505050565b6000608082019050611ac160008301876117e0565b611ace6020830186611a0d565b611adb6040830185611a0d565b611ae8606083018461184d565b95945050505050565b6000602082019050611b06600083018461184d565b92915050565b6000604082019050611b21600083018561184d565b8181036020830152611b3381846117ef565b90509392505050565b6000602082019050611b51600083018461185c565b92915050565b60006020820190508181036000830152611b70816118a4565b9050919050565b60006020820190508181036000830152611b90816118e4565b9050919050565b60006020820190508181036000830152611bb081611924565b9050919050565b60006020820190508181036000830152611bd08161197e565b9050919050565b60006020820190508181036000830152611bf0816119be565b9050919050565b6000602082019050611c0c6000830184611a0d565b92915050565b600060a082019050611c276000830188611a0d565b611c3460208301876117e0565b8181036040830152611c46818661186b565b9050611c556060830185611a0d565b611c626080830184611a0d565b9695505050505050565b6000604082019050611c816000830185611a0d565b611c8e602083018461184d565b9392505050565b6000606082019050611caa6000830186611a0d565b8181036020830152611cbc818561186b565b9050611ccb6040830184611a0d565b949350505050565b6000819050602082019050919050565b600081519050919050565b600081519050919050565b6000602082019050919050565b600082825260208201905092915050565b600081905092915050565b600082825260208201905092915050565b6000611d3e82611e05565b9150611d4983611e05565b9250827fffffffffffffffffffffffffffffffffffffffffffffffffffffffffffffffff03821115611d7e57611d7d611ed3565b5b828201905092915050565b6000611d9482611e05565b9150611d9f83611e05565b925082821015611db257611db1611ed3565b5b828203905092915050565b6000611dc882611de5565b9050919050565b60008115159050919050565b6000819050919050565b600073ffffffffffffffffffffffffffffffffffffffff82169050919050565b6000819050919050565b600069ffffffffffffffffffff82169050919050565b60005b83811015611e43578082015181840152602081019050611e28565b83811115611e52576000848401525b50505050565b60006002820490506001821680611e7057607f821691505b60208210811415611e8457611e83611f02565b5b50919050565b6000611e9582611e05565b91507fffffffffffffffffffffffffffffffffffffffffffffffffffffffffffffffff821415611ec857611ec7611ed3565b5b600182019050919050565b7f4e487b7100000000000000000000000000000000000000000000000000000000600052601160045260246000fd5b7f4e487b7100000000000000000000000000000000000000000000000000000000600052602260045260246000fd5b6000601f19601f8301169050919050565b611f4b81611dbd565b8114611f5657600080fd5b50565b611f6281611ddb565b8114611f6d57600080fd5b50565b611f7981611e05565b8114611f8457600080fd5b50565b611f9081611e0f565b8114611f9b57600080fd5b5056fea264697066735822122093741b9de9a4a16dc78b7a758467b85ea23c0509928c17b0e94ccd48930b0b9864736f6c63430008000033",
  "linkReferences": {},
  "deployedLinkReferences": {}
}