{
  "_format": "hh-sol-artifact-1",
  "contractName": "UserInteraction",
  "sourceName": "contracts/UserInteraction.sol",
  "abi": [
    {
      "inputs": [
        {
          "internalType": "uint256",
          "name": "albumID",
          "type": "uint256"
        }
      ],
      "name": "Buy",
      "outputs": [],
      "stateMutability": "payable",
      "type": "function"
    },
    {
      "inputs": [
        {
          "internalType": "uint256",
          "name": "albumID",
          "type": "uint256"
        },
        {
          "internalType": "uint256",
          "name": "songID",
          "type": "uint256"
        }
      ],
      "name": "Play",
      "outputs": [],
      "stateMutability": "payable",
      "type": "function"
    },
    {
      "inputs": [],
      "name": "RegisterAddress",
      "outputs": [
        {
          "internalType": "bool",
          "name": "",
          "type": "bool"
        }
      ],
      "stateMutability": "nonpayable",
      "type": "function"
    },
    {
      "inputs": [
        {
          "internalType": "uint256",
          "name": "",
          "type": "uint256"
        }
      ],
      "name": "albumDirectory",
      "outputs": [
        {
          "internalType": "uint256",
          "name": "albumID",
          "type": "uint256"
        },
        {
          "internalType": "address",
          "name": "artist",
          "type": "address"
        },
        {
          "internalType": "string",
          "name": "albumName",
          "type": "string"
        },
        {
          "internalType": "uint256",
          "name": "totalAlbumPurchases",
          "type": "uint256"
        },
        {
          "internalType": "uint256",
          "name": "totalSongPlays",
          "type": "uint256"
        }
      ],
      "stateMutability": "view",
      "type": "function"
    },
    {
      "inputs": [
        {
          "internalType": "address",
          "name": "",
          "type": "address"
        },
        {
          "internalType": "uint256",
          "name": "",
          "type": "uint256"
        }
      ],
      "name": "albumStats",
      "outputs": [
        {
          "internalType": "uint256",
          "name": "albumID",
          "type": "uint256"
        },
        {
          "internalType": "address",
          "name": "artist",
          "type": "address"
        },
        {
          "internalType": "string",
          "name": "albumName",
          "type": "string"
        },
        {
          "internalType": "uint256",
          "name": "totalAlbumPurchases",
          "type": "uint256"
        },
        {
          "internalType": "uint256",
          "name": "totalSongPlays",
          "type": "uint256"
        }
      ],
      "stateMutability": "view",
      "type": "function"
    },
    {
      "inputs": [],
      "name": "getAlbumOwnership",
      "outputs": [
        {
          "internalType": "bool",
          "name": "",
          "type": "bool"
        }
      ],
      "stateMutability": "view",
      "type": "function"
    },
    {
      "inputs": [
        {
          "internalType": "address",
          "name": "userAddress",
          "type": "address"
        }
      ],
      "name": "getRegisteredAddress",
      "outputs": [
        {
          "internalType": "bool",
          "name": "",
          "type": "bool"
        }
      ],
      "stateMutability": "view",
      "type": "function"
    },
    {
      "inputs": [],
      "name": "getUserChannelAddress",
      "outputs": [
        {
          "internalType": "address",
          "name": "",
          "type": "address"
        }
      ],
      "stateMutability": "view",
      "type": "function"
    },
    {
      "inputs": [
        {
          "internalType": "address payable",
          "name": "_vault",
          "type": "address"
        },
        {
          "internalType": "uint256",
          "name": "_duration",
          "type": "uint256"
        }
      ],
      "name": "newPaymentChannel",
      "outputs": [
        {
          "internalType": "address",
          "name": "userChannel",
          "type": "address"
        }
      ],
      "stateMutability": "nonpayable",
      "type": "function"
    },
    {
      "inputs": [
        {
          "internalType": "address",
          "name": "",
          "type": "address"
        }
      ],
      "name": "registeredArtists",
      "outputs": [
        {
          "internalType": "bool",
          "name": "registered",
          "type": "bool"
        },
        {
          "internalType": "uint256",
          "name": "totalAlbumSales",
          "type": "uint256"
        },
        {
          "internalType": "uint256",
          "name": "totalSongPlays",
          "type": "uint256"
        }
      ],
      "stateMutability": "view",
      "type": "function"
    },
    {
      "inputs": [
        {
          "internalType": "address",
          "name": "",
          "type": "address"
        }
      ],
      "name": "registeredUsers",
      "outputs": [
        {
          "internalType": "bool",
          "name": "registered",
          "type": "bool"
        }
      ],
      "stateMutability": "view",
      "type": "function"
    },
    {
      "inputs": [
        {
          "internalType": "address",
          "name": "",
          "type": "address"
        }
      ],
      "name": "userPaymentChannel",
      "outputs": [
        {
          "internalType": "address",
          "name": "",
          "type": "address"
        }
      ],
      "stateMutability": "view",
      "type": "function"
    },
    {
      "inputs": [
        {
          "internalType": "address",
          "name": "",
          "type": "address"
        }
      ],
      "name": "userPurchase",
      "outputs": [
        {
          "internalType": "bool",
          "name": "",
          "type": "bool"
        }
      ],
      "stateMutability": "view",
      "type": "function"
    },
    {
      "inputs": [],
      "name": "verifyRegistration",
      "outputs": [
        {
          "internalType": "bool",
          "name": "",
          "type": "bool"
        }
      ],
      "stateMutability": "view",
      "type": "function"
    }
  ],
  "bytecode": "0x608060405234801561001057600080fd5b50336000806101000a81548173ffffffffffffffffffffffffffffffffffffffff021916908373ffffffffffffffffffffffffffffffffffffffff160217905550612341806100606000396000f3fe608060405260043610620000f25760003560e01c8063b484eff7116200008b578063c898f3251162000061578063c898f3251462000323578063d9e73f3b1462000367578063f558369f1462000397578063f6dc26b714620003dd57620000f2565b8063b484eff7146200027f578063bdd2ae7a14620002c3578063bf44106014620002f357620000f2565b80634b64b2e911620000cd5780634b64b2e9146200017b5780635ade502014620001ab5780638a4f1f9a14620001f3578063a786eef8146200023757620000f2565b80630e50cee514620000f75780632e6e190e146200013b5780633e328218146200015b575b600080fd5b3480156200010457600080fd5b506200012360048036038101906200011d919062000f3d565b62000421565b60405162000132919062001127565b60405180910390f35b62000159600480360381019062000153919062001017565b6200044c565b005b62000179600480360381019062000173919062000feb565b6200073f565b005b3480156200018857600080fd5b50620001936200086b565b604051620001a2919062001127565b60405180910390f35b348015620001b857600080fd5b50620001d76004803603810190620001d1919062000feb565b620008dc565b604051620001ea959493929190620011b5565b60405180910390f35b3480156200020057600080fd5b506200021f600480360381019062000219919062000f3d565b620009c2565b6040516200022e9190620010dd565b60405180910390f35b3480156200024457600080fd5b506200026360048036038101906200025d919062000faa565b620009f5565b60405162000276959493929190620011b5565b60405180910390f35b3480156200028c57600080fd5b50620002ab6004803603810190620002a5919062000f3d565b62000ae8565b604051620002ba919062001127565b60405180910390f35b348015620002d057600080fd5b50620002db62000b08565b604051620002ea9190620010dd565b60405180910390f35b3480156200030057600080fd5b506200030b62000b6f565b6040516200031a919062001127565b60405180910390f35b3480156200033057600080fd5b506200034f600480360381019062000349919062000f69565b62000bdd565b6040516200035e9190620010dd565b60405180910390f35b3480156200037457600080fd5b506200037f62000ca0565b6040516200038e919062001127565b60405180910390f35b348015620003a457600080fd5b50620003c36004803603810190620003bd919062000f3d565b62000d01565b604051620003d49392919062001144565b60405180910390f35b348015620003ea57600080fd5b5062000409600480360381019062000403919062000f3d565b62000d38565b60405162000418919062001127565b60405180910390f35b60036020528060005260406000206000915090508060000160009054906101000a900460ff16905081565b60011515600360003373ffffffffffffffffffffffffffffffffffffffff1673ffffffffffffffffffffffffffffffffffffffff16815260200190815260200160002060000160009054906101000a900460ff16151514620004ad57600080fd5b6000600660003373ffffffffffffffffffffffffffffffffffffffff1673ffffffffffffffffffffffffffffffffffffffff1681526020019081526020016000206000848152602001908152602001600020600401600083815260200190815260200160002060030154905060018111156200060d5760018162000532919062001235565b506001600660003373ffffffffffffffffffffffffffffffffffffffff1673ffffffffffffffffffffffffffffffffffffffff16815260200190815260200160002060008581526020019081526020016000206006015462000595919062001235565b50600160056000600181526020019081526020016000206003018381548110620005e8577f4e487b7100000000000000000000000000000000000000000000000000000000600052603260045260246000fd5b90600052602060002090600402016003015462000606919062001235565b50620006d2565b600190506001600660003373ffffffffffffffffffffffffffffffffffffffff1673ffffffffffffffffffffffffffffffffffffffff168152602001908152602001600020600085815260200190815260200160002060060181905550600160056000600181526020019081526020016000206003018381548110620006bc577f4e487b7100000000000000000000000000000000000000000000000000000000600052603260045260246000fd5b9060005260206000209060040201600301819055505b60008054906101000a900473ffffffffffffffffffffffffffffffffffffffff1673ffffffffffffffffffffffffffffffffffffffff166108fc349081150290604051600060405180830381858888f1935050505015801562000739573d6000803e3d6000fd5b50505050565b60008054906101000a900473ffffffffffffffffffffffffffffffffffffffff1673ffffffffffffffffffffffffffffffffffffffff166108fc349081150290604051600060405180830381858888f19350505050158015620007a6573d6000803e3d6000fd5b50600360003373ffffffffffffffffffffffffffffffffffffffff1673ffffffffffffffffffffffffffffffffffffffff1681526020019081526020016000206001018190806001815401808255809150506001900390600052602060002001600090919091909150556001600860003373ffffffffffffffffffffffffffffffffffffffff1673ffffffffffffffffffffffffffffffffffffffff16815260200190815260200160002060006101000a81548160ff02191690831515021790555050565b600060011515600360003373ffffffffffffffffffffffffffffffffffffffff1673ffffffffffffffffffffffffffffffffffffffff16815260200190815260200160002060000160009054906101000a900460ff1615151415620008d45760019050620008d9565b600090505b90565b60056020528060005260406000206000915090508060000154908060010160009054906101000a900473ffffffffffffffffffffffffffffffffffffffff16908060020180546200092d9062001326565b80601f01602080910402602001604051908101604052809291908181526020018280546200095b9062001326565b8015620009ac5780601f106200098057610100808354040283529160200191620009ac565b820191906000526020600020905b8154815290600101906020018083116200098e57829003601f168201915b5050505050908060050154908060060154905085565b60096020528060005260406000206000915054906101000a900473ffffffffffffffffffffffffffffffffffffffff1681565b6006602052816000526040600020602052806000526040600020600091509150508060000154908060010160009054906101000a900473ffffffffffffffffffffffffffffffffffffffff169080600201805462000a539062001326565b80601f016020809104026020016040519081016040528092919081815260200182805462000a819062001326565b801562000ad25780601f1062000aa65761010080835404028352916020019162000ad2565b820191906000526020600020905b81548152906001019060200180831162000ab457829003601f168201915b5050505050908060050154908060060154905085565b60086020528060005260406000206000915054906101000a900460ff1681565b6000600960003373ffffffffffffffffffffffffffffffffffffffff1673ffffffffffffffffffffffffffffffffffffffff16815260200190815260200160002060009054906101000a900473ffffffffffffffffffffffffffffffffffffffff16905090565b600060011515600860003373ffffffffffffffffffffffffffffffffffffffff1673ffffffffffffffffffffffffffffffffffffffff16815260200190815260200160002060009054906101000a900460ff161515141562000bd5576001905062000bda565b600090505b90565b6000828260405162000bef9062000eea565b62000bfc929190620010fa565b604051809103906000f08015801562000c19573d6000803e3d6000fd5b50905080600960003373ffffffffffffffffffffffffffffffffffffffff1673ffffffffffffffffffffffffffffffffffffffff16815260200190815260200160002060006101000a81548173ffffffffffffffffffffffffffffffffffffffff021916908373ffffffffffffffffffffffffffffffffffffffff16021790555092915050565b60006001600360003373ffffffffffffffffffffffffffffffffffffffff1673ffffffffffffffffffffffffffffffffffffffff16815260200190815260200160002060000160006101000a81548160ff0219169083151502179055905090565b60046020528060005260406000206000915090508060000160009054906101000a900460ff16908060020154908060030154905083565b600062000dca6040518060400160405280601281526020017f5573657220697320726567697374657265640000000000000000000000000000815250600360003373ffffffffffffffffffffffffffffffffffffffff1673ffffffffffffffffffffffffffffffffffffffff16815260200190815260200160002060000160009054906101000a900460ff1662000e21565b600360008373ffffffffffffffffffffffffffffffffffffffff1673ffffffffffffffffffffffffffffffffffffffff16815260200190815260200160002060000160009054906101000a900460ff169050919050565b62000ebd828260405160240162000e3a92919062001181565b6040516020818303038152906040527fc3b55635000000000000000000000000000000000000000000000000000000007bffffffffffffffffffffffffffffffffffffffffffffffffffffffff19166020820180517bffffffffffffffffffffffffffffffffffffffffffffffffffffffff838183161783525050505062000ec1565b5050565b60008151905060006a636f6e736f6c652e6c6f679050602083016000808483855afa5050505050565b610ef2806200141a83390190565b60008135905062000f0981620013cb565b92915050565b60008135905062000f2081620013e5565b92915050565b60008135905062000f3781620013ff565b92915050565b60006020828403121562000f5057600080fd5b600062000f608482850162000ef8565b91505092915050565b6000806040838503121562000f7d57600080fd5b600062000f8d8582860162000f0f565b925050602062000fa08582860162000f26565b9150509250929050565b6000806040838503121562000fbe57600080fd5b600062000fce8582860162000ef8565b925050602062000fe18582860162000f26565b9150509250929050565b60006020828403121562000ffe57600080fd5b60006200100e8482850162000f26565b91505092915050565b600080604083850312156200102b57600080fd5b60006200103b8582860162000f26565b92505060206200104e8582860162000f26565b9150509250929050565b6200106381620012a6565b82525050565b620010748162001292565b82525050565b6200108581620012ba565b82525050565b6000620010988262001219565b620010a4818562001224565b9350620010b6818560208601620012f0565b620010c181620013ba565b840191505092915050565b620010d781620012e6565b82525050565b6000602082019050620010f4600083018462001069565b92915050565b600060408201905062001111600083018562001058565b620011206020830184620010cc565b9392505050565b60006020820190506200113e60008301846200107a565b92915050565b60006060820190506200115b60008301866200107a565b6200116a6020830185620010cc565b620011796040830184620010cc565b949350505050565b600060408201905081810360008301526200119d81856200108b565b9050620011ae60208301846200107a565b9392505050565b600060a082019050620011cc6000830188620010cc565b620011db602083018762001069565b8181036040830152620011ef81866200108b565b9050620012006060830185620010cc565b6200120f6080830184620010cc565b9695505050505050565b600081519050919050565b600082825260208201905092915050565b60006200124282620012e6565b91506200124f83620012e6565b9250827fffffffffffffffffffffffffffffffffffffffffffffffffffffffffffffffff038211156200128757620012866200135c565b5b828201905092915050565b60006200129f82620012c6565b9050919050565b6000620012b382620012c6565b9050919050565b60008115159050919050565b600073ffffffffffffffffffffffffffffffffffffffff82169050919050565b6000819050919050565b60005b8381101562001310578082015181840152602081019050620012f3565b8381111562001320576000848401525b50505050565b600060028204905060018216806200133f57607f821691505b602082108114156200135657620013556200138b565b5b50919050565b7f4e487b7100000000000000000000000000000000000000000000000000000000600052601160045260246000fd5b7f4e487b7100000000000000000000000000000000000000000000000000000000600052602260045260246000fd5b6000601f19601f8301169050919050565b620013d68162001292565b8114620013e257600080fd5b50565b620013f081620012a6565b8114620013fc57600080fd5b50565b6200140a81620012e6565b81146200141657600080fd5b5056fe608060405260405162000ef238038062000ef28339818101604052810190620000299190620000f4565b336000806101000a81548173ffffffffffffffffffffffffffffffffffffffff021916908373ffffffffffffffffffffffffffffffffffffffff16021790555081600160006101000a81548173ffffffffffffffffffffffffffffffffffffffff021916908373ffffffffffffffffffffffffffffffffffffffff1602179055508042620000b8919062000135565b600281905550505062000233565b600081519050620000d781620001ff565b92915050565b600081519050620000ee8162000219565b92915050565b600080604083850312156200010857600080fd5b60006200011885828601620000c6565b92505060206200012b85828601620000dd565b9150509250929050565b60006200014282620001c6565b91506200014f83620001c6565b9250827fffffffffffffffffffffffffffffffffffffffffffffffffffffffffffffffff03821115620001875762000186620001d0565b5b828201905092915050565b60006200019f82620001a6565b9050919050565b600073ffffffffffffffffffffffffffffffffffffffff82169050919050565b6000819050919050565b7f4e487b7100000000000000000000000000000000000000000000000000000000600052601160045260246000fd5b6200020a8162000192565b81146200021657600080fd5b50565b6200022481620001c6565b81146200023057600080fd5b50565b610caf80620002436000396000f3fe608060405234801561001057600080fd5b506004361061007d5760003560e01c8063b69ef8a81161005b578063b69ef8a8146100c8578063fbfa77cf146100e6578063fdd61ee514610104578063ffe50332146101205761007d565b80630e1da6c3146100825780634665096d1461008c57806367e404ce146100aa575b600080fd5b61008a61013c565b005b610094610184565b6040516100a19190610a41565b60405180910390f35b6100b261018a565b6040516100bf91906109b1565b60405180910390f35b6100d06101ae565b6040516100dd9190610a41565b60405180910390f35b6100ee6101b4565b6040516100fb91906109b1565b60405180910390f35b61011e60048036038101906101199190610827565b6101da565b005b61013a600480360381019061013591906108cb565b6102ea565b005b60025442101561014b57600080fd5b60008054906101000a900473ffffffffffffffffffffffffffffffffffffffff1673ffffffffffffffffffffffffffffffffffffffff16ff5b60025481565b60008054906101000a900473ffffffffffffffffffffffffffffffffffffffff1681565b60035481565b600160009054906101000a900473ffffffffffffffffffffffffffffffffffffffff1681565b600160009054906101000a900473ffffffffffffffffffffffffffffffffffffffff1673ffffffffffffffffffffffffffffffffffffffff163373ffffffffffffffffffffffffffffffffffffffff161461023457600080fd5b61023f84848461035c565b61024857600080fd5b600160009054906101000a900473ffffffffffffffffffffffffffffffffffffffff1673ffffffffffffffffffffffffffffffffffffffff166108fc829081150290604051600060405180830381858888f193505050501580156102b0573d6000803e3d6000fd5b5060008054906101000a900473ffffffffffffffffffffffffffffffffffffffff1673ffffffffffffffffffffffffffffffffffffffff16ff5b3373ffffffffffffffffffffffffffffffffffffffff16600160009054906101000a900473ffffffffffffffffffffffffffffffffffffffff1673ffffffffffffffffffffffffffffffffffffffff161461034457600080fd5b600254811161035257600080fd5b8060028190555050565b600080600061036b858561058d565b91509150600060048111156103a9577f4e487b7100000000000000000000000000000000000000000000000000000000600052602160045260246000fd5b8160048111156103e2577f4e487b7100000000000000000000000000000000000000000000000000000000600052602160045260246000fd5b14801561041a57508573ffffffffffffffffffffffffffffffffffffffff168273ffffffffffffffffffffffffffffffffffffffff16145b1561042a57600192505050610586565b6000808773ffffffffffffffffffffffffffffffffffffffff16631626ba7e60e01b888860405160240161045f9291906109cc565b604051602081830303815290604052907bffffffffffffffffffffffffffffffffffffffffffffffffffffffff19166020820180517bffffffffffffffffffffffffffffffffffffffffffffffffffffffff83818316178352505050506040516104c9919061099a565b600060405180830381855afa9150503d8060008114610504576040519150601f19603f3d011682016040523d82523d6000602084013e610509565b606091505b509150915081801561051c575060208151145b801561057f5750631626ba7e60e01b7bffffffffffffffffffffffffffffffffffffffffffffffffffffffff19168180602001905181019061055e91906108a2565b7bffffffffffffffffffffffffffffffffffffffffffffffffffffffff1916145b9450505050505b9392505050565b6000806041835114156105cf5760008060006020860151925060408601519150606086015160001a90506105c387828585610610565b94509450505050610609565b6040835114156106005760008060208501519150604085015190506105f586838361071d565b935093505050610609565b60006002915091505b9250929050565b6000807f7fffffffffffffffffffffffffffffff5d576e7357a4501ddfe92f46681b20a08360001c111561064b576000600391509150610714565b601b8560ff16141580156106635750601c8560ff1614155b15610675576000600491509150610714565b60006001878787876040516000815260200160405260405161069a94939291906109fc565b6020604051602081039080840390855afa1580156106bc573d6000803e3d6000fd5b505050602060405103519050600073ffffffffffffffffffffffffffffffffffffffff168173ffffffffffffffffffffffffffffffffffffffff16141561070b57600060019250925050610714565b80600092509250505b94509492505050565b6000806000807f7fffffffffffffffffffffffffffffffffffffffffffffffffffffffffffffff85169150601b8560ff1c01905061075d87828885610610565b935093505050935093915050565b600061077e61077984610a81565b610a5c565b90508281526020810184848401111561079657600080fd5b6107a1848285610b6a565b509392505050565b6000813590506107b881610c1d565b92915050565b6000813590506107cd81610c34565b92915050565b6000815190506107e281610c4b565b92915050565b600082601f8301126107f957600080fd5b813561080984826020860161076b565b91505092915050565b60008135905061082181610c62565b92915050565b6000806000806080858703121561083d57600080fd5b600061084b878288016107a9565b945050602061085c878288016107be565b935050604085013567ffffffffffffffff81111561087957600080fd5b610885878288016107e8565b925050606061089687828801610812565b91505092959194509250565b6000602082840312156108b457600080fd5b60006108c2848285016107d3565b91505092915050565b6000602082840312156108dd57600080fd5b60006108eb84828501610812565b91505092915050565b6108fd81610aeb565b82525050565b61090c81610afd565b82525050565b600061091d82610ab2565b6109278185610abd565b9350610937818560208601610b79565b61094081610c0c565b840191505092915050565b600061095682610ab2565b6109608185610ace565b9350610970818560208601610b79565b80840191505092915050565b61098581610b53565b82525050565b61099481610b5d565b82525050565b60006109a6828461094b565b915081905092915050565b60006020820190506109c660008301846108f4565b92915050565b60006040820190506109e16000830185610903565b81810360208301526109f38184610912565b90509392505050565b6000608082019050610a116000830187610903565b610a1e602083018661098b565b610a2b6040830185610903565b610a386060830184610903565b95945050505050565b6000602082019050610a56600083018461097c565b92915050565b6000610a66610a77565b9050610a728282610bac565b919050565b6000604051905090565b600067ffffffffffffffff821115610a9c57610a9b610bdd565b5b610aa582610c0c565b9050602081019050919050565b600081519050919050565b600082825260208201905092915050565b600081905092915050565b6000610ae482610b33565b9050919050565b6000610af682610b33565b9050919050565b6000819050919050565b60007fffffffff0000000000000000000000000000000000000000000000000000000082169050919050565b600073ffffffffffffffffffffffffffffffffffffffff82169050919050565b6000819050919050565b600060ff82169050919050565b82818337600083830152505050565b60005b83811015610b97578082015181840152602081019050610b7c565b83811115610ba6576000848401525b50505050565b610bb582610c0c565b810181811067ffffffffffffffff82111715610bd457610bd3610bdd565b5b80604052505050565b7f4e487b7100000000000000000000000000000000000000000000000000000000600052604160045260246000fd5b6000601f19601f8301169050919050565b610c2681610ad9565b8114610c3157600080fd5b50565b610c3d81610afd565b8114610c4857600080fd5b50565b610c5481610b07565b8114610c5f57600080fd5b50565b610c6b81610b53565b8114610c7657600080fd5b5056fea2646970667358221220b091ae21422d8cb116dc3843643faba4ebf51d71e62848e7d00f754d604bf55e64736f6c63430008040033a26469706673582212201ca3f50da0ed15efc8b985e2df0e30ebae0c5f5cb0027ee2a39178555d3ce94764736f6c63430008040033",
  "linkReferences": {},
  "deployedLinkReferences": {}
}