{
  "_format": "hh-sol-artifact-1",
  "contractName": "UserInteraction",
  "sourceName": "contracts/UserInteraction.sol",
  "abi": [
    {
      "inputs": [],
      "stateMutability": "nonpayable",
      "type": "constructor"
    },
    {
      "anonymous": false,
      "inputs": [
        {
          "indexed": false,
          "internalType": "uint256",
          "name": "_albumID",
          "type": "uint256"
        },
        {
          "indexed": false,
          "internalType": "bool",
          "name": "success",
          "type": "bool"
        }
      ],
      "name": "AlbumPurchased",
      "type": "event"
    },
    {
      "anonymous": false,
      "inputs": [
        {
          "indexed": false,
          "internalType": "address",
          "name": "_depositer",
          "type": "address"
        },
        {
          "indexed": false,
          "internalType": "uint256",
          "name": "_amount",
          "type": "uint256"
        },
        {
          "indexed": false,
          "internalType": "bool",
          "name": "success",
          "type": "bool"
        }
      ],
      "name": "AmountDeposited",
      "type": "event"
    },
    {
      "anonymous": false,
      "inputs": [
        {
          "indexed": false,
          "internalType": "uint256",
          "name": "_songID",
          "type": "uint256"
        },
        {
          "indexed": false,
          "internalType": "bool",
          "name": "success",
          "type": "bool"
        }
      ],
      "name": "SongPlayed",
      "type": "event"
    },
    {
      "anonymous": false,
      "inputs": [
        {
          "indexed": false,
          "internalType": "address",
          "name": "registree",
          "type": "address"
        },
        {
          "indexed": false,
          "internalType": "bool",
          "name": "registered",
          "type": "bool"
        }
      ],
      "name": "UserRegistered",
      "type": "event"
    },
    {
      "anonymous": false,
      "inputs": [
        {
          "indexed": false,
          "internalType": "address",
          "name": "withdrawee",
          "type": "address"
        },
        {
          "indexed": false,
          "internalType": "uint256",
          "name": "_amount",
          "type": "uint256"
        },
        {
          "indexed": false,
          "internalType": "uint256",
          "name": "current_balance",
          "type": "uint256"
        },
        {
          "indexed": false,
          "internalType": "bool",
          "name": "success",
          "type": "bool"
        }
      ],
      "name": "WithdrawalComplete",
      "type": "event"
    },
    {
      "stateMutability": "payable",
      "type": "fallback"
    },
    {
      "inputs": [
        {
          "internalType": "uint256",
          "name": "albumID",
          "type": "uint256"
        }
      ],
      "name": "Buy",
      "outputs": [],
      "stateMutability": "payable",
      "type": "function"
    },
    {
      "inputs": [],
      "name": "ChainLinkContract",
      "outputs": [
        {
          "internalType": "contract PriceConsumerV3",
          "name": "",
          "type": "address"
        }
      ],
      "stateMutability": "view",
      "type": "function"
    },
    {
      "inputs": [
        {
          "internalType": "uint256",
          "name": "albumID",
          "type": "uint256"
        },
        {
          "internalType": "uint256",
          "name": "songID",
          "type": "uint256"
        }
      ],
      "name": "Play",
      "outputs": [
        {
          "internalType": "bool",
          "name": "",
          "type": "bool"
        }
      ],
      "stateMutability": "nonpayable",
      "type": "function"
    },
    {
      "inputs": [],
      "name": "RegisterAddress",
      "outputs": [
        {
          "internalType": "bool",
          "name": "",
          "type": "bool"
        }
      ],
      "stateMutability": "nonpayable",
      "type": "function"
    },
    {
      "inputs": [],
      "name": "albumCounter",
      "outputs": [
        {
          "internalType": "uint256",
          "name": "",
          "type": "uint256"
        }
      ],
      "stateMutability": "view",
      "type": "function"
    },
    {
      "inputs": [
        {
          "internalType": "address",
          "name": "",
          "type": "address"
        },
        {
          "internalType": "uint256",
          "name": "",
          "type": "uint256"
        }
      ],
      "name": "albumStats",
      "outputs": [
        {
          "internalType": "uint256",
          "name": "albumID",
          "type": "uint256"
        },
        {
          "internalType": "address",
          "name": "artist",
          "type": "address"
        },
        {
          "internalType": "string",
          "name": "albumName",
          "type": "string"
        },
        {
          "internalType": "uint256",
          "name": "totalAlbumPurchases",
          "type": "uint256"
        },
        {
          "internalType": "uint256",
          "name": "totalSongPlays",
          "type": "uint256"
        }
      ],
      "stateMutability": "view",
      "type": "function"
    },
    {
      "inputs": [],
      "name": "depositBalance",
      "outputs": [],
      "stateMutability": "payable",
      "type": "function"
    },
    {
      "inputs": [
        {
          "internalType": "uint256",
          "name": "songID",
          "type": "uint256"
        },
        {
          "internalType": "uint256",
          "name": "songID2",
          "type": "uint256"
        },
        {
          "internalType": "uint256",
          "name": "songID3",
          "type": "uint256"
        }
      ],
      "name": "getAggregatePlayCount",
      "outputs": [
        {
          "internalType": "uint256",
          "name": "",
          "type": "uint256"
        }
      ],
      "stateMutability": "view",
      "type": "function"
    },
    {
      "inputs": [],
      "name": "getAlbumOwnership",
      "outputs": [
        {
          "internalType": "bool",
          "name": "",
          "type": "bool"
        }
      ],
      "stateMutability": "view",
      "type": "function"
    },
    {
      "inputs": [],
      "name": "getDepositBalance",
      "outputs": [
        {
          "internalType": "uint256",
          "name": "",
          "type": "uint256"
        }
      ],
      "stateMutability": "view",
      "type": "function"
    },
    {
      "inputs": [],
      "name": "getEthPriceToday",
      "outputs": [
        {
          "internalType": "int256",
          "name": "",
          "type": "int256"
        }
      ],
      "stateMutability": "view",
      "type": "function"
    },
    {
      "inputs": [
        {
          "internalType": "uint256",
          "name": "songID",
          "type": "uint256"
        }
      ],
      "name": "getPlayCount",
      "outputs": [
        {
          "internalType": "uint256",
          "name": "",
          "type": "uint256"
        }
      ],
      "stateMutability": "view",
      "type": "function"
    },
    {
      "inputs": [
        {
          "internalType": "address",
          "name": "userAddress",
          "type": "address"
        }
      ],
      "name": "getRegisteredAddress",
      "outputs": [
        {
          "internalType": "bool",
          "name": "registration",
          "type": "bool"
        },
        {
          "internalType": "uint256[]",
          "name": "albumsOwned",
          "type": "uint256[]"
        }
      ],
      "stateMutability": "view",
      "type": "function"
    },
    {
      "inputs": [
        {
          "internalType": "uint256",
          "name": "songNumber",
          "type": "uint256"
        }
      ],
      "name": "getSongInfo",
      "outputs": [
        {
          "internalType": "uint256",
          "name": "id",
          "type": "uint256"
        },
        {
          "internalType": "string",
          "name": "title",
          "type": "string"
        },
        {
          "internalType": "uint256",
          "name": "playCount",
          "type": "uint256"
        }
      ],
      "stateMutability": "view",
      "type": "function"
    },
    {
      "inputs": [],
      "name": "getTotalAlbumsPurchased",
      "outputs": [
        {
          "internalType": "uint256",
          "name": "",
          "type": "uint256"
        }
      ],
      "stateMutability": "view",
      "type": "function"
    },
    {
      "inputs": [
        {
          "internalType": "uint256",
          "name": "albumID",
          "type": "uint256"
        },
        {
          "internalType": "uint256",
          "name": "songID",
          "type": "uint256"
        }
      ],
      "name": "getUserPlayCount",
      "outputs": [
        {
          "internalType": "uint256",
          "name": "",
          "type": "uint256"
        }
      ],
      "stateMutability": "view",
      "type": "function"
    },
    {
      "inputs": [],
      "name": "owner",
      "outputs": [
        {
          "internalType": "address",
          "name": "",
          "type": "address"
        }
      ],
      "stateMutability": "view",
      "type": "function"
    },
    {
      "inputs": [
        {
          "internalType": "address",
          "name": "destination",
          "type": "address"
        }
      ],
      "name": "ownerRedirectFullBalance",
      "outputs": [],
      "stateMutability": "nonpayable",
      "type": "function"
    },
    {
      "inputs": [
        {
          "internalType": "address",
          "name": "",
          "type": "address"
        }
      ],
      "name": "registeredUsers",
      "outputs": [
        {
          "internalType": "bool",
          "name": "registered",
          "type": "bool"
        }
      ],
      "stateMutability": "view",
      "type": "function"
    },
    {
      "inputs": [
        {
          "internalType": "uint256",
          "name": "",
          "type": "uint256"
        }
      ],
      "name": "songList",
      "outputs": [
        {
          "internalType": "uint256",
          "name": "songID",
          "type": "uint256"
        },
        {
          "internalType": "string",
          "name": "songName",
          "type": "string"
        },
        {
          "internalType": "uint256",
          "name": "playCount",
          "type": "uint256"
        }
      ],
      "stateMutability": "view",
      "type": "function"
    },
    {
      "inputs": [
        {
          "internalType": "uint256",
          "name": "",
          "type": "uint256"
        }
      ],
      "name": "totalSongCount",
      "outputs": [
        {
          "internalType": "uint256",
          "name": "",
          "type": "uint256"
        }
      ],
      "stateMutability": "view",
      "type": "function"
    },
    {
      "inputs": [
        {
          "internalType": "address",
          "name": "",
          "type": "address"
        }
      ],
      "name": "userAlbumPurchase",
      "outputs": [
        {
          "internalType": "bool",
          "name": "",
          "type": "bool"
        }
      ],
      "stateMutability": "view",
      "type": "function"
    },
    {
      "inputs": [
        {
          "internalType": "address",
          "name": "",
          "type": "address"
        }
      ],
      "name": "userPlayBalance",
      "outputs": [
        {
          "internalType": "uint256",
          "name": "",
          "type": "uint256"
        }
      ],
      "stateMutability": "view",
      "type": "function"
    },
    {
      "inputs": [],
      "name": "verifyRegistration",
      "outputs": [
        {
          "internalType": "bool",
          "name": "",
          "type": "bool"
        }
      ],
      "stateMutability": "view",
      "type": "function"
    },
    {
      "inputs": [
        {
          "internalType": "uint256",
          "name": "_amount",
          "type": "uint256"
        }
      ],
      "name": "withdrawBalance",
      "outputs": [],
      "stateMutability": "nonpayable",
      "type": "function"
    },
    {
      "stateMutability": "payable",
      "type": "receive"
    }
  ],
  "bytecode": "0x608060405260006009553480156200001657600080fd5b50600160008190555033600160006101000a81548173ffffffffffffffffffffffffffffffffffffffff021916908373ffffffffffffffffffffffffffffffffffffffff16021790555060016002819055506040518060600160405280600181526020016040518060400160405280600b81526020017f5368656e616e6967616e730000000000000000000000000000000000000000008152508152602001600081525060046000808152602001908152602001600020600082015181600001556020820151816001019080519060200190620000f592919062000296565b50604082015181600201559050506040518060600160405280600281526020016040518060400160405280600c81526020017f496e7465724477656c6c657200000000000000000000000000000000000000008152508152602001600081525060046000600181526020019081526020016000206000820151816000015560208201518160010190805190602001906200019192919062000296565b50604082015181600201559050506040518060600160405280600381526020016040518060400160405280600981526020017f4c612053746f72696100000000000000000000000000000000000000000000008152508152602001600081525060046000600281526020019081526020016000206000820151816000015560208201518160010190805190602001906200022d92919062000296565b50604082015181600201559050507380d1188714a4d2b4befec0571ed583d4b03c4b1b600a60006101000a81548173ffffffffffffffffffffffffffffffffffffffff021916908373ffffffffffffffffffffffffffffffffffffffff160217905550620003ab565b828054620002a49062000346565b90600052602060002090601f016020900481019282620002c8576000855562000314565b82601f10620002e357805160ff191683800117855562000314565b8280016001018555821562000314579182015b8281111562000313578251825591602001919060010190620002f6565b5b50905062000323919062000327565b5090565b5b808211156200034257600081600090555060010162000328565b5090565b600060028204905060018216806200035f57607f821691505b602082108114156200037657620003756200037c565b5b50919050565b7f4e487b7100000000000000000000000000000000000000000000000000000000600052602260045260246000fd5b61244d80620003bb6000396000f3fe60806040526004361061016a5760003560e01c806399c79410116100d1578063d9e73f3b1161008a578063de2ea5dc11610064578063de2ea5dc14610580578063f03a4eee146105bf578063f6dc26b7146105ea578063f99bf3da1461062857610171565b8063d9e73f3b14610501578063da76d5cd1461052c578063dd0318931461055557610171565b806399c79410146103b3578063a786eef8146103f0578063bc3bd4a014610431578063bf4410601461046e578063d0ee55be14610499578063d799ed1d146104c457610171565b80635548b058116101235780635548b0581461029e5780635ae169f2146102c757806361bc1a49146103045780636a58b8bd1461030e5780637c01ee761461034b5780638da5cb5b1461038857610171565b80630497de4a146101735780630e50cee51461019e5780632e6e190e146101db5780633a562377146102185780633e328218146102575780634b64b2e91461027357610171565b3661017157005b005b34801561017f57600080fd5b50610188610653565b6040516101959190611fe5565b60405180910390f35b3480156101aa57600080fd5b506101c560048036038101906101c09190611aaa565b61069a565b6040516101d29190611ee4565b60405180910390f35b3480156101e757600080fd5b5061020260048036038101906101fd9190611b61565b6106c5565b60405161020f9190611ee4565b60405180910390f35b34801561022457600080fd5b5061023f600480360381019061023a9190611b38565b6109fe565b60405161024e93929190612083565b60405180910390f35b610271600480360381019061026c9190611b38565b610ab0565b005b34801561027f57600080fd5b50610288610f29565b6040516102959190611ee4565b60405180910390f35b3480156102aa57600080fd5b506102c560048036038101906102c09190611aaa565b610f98565b005b3480156102d357600080fd5b506102ee60048036038101906102e99190611b9d565b6110a2565b6040516102fb9190611fe5565b60405180910390f35b61030c6110fd565b005b34801561031a57600080fd5b5061033560048036038101906103309190611aaa565b6111f1565b6040516103429190611fe5565b60405180910390f35b34801561035757600080fd5b50610372600480360381019061036d9190611b61565b611209565b60405161037f9190611fe5565b60405180910390f35b34801561039457600080fd5b5061039d61127b565b6040516103aa9190611e24565b60405180910390f35b3480156103bf57600080fd5b506103da60048036038101906103d59190611b38565b6112a1565b6040516103e79190611fe5565b60405180910390f35b3480156103fc57600080fd5b5061041760048036038101906104129190611ad3565b6112be565b604051610428959493929190612000565b60405180910390f35b34801561043d57600080fd5b5061045860048036038101906104539190611aaa565b6113a9565b6040516104659190611ee4565b60405180910390f35b34801561047a57600080fd5b506104836113c9565b6040516104909190611ee4565b60405180910390f35b3480156104a557600080fd5b506104ae611435565b6040516104bb9190611fe5565b60405180910390f35b3480156104d057600080fd5b506104eb60048036038101906104e69190611b38565b61143f565b6040516104f89190611fe5565b60405180910390f35b34801561050d57600080fd5b50610516611457565b6040516105239190611ee4565b60405180910390f35b34801561053857600080fd5b50610553600480360381019061054e9190611b38565b61155f565b005b34801561056157600080fd5b5061056a6117c4565b6040516105779190611f4a565b60405180910390f35b34801561058c57600080fd5b506105a760048036038101906105a29190611b38565b61186b565b6040516105b693929190612083565b60405180910390f35b3480156105cb57600080fd5b506105d461194e565b6040516105e19190611f2f565b60405180910390f35b3480156105f657600080fd5b50610611600480360381019061060c9190611aaa565b611974565b60405161061f929190611eff565b60405180910390f35b34801561063457600080fd5b5061063d611a65565b60405161064a9190611fe5565b60405180910390f35b6000600860003373ffffffffffffffffffffffffffffffffffffffff1673ffffffffffffffffffffffffffffffffffffffff16815260200190815260200160002054905090565b60036020528060005260406000206000915090508060000160009054906101000a900460ff16905081565b600060011515600360003373ffffffffffffffffffffffffffffffffffffffff1673ffffffffffffffffffffffffffffffffffffffff16815260200190815260200160002060000160009054906101000a900460ff1615151461072757600080fd5b6000600760003373ffffffffffffffffffffffffffffffffffffffff1673ffffffffffffffffffffffffffffffffffffffff16815260200190815260200160002060009054906101000a900460ff1661078657650130bae71093610789565b60005b65ffffffffffff1690506000600860003373ffffffffffffffffffffffffffffffffffffffff1673ffffffffffffffffffffffffffffffffffffffff1681526020019081526020016000205411610815576040517f08c379a000000000000000000000000000000000000000000000000000000000815260040161080c90611fa5565b60405180910390fd5b6000600660008581526020019081526020016000205411156108dc57600560003373ffffffffffffffffffffffffffffffffffffffff1673ffffffffffffffffffffffffffffffffffffffff1681526020019081526020016000206000858152602001908152602001600020600401600084815260200190815260200160002060020160008154809291906108a99061231a565b91905055506006600084815260200190815260200160002060008154809291906108d29061231a565b9190505550610963565b6001600560003373ffffffffffffffffffffffffffffffffffffffff1673ffffffffffffffffffffffffffffffffffffffff1681526020019081526020016000206000868152602001908152602001600020600401600085815260200190815260200160002060020181905550600160066000858152602001908152602001600020819055505b80600860003373ffffffffffffffffffffffffffffffffffffffff1673ffffffffffffffffffffffffffffffffffffffff16815260200190815260200160002060008282546109b2919061220b565b925050819055507fbb7eb7164d332a76845305e9657c6e6e1557690f62c51bb3142a30bdd9a757078360016040516109eb92919061205a565b60405180910390a1600191505092915050565b6004602052806000526040600020600091509050806000015490806001018054610a27906122e8565b80601f0160208091040260200160405190810160405280929190818152602001828054610a53906122e8565b8015610aa05780601f10610a7557610100808354040283529160200191610aa0565b820191906000526020600020905b815481529060010190602001808311610a8357829003601f168201915b5050505050908060020154905083565b60011515600360003373ffffffffffffffffffffffffffffffffffffffff1673ffffffffffffffffffffffffffffffffffffffff16815260200190815260200160002060000160009054906101000a900460ff16151514610b1057600080fd5b600066094ffe72f165fc9050803414610b5e576040517f08c379a0000000000000000000000000000000000000000000000000000000008152600401610b5590611f65565b60405180910390fd5b600080600860003373ffffffffffffffffffffffffffffffffffffffff1673ffffffffffffffffffffffffffffffffffffffff1681526020019081526020016000205411610bac5781610bf8565b81600860003373ffffffffffffffffffffffffffffffffffffffff1673ffffffffffffffffffffffffffffffffffffffff16815260200190815260200160002054610bf79190612177565b5b9050600360003373ffffffffffffffffffffffffffffffffffffffff1673ffffffffffffffffffffffffffffffffffffffff1681526020019081526020016000206001018390806001815401808255809150506001900390600052602060002001600090919091909150556001600760003373ffffffffffffffffffffffffffffffffffffffff1673ffffffffffffffffffffffffffffffffffffffff16815260200190815260200160002060006101000a81548160ff021916908315150217905550600160096000828254610cce9190612121565b925050819055506000811315610dd5576000600860003373ffffffffffffffffffffffffffffffffffffffff1673ffffffffffffffffffffffffffffffffffffffff1681526020019081526020016000208190555060003373ffffffffffffffffffffffffffffffffffffffff1682604051610d4990611e0f565b60006040518083038185875af1925050503d8060008114610d86576040519150601f19603f3d011682016040523d82523d6000602084013e610d8b565b606091505b5050905080610dcf576040517f08c379a0000000000000000000000000000000000000000000000000000000008152600401610dc690611f85565b60405180910390fd5b50610eea565b6000600860003373ffffffffffffffffffffffffffffffffffffffff1673ffffffffffffffffffffffffffffffffffffffff168152602001908152602001600020819055506000600160009054906101000a900473ffffffffffffffffffffffffffffffffffffffff1673ffffffffffffffffffffffffffffffffffffffff1682604051610e6290611e0f565b60006040518083038185875af1925050503d8060008114610e9f576040519150601f19603f3d011682016040523d82523d6000602084013e610ea4565b606091505b5050905080610ee8576040517f08c379a0000000000000000000000000000000000000000000000000000000008152600401610edf90611f85565b60405180910390fd5b505b7f98114562ef3b3c5ad63c855c5ce939d087bb1e8d73ecd13111fc2b20f7e59a25836001604051610f1c92919061205a565b60405180910390a1505050565b600060011515600360003373ffffffffffffffffffffffffffffffffffffffff1673ffffffffffffffffffffffffffffffffffffffff16815260200190815260200160002060000160009054906101000a900460ff1615151415610f905760019050610f95565b600090505b90565b600160009054906101000a900473ffffffffffffffffffffffffffffffffffffffff1673ffffffffffffffffffffffffffffffffffffffff163373ffffffffffffffffffffffffffffffffffffffff1614610ff257600080fd5b60008173ffffffffffffffffffffffffffffffffffffffff164760405161101890611e0f565b60006040518083038185875af1925050503d8060008114611055576040519150601f19603f3d011682016040523d82523d6000602084013e61105a565b606091505b505090508061109e576040517f08c379a000000000000000000000000000000000000000000000000000000000815260040161109590611f85565b60405180910390fd5b5050565b60006006600083815260200190815260200160002054600660008581526020019081526020016000205460066000878152602001908152602001600020546110ea9190612121565b6110f49190612121565b90509392505050565b60011515600360003373ffffffffffffffffffffffffffffffffffffffff1673ffffffffffffffffffffffffffffffffffffffff16815260200190815260200160002060000160009054906101000a900460ff1615151461115d57600080fd5b34600860003373ffffffffffffffffffffffffffffffffffffffff1673ffffffffffffffffffffffffffffffffffffffff16815260200190815260200160002060008282546111ac9190612121565b925050819055507f520c4ea8c325231e5eaa6218eaaa8f78402f02349f15dba724eb30ebfc756f31333460016040516111e793929190611e68565b60405180910390a1565b60086020528060005260406000206000915090505481565b6000600560003373ffffffffffffffffffffffffffffffffffffffff1673ffffffffffffffffffffffffffffffffffffffff1681526020019081526020016000206000848152602001908152602001600020600401600083815260200190815260200160002060020154905092915050565b600160009054906101000a900473ffffffffffffffffffffffffffffffffffffffff1681565b600060066000838152602001908152602001600020549050919050565b6005602052816000526040600020602052806000526040600020600091509150508060000154908060010160009054906101000a900473ffffffffffffffffffffffffffffffffffffffff169080600201805461131a906122e8565b80601f0160208091040260200160405190810160405280929190818152602001828054611346906122e8565b80156113935780601f1061136857610100808354040283529160200191611393565b820191906000526020600020905b81548152906001019060200180831161137657829003601f168201915b5050505050908060050154908060060154905085565b60076020528060005260406000206000915054906101000a900460ff1681565b600060011515600760003373ffffffffffffffffffffffffffffffffffffffff1673ffffffffffffffffffffffffffffffffffffffff16815260200190815260200160002060009054906101000a900460ff161515141561142d5760019050611432565b600090505b90565b6000600954905090565b60066020528060005260406000206000915090505481565b60006001600360003373ffffffffffffffffffffffffffffffffffffffff1673ffffffffffffffffffffffffffffffffffffffff16815260200190815260200160002060000160006101000a81548160ff021916908315150217905550600360003373ffffffffffffffffffffffffffffffffffffffff1673ffffffffffffffffffffffffffffffffffffffff168152602001908152602001600020600101600090806001815401808255809150506001900390600052602060002001600090919091909150557f28a24a60e275c9be5babc23ecefd3240b1fcd56ef4d3fe4818437200b55ae5ff336001604051611550929190611e3f565b60405180910390a16001905090565b60011515600360003373ffffffffffffffffffffffffffffffffffffffff1673ffffffffffffffffffffffffffffffffffffffff16815260200190815260200160002060000160009054906101000a900460ff161515146115bf57600080fd5b600860003373ffffffffffffffffffffffffffffffffffffffff1673ffffffffffffffffffffffffffffffffffffffff16815260200190815260200160002054811115611641576040517f08c379a000000000000000000000000000000000000000000000000000000000815260040161163890611fc5565b60405180910390fd5b80600860003373ffffffffffffffffffffffffffffffffffffffff1673ffffffffffffffffffffffffffffffffffffffff1681526020019081526020016000206000828254611690919061220b565b9250508190555060003373ffffffffffffffffffffffffffffffffffffffff16826040516116bd90611e0f565b60006040518083038185875af1925050503d80600081146116fa576040519150601f19603f3d011682016040523d82523d6000602084013e6116ff565b606091505b5050905080611743576040517f08c379a000000000000000000000000000000000000000000000000000000000815260040161173a90611f85565b60405180910390fd5b7fca1ca4a4ed1d761392f1f336a9f048057be1d9003241ad675ceb40512068fa0a3383600860003373ffffffffffffffffffffffffffffffffffffffff1673ffffffffffffffffffffffffffffffffffffffff1681526020019081526020016000205460016040516117b89493929190611e9f565b60405180910390a15050565b6000600a60009054906101000a900473ffffffffffffffffffffffffffffffffffffffff1673ffffffffffffffffffffffffffffffffffffffff16638e15f4736040518163ffffffff1660e01b815260040160206040518083038186803b15801561182e57600080fd5b505afa158015611842573d6000803e3d6000fd5b505050506040513d601f19601f820116820180604052508101906118669190611b0f565b905090565b60006060600060046000858152602001908152602001600020600001546004600086815260200190815260200160002060010160046000878152602001908152602001600020600201548180546118c1906122e8565b80601f01602080910402602001604051908101604052809291908181526020018280546118ed906122e8565b801561193a5780601f1061190f5761010080835404028352916020019161193a565b820191906000526020600020905b81548152906001019060200180831161191d57829003601f168201915b505050505091509250925092509193909250565b600a60009054906101000a900473ffffffffffffffffffffffffffffffffffffffff1681565b60006060600360008473ffffffffffffffffffffffffffffffffffffffff1673ffffffffffffffffffffffffffffffffffffffff16815260200190815260200160002060000160009054906101000a900460ff16600360008573ffffffffffffffffffffffffffffffffffffffff1673ffffffffffffffffffffffffffffffffffffffff16815260200190815260200160002060010180805480602002602001604051908101604052809291908181526020018280548015611a5557602002820191906000526020600020905b815481526020019060010190808311611a41575b5050505050905091509150915091565b60025481565b600081359050611a7a816123d2565b92915050565b600081519050611a8f816123e9565b92915050565b600081359050611aa481612400565b92915050565b600060208284031215611abc57600080fd5b6000611aca84828501611a6b565b91505092915050565b60008060408385031215611ae657600080fd5b6000611af485828601611a6b565b9250506020611b0585828601611a95565b9150509250929050565b600060208284031215611b2157600080fd5b6000611b2f84828501611a80565b91505092915050565b600060208284031215611b4a57600080fd5b6000611b5884828501611a95565b91505092915050565b60008060408385031215611b7457600080fd5b6000611b8285828601611a95565b9250506020611b9385828601611a95565b9150509250929050565b600080600060608486031215611bb257600080fd5b6000611bc086828701611a95565b9350506020611bd186828701611a95565b9250506040611be286828701611a95565b9150509250925092565b6000611bf88383611df1565b60208301905092915050565b611c0d8161223f565b82525050565b6000611c1e826120d1565b611c2881856120f4565b9350611c33836120c1565b8060005b83811015611c64578151611c4b8882611bec565b9750611c56836120e7565b925050600181019050611c37565b5085935050505092915050565b611c7a81612251565b82525050565b611c8981612291565b82525050565b611c988161225d565b82525050565b6000611ca9826120dc565b611cb38185612110565b9350611cc38185602086016122b5565b611ccc816123c1565b840191505092915050565b6000611ce4600d83612110565b91507f707269636520746f6f206c6f77000000000000000000000000000000000000006000830152602082019050919050565b6000611d24601483612110565b91507f4661696c656420746f2073656e642045746865720000000000000000000000006000830152602082019050919050565b6000611d64601583612110565b91507f6465706f7369742065746820746f206c697374656e00000000000000000000006000830152602082019050919050565b6000611da4600083612105565b9150600082019050919050565b6000611dbe601083612110565b91507f6e6f7420656e6f7567682076616c7565000000000000000000000000000000006000830152602082019050919050565b611dfa81612287565b82525050565b611e0981612287565b82525050565b6000611e1a82611d97565b9150819050919050565b6000602082019050611e396000830184611c04565b92915050565b6000604082019050611e546000830185611c04565b611e616020830184611c71565b9392505050565b6000606082019050611e7d6000830186611c04565b611e8a6020830185611e00565b611e976040830184611c71565b949350505050565b6000608082019050611eb46000830187611c04565b611ec16020830186611e00565b611ece6040830185611e00565b611edb6060830184611c71565b95945050505050565b6000602082019050611ef96000830184611c71565b92915050565b6000604082019050611f146000830185611c71565b8181036020830152611f268184611c13565b90509392505050565b6000602082019050611f446000830184611c80565b92915050565b6000602082019050611f5f6000830184611c8f565b92915050565b60006020820190508181036000830152611f7e81611cd7565b9050919050565b60006020820190508181036000830152611f9e81611d17565b9050919050565b60006020820190508181036000830152611fbe81611d57565b9050919050565b60006020820190508181036000830152611fde81611db1565b9050919050565b6000602082019050611ffa6000830184611e00565b92915050565b600060a0820190506120156000830188611e00565b6120226020830187611c04565b81810360408301526120348186611c9e565b90506120436060830185611e00565b6120506080830184611e00565b9695505050505050565b600060408201905061206f6000830185611e00565b61207c6020830184611c71565b9392505050565b60006060820190506120986000830186611e00565b81810360208301526120aa8185611c9e565b90506120b96040830184611e00565b949350505050565b6000819050602082019050919050565b600081519050919050565b600081519050919050565b6000602082019050919050565b600082825260208201905092915050565b600081905092915050565b600082825260208201905092915050565b600061212c82612287565b915061213783612287565b9250827fffffffffffffffffffffffffffffffffffffffffffffffffffffffffffffffff0382111561216c5761216b612363565b5b828201905092915050565b60006121828261225d565b915061218d8361225d565b9250827f8000000000000000000000000000000000000000000000000000000000000000018212600084121516156121c8576121c7612363565b5b827f7fffffffffffffffffffffffffffffffffffffffffffffffffffffffffffffff018213600084121615612200576121ff612363565b5b828203905092915050565b600061221682612287565b915061222183612287565b92508282101561223457612233612363565b5b828203905092915050565b600061224a82612267565b9050919050565b60008115159050919050565b6000819050919050565b600073ffffffffffffffffffffffffffffffffffffffff82169050919050565b6000819050919050565b600061229c826122a3565b9050919050565b60006122ae82612267565b9050919050565b60005b838110156122d35780820151818401526020810190506122b8565b838111156122e2576000848401525b50505050565b6000600282049050600182168061230057607f821691505b6020821081141561231457612313612392565b5b50919050565b600061232582612287565b91507fffffffffffffffffffffffffffffffffffffffffffffffffffffffffffffffff82141561235857612357612363565b5b600182019050919050565b7f4e487b7100000000000000000000000000000000000000000000000000000000600052601160045260246000fd5b7f4e487b7100000000000000000000000000000000000000000000000000000000600052602260045260246000fd5b6000601f19601f8301169050919050565b6123db8161223f565b81146123e657600080fd5b50565b6123f28161225d565b81146123fd57600080fd5b50565b61240981612287565b811461241457600080fd5b5056fea2646970667358221220f5b537e3925d50b0437f14bf4061166a5d1313ab0eea3515c2e0cb7c0f63b68464736f6c63430008000033",
  "linkReferences": {},
  "deployedLinkReferences": {}
}