{
  "_format": "hh-sol-artifact-1",
  "contractName": "UserInteraction",
  "sourceName": "contracts/UserInteraction.sol",
  "abi": [
    {
      "anonymous": false,
      "inputs": [
        {
          "indexed": false,
          "internalType": "uint256",
          "name": "_albumID",
          "type": "uint256"
        },
        {
          "indexed": false,
          "internalType": "bool",
          "name": "success",
          "type": "bool"
        }
      ],
      "name": "AlbumPurchased",
      "type": "event"
    },
    {
      "anonymous": false,
      "inputs": [
        {
          "indexed": false,
          "internalType": "address",
          "name": "_depositer",
          "type": "address"
        },
        {
          "indexed": false,
          "internalType": "uint256",
          "name": "_amount",
          "type": "uint256"
        },
        {
          "indexed": false,
          "internalType": "bool",
          "name": "success",
          "type": "bool"
        }
      ],
      "name": "AmountDeposited",
      "type": "event"
    },
    {
      "anonymous": false,
      "inputs": [
        {
          "indexed": false,
          "internalType": "uint256",
          "name": "_songID",
          "type": "uint256"
        },
        {
          "indexed": false,
          "internalType": "bool",
          "name": "success",
          "type": "bool"
        }
      ],
      "name": "SongPlayed",
      "type": "event"
    },
    {
      "anonymous": false,
      "inputs": [
        {
          "indexed": false,
          "internalType": "address",
          "name": "registree",
          "type": "address"
        },
        {
          "indexed": false,
          "internalType": "bool",
          "name": "registered",
          "type": "bool"
        }
      ],
      "name": "UserRegistered",
      "type": "event"
    },
    {
      "anonymous": false,
      "inputs": [
        {
          "indexed": false,
          "internalType": "address",
          "name": "withdrawee",
          "type": "address"
        },
        {
          "indexed": false,
          "internalType": "uint256",
          "name": "_amount",
          "type": "uint256"
        },
        {
          "indexed": false,
          "internalType": "uint256",
          "name": "current_balance",
          "type": "uint256"
        },
        {
          "indexed": false,
          "internalType": "bool",
          "name": "success",
          "type": "bool"
        }
      ],
      "name": "WithdrawalComplete",
      "type": "event"
    },
    {
      "stateMutability": "payable",
      "type": "fallback"
    },
    {
      "inputs": [
        {
          "internalType": "uint256",
          "name": "albumID",
          "type": "uint256"
        }
      ],
      "name": "Buy",
      "outputs": [],
      "stateMutability": "payable",
      "type": "function"
    },
    {
      "inputs": [
        {
          "internalType": "uint256",
          "name": "albumID",
          "type": "uint256"
        },
        {
          "internalType": "uint256",
          "name": "songID",
          "type": "uint256"
        }
      ],
      "name": "Play",
      "outputs": [
        {
          "internalType": "bool",
          "name": "",
          "type": "bool"
        }
      ],
      "stateMutability": "nonpayable",
      "type": "function"
    },
    {
      "inputs": [],
      "name": "RegisterAddress",
      "outputs": [
        {
          "internalType": "bool",
          "name": "",
          "type": "bool"
        }
      ],
      "stateMutability": "nonpayable",
      "type": "function"
    },
    {
      "inputs": [],
      "name": "albumCounter",
      "outputs": [
        {
          "internalType": "uint256",
          "name": "",
          "type": "uint256"
        }
      ],
      "stateMutability": "view",
      "type": "function"
    },
    {
      "inputs": [
        {
          "internalType": "address",
          "name": "",
          "type": "address"
        },
        {
          "internalType": "uint256",
          "name": "",
          "type": "uint256"
        }
      ],
      "name": "albumStats",
      "outputs": [
        {
          "internalType": "uint256",
          "name": "albumID",
          "type": "uint256"
        },
        {
          "internalType": "address",
          "name": "artist",
          "type": "address"
        },
        {
          "internalType": "string",
          "name": "albumName",
          "type": "string"
        },
        {
          "internalType": "uint256",
          "name": "totalAlbumPurchases",
          "type": "uint256"
        },
        {
          "internalType": "uint256",
          "name": "totalSongPlays",
          "type": "uint256"
        }
      ],
      "stateMutability": "view",
      "type": "function"
    },
    {
      "inputs": [],
      "name": "depositBalance",
      "outputs": [],
      "stateMutability": "payable",
      "type": "function"
    },
    {
      "inputs": [
        {
          "internalType": "uint256",
          "name": "songID",
          "type": "uint256"
        },
        {
          "internalType": "uint256",
          "name": "songID2",
          "type": "uint256"
        },
        {
          "internalType": "uint256",
          "name": "songID3",
          "type": "uint256"
        }
      ],
      "name": "getAggregatePlayCount",
      "outputs": [
        {
          "internalType": "uint256",
          "name": "",
          "type": "uint256"
        }
      ],
      "stateMutability": "view",
      "type": "function"
    },
    {
      "inputs": [],
      "name": "getAlbumOwnership",
      "outputs": [
        {
          "internalType": "bool",
          "name": "",
          "type": "bool"
        }
      ],
      "stateMutability": "view",
      "type": "function"
    },
    {
      "inputs": [],
      "name": "getDepositBalance",
      "outputs": [
        {
          "internalType": "uint256",
          "name": "",
          "type": "uint256"
        }
      ],
      "stateMutability": "view",
      "type": "function"
    },
    {
      "inputs": [
        {
          "internalType": "uint256",
          "name": "songID",
          "type": "uint256"
        }
      ],
      "name": "getPlayCount",
      "outputs": [
        {
          "internalType": "uint256",
          "name": "",
          "type": "uint256"
        }
      ],
      "stateMutability": "view",
      "type": "function"
    },
    {
      "inputs": [
        {
          "internalType": "address",
          "name": "userAddress",
          "type": "address"
        }
      ],
      "name": "getRegisteredAddress",
      "outputs": [
        {
          "internalType": "bool",
          "name": "registration",
          "type": "bool"
        },
        {
          "internalType": "uint256[]",
          "name": "albumsOwned",
          "type": "uint256[]"
        }
      ],
      "stateMutability": "view",
      "type": "function"
    },
    {
      "inputs": [
        {
          "internalType": "uint256",
          "name": "songNumber",
          "type": "uint256"
        }
      ],
      "name": "getSongInfo",
      "outputs": [
        {
          "internalType": "uint256",
          "name": "id",
          "type": "uint256"
        },
        {
          "internalType": "string",
          "name": "title",
          "type": "string"
        },
        {
          "internalType": "uint256",
          "name": "playCount",
          "type": "uint256"
        }
      ],
      "stateMutability": "view",
      "type": "function"
    },
    {
      "inputs": [],
      "name": "owner",
      "outputs": [
        {
          "internalType": "address",
          "name": "",
          "type": "address"
        }
      ],
      "stateMutability": "view",
      "type": "function"
    },
    {
      "inputs": [
        {
          "internalType": "address",
          "name": "destination",
          "type": "address"
        }
      ],
      "name": "ownerRedirectFullBalance",
      "outputs": [],
      "stateMutability": "nonpayable",
      "type": "function"
    },
    {
      "inputs": [
        {
          "internalType": "address",
          "name": "",
          "type": "address"
        }
      ],
      "name": "registeredUsers",
      "outputs": [
        {
          "internalType": "bool",
          "name": "registered",
          "type": "bool"
        }
      ],
      "stateMutability": "view",
      "type": "function"
    },
    {
      "inputs": [
        {
          "internalType": "uint256",
          "name": "",
          "type": "uint256"
        }
      ],
      "name": "songList",
      "outputs": [
        {
          "internalType": "uint256",
          "name": "songID",
          "type": "uint256"
        },
        {
          "internalType": "string",
          "name": "songName",
          "type": "string"
        },
        {
          "internalType": "uint256",
          "name": "playCount",
          "type": "uint256"
        }
      ],
      "stateMutability": "view",
      "type": "function"
    },
    {
      "inputs": [
        {
          "internalType": "uint256",
          "name": "",
          "type": "uint256"
        }
      ],
      "name": "totalSongCount",
      "outputs": [
        {
          "internalType": "uint256",
          "name": "",
          "type": "uint256"
        }
      ],
      "stateMutability": "view",
      "type": "function"
    },
    {
      "inputs": [
        {
          "internalType": "address",
          "name": "",
          "type": "address"
        }
      ],
      "name": "userAlbumPurchase",
      "outputs": [
        {
          "internalType": "bool",
          "name": "",
          "type": "bool"
        }
      ],
      "stateMutability": "view",
      "type": "function"
    },
    {
      "inputs": [
        {
          "internalType": "address",
          "name": "",
          "type": "address"
        }
      ],
      "name": "userPlayBalance",
      "outputs": [
        {
          "internalType": "uint256",
          "name": "",
          "type": "uint256"
        }
      ],
      "stateMutability": "view",
      "type": "function"
    },
    {
      "inputs": [],
      "name": "verifyRegistration",
      "outputs": [
        {
          "internalType": "bool",
          "name": "",
          "type": "bool"
        }
      ],
      "stateMutability": "view",
      "type": "function"
    },
    {
      "inputs": [
        {
          "internalType": "uint256",
          "name": "_amount",
          "type": "uint256"
        }
      ],
      "name": "withdrawBalance",
      "outputs": [],
      "stateMutability": "nonpayable",
      "type": "function"
    },
    {
      "stateMutability": "payable",
      "type": "receive"
    }
  ],
  "bytecode": "0x60806040523480156200001157600080fd5b50600160008190555033600160006101000a81548173ffffffffffffffffffffffffffffffffffffffff021916908373ffffffffffffffffffffffffffffffffffffffff16021790555060016002819055506040518060600160405280600181526020016040518060400160405280600b81526020017f5368656e616e6967616e730000000000000000000000000000000000000000008152508152602001600081525060046000808152602001908152602001600020600082015181600001556020820151816001019080519060200190620000f09291906200023c565b50604082015181600201559050506040518060600160405280600281526020016040518060400160405280600c81526020017f496e7465724477656c6c657200000000000000000000000000000000000000008152508152602001600081525060046000600181526020019081526020016000206000820151816000015560208201518160010190805190602001906200018c9291906200023c565b50604082015181600201559050506040518060600160405280600381526020016040518060400160405280600981526020017f4c612053746f7269610000000000000000000000000000000000000000000000815250815260200160008152506004600060028152602001908152602001600020600082015181600001556020820151816001019080519060200190620002289291906200023c565b506040820151816002015590505062000351565b8280546200024a90620002ec565b90600052602060002090601f0160209004810192826200026e5760008555620002ba565b82601f106200028957805160ff1916838001178555620002ba565b82800160010185558215620002ba579182015b82811115620002b95782518255916020019190600101906200029c565b5b509050620002c99190620002cd565b5090565b5b80821115620002e8576000816000905550600101620002ce565b5090565b600060028204905060018216806200030557607f821691505b602082108114156200031c576200031b62000322565b5b50919050565b7f4e487b7100000000000000000000000000000000000000000000000000000000600052602260045260246000fd5b611e8d80620003616000396000f3fe60806040526004361061012e5760003560e01c80638da5cb5b116100ab578063d799ed1d1161006f578063d799ed1d14610420578063d9e73f3b1461045d578063da76d5cd14610488578063de2ea5dc146104b1578063f6dc26b7146104f0578063f99bf3da1461052e57610135565b80638da5cb5b1461030f57806399c794101461033a578063a786eef814610377578063bc3bd4a0146103b8578063bf441060146103f557610135565b80634b64b2e9116100f25780634b64b2e9146102375780635548b058146102625780635ae169f21461028b57806361bc1a49146102c85780636a58b8bd146102d257610135565b80630497de4a146101375780630e50cee5146101625780632e6e190e1461019f5780633a562377146101dc5780633e3282181461021b57610135565b3661013557005b005b34801561014357600080fd5b5061014c610559565b6040516101599190611afe565b60405180910390f35b34801561016e57600080fd5b5061018960048036038101906101849190611640565b6105a0565b6040516101969190611a33565b60405180910390f35b3480156101ab57600080fd5b506101c660048036038101906101c191906116ce565b6105cb565b6040516101d39190611a33565b60405180910390f35b3480156101e857600080fd5b5061020360048036038101906101fe91906116a5565b610899565b60405161021293929190611b9c565b60405180910390f35b610235600480360381019061023091906116a5565b61094b565b005b34801561024357600080fd5b5061024c610c1d565b6040516102599190611a33565b60405180910390f35b34801561026e57600080fd5b5061028960048036038101906102849190611640565b610c8c565b005b34801561029757600080fd5b506102b260048036038101906102ad919061170a565b610d96565b6040516102bf9190611afe565b60405180910390f35b6102d0610df1565b005b3480156102de57600080fd5b506102f960048036038101906102f49190611640565b610ee5565b6040516103069190611afe565b60405180910390f35b34801561031b57600080fd5b50610324610efd565b6040516103319190611973565b60405180910390f35b34801561034657600080fd5b50610361600480360381019061035c91906116a5565b610f23565b60405161036e9190611afe565b60405180910390f35b34801561038357600080fd5b5061039e60048036038101906103999190611669565b610f40565b6040516103af959493929190611b19565b60405180910390f35b3480156103c457600080fd5b506103df60048036038101906103da9190611640565b61102b565b6040516103ec9190611a33565b60405180910390f35b34801561040157600080fd5b5061040a61104b565b6040516104179190611a33565b60405180910390f35b34801561042c57600080fd5b50610447600480360381019061044291906116a5565b6110b7565b6040516104549190611afe565b60405180910390f35b34801561046957600080fd5b506104726110cf565b60405161047f9190611a33565b60405180910390f35b34801561049457600080fd5b506104af60048036038101906104aa91906116a5565b6111d7565b005b3480156104bd57600080fd5b506104d860048036038101906104d391906116a5565b61143c565b6040516104e793929190611b9c565b60405180910390f35b3480156104fc57600080fd5b5061051760048036038101906105129190611640565b61151f565b604051610525929190611a4e565b60405180910390f35b34801561053a57600080fd5b50610543611610565b6040516105509190611afe565b60405180910390f35b6000600860003373ffffffffffffffffffffffffffffffffffffffff1673ffffffffffffffffffffffffffffffffffffffff16815260200190815260200160002054905090565b60036020528060005260406000206000915090508060000160009054906101000a900460ff16905081565b600060011515600360003373ffffffffffffffffffffffffffffffffffffffff1673ffffffffffffffffffffffffffffffffffffffff16815260200190815260200160002060000160009054906101000a900460ff1615151461062d57600080fd5b6000600760003373ffffffffffffffffffffffffffffffffffffffff1673ffffffffffffffffffffffffffffffffffffffff16815260200190815260200160002060009054906101000a900460ff1661068c57650130bae7109361068f565b60005b65ffffffffffff1690506000600860003373ffffffffffffffffffffffffffffffffffffffff1673ffffffffffffffffffffffffffffffffffffffff168152602001908152602001600020541161071b576040517f08c379a000000000000000000000000000000000000000000000000000000000815260040161071290611abe565b60405180910390fd5b6000600560003373ffffffffffffffffffffffffffffffffffffffff1673ffffffffffffffffffffffffffffffffffffffff168152602001908152602001600020600086815260200190815260200160002060040160008581526020019081526020016000206002015490506000600660008681526020019081526020016000205411156107df5780806107ae90611d71565b9150506006600085815260200190815260200160002060008154809291906107d590611d71565b91905055506107fd565b60019050600160066000868152602001908152602001600020819055505b81600860003373ffffffffffffffffffffffffffffffffffffffff1673ffffffffffffffffffffffffffffffffffffffff168152602001908152602001600020600082825461084c9190611c90565b925050819055507fbb7eb7164d332a76845305e9657c6e6e1557690f62c51bb3142a30bdd9a75707846001604051610885929190611b73565b60405180910390a160019250505092915050565b60046020528060005260406000206000915090508060000154908060010180546108c290611d3f565b80601f01602080910402602001604051908101604052809291908181526020018280546108ee90611d3f565b801561093b5780601f106109105761010080835404028352916020019161093b565b820191906000526020600020905b81548152906001019060200180831161091e57829003601f168201915b5050505050908060020154905083565b60011515600360003373ffffffffffffffffffffffffffffffffffffffff1673ffffffffffffffffffffffffffffffffffffffff16815260200190815260200160002060000160009054906101000a900460ff161515146109ab57600080fd5b600066094ffe72f165fc90508034146109f9576040517f08c379a00000000000000000000000000000000000000000000000000000000081526004016109f090611a7e565b60405180910390fd5b80600860003373ffffffffffffffffffffffffffffffffffffffff1673ffffffffffffffffffffffffffffffffffffffff1681526020019081526020016000206000828254610a489190611c90565b925050819055506000600160009054906101000a900473ffffffffffffffffffffffffffffffffffffffff1673ffffffffffffffffffffffffffffffffffffffff1682604051610a979061195e565b60006040518083038185875af1925050503d8060008114610ad4576040519150601f19603f3d011682016040523d82523d6000602084013e610ad9565b606091505b5050905080610b1d576040517f08c379a0000000000000000000000000000000000000000000000000000000008152600401610b1490611a9e565b60405180910390fd5b600360003373ffffffffffffffffffffffffffffffffffffffff1673ffffffffffffffffffffffffffffffffffffffff1681526020019081526020016000206001018390806001815401808255809150506001900390600052602060002001600090919091909150556001600760003373ffffffffffffffffffffffffffffffffffffffff1673ffffffffffffffffffffffffffffffffffffffff16815260200190815260200160002060006101000a81548160ff0219169083151502179055507f98114562ef3b3c5ad63c855c5ce939d087bb1e8d73ecd13111fc2b20f7e59a25836001604051610c10929190611b73565b60405180910390a1505050565b600060011515600360003373ffffffffffffffffffffffffffffffffffffffff1673ffffffffffffffffffffffffffffffffffffffff16815260200190815260200160002060000160009054906101000a900460ff1615151415610c845760019050610c89565b600090505b90565b600160009054906101000a900473ffffffffffffffffffffffffffffffffffffffff1673ffffffffffffffffffffffffffffffffffffffff163373ffffffffffffffffffffffffffffffffffffffff1614610ce657600080fd5b60008173ffffffffffffffffffffffffffffffffffffffff1647604051610d0c9061195e565b60006040518083038185875af1925050503d8060008114610d49576040519150601f19603f3d011682016040523d82523d6000602084013e610d4e565b606091505b5050905080610d92576040517f08c379a0000000000000000000000000000000000000000000000000000000008152600401610d8990611a9e565b60405180910390fd5b5050565b6000600660008381526020019081526020016000205460066000858152602001908152602001600020546006600087815260200190815260200160002054610dde9190611c3a565b610de89190611c3a565b90509392505050565b60011515600360003373ffffffffffffffffffffffffffffffffffffffff1673ffffffffffffffffffffffffffffffffffffffff16815260200190815260200160002060000160009054906101000a900460ff16151514610e5157600080fd5b34600860003373ffffffffffffffffffffffffffffffffffffffff1673ffffffffffffffffffffffffffffffffffffffff1681526020019081526020016000206000828254610ea09190611c3a565b925050819055507f520c4ea8c325231e5eaa6218eaaa8f78402f02349f15dba724eb30ebfc756f3133346001604051610edb939291906119b7565b60405180910390a1565b60086020528060005260406000206000915090505481565b600160009054906101000a900473ffffffffffffffffffffffffffffffffffffffff1681565b600060066000838152602001908152602001600020549050919050565b6005602052816000526040600020602052806000526040600020600091509150508060000154908060010160009054906101000a900473ffffffffffffffffffffffffffffffffffffffff1690806002018054610f9c90611d3f565b80601f0160208091040260200160405190810160405280929190818152602001828054610fc890611d3f565b80156110155780601f10610fea57610100808354040283529160200191611015565b820191906000526020600020905b815481529060010190602001808311610ff857829003601f168201915b5050505050908060050154908060060154905085565b60076020528060005260406000206000915054906101000a900460ff1681565b600060011515600760003373ffffffffffffffffffffffffffffffffffffffff1673ffffffffffffffffffffffffffffffffffffffff16815260200190815260200160002060009054906101000a900460ff16151514156110af57600190506110b4565b600090505b90565b60066020528060005260406000206000915090505481565b60006001600360003373ffffffffffffffffffffffffffffffffffffffff1673ffffffffffffffffffffffffffffffffffffffff16815260200190815260200160002060000160006101000a81548160ff021916908315150217905550600360003373ffffffffffffffffffffffffffffffffffffffff1673ffffffffffffffffffffffffffffffffffffffff168152602001908152602001600020600101600090806001815401808255809150506001900390600052602060002001600090919091909150557f28a24a60e275c9be5babc23ecefd3240b1fcd56ef4d3fe4818437200b55ae5ff3360016040516111c892919061198e565b60405180910390a16001905090565b60011515600360003373ffffffffffffffffffffffffffffffffffffffff1673ffffffffffffffffffffffffffffffffffffffff16815260200190815260200160002060000160009054906101000a900460ff1615151461123757600080fd5b600860003373ffffffffffffffffffffffffffffffffffffffff1673ffffffffffffffffffffffffffffffffffffffff168152602001908152602001600020548111156112b9576040517f08c379a00000000000000000000000000000000000000000000000000000000081526004016112b090611ade565b60405180910390fd5b80600860003373ffffffffffffffffffffffffffffffffffffffff1673ffffffffffffffffffffffffffffffffffffffff16815260200190815260200160002060008282546113089190611c90565b9250508190555060003373ffffffffffffffffffffffffffffffffffffffff16826040516113359061195e565b60006040518083038185875af1925050503d8060008114611372576040519150601f19603f3d011682016040523d82523d6000602084013e611377565b606091505b50509050806113bb576040517f08c379a00000000000000000000000000000000000000000000000000000000081526004016113b290611a9e565b60405180910390fd5b7fca1ca4a4ed1d761392f1f336a9f048057be1d9003241ad675ceb40512068fa0a3383600860003373ffffffffffffffffffffffffffffffffffffffff1673ffffffffffffffffffffffffffffffffffffffff16815260200190815260200160002054600160405161143094939291906119ee565b60405180910390a15050565b600060606000600460008581526020019081526020016000206000015460046000868152602001908152602001600020600101600460008781526020019081526020016000206002015481805461149290611d3f565b80601f01602080910402602001604051908101604052809291908181526020018280546114be90611d3f565b801561150b5780601f106114e05761010080835404028352916020019161150b565b820191906000526020600020905b8154815290600101906020018083116114ee57829003601f168201915b505050505091509250925092509193909250565b60006060600360008473ffffffffffffffffffffffffffffffffffffffff1673ffffffffffffffffffffffffffffffffffffffff16815260200190815260200160002060000160009054906101000a900460ff16600360008573ffffffffffffffffffffffffffffffffffffffff1673ffffffffffffffffffffffffffffffffffffffff1681526020019081526020016000206001018080548060200260200160405190810160405280929190818152602001828054801561160057602002820191906000526020600020905b8154815260200190600101908083116115ec575b5050505050905091509150915091565b60025481565b60008135905061162581611e29565b92915050565b60008135905061163a81611e40565b92915050565b60006020828403121561165257600080fd5b600061166084828501611616565b91505092915050565b6000806040838503121561167c57600080fd5b600061168a85828601611616565b925050602061169b8582860161162b565b9150509250929050565b6000602082840312156116b757600080fd5b60006116c58482850161162b565b91505092915050565b600080604083850312156116e157600080fd5b60006116ef8582860161162b565b92505060206117008582860161162b565b9150509250929050565b60008060006060848603121561171f57600080fd5b600061172d8682870161162b565b935050602061173e8682870161162b565b925050604061174f8682870161162b565b9150509250925092565b60006117658383611940565b60208301905092915050565b61177a81611cc4565b82525050565b600061178b82611bea565b6117958185611c0d565b93506117a083611bda565b8060005b838110156117d15781516117b88882611759565b97506117c383611c00565b9250506001810190506117a4565b5085935050505092915050565b6117e781611cd6565b82525050565b60006117f882611bf5565b6118028185611c29565b9350611812818560208601611d0c565b61181b81611e18565b840191505092915050565b6000611833600d83611c29565b91507f707269636520746f6f206c6f77000000000000000000000000000000000000006000830152602082019050919050565b6000611873601483611c29565b91507f4661696c656420746f2073656e642045746865720000000000000000000000006000830152602082019050919050565b60006118b3601583611c29565b91507f6465706f7369742065746820746f206c697374656e00000000000000000000006000830152602082019050919050565b60006118f3600083611c1e565b9150600082019050919050565b600061190d601083611c29565b91507f6e6f7420656e6f7567682076616c7565000000000000000000000000000000006000830152602082019050919050565b61194981611d02565b82525050565b61195881611d02565b82525050565b6000611969826118e6565b9150819050919050565b60006020820190506119886000830184611771565b92915050565b60006040820190506119a36000830185611771565b6119b060208301846117de565b9392505050565b60006060820190506119cc6000830186611771565b6119d9602083018561194f565b6119e660408301846117de565b949350505050565b6000608082019050611a036000830187611771565b611a10602083018661194f565b611a1d604083018561194f565b611a2a60608301846117de565b95945050505050565b6000602082019050611a4860008301846117de565b92915050565b6000604082019050611a6360008301856117de565b8181036020830152611a758184611780565b90509392505050565b60006020820190508181036000830152611a9781611826565b9050919050565b60006020820190508181036000830152611ab781611866565b9050919050565b60006020820190508181036000830152611ad7816118a6565b9050919050565b60006020820190508181036000830152611af781611900565b9050919050565b6000602082019050611b13600083018461194f565b92915050565b600060a082019050611b2e600083018861194f565b611b3b6020830187611771565b8181036040830152611b4d81866117ed565b9050611b5c606083018561194f565b611b69608083018461194f565b9695505050505050565b6000604082019050611b88600083018561194f565b611b9560208301846117de565b9392505050565b6000606082019050611bb1600083018661194f565b8181036020830152611bc381856117ed565b9050611bd2604083018461194f565b949350505050565b6000819050602082019050919050565b600081519050919050565b600081519050919050565b6000602082019050919050565b600082825260208201905092915050565b600081905092915050565b600082825260208201905092915050565b6000611c4582611d02565b9150611c5083611d02565b9250827fffffffffffffffffffffffffffffffffffffffffffffffffffffffffffffffff03821115611c8557611c84611dba565b5b828201905092915050565b6000611c9b82611d02565b9150611ca683611d02565b925082821015611cb957611cb8611dba565b5b828203905092915050565b6000611ccf82611ce2565b9050919050565b60008115159050919050565b600073ffffffffffffffffffffffffffffffffffffffff82169050919050565b6000819050919050565b60005b83811015611d2a578082015181840152602081019050611d0f565b83811115611d39576000848401525b50505050565b60006002820490506001821680611d5757607f821691505b60208210811415611d6b57611d6a611de9565b5b50919050565b6000611d7c82611d02565b91507fffffffffffffffffffffffffffffffffffffffffffffffffffffffffffffffff821415611daf57611dae611dba565b5b600182019050919050565b7f4e487b7100000000000000000000000000000000000000000000000000000000600052601160045260246000fd5b7f4e487b7100000000000000000000000000000000000000000000000000000000600052602260045260246000fd5b6000601f19601f8301169050919050565b611e3281611cc4565b8114611e3d57600080fd5b50565b611e4981611d02565b8114611e5457600080fd5b5056fea26469706673582212202bd2cd965ba372362ca5f6ee7de037c791e1feccb984308fb979b3a4dfae83ca64736f6c63430008000033",
  "linkReferences": {},
  "deployedLinkReferences": {}
}