{
  "_format": "hh-sol-artifact-1",
  "contractName": "OwnershipToken",
  "sourceName": "contracts/OwnershipToken.sol",
  "abi": [
    {
      "inputs": [],
      "stateMutability": "nonpayable",
      "type": "constructor"
    },
    {
      "anonymous": false,
      "inputs": [
        {
          "indexed": true,
          "internalType": "address",
          "name": "owner",
          "type": "address"
        },
        {
          "indexed": true,
          "internalType": "address",
          "name": "approved",
          "type": "address"
        },
        {
          "indexed": true,
          "internalType": "uint256",
          "name": "tokenId",
          "type": "uint256"
        }
      ],
      "name": "Approval",
      "type": "event"
    },
    {
      "anonymous": false,
      "inputs": [
        {
          "indexed": true,
          "internalType": "address",
          "name": "owner",
          "type": "address"
        },
        {
          "indexed": true,
          "internalType": "address",
          "name": "operator",
          "type": "address"
        },
        {
          "indexed": false,
          "internalType": "bool",
          "name": "approved",
          "type": "bool"
        }
      ],
      "name": "ApprovalForAll",
      "type": "event"
    },
    {
      "anonymous": false,
      "inputs": [
        {
          "indexed": true,
          "internalType": "bytes32",
          "name": "role",
          "type": "bytes32"
        },
        {
          "indexed": true,
          "internalType": "bytes32",
          "name": "previousAdminRole",
          "type": "bytes32"
        },
        {
          "indexed": true,
          "internalType": "bytes32",
          "name": "newAdminRole",
          "type": "bytes32"
        }
      ],
      "name": "RoleAdminChanged",
      "type": "event"
    },
    {
      "anonymous": false,
      "inputs": [
        {
          "indexed": true,
          "internalType": "bytes32",
          "name": "role",
          "type": "bytes32"
        },
        {
          "indexed": true,
          "internalType": "address",
          "name": "account",
          "type": "address"
        },
        {
          "indexed": true,
          "internalType": "address",
          "name": "sender",
          "type": "address"
        }
      ],
      "name": "RoleGranted",
      "type": "event"
    },
    {
      "anonymous": false,
      "inputs": [
        {
          "indexed": true,
          "internalType": "bytes32",
          "name": "role",
          "type": "bytes32"
        },
        {
          "indexed": true,
          "internalType": "address",
          "name": "account",
          "type": "address"
        },
        {
          "indexed": true,
          "internalType": "address",
          "name": "sender",
          "type": "address"
        }
      ],
      "name": "RoleRevoked",
      "type": "event"
    },
    {
      "anonymous": false,
      "inputs": [
        {
          "indexed": true,
          "internalType": "address",
          "name": "from",
          "type": "address"
        },
        {
          "indexed": true,
          "internalType": "address",
          "name": "to",
          "type": "address"
        },
        {
          "indexed": true,
          "internalType": "uint256",
          "name": "tokenId",
          "type": "uint256"
        }
      ],
      "name": "Transfer",
      "type": "event"
    },
    {
      "inputs": [],
      "name": "DEFAULT_ADMIN_ROLE",
      "outputs": [
        {
          "internalType": "bytes32",
          "name": "",
          "type": "bytes32"
        }
      ],
      "stateMutability": "view",
      "type": "function"
    },
    {
      "inputs": [],
      "name": "MINTER_ROLE",
      "outputs": [
        {
          "internalType": "bytes32",
          "name": "",
          "type": "bytes32"
        }
      ],
      "stateMutability": "view",
      "type": "function"
    },
    {
      "inputs": [
        {
          "internalType": "address",
          "name": "to",
          "type": "address"
        },
        {
          "internalType": "uint256",
          "name": "tokenId",
          "type": "uint256"
        }
      ],
      "name": "approve",
      "outputs": [],
      "stateMutability": "nonpayable",
      "type": "function"
    },
    {
      "inputs": [
        {
          "internalType": "address",
          "name": "owner",
          "type": "address"
        }
      ],
      "name": "balanceOf",
      "outputs": [
        {
          "internalType": "uint256",
          "name": "",
          "type": "uint256"
        }
      ],
      "stateMutability": "view",
      "type": "function"
    },
    {
      "inputs": [
        {
          "internalType": "uint256",
          "name": "tokenId",
          "type": "uint256"
        }
      ],
      "name": "getApproved",
      "outputs": [
        {
          "internalType": "address",
          "name": "",
          "type": "address"
        }
      ],
      "stateMutability": "view",
      "type": "function"
    },
    {
      "inputs": [
        {
          "internalType": "bytes32",
          "name": "role",
          "type": "bytes32"
        }
      ],
      "name": "getRoleAdmin",
      "outputs": [
        {
          "internalType": "bytes32",
          "name": "",
          "type": "bytes32"
        }
      ],
      "stateMutability": "view",
      "type": "function"
    },
    {
      "inputs": [
        {
          "internalType": "bytes32",
          "name": "role",
          "type": "bytes32"
        },
        {
          "internalType": "address",
          "name": "account",
          "type": "address"
        }
      ],
      "name": "grantRole",
      "outputs": [],
      "stateMutability": "nonpayable",
      "type": "function"
    },
    {
      "inputs": [
        {
          "internalType": "bytes32",
          "name": "role",
          "type": "bytes32"
        },
        {
          "internalType": "address",
          "name": "account",
          "type": "address"
        }
      ],
      "name": "hasRole",
      "outputs": [
        {
          "internalType": "bool",
          "name": "",
          "type": "bool"
        }
      ],
      "stateMutability": "view",
      "type": "function"
    },
    {
      "inputs": [
        {
          "internalType": "address",
          "name": "owner",
          "type": "address"
        },
        {
          "internalType": "address",
          "name": "operator",
          "type": "address"
        }
      ],
      "name": "isApprovedForAll",
      "outputs": [
        {
          "internalType": "bool",
          "name": "",
          "type": "bool"
        }
      ],
      "stateMutability": "view",
      "type": "function"
    },
    {
      "inputs": [],
      "name": "name",
      "outputs": [
        {
          "internalType": "string",
          "name": "",
          "type": "string"
        }
      ],
      "stateMutability": "view",
      "type": "function"
    },
    {
      "inputs": [
        {
          "internalType": "uint256",
          "name": "tokenId",
          "type": "uint256"
        }
      ],
      "name": "ownerOf",
      "outputs": [
        {
          "internalType": "address",
          "name": "",
          "type": "address"
        }
      ],
      "stateMutability": "view",
      "type": "function"
    },
    {
      "inputs": [
        {
          "internalType": "bytes32",
          "name": "role",
          "type": "bytes32"
        },
        {
          "internalType": "address",
          "name": "account",
          "type": "address"
        }
      ],
      "name": "renounceRole",
      "outputs": [],
      "stateMutability": "nonpayable",
      "type": "function"
    },
    {
      "inputs": [
        {
          "internalType": "bytes32",
          "name": "role",
          "type": "bytes32"
        },
        {
          "internalType": "address",
          "name": "account",
          "type": "address"
        }
      ],
      "name": "revokeRole",
      "outputs": [],
      "stateMutability": "nonpayable",
      "type": "function"
    },
    {
      "inputs": [
        {
          "internalType": "address",
          "name": "to",
          "type": "address"
        }
      ],
      "name": "safeMint",
      "outputs": [],
      "stateMutability": "nonpayable",
      "type": "function"
    },
    {
      "inputs": [
        {
          "internalType": "address",
          "name": "from",
          "type": "address"
        },
        {
          "internalType": "address",
          "name": "to",
          "type": "address"
        },
        {
          "internalType": "uint256",
          "name": "tokenId",
          "type": "uint256"
        }
      ],
      "name": "safeTransferFrom",
      "outputs": [],
      "stateMutability": "nonpayable",
      "type": "function"
    },
    {
      "inputs": [
        {
          "internalType": "address",
          "name": "from",
          "type": "address"
        },
        {
          "internalType": "address",
          "name": "to",
          "type": "address"
        },
        {
          "internalType": "uint256",
          "name": "tokenId",
          "type": "uint256"
        },
        {
          "internalType": "bytes",
          "name": "_data",
          "type": "bytes"
        }
      ],
      "name": "safeTransferFrom",
      "outputs": [],
      "stateMutability": "nonpayable",
      "type": "function"
    },
    {
      "inputs": [
        {
          "internalType": "address",
          "name": "operator",
          "type": "address"
        },
        {
          "internalType": "bool",
          "name": "approved",
          "type": "bool"
        }
      ],
      "name": "setApprovalForAll",
      "outputs": [],
      "stateMutability": "nonpayable",
      "type": "function"
    },
    {
      "inputs": [
        {
          "internalType": "bytes4",
          "name": "interfaceId",
          "type": "bytes4"
        }
      ],
      "name": "supportsInterface",
      "outputs": [
        {
          "internalType": "bool",
          "name": "",
          "type": "bool"
        }
      ],
      "stateMutability": "view",
      "type": "function"
    },
    {
      "inputs": [],
      "name": "symbol",
      "outputs": [
        {
          "internalType": "string",
          "name": "",
          "type": "string"
        }
      ],
      "stateMutability": "view",
      "type": "function"
    },
    {
      "inputs": [
        {
          "internalType": "uint256",
          "name": "tokenId",
          "type": "uint256"
        }
      ],
      "name": "tokenURI",
      "outputs": [
        {
          "internalType": "string",
          "name": "",
          "type": "string"
        }
      ],
      "stateMutability": "view",
      "type": "function"
    },
    {
      "inputs": [
        {
          "internalType": "address",
          "name": "from",
          "type": "address"
        },
        {
          "internalType": "address",
          "name": "to",
          "type": "address"
        },
        {
          "internalType": "uint256",
          "name": "tokenId",
          "type": "uint256"
        }
      ],
      "name": "transferFrom",
      "outputs": [],
      "stateMutability": "nonpayable",
      "type": "function"
    }
  ],
  "bytecode": "0x60806040523480156200001157600080fd5b506040518060400160405280600e81526020017f4f776e657273686970546f6b656e0000000000000000000000000000000000008152506040518060400160405280600381526020017f4a534900000000000000000000000000000000000000000000000000000000008152508160009080519060200190620000969291906200027a565b508060019080519060200190620000af9291906200027a565b505050620000c76000801b33620000ff60201b60201c565b620000f97f9f2df0fed2c77648de5860a4cc508cd0818c85b8b8a1ab4ceeef8d981c8956a633620000ff60201b60201c565b6200038f565b6200011182826200011560201b60201c565b5050565b6200012782826200020760201b60201c565b620002035760016006600084815260200190815260200160002060000160008373ffffffffffffffffffffffffffffffffffffffff1673ffffffffffffffffffffffffffffffffffffffff16815260200190815260200160002060006101000a81548160ff021916908315150217905550620001a86200027260201b60201c565b73ffffffffffffffffffffffffffffffffffffffff168173ffffffffffffffffffffffffffffffffffffffff16837f2f8788117e7eff1d82e926ec794901d17c78024a50270940304540a733656f0d60405160405180910390a45b5050565b60006006600084815260200190815260200160002060000160008373ffffffffffffffffffffffffffffffffffffffff1673ffffffffffffffffffffffffffffffffffffffff16815260200190815260200160002060009054906101000a900460ff16905092915050565b600033905090565b828054620002889062000359565b90600052602060002090601f016020900481019282620002ac5760008555620002f8565b82601f10620002c757805160ff1916838001178555620002f8565b82800160010185558215620002f8579182015b82811115620002f7578251825591602001919060010190620002da565b5b5090506200030791906200030b565b5090565b5b80821115620003265760008160009055506001016200030c565b5090565b7f4e487b7100000000000000000000000000000000000000000000000000000000600052602260045260246000fd5b600060028204905060018216806200037257607f821691505b602082108114156200038957620003886200032a565b5b50919050565b6132a1806200039f6000396000f3fe608060405234801561001057600080fd5b50600436106101375760003560e01c80636352211e116100b8578063a22cb4651161007c578063a22cb4651461035e578063b88d4fde1461037a578063c87b56dd14610396578063d5391393146103c6578063d547741f146103e4578063e985e9c51461040057610137565b80636352211e1461029257806370a08231146102c257806391d14854146102f257806395d89b4114610322578063a217fddf1461034057610137565b8063248a9ca3116100ff578063248a9ca3146101f25780632f2ff15d1461022257806336568abe1461023e57806340d097c31461025a57806342842e0e1461027657610137565b806301ffc9a71461013c57806306fdde031461016c578063081812fc1461018a578063095ea7b3146101ba57806323b872dd146101d6575b600080fd5b61015660048036038101906101519190611f03565b610430565b6040516101639190611f4b565b60405180910390f35b610174610442565b6040516101819190611fff565b60405180910390f35b6101a4600480360381019061019f9190612057565b6104d4565b6040516101b191906120c5565b60405180910390f35b6101d460048036038101906101cf919061210c565b610559565b005b6101f060048036038101906101eb919061214c565b610671565b005b61020c600480360381019061020791906121d5565b6106d1565b6040516102199190612211565b60405180910390f35b61023c6004803603810190610237919061222c565b6106f1565b005b6102586004803603810190610253919061222c565b61071a565b005b610274600480360381019061026f919061226c565b61079d565b005b610290600480360381019061028b919061214c565b6107f6565b005b6102ac60048036038101906102a79190612057565b610816565b6040516102b991906120c5565b60405180910390f35b6102dc60048036038101906102d7919061226c565b6108c8565b6040516102e991906122a8565b60405180910390f35b61030c6004803603810190610307919061222c565b610980565b6040516103199190611f4b565b60405180910390f35b61032a6109eb565b6040516103379190611fff565b60405180910390f35b610348610a7d565b6040516103559190612211565b60405180910390f35b610378600480360381019061037391906122ef565b610a84565b005b610394600480360381019061038f9190612464565b610c05565b005b6103b060048036038101906103ab9190612057565b610c67565b6040516103bd9190611fff565b60405180910390f35b6103ce610d0e565b6040516103db9190612211565b60405180910390f35b6103fe60048036038101906103f9919061222c565b610d32565b005b61041a600480360381019061041591906124e7565b610d5b565b6040516104279190611f4b565b60405180910390f35b600061043b82610def565b9050919050565b60606000805461045190612556565b80601f016020809104026020016040519081016040528092919081815260200182805461047d90612556565b80156104ca5780601f1061049f576101008083540402835291602001916104ca565b820191906000526020600020905b8154815290600101906020018083116104ad57829003601f168201915b5050505050905090565b60006104df82610e69565b61051e576040517f08c379a0000000000000000000000000000000000000000000000000000000008152600401610515906125fa565b60405180910390fd5b6004600083815260200190815260200160002060009054906101000a900473ffffffffffffffffffffffffffffffffffffffff169050919050565b600061056482610816565b90508073ffffffffffffffffffffffffffffffffffffffff168373ffffffffffffffffffffffffffffffffffffffff1614156105d5576040517f08c379a00000000000000000000000000000000000000000000000000000000081526004016105cc9061268c565b60405180910390fd5b8073ffffffffffffffffffffffffffffffffffffffff166105f4610ed5565b73ffffffffffffffffffffffffffffffffffffffff16148061062357506106228161061d610ed5565b610d5b565b5b610662576040517f08c379a00000000000000000000000000000000000000000000000000000000081526004016106599061271e565b60405180910390fd5b61066c8383610edd565b505050565b61068261067c610ed5565b82610f96565b6106c1576040517f08c379a00000000000000000000000000000000000000000000000000000000081526004016106b8906127b0565b60405180910390fd5b6106cc838383611074565b505050565b600060066000838152602001908152602001600020600101549050919050565b6106fa826106d1565b61070b81610706610ed5565b6112d0565b610715838361136d565b505050565b610722610ed5565b73ffffffffffffffffffffffffffffffffffffffff168173ffffffffffffffffffffffffffffffffffffffff161461078f576040517f08c379a000000000000000000000000000000000000000000000000000000000815260040161078690612842565b60405180910390fd5b610799828261144e565b5050565b7f9f2df0fed2c77648de5860a4cc508cd0818c85b8b8a1ab4ceeef8d981c8956a66107cf816107ca610ed5565b6112d0565b60006107db6007611530565b90506107e7600761153e565b6107f18382611554565b505050565b61081183838360405180602001604052806000815250610c05565b505050565b6000806002600084815260200190815260200160002060009054906101000a900473ffffffffffffffffffffffffffffffffffffffff169050600073ffffffffffffffffffffffffffffffffffffffff168173ffffffffffffffffffffffffffffffffffffffff1614156108bf576040517f08c379a00000000000000000000000000000000000000000000000000000000081526004016108b6906128d4565b60405180910390fd5b80915050919050565b60008073ffffffffffffffffffffffffffffffffffffffff168273ffffffffffffffffffffffffffffffffffffffff161415610939576040517f08c379a000000000000000000000000000000000000000000000000000000000815260040161093090612966565b60405180910390fd5b600360008373ffffffffffffffffffffffffffffffffffffffff1673ffffffffffffffffffffffffffffffffffffffff168152602001908152602001600020549050919050565b60006006600084815260200190815260200160002060000160008373ffffffffffffffffffffffffffffffffffffffff1673ffffffffffffffffffffffffffffffffffffffff16815260200190815260200160002060009054906101000a900460ff16905092915050565b6060600180546109fa90612556565b80601f0160208091040260200160405190810160405280929190818152602001828054610a2690612556565b8015610a735780601f10610a4857610100808354040283529160200191610a73565b820191906000526020600020905b815481529060010190602001808311610a5657829003601f168201915b5050505050905090565b6000801b81565b610a8c610ed5565b73ffffffffffffffffffffffffffffffffffffffff168273ffffffffffffffffffffffffffffffffffffffff161415610afa576040517f08c379a0000000000000000000000000000000000000000000000000000000008152600401610af1906129d2565b60405180910390fd5b8060056000610b07610ed5565b73ffffffffffffffffffffffffffffffffffffffff1673ffffffffffffffffffffffffffffffffffffffff16815260200190815260200160002060008473ffffffffffffffffffffffffffffffffffffffff1673ffffffffffffffffffffffffffffffffffffffff16815260200190815260200160002060006101000a81548160ff0219169083151502179055508173ffffffffffffffffffffffffffffffffffffffff16610bb4610ed5565b73ffffffffffffffffffffffffffffffffffffffff167f17307eab39ab6107e8899845ad3d59bd9653f200f220920489ca2b5937696c3183604051610bf99190611f4b565b60405180910390a35050565b610c16610c10610ed5565b83610f96565b610c55576040517f08c379a0000000000000000000000000000000000000000000000000000000008152600401610c4c906127b0565b60405180910390fd5b610c6184848484611572565b50505050565b6060610c7282610e69565b610cb1576040517f08c379a0000000000000000000000000000000000000000000000000000000008152600401610ca890612a64565b60405180910390fd5b6000610cbb6115ce565b90506000815111610cdb5760405180602001604052806000815250610d06565b80610ce5846115e5565b604051602001610cf6929190612ac0565b6040516020818303038152906040525b915050919050565b7f9f2df0fed2c77648de5860a4cc508cd0818c85b8b8a1ab4ceeef8d981c8956a681565b610d3b826106d1565b610d4c81610d47610ed5565b6112d0565b610d56838361144e565b505050565b6000600560008473ffffffffffffffffffffffffffffffffffffffff1673ffffffffffffffffffffffffffffffffffffffff16815260200190815260200160002060008373ffffffffffffffffffffffffffffffffffffffff1673ffffffffffffffffffffffffffffffffffffffff16815260200190815260200160002060009054906101000a900460ff16905092915050565b60007f7965db0b000000000000000000000000000000000000000000000000000000007bffffffffffffffffffffffffffffffffffffffffffffffffffffffff1916827bffffffffffffffffffffffffffffffffffffffffffffffffffffffff19161480610e625750610e6182611746565b5b9050919050565b60008073ffffffffffffffffffffffffffffffffffffffff166002600084815260200190815260200160002060009054906101000a900473ffffffffffffffffffffffffffffffffffffffff1673ffffffffffffffffffffffffffffffffffffffff1614159050919050565b600033905090565b816004600083815260200190815260200160002060006101000a81548173ffffffffffffffffffffffffffffffffffffffff021916908373ffffffffffffffffffffffffffffffffffffffff160217905550808273ffffffffffffffffffffffffffffffffffffffff16610f5083610816565b73ffffffffffffffffffffffffffffffffffffffff167f8c5be1e5ebec7d5bd14f71427d1e84f3dd0314c0f7b2291e5b200ac8c7c3b92560405160405180910390a45050565b6000610fa182610e69565b610fe0576040517f08c379a0000000000000000000000000000000000000000000000000000000008152600401610fd790612b56565b60405180910390fd5b6000610feb83610816565b90508073ffffffffffffffffffffffffffffffffffffffff168473ffffffffffffffffffffffffffffffffffffffff16148061105a57508373ffffffffffffffffffffffffffffffffffffffff16611042846104d4565b73ffffffffffffffffffffffffffffffffffffffff16145b8061106b575061106a8185610d5b565b5b91505092915050565b8273ffffffffffffffffffffffffffffffffffffffff1661109482610816565b73ffffffffffffffffffffffffffffffffffffffff16146110ea576040517f08c379a00000000000000000000000000000000000000000000000000000000081526004016110e190612be8565b60405180910390fd5b600073ffffffffffffffffffffffffffffffffffffffff168273ffffffffffffffffffffffffffffffffffffffff16141561115a576040517f08c379a000000000000000000000000000000000000000000000000000000000815260040161115190612c7a565b60405180910390fd5b611165838383611828565b611170600082610edd565b6001600360008573ffffffffffffffffffffffffffffffffffffffff1673ffffffffffffffffffffffffffffffffffffffff16815260200190815260200160002060008282546111c09190612cc9565b925050819055506001600360008473ffffffffffffffffffffffffffffffffffffffff1673ffffffffffffffffffffffffffffffffffffffff16815260200190815260200160002060008282546112179190612cfd565b92505081905550816002600083815260200190815260200160002060006101000a81548173ffffffffffffffffffffffffffffffffffffffff021916908373ffffffffffffffffffffffffffffffffffffffff160217905550808273ffffffffffffffffffffffffffffffffffffffff168473ffffffffffffffffffffffffffffffffffffffff167fddf252ad1be2c89b69c2b068fc378daa952ba7f163c4a11628f55a4df523b3ef60405160405180910390a4505050565b6112da8282610980565b611369576112ff8173ffffffffffffffffffffffffffffffffffffffff16601461182d565b61130d8360001c602061182d565b60405160200161131e929190612deb565b6040516020818303038152906040526040517f08c379a00000000000000000000000000000000000000000000000000000000081526004016113609190611fff565b60405180910390fd5b5050565b6113778282610980565b61144a5760016006600084815260200190815260200160002060000160008373ffffffffffffffffffffffffffffffffffffffff1673ffffffffffffffffffffffffffffffffffffffff16815260200190815260200160002060006101000a81548160ff0219169083151502179055506113ef610ed5565b73ffffffffffffffffffffffffffffffffffffffff168173ffffffffffffffffffffffffffffffffffffffff16837f2f8788117e7eff1d82e926ec794901d17c78024a50270940304540a733656f0d60405160405180910390a45b5050565b6114588282610980565b1561152c5760006006600084815260200190815260200160002060000160008373ffffffffffffffffffffffffffffffffffffffff1673ffffffffffffffffffffffffffffffffffffffff16815260200190815260200160002060006101000a81548160ff0219169083151502179055506114d1610ed5565b73ffffffffffffffffffffffffffffffffffffffff168173ffffffffffffffffffffffffffffffffffffffff16837ff6391f5c32d9c69d2a47ea670b442974b53935d1edc7fd64eb21e047a839171b60405160405180910390a45b5050565b600081600001549050919050565b6001816000016000828254019250508190555050565b61156e828260405180602001604052806000815250611a69565b5050565b61157d848484611074565b61158984848484611ac4565b6115c8576040517f08c379a00000000000000000000000000000000000000000000000000000000081526004016115bf90612e97565b60405180910390fd5b50505050565b606060405180602001604052806000815250905090565b6060600082141561162d576040518060400160405280600181526020017f30000000000000000000000000000000000000000000000000000000000000008152509050611741565b600082905060005b6000821461165f57808061164890612eb7565b915050600a826116589190612f2f565b9150611635565b60008167ffffffffffffffff81111561167b5761167a612339565b5b6040519080825280601f01601f1916602001820160405280156116ad5781602001600182028036833780820191505090505b5090505b6000851461173a576001826116c69190612cc9565b9150600a856116d59190612f60565b60306116e19190612cfd565b60f81b8183815181106116f7576116f6612f91565b5b60200101907effffffffffffffffffffffffffffffffffffffffffffffffffffffffffffff1916908160001a905350600a856117339190612f2f565b94506116b1565b8093505050505b919050565b60007f80ac58cd000000000000000000000000000000000000000000000000000000007bffffffffffffffffffffffffffffffffffffffffffffffffffffffff1916827bffffffffffffffffffffffffffffffffffffffffffffffffffffffff1916148061181157507f5b5e139f000000000000000000000000000000000000000000000000000000007bffffffffffffffffffffffffffffffffffffffffffffffffffffffff1916827bffffffffffffffffffffffffffffffffffffffffffffffffffffffff1916145b80611821575061182082611c4c565b5b9050919050565b505050565b6060600060028360026118409190612fc0565b61184a9190612cfd565b67ffffffffffffffff81111561186357611862612339565b5b6040519080825280601f01601f1916602001820160405280156118955781602001600182028036833780820191505090505b5090507f3000000000000000000000000000000000000000000000000000000000000000816000815181106118cd576118cc612f91565b5b60200101907effffffffffffffffffffffffffffffffffffffffffffffffffffffffffffff1916908160001a9053507f78000000000000000000000000000000000000000000000000000000000000008160018151811061193157611930612f91565b5b60200101907effffffffffffffffffffffffffffffffffffffffffffffffffffffffffffff1916908160001a905350600060018460026119719190612fc0565b61197b9190612cfd565b90505b6001811115611a1b577f3031323334353637383961626364656600000000000000000000000000000000600f8616601081106119bd576119bc612f91565b5b1a60f81b8282815181106119d4576119d3612f91565b5b60200101907effffffffffffffffffffffffffffffffffffffffffffffffffffffffffffff1916908160001a905350600485901c945080611a149061301a565b905061197e565b5060008414611a5f576040517f08c379a0000000000000000000000000000000000000000000000000000000008152600401611a5690613090565b60405180910390fd5b8091505092915050565b611a738383611cb6565b611a806000848484611ac4565b611abf576040517f08c379a0000000000000000000000000000000000000000000000000000000008152600401611ab690612e97565b60405180910390fd5b505050565b6000611ae58473ffffffffffffffffffffffffffffffffffffffff16611e84565b15611c3f578373ffffffffffffffffffffffffffffffffffffffff1663150b7a02611b0e610ed5565b8786866040518563ffffffff1660e01b8152600401611b309493929190613105565b6020604051808303816000875af1925050508015611b6c57506040513d601f19601f82011682018060405250810190611b699190613166565b60015b611bef573d8060008114611b9c576040519150601f19603f3d011682016040523d82523d6000602084013e611ba1565b606091505b50600081511415611be7576040517f08c379a0000000000000000000000000000000000000000000000000000000008152600401611bde90612e97565b60405180910390fd5b805181602001fd5b63150b7a0260e01b7bffffffffffffffffffffffffffffffffffffffffffffffffffffffff1916817bffffffffffffffffffffffffffffffffffffffffffffffffffffffff191614915050611c44565b600190505b949350505050565b60007f01ffc9a7000000000000000000000000000000000000000000000000000000007bffffffffffffffffffffffffffffffffffffffffffffffffffffffff1916827bffffffffffffffffffffffffffffffffffffffffffffffffffffffff1916149050919050565b600073ffffffffffffffffffffffffffffffffffffffff168273ffffffffffffffffffffffffffffffffffffffff161415611d26576040517f08c379a0000000000000000000000000000000000000000000000000000000008152600401611d1d906131df565b60405180910390fd5b611d2f81610e69565b15611d6f576040517f08c379a0000000000000000000000000000000000000000000000000000000008152600401611d669061324b565b60405180910390fd5b611d7b60008383611828565b6001600360008473ffffffffffffffffffffffffffffffffffffffff1673ffffffffffffffffffffffffffffffffffffffff1681526020019081526020016000206000828254611dcb9190612cfd565b92505081905550816002600083815260200190815260200160002060006101000a81548173ffffffffffffffffffffffffffffffffffffffff021916908373ffffffffffffffffffffffffffffffffffffffff160217905550808273ffffffffffffffffffffffffffffffffffffffff16600073ffffffffffffffffffffffffffffffffffffffff167fddf252ad1be2c89b69c2b068fc378daa952ba7f163c4a11628f55a4df523b3ef60405160405180910390a45050565b600080823b905060008111915050919050565b6000604051905090565b600080fd5b600080fd5b60007fffffffff0000000000000000000000000000000000000000000000000000000082169050919050565b611ee081611eab565b8114611eeb57600080fd5b50565b600081359050611efd81611ed7565b92915050565b600060208284031215611f1957611f18611ea1565b5b6000611f2784828501611eee565b91505092915050565b60008115159050919050565b611f4581611f30565b82525050565b6000602082019050611f606000830184611f3c565b92915050565b600081519050919050565b600082825260208201905092915050565b60005b83811015611fa0578082015181840152602081019050611f85565b83811115611faf576000848401525b50505050565b6000601f19601f8301169050919050565b6000611fd182611f66565b611fdb8185611f71565b9350611feb818560208601611f82565b611ff481611fb5565b840191505092915050565b600060208201905081810360008301526120198184611fc6565b905092915050565b6000819050919050565b61203481612021565b811461203f57600080fd5b50565b6000813590506120518161202b565b92915050565b60006020828403121561206d5761206c611ea1565b5b600061207b84828501612042565b91505092915050565b600073ffffffffffffffffffffffffffffffffffffffff82169050919050565b60006120af82612084565b9050919050565b6120bf816120a4565b82525050565b60006020820190506120da60008301846120b6565b92915050565b6120e9816120a4565b81146120f457600080fd5b50565b600081359050612106816120e0565b92915050565b6000806040838503121561212357612122611ea1565b5b6000612131858286016120f7565b925050602061214285828601612042565b9150509250929050565b60008060006060848603121561216557612164611ea1565b5b6000612173868287016120f7565b9350506020612184868287016120f7565b925050604061219586828701612042565b9150509250925092565b6000819050919050565b6121b28161219f565b81146121bd57600080fd5b50565b6000813590506121cf816121a9565b92915050565b6000602082840312156121eb576121ea611ea1565b5b60006121f9848285016121c0565b91505092915050565b61220b8161219f565b82525050565b60006020820190506122266000830184612202565b92915050565b6000806040838503121561224357612242611ea1565b5b6000612251858286016121c0565b9250506020612262858286016120f7565b9150509250929050565b60006020828403121561228257612281611ea1565b5b6000612290848285016120f7565b91505092915050565b6122a281612021565b82525050565b60006020820190506122bd6000830184612299565b92915050565b6122cc81611f30565b81146122d757600080fd5b50565b6000813590506122e9816122c3565b92915050565b6000806040838503121561230657612305611ea1565b5b6000612314858286016120f7565b9250506020612325858286016122da565b9150509250929050565b600080fd5b600080fd5b7f4e487b7100000000000000000000000000000000000000000000000000000000600052604160045260246000fd5b61237182611fb5565b810181811067ffffffffffffffff821117156123905761238f612339565b5b80604052505050565b60006123a3611e97565b90506123af8282612368565b919050565b600067ffffffffffffffff8211156123cf576123ce612339565b5b6123d882611fb5565b9050602081019050919050565b82818337600083830152505050565b6000612407612402846123b4565b612399565b90508281526020810184848401111561242357612422612334565b5b61242e8482856123e5565b509392505050565b600082601f83011261244b5761244a61232f565b5b813561245b8482602086016123f4565b91505092915050565b6000806000806080858703121561247e5761247d611ea1565b5b600061248c878288016120f7565b945050602061249d878288016120f7565b93505060406124ae87828801612042565b925050606085013567ffffffffffffffff8111156124cf576124ce611ea6565b5b6124db87828801612436565b91505092959194509250565b600080604083850312156124fe576124fd611ea1565b5b600061250c858286016120f7565b925050602061251d858286016120f7565b9150509250929050565b7f4e487b7100000000000000000000000000000000000000000000000000000000600052602260045260246000fd5b6000600282049050600182168061256e57607f821691505b6020821081141561258257612581612527565b5b50919050565b7f4552433732313a20617070726f76656420717565727920666f72206e6f6e657860008201527f697374656e7420746f6b656e0000000000000000000000000000000000000000602082015250565b60006125e4602c83611f71565b91506125ef82612588565b604082019050919050565b60006020820190508181036000830152612613816125d7565b9050919050565b7f4552433732313a20617070726f76616c20746f2063757272656e74206f776e6560008201527f7200000000000000000000000000000000000000000000000000000000000000602082015250565b6000612676602183611f71565b91506126818261261a565b604082019050919050565b600060208201905081810360008301526126a581612669565b9050919050565b7f4552433732313a20617070726f76652063616c6c6572206973206e6f74206f7760008201527f6e6572206e6f7220617070726f76656420666f7220616c6c0000000000000000602082015250565b6000612708603883611f71565b9150612713826126ac565b604082019050919050565b60006020820190508181036000830152612737816126fb565b9050919050565b7f4552433732313a207472616e736665722063616c6c6572206973206e6f74206f60008201527f776e6572206e6f7220617070726f766564000000000000000000000000000000602082015250565b600061279a603183611f71565b91506127a58261273e565b604082019050919050565b600060208201905081810360008301526127c98161278d565b9050919050565b7f416363657373436f6e74726f6c3a2063616e206f6e6c792072656e6f756e636560008201527f20726f6c657320666f722073656c660000000000000000000000000000000000602082015250565b600061282c602f83611f71565b9150612837826127d0565b604082019050919050565b6000602082019050818103600083015261285b8161281f565b9050919050565b7f4552433732313a206f776e657220717565727920666f72206e6f6e657869737460008201527f656e7420746f6b656e0000000000000000000000000000000000000000000000602082015250565b60006128be602983611f71565b91506128c982612862565b604082019050919050565b600060208201905081810360008301526128ed816128b1565b9050919050565b7f4552433732313a2062616c616e636520717565727920666f7220746865207a6560008201527f726f206164647265737300000000000000000000000000000000000000000000602082015250565b6000612950602a83611f71565b915061295b826128f4565b604082019050919050565b6000602082019050818103600083015261297f81612943565b9050919050565b7f4552433732313a20617070726f766520746f2063616c6c657200000000000000600082015250565b60006129bc601983611f71565b91506129c782612986565b602082019050919050565b600060208201905081810360008301526129eb816129af565b9050919050565b7f4552433732314d657461646174613a2055524920717565727920666f72206e6f60008201527f6e6578697374656e7420746f6b656e0000000000000000000000000000000000602082015250565b6000612a4e602f83611f71565b9150612a59826129f2565b604082019050919050565b60006020820190508181036000830152612a7d81612a41565b9050919050565b600081905092915050565b6000612a9a82611f66565b612aa48185612a84565b9350612ab4818560208601611f82565b80840191505092915050565b6000612acc8285612a8f565b9150612ad88284612a8f565b91508190509392505050565b7f4552433732313a206f70657261746f7220717565727920666f72206e6f6e657860008201527f697374656e7420746f6b656e0000000000000000000000000000000000000000602082015250565b6000612b40602c83611f71565b9150612b4b82612ae4565b604082019050919050565b60006020820190508181036000830152612b6f81612b33565b9050919050565b7f4552433732313a207472616e73666572206f6620746f6b656e2074686174206960008201527f73206e6f74206f776e0000000000000000000000000000000000000000000000602082015250565b6000612bd2602983611f71565b9150612bdd82612b76565b604082019050919050565b60006020820190508181036000830152612c0181612bc5565b9050919050565b7f4552433732313a207472616e7366657220746f20746865207a65726f2061646460008201527f7265737300000000000000000000000000000000000000000000000000000000602082015250565b6000612c64602483611f71565b9150612c6f82612c08565b604082019050919050565b60006020820190508181036000830152612c9381612c57565b9050919050565b7f4e487b7100000000000000000000000000000000000000000000000000000000600052601160045260246000fd5b6000612cd482612021565b9150612cdf83612021565b925082821015612cf257612cf1612c9a565b5b828203905092915050565b6000612d0882612021565b9150612d1383612021565b9250827fffffffffffffffffffffffffffffffffffffffffffffffffffffffffffffffff03821115612d4857612d47612c9a565b5b828201905092915050565b7f416363657373436f6e74726f6c3a206163636f756e7420000000000000000000600082015250565b6000612d89601783612a84565b9150612d9482612d53565b601782019050919050565b7f206973206d697373696e6720726f6c6520000000000000000000000000000000600082015250565b6000612dd5601183612a84565b9150612de082612d9f565b601182019050919050565b6000612df682612d7c565b9150612e028285612a8f565b9150612e0d82612dc8565b9150612e198284612a8f565b91508190509392505050565b7f4552433732313a207472616e7366657220746f206e6f6e20455243373231526560008201527f63656976657220696d706c656d656e7465720000000000000000000000000000602082015250565b6000612e81603283611f71565b9150612e8c82612e25565b604082019050919050565b60006020820190508181036000830152612eb081612e74565b9050919050565b6000612ec282612021565b91507fffffffffffffffffffffffffffffffffffffffffffffffffffffffffffffffff821415612ef557612ef4612c9a565b5b600182019050919050565b7f4e487b7100000000000000000000000000000000000000000000000000000000600052601260045260246000fd5b6000612f3a82612021565b9150612f4583612021565b925082612f5557612f54612f00565b5b828204905092915050565b6000612f6b82612021565b9150612f7683612021565b925082612f8657612f85612f00565b5b828206905092915050565b7f4e487b7100000000000000000000000000000000000000000000000000000000600052603260045260246000fd5b6000612fcb82612021565b9150612fd683612021565b9250817fffffffffffffffffffffffffffffffffffffffffffffffffffffffffffffffff048311821515161561300f5761300e612c9a565b5b828202905092915050565b600061302582612021565b9150600082141561303957613038612c9a565b5b600182039050919050565b7f537472696e67733a20686578206c656e67746820696e73756666696369656e74600082015250565b600061307a602083611f71565b915061308582613044565b602082019050919050565b600060208201905081810360008301526130a98161306d565b9050919050565b600081519050919050565b600082825260208201905092915050565b60006130d7826130b0565b6130e181856130bb565b93506130f1818560208601611f82565b6130fa81611fb5565b840191505092915050565b600060808201905061311a60008301876120b6565b61312760208301866120b6565b6131346040830185612299565b818103606083015261314681846130cc565b905095945050505050565b60008151905061316081611ed7565b92915050565b60006020828403121561317c5761317b611ea1565b5b600061318a84828501613151565b91505092915050565b7f4552433732313a206d696e7420746f20746865207a65726f2061646472657373600082015250565b60006131c9602083611f71565b91506131d482613193565b602082019050919050565b600060208201905081810360008301526131f8816131bc565b9050919050565b7f4552433732313a20746f6b656e20616c7265616479206d696e74656400000000600082015250565b6000613235601c83611f71565b9150613240826131ff565b602082019050919050565b6000602082019050818103600083015261326481613228565b905091905056fea2646970667358221220fcf8b7292d5139ad31f9df708756d8829e1753cb5cb5da99dc461bf680fb556764736f6c634300080a0033",
  "linkReferences": {},
  "deployedLinkReferences": {}
}