{
  "_format": "hh-sol-artifact-1",
  "contractName": "OwnershipToken",
  "sourceName": "contracts/OwnershipToken.sol",
  "abi": [
    {
      "inputs": [],
      "stateMutability": "nonpayable",
      "type": "constructor"
    },
    {
      "anonymous": false,
      "inputs": [
        {
          "indexed": true,
          "internalType": "address",
          "name": "owner",
          "type": "address"
        },
        {
          "indexed": true,
          "internalType": "address",
          "name": "approved",
          "type": "address"
        },
        {
          "indexed": true,
          "internalType": "uint256",
          "name": "tokenId",
          "type": "uint256"
        }
      ],
      "name": "Approval",
      "type": "event"
    },
    {
      "anonymous": false,
      "inputs": [
        {
          "indexed": true,
          "internalType": "address",
          "name": "owner",
          "type": "address"
        },
        {
          "indexed": true,
          "internalType": "address",
          "name": "operator",
          "type": "address"
        },
        {
          "indexed": false,
          "internalType": "bool",
          "name": "approved",
          "type": "bool"
        }
      ],
      "name": "ApprovalForAll",
      "type": "event"
    },
    {
      "anonymous": false,
      "inputs": [
        {
          "indexed": true,
          "internalType": "address",
          "name": "previousOwner",
          "type": "address"
        },
        {
          "indexed": true,
          "internalType": "address",
          "name": "newOwner",
          "type": "address"
        }
      ],
      "name": "OwnershipTransferred",
      "type": "event"
    },
    {
      "anonymous": false,
      "inputs": [
        {
          "indexed": true,
          "internalType": "address",
          "name": "from",
          "type": "address"
        },
        {
          "indexed": true,
          "internalType": "address",
          "name": "to",
          "type": "address"
        },
        {
          "indexed": true,
          "internalType": "uint256",
          "name": "tokenId",
          "type": "uint256"
        }
      ],
      "name": "Transfer",
      "type": "event"
    },
    {
      "inputs": [
        {
          "internalType": "address",
          "name": "to",
          "type": "address"
        },
        {
          "internalType": "uint256",
          "name": "tokenId",
          "type": "uint256"
        }
      ],
      "name": "approve",
      "outputs": [],
      "stateMutability": "nonpayable",
      "type": "function"
    },
    {
      "inputs": [
        {
          "internalType": "address",
          "name": "owner",
          "type": "address"
        }
      ],
      "name": "balanceOf",
      "outputs": [
        {
          "internalType": "uint256",
          "name": "",
          "type": "uint256"
        }
      ],
      "stateMutability": "view",
      "type": "function"
    },
    {
      "inputs": [
        {
          "internalType": "uint256",
          "name": "tokenId",
          "type": "uint256"
        }
      ],
      "name": "getApproved",
      "outputs": [
        {
          "internalType": "address",
          "name": "",
          "type": "address"
        }
      ],
      "stateMutability": "view",
      "type": "function"
    },
    {
      "inputs": [
        {
          "internalType": "address",
          "name": "tokenOwner",
          "type": "address"
        }
      ],
      "name": "getTokenID",
      "outputs": [
        {
          "internalType": "uint256",
          "name": "",
          "type": "uint256"
        }
      ],
      "stateMutability": "view",
      "type": "function"
    },
    {
      "inputs": [
        {
          "internalType": "address",
          "name": "owner",
          "type": "address"
        },
        {
          "internalType": "address",
          "name": "operator",
          "type": "address"
        }
      ],
      "name": "isApprovedForAll",
      "outputs": [
        {
          "internalType": "bool",
          "name": "",
          "type": "bool"
        }
      ],
      "stateMutability": "view",
      "type": "function"
    },
    {
      "inputs": [],
      "name": "name",
      "outputs": [
        {
          "internalType": "string",
          "name": "",
          "type": "string"
        }
      ],
      "stateMutability": "view",
      "type": "function"
    },
    {
      "inputs": [],
      "name": "owner",
      "outputs": [
        {
          "internalType": "address",
          "name": "",
          "type": "address"
        }
      ],
      "stateMutability": "view",
      "type": "function"
    },
    {
      "inputs": [
        {
          "internalType": "uint256",
          "name": "tokenId",
          "type": "uint256"
        }
      ],
      "name": "ownerOf",
      "outputs": [
        {
          "internalType": "address",
          "name": "",
          "type": "address"
        }
      ],
      "stateMutability": "view",
      "type": "function"
    },
    {
      "inputs": [],
      "name": "renounceOwnership",
      "outputs": [],
      "stateMutability": "nonpayable",
      "type": "function"
    },
    {
      "inputs": [
        {
          "internalType": "address",
          "name": "to",
          "type": "address"
        }
      ],
      "name": "safeMint",
      "outputs": [],
      "stateMutability": "nonpayable",
      "type": "function"
    },
    {
      "inputs": [
        {
          "internalType": "address",
          "name": "from",
          "type": "address"
        },
        {
          "internalType": "address",
          "name": "to",
          "type": "address"
        },
        {
          "internalType": "uint256",
          "name": "tokenId",
          "type": "uint256"
        }
      ],
      "name": "safeTransferFrom",
      "outputs": [],
      "stateMutability": "nonpayable",
      "type": "function"
    },
    {
      "inputs": [
        {
          "internalType": "address",
          "name": "from",
          "type": "address"
        },
        {
          "internalType": "address",
          "name": "to",
          "type": "address"
        },
        {
          "internalType": "uint256",
          "name": "tokenId",
          "type": "uint256"
        },
        {
          "internalType": "bytes",
          "name": "_data",
          "type": "bytes"
        }
      ],
      "name": "safeTransferFrom",
      "outputs": [],
      "stateMutability": "nonpayable",
      "type": "function"
    },
    {
      "inputs": [
        {
          "internalType": "address",
          "name": "operator",
          "type": "address"
        },
        {
          "internalType": "bool",
          "name": "approved",
          "type": "bool"
        }
      ],
      "name": "setApprovalForAll",
      "outputs": [],
      "stateMutability": "nonpayable",
      "type": "function"
    },
    {
      "inputs": [
        {
          "internalType": "bytes4",
          "name": "interfaceId",
          "type": "bytes4"
        }
      ],
      "name": "supportsInterface",
      "outputs": [
        {
          "internalType": "bool",
          "name": "",
          "type": "bool"
        }
      ],
      "stateMutability": "view",
      "type": "function"
    },
    {
      "inputs": [],
      "name": "symbol",
      "outputs": [
        {
          "internalType": "string",
          "name": "",
          "type": "string"
        }
      ],
      "stateMutability": "view",
      "type": "function"
    },
    {
      "inputs": [
        {
          "internalType": "address",
          "name": "",
          "type": "address"
        }
      ],
      "name": "tokenOwners",
      "outputs": [
        {
          "internalType": "uint256",
          "name": "",
          "type": "uint256"
        }
      ],
      "stateMutability": "view",
      "type": "function"
    },
    {
      "inputs": [
        {
          "internalType": "uint256",
          "name": "tokenId",
          "type": "uint256"
        }
      ],
      "name": "tokenURI",
      "outputs": [
        {
          "internalType": "string",
          "name": "",
          "type": "string"
        }
      ],
      "stateMutability": "view",
      "type": "function"
    },
    {
      "inputs": [
        {
          "internalType": "address",
          "name": "from",
          "type": "address"
        },
        {
          "internalType": "address",
          "name": "to",
          "type": "address"
        },
        {
          "internalType": "uint256",
          "name": "tokenId",
          "type": "uint256"
        }
      ],
      "name": "transferFrom",
      "outputs": [],
      "stateMutability": "nonpayable",
      "type": "function"
    },
    {
      "inputs": [
        {
          "internalType": "address",
          "name": "newOwner",
          "type": "address"
        }
      ],
      "name": "transferOwnership",
      "outputs": [],
      "stateMutability": "nonpayable",
      "type": "function"
    }
  ],
  "bytecode": "0x60806040523480156200001157600080fd5b506040518060400160405280600d81526020017f42616453706f74696679426164000000000000000000000000000000000000008152506040518060400160405280600381526020017f4253420000000000000000000000000000000000000000000000000000000000815250816000908051906020019062000096929190620001a6565b508060019080519060200190620000af929190620001a6565b505050620000d2620000c6620000d860201b60201c565b620000e060201b60201c565b620002bb565b600033905090565b6000600660009054906101000a900473ffffffffffffffffffffffffffffffffffffffff16905081600660006101000a81548173ffffffffffffffffffffffffffffffffffffffff021916908373ffffffffffffffffffffffffffffffffffffffff1602179055508173ffffffffffffffffffffffffffffffffffffffff168173ffffffffffffffffffffffffffffffffffffffff167f8be0079c531659141344cd1fd0a4f28419497f9722a3daafe3b4186f6b6457e060405160405180910390a35050565b828054620001b49062000256565b90600052602060002090601f016020900481019282620001d8576000855562000224565b82601f10620001f357805160ff191683800117855562000224565b8280016001018555821562000224579182015b828111156200022357825182559160200191906001019062000206565b5b50905062000233919062000237565b5090565b5b808211156200025257600081600090555060010162000238565b5090565b600060028204905060018216806200026f57607f821691505b602082108114156200028657620002856200028c565b5b50919050565b7f4e487b7100000000000000000000000000000000000000000000000000000000600052602260045260246000fd5b612cb880620002cb6000396000f3fe608060405234801561001057600080fd5b50600436106101215760003560e01c806370a08231116100ad578063ad79e94b11610071578063ad79e94b14610306578063b88d4fde14610336578063c87b56dd14610352578063e985e9c514610382578063f2fde38b146103b257610121565b806370a0823114610274578063715018a6146102a45780638da5cb5b146102ae57806395d89b41146102cc578063a22cb465146102ea57610121565b806323b872dd116100f457806323b872dd146101c057806340d097c3146101dc57806342842e0e146101f85780636352211e1461021457806363f8071c1461024457610121565b806301ffc9a71461012657806306fdde0314610156578063081812fc14610174578063095ea7b3146101a4575b600080fd5b610140600480360381019061013b9190611dbc565b6103ce565b60405161014d91906121c2565b60405180910390f35b61015e6104b0565b60405161016b91906121dd565b60405180910390f35b61018e60048036038101906101899190611e0e565b610542565b60405161019b919061215b565b60405180910390f35b6101be60048036038101906101b99190611d80565b6105c7565b005b6101da60048036038101906101d59190611c7a565b6106df565b005b6101f660048036038101906101f19190611c15565b61073f565b005b610212600480360381019061020d9190611c7a565b61082e565b005b61022e60048036038101906102299190611e0e565b61084e565b60405161023b919061215b565b60405180910390f35b61025e60048036038101906102599190611c15565b610900565b60405161026b91906123ff565b60405180910390f35b61028e60048036038101906102899190611c15565b610949565b60405161029b91906123ff565b60405180910390f35b6102ac610a01565b005b6102b6610a89565b6040516102c3919061215b565b60405180910390f35b6102d4610ab3565b6040516102e191906121dd565b60405180910390f35b61030460048036038101906102ff9190611d44565b610b45565b005b610320600480360381019061031b9190611c15565b610cc6565b60405161032d91906123ff565b60405180910390f35b610350600480360381019061034b9190611cc9565b610cde565b005b61036c60048036038101906103679190611e0e565b610d40565b60405161037991906121dd565b60405180910390f35b61039c60048036038101906103979190611c3e565b610de7565b6040516103a991906121c2565b60405180910390f35b6103cc60048036038101906103c79190611c15565b610e7b565b005b60007f80ac58cd000000000000000000000000000000000000000000000000000000007bffffffffffffffffffffffffffffffffffffffffffffffffffffffff1916827bffffffffffffffffffffffffffffffffffffffffffffffffffffffff1916148061049957507f5b5e139f000000000000000000000000000000000000000000000000000000007bffffffffffffffffffffffffffffffffffffffffffffffffffffffff1916827bffffffffffffffffffffffffffffffffffffffffffffffffffffffff1916145b806104a957506104a882610f73565b5b9050919050565b6060600080546104bf90612624565b80601f01602080910402602001604051908101604052809291908181526020018280546104eb90612624565b80156105385780601f1061050d57610100808354040283529160200191610538565b820191906000526020600020905b81548152906001019060200180831161051b57829003601f168201915b5050505050905090565b600061054d82610fdd565b61058c576040517f08c379a00000000000000000000000000000000000000000000000000000000081526004016105839061233f565b60405180910390fd5b6004600083815260200190815260200160002060009054906101000a900473ffffffffffffffffffffffffffffffffffffffff169050919050565b60006105d28261084e565b90508073ffffffffffffffffffffffffffffffffffffffff168373ffffffffffffffffffffffffffffffffffffffff161415610643576040517f08c379a000000000000000000000000000000000000000000000000000000000815260040161063a906123bf565b60405180910390fd5b8073ffffffffffffffffffffffffffffffffffffffff16610662611049565b73ffffffffffffffffffffffffffffffffffffffff16148061069157506106908161068b611049565b610de7565b5b6106d0576040517f08c379a00000000000000000000000000000000000000000000000000000000081526004016106c7906122bf565b60405180910390fd5b6106da8383611051565b505050565b6106f06106ea611049565b8261110a565b61072f576040517f08c379a0000000000000000000000000000000000000000000000000000000008152600401610726906123df565b60405180910390fd5b61073a8383836111e8565b505050565b610747611049565b73ffffffffffffffffffffffffffffffffffffffff16610765610a89565b73ffffffffffffffffffffffffffffffffffffffff16146107bb576040517f08c379a00000000000000000000000000000000000000000000000000000000081526004016107b29061235f565b60405180910390fd5b60006107c76007611444565b90506107dc826107d76007611444565b611452565b6107e66007611470565b80600860008473ffffffffffffffffffffffffffffffffffffffff1673ffffffffffffffffffffffffffffffffffffffff168152602001908152602001600020819055505050565b61084983838360405180602001604052806000815250610cde565b505050565b6000806002600084815260200190815260200160002060009054906101000a900473ffffffffffffffffffffffffffffffffffffffff169050600073ffffffffffffffffffffffffffffffffffffffff168173ffffffffffffffffffffffffffffffffffffffff1614156108f7576040517f08c379a00000000000000000000000000000000000000000000000000000000081526004016108ee906122ff565b60405180910390fd5b80915050919050565b6000600860008373ffffffffffffffffffffffffffffffffffffffff1673ffffffffffffffffffffffffffffffffffffffff168152602001908152602001600020549050919050565b60008073ffffffffffffffffffffffffffffffffffffffff168273ffffffffffffffffffffffffffffffffffffffff1614156109ba576040517f08c379a00000000000000000000000000000000000000000000000000000000081526004016109b1906122df565b60405180910390fd5b600360008373ffffffffffffffffffffffffffffffffffffffff1673ffffffffffffffffffffffffffffffffffffffff168152602001908152602001600020549050919050565b610a09611049565b73ffffffffffffffffffffffffffffffffffffffff16610a27610a89565b73ffffffffffffffffffffffffffffffffffffffff1614610a7d576040517f08c379a0000000000000000000000000000000000000000000000000000000008152600401610a749061235f565b60405180910390fd5b610a876000611486565b565b6000600660009054906101000a900473ffffffffffffffffffffffffffffffffffffffff16905090565b606060018054610ac290612624565b80601f0160208091040260200160405190810160405280929190818152602001828054610aee90612624565b8015610b3b5780601f10610b1057610100808354040283529160200191610b3b565b820191906000526020600020905b815481529060010190602001808311610b1e57829003601f168201915b5050505050905090565b610b4d611049565b73ffffffffffffffffffffffffffffffffffffffff168273ffffffffffffffffffffffffffffffffffffffff161415610bbb576040517f08c379a0000000000000000000000000000000000000000000000000000000008152600401610bb29061227f565b60405180910390fd5b8060056000610bc8611049565b73ffffffffffffffffffffffffffffffffffffffff1673ffffffffffffffffffffffffffffffffffffffff16815260200190815260200160002060008473ffffffffffffffffffffffffffffffffffffffff1673ffffffffffffffffffffffffffffffffffffffff16815260200190815260200160002060006101000a81548160ff0219169083151502179055508173ffffffffffffffffffffffffffffffffffffffff16610c75611049565b73ffffffffffffffffffffffffffffffffffffffff167f17307eab39ab6107e8899845ad3d59bd9653f200f220920489ca2b5937696c3183604051610cba91906121c2565b60405180910390a35050565b60086020528060005260406000206000915090505481565b610cef610ce9611049565b8361110a565b610d2e576040517f08c379a0000000000000000000000000000000000000000000000000000000008152600401610d25906123df565b60405180910390fd5b610d3a8484848461154c565b50505050565b6060610d4b82610fdd565b610d8a576040517f08c379a0000000000000000000000000000000000000000000000000000000008152600401610d819061239f565b60405180910390fd5b6000610d946115a8565b90506000815111610db45760405180602001604052806000815250610ddf565b80610dbe846115bf565b604051602001610dcf929190612137565b6040516020818303038152906040525b915050919050565b6000600560008473ffffffffffffffffffffffffffffffffffffffff1673ffffffffffffffffffffffffffffffffffffffff16815260200190815260200160002060008373ffffffffffffffffffffffffffffffffffffffff1673ffffffffffffffffffffffffffffffffffffffff16815260200190815260200160002060009054906101000a900460ff16905092915050565b610e83611049565b73ffffffffffffffffffffffffffffffffffffffff16610ea1610a89565b73ffffffffffffffffffffffffffffffffffffffff1614610ef7576040517f08c379a0000000000000000000000000000000000000000000000000000000008152600401610eee9061235f565b60405180910390fd5b600073ffffffffffffffffffffffffffffffffffffffff168173ffffffffffffffffffffffffffffffffffffffff161415610f67576040517f08c379a0000000000000000000000000000000000000000000000000000000008152600401610f5e9061221f565b60405180910390fd5b610f7081611486565b50565b60007f01ffc9a7000000000000000000000000000000000000000000000000000000007bffffffffffffffffffffffffffffffffffffffffffffffffffffffff1916827bffffffffffffffffffffffffffffffffffffffffffffffffffffffff1916149050919050565b60008073ffffffffffffffffffffffffffffffffffffffff166002600084815260200190815260200160002060009054906101000a900473ffffffffffffffffffffffffffffffffffffffff1673ffffffffffffffffffffffffffffffffffffffff1614159050919050565b600033905090565b816004600083815260200190815260200160002060006101000a81548173ffffffffffffffffffffffffffffffffffffffff021916908373ffffffffffffffffffffffffffffffffffffffff160217905550808273ffffffffffffffffffffffffffffffffffffffff166110c48361084e565b73ffffffffffffffffffffffffffffffffffffffff167f8c5be1e5ebec7d5bd14f71427d1e84f3dd0314c0f7b2291e5b200ac8c7c3b92560405160405180910390a45050565b600061111582610fdd565b611154576040517f08c379a000000000000000000000000000000000000000000000000000000000815260040161114b9061229f565b60405180910390fd5b600061115f8361084e565b90508073ffffffffffffffffffffffffffffffffffffffff168473ffffffffffffffffffffffffffffffffffffffff1614806111ce57508373ffffffffffffffffffffffffffffffffffffffff166111b684610542565b73ffffffffffffffffffffffffffffffffffffffff16145b806111df57506111de8185610de7565b5b91505092915050565b8273ffffffffffffffffffffffffffffffffffffffff166112088261084e565b73ffffffffffffffffffffffffffffffffffffffff161461125e576040517f08c379a00000000000000000000000000000000000000000000000000000000081526004016112559061237f565b60405180910390fd5b600073ffffffffffffffffffffffffffffffffffffffff168273ffffffffffffffffffffffffffffffffffffffff1614156112ce576040517f08c379a00000000000000000000000000000000000000000000000000000000081526004016112c59061225f565b60405180910390fd5b6112d983838361176c565b6112e4600082611051565b6001600360008573ffffffffffffffffffffffffffffffffffffffff1673ffffffffffffffffffffffffffffffffffffffff1681526020019081526020016000206000828254611334919061253a565b925050819055506001600360008473ffffffffffffffffffffffffffffffffffffffff1673ffffffffffffffffffffffffffffffffffffffff168152602001908152602001600020600082825461138b91906124b3565b92505081905550816002600083815260200190815260200160002060006101000a81548173ffffffffffffffffffffffffffffffffffffffff021916908373ffffffffffffffffffffffffffffffffffffffff160217905550808273ffffffffffffffffffffffffffffffffffffffff168473ffffffffffffffffffffffffffffffffffffffff167fddf252ad1be2c89b69c2b068fc378daa952ba7f163c4a11628f55a4df523b3ef60405160405180910390a4505050565b600081600001549050919050565b61146c828260405180602001604052806000815250611771565b5050565b6001816000016000828254019250508190555050565b6000600660009054906101000a900473ffffffffffffffffffffffffffffffffffffffff16905081600660006101000a81548173ffffffffffffffffffffffffffffffffffffffff021916908373ffffffffffffffffffffffffffffffffffffffff1602179055508173ffffffffffffffffffffffffffffffffffffffff168173ffffffffffffffffffffffffffffffffffffffff167f8be0079c531659141344cd1fd0a4f28419497f9722a3daafe3b4186f6b6457e060405160405180910390a35050565b6115578484846111e8565b611563848484846117cc565b6115a2576040517f08c379a0000000000000000000000000000000000000000000000000000000008152600401611599906121ff565b60405180910390fd5b50505050565b606060405180602001604052806000815250905090565b60606000821415611607576040518060400160405280600181526020017f30000000000000000000000000000000000000000000000000000000000000008152509050611767565b600082905060005b6000821461163957808061162290612687565b915050600a826116329190612509565b915061160f565b60008167ffffffffffffffff81111561167b577f4e487b7100000000000000000000000000000000000000000000000000000000600052604160045260246000fd5b6040519080825280601f01601f1916602001820160405280156116ad5781602001600182028036833780820191505090505b5090505b60008514611760576001826116c6919061253a565b9150600a856116d591906126d0565b60306116e191906124b3565b60f81b81838151811061171d577f4e487b7100000000000000000000000000000000000000000000000000000000600052603260045260246000fd5b60200101907effffffffffffffffffffffffffffffffffffffffffffffffffffffffffffff1916908160001a905350600a856117599190612509565b94506116b1565b8093505050505b919050565b505050565b61177b8383611963565b61178860008484846117cc565b6117c7576040517f08c379a00000000000000000000000000000000000000000000000000000000081526004016117be906121ff565b60405180910390fd5b505050565b60006117ed8473ffffffffffffffffffffffffffffffffffffffff16611b31565b15611956578373ffffffffffffffffffffffffffffffffffffffff1663150b7a02611816611049565b8786866040518563ffffffff1660e01b81526004016118389493929190612176565b602060405180830381600087803b15801561185257600080fd5b505af192505050801561188357506040513d601f19601f820116820180604052508101906118809190611de5565b60015b611906573d80600081146118b3576040519150601f19603f3d011682016040523d82523d6000602084013e6118b8565b606091505b506000815114156118fe576040517f08c379a00000000000000000000000000000000000000000000000000000000081526004016118f5906121ff565b60405180910390fd5b805181602001fd5b63150b7a0260e01b7bffffffffffffffffffffffffffffffffffffffffffffffffffffffff1916817bffffffffffffffffffffffffffffffffffffffffffffffffffffffff19161491505061195b565b600190505b949350505050565b600073ffffffffffffffffffffffffffffffffffffffff168273ffffffffffffffffffffffffffffffffffffffff1614156119d3576040517f08c379a00000000000000000000000000000000000000000000000000000000081526004016119ca9061231f565b60405180910390fd5b6119dc81610fdd565b15611a1c576040517f08c379a0000000000000000000000000000000000000000000000000000000008152600401611a139061223f565b60405180910390fd5b611a286000838361176c565b6001600360008473ffffffffffffffffffffffffffffffffffffffff1673ffffffffffffffffffffffffffffffffffffffff1681526020019081526020016000206000828254611a7891906124b3565b92505081905550816002600083815260200190815260200160002060006101000a81548173ffffffffffffffffffffffffffffffffffffffff021916908373ffffffffffffffffffffffffffffffffffffffff160217905550808273ffffffffffffffffffffffffffffffffffffffff16600073ffffffffffffffffffffffffffffffffffffffff167fddf252ad1be2c89b69c2b068fc378daa952ba7f163c4a11628f55a4df523b3ef60405160405180910390a45050565b600080823b905060008111915050919050565b6000611b57611b528461243f565b61241a565b905082815260208101848484011115611b6f57600080fd5b611b7a8482856125e2565b509392505050565b600081359050611b9181612c26565b92915050565b600081359050611ba681612c3d565b92915050565b600081359050611bbb81612c54565b92915050565b600081519050611bd081612c54565b92915050565b600082601f830112611be757600080fd5b8135611bf7848260208601611b44565b91505092915050565b600081359050611c0f81612c6b565b92915050565b600060208284031215611c2757600080fd5b6000611c3584828501611b82565b91505092915050565b60008060408385031215611c5157600080fd5b6000611c5f85828601611b82565b9250506020611c7085828601611b82565b9150509250929050565b600080600060608486031215611c8f57600080fd5b6000611c9d86828701611b82565b9350506020611cae86828701611b82565b9250506040611cbf86828701611c00565b9150509250925092565b60008060008060808587031215611cdf57600080fd5b6000611ced87828801611b82565b9450506020611cfe87828801611b82565b9350506040611d0f87828801611c00565b925050606085013567ffffffffffffffff811115611d2c57600080fd5b611d3887828801611bd6565b91505092959194509250565b60008060408385031215611d5757600080fd5b6000611d6585828601611b82565b9250506020611d7685828601611b97565b9150509250929050565b60008060408385031215611d9357600080fd5b6000611da185828601611b82565b9250506020611db285828601611c00565b9150509250929050565b600060208284031215611dce57600080fd5b6000611ddc84828501611bac565b91505092915050565b600060208284031215611df757600080fd5b6000611e0584828501611bc1565b91505092915050565b600060208284031215611e2057600080fd5b6000611e2e84828501611c00565b91505092915050565b611e408161256e565b82525050565b611e4f81612580565b82525050565b6000611e6082612470565b611e6a8185612486565b9350611e7a8185602086016125f1565b611e83816127bd565b840191505092915050565b6000611e998261247b565b611ea38185612497565b9350611eb38185602086016125f1565b611ebc816127bd565b840191505092915050565b6000611ed28261247b565b611edc81856124a8565b9350611eec8185602086016125f1565b80840191505092915050565b6000611f05603283612497565b9150611f10826127ce565b604082019050919050565b6000611f28602683612497565b9150611f338261281d565b604082019050919050565b6000611f4b601c83612497565b9150611f568261286c565b602082019050919050565b6000611f6e602483612497565b9150611f7982612895565b604082019050919050565b6000611f91601983612497565b9150611f9c826128e4565b602082019050919050565b6000611fb4602c83612497565b9150611fbf8261290d565b604082019050919050565b6000611fd7603883612497565b9150611fe28261295c565b604082019050919050565b6000611ffa602a83612497565b9150612005826129ab565b604082019050919050565b600061201d602983612497565b9150612028826129fa565b604082019050919050565b6000612040602083612497565b915061204b82612a49565b602082019050919050565b6000612063602c83612497565b915061206e82612a72565b604082019050919050565b6000612086602083612497565b915061209182612ac1565b602082019050919050565b60006120a9602983612497565b91506120b482612aea565b604082019050919050565b60006120cc602f83612497565b91506120d782612b39565b604082019050919050565b60006120ef602183612497565b91506120fa82612b88565b604082019050919050565b6000612112603183612497565b915061211d82612bd7565b604082019050919050565b612131816125d8565b82525050565b60006121438285611ec7565b915061214f8284611ec7565b91508190509392505050565b60006020820190506121706000830184611e37565b92915050565b600060808201905061218b6000830187611e37565b6121986020830186611e37565b6121a56040830185612128565b81810360608301526121b78184611e55565b905095945050505050565b60006020820190506121d76000830184611e46565b92915050565b600060208201905081810360008301526121f78184611e8e565b905092915050565b6000602082019050818103600083015261221881611ef8565b9050919050565b6000602082019050818103600083015261223881611f1b565b9050919050565b6000602082019050818103600083015261225881611f3e565b9050919050565b6000602082019050818103600083015261227881611f61565b9050919050565b6000602082019050818103600083015261229881611f84565b9050919050565b600060208201905081810360008301526122b881611fa7565b9050919050565b600060208201905081810360008301526122d881611fca565b9050919050565b600060208201905081810360008301526122f881611fed565b9050919050565b6000602082019050818103600083015261231881612010565b9050919050565b6000602082019050818103600083015261233881612033565b9050919050565b6000602082019050818103600083015261235881612056565b9050919050565b6000602082019050818103600083015261237881612079565b9050919050565b600060208201905081810360008301526123988161209c565b9050919050565b600060208201905081810360008301526123b8816120bf565b9050919050565b600060208201905081810360008301526123d8816120e2565b9050919050565b600060208201905081810360008301526123f881612105565b9050919050565b60006020820190506124146000830184612128565b92915050565b6000612424612435565b90506124308282612656565b919050565b6000604051905090565b600067ffffffffffffffff82111561245a5761245961278e565b5b612463826127bd565b9050602081019050919050565b600081519050919050565b600081519050919050565b600082825260208201905092915050565b600082825260208201905092915050565b600081905092915050565b60006124be826125d8565b91506124c9836125d8565b9250827fffffffffffffffffffffffffffffffffffffffffffffffffffffffffffffffff038211156124fe576124fd612701565b5b828201905092915050565b6000612514826125d8565b915061251f836125d8565b92508261252f5761252e612730565b5b828204905092915050565b6000612545826125d8565b9150612550836125d8565b92508282101561256357612562612701565b5b828203905092915050565b6000612579826125b8565b9050919050565b60008115159050919050565b60007fffffffff0000000000000000000000000000000000000000000000000000000082169050919050565b600073ffffffffffffffffffffffffffffffffffffffff82169050919050565b6000819050919050565b82818337600083830152505050565b60005b8381101561260f5780820151818401526020810190506125f4565b8381111561261e576000848401525b50505050565b6000600282049050600182168061263c57607f821691505b602082108114156126505761264f61275f565b5b50919050565b61265f826127bd565b810181811067ffffffffffffffff8211171561267e5761267d61278e565b5b80604052505050565b6000612692826125d8565b91507fffffffffffffffffffffffffffffffffffffffffffffffffffffffffffffffff8214156126c5576126c4612701565b5b600182019050919050565b60006126db826125d8565b91506126e6836125d8565b9250826126f6576126f5612730565b5b828206905092915050565b7f4e487b7100000000000000000000000000000000000000000000000000000000600052601160045260246000fd5b7f4e487b7100000000000000000000000000000000000000000000000000000000600052601260045260246000fd5b7f4e487b7100000000000000000000000000000000000000000000000000000000600052602260045260246000fd5b7f4e487b7100000000000000000000000000000000000000000000000000000000600052604160045260246000fd5b6000601f19601f8301169050919050565b7f4552433732313a207472616e7366657220746f206e6f6e20455243373231526560008201527f63656976657220696d706c656d656e7465720000000000000000000000000000602082015250565b7f4f776e61626c653a206e6577206f776e657220697320746865207a65726f206160008201527f6464726573730000000000000000000000000000000000000000000000000000602082015250565b7f4552433732313a20746f6b656e20616c7265616479206d696e74656400000000600082015250565b7f4552433732313a207472616e7366657220746f20746865207a65726f2061646460008201527f7265737300000000000000000000000000000000000000000000000000000000602082015250565b7f4552433732313a20617070726f766520746f2063616c6c657200000000000000600082015250565b7f4552433732313a206f70657261746f7220717565727920666f72206e6f6e657860008201527f697374656e7420746f6b656e0000000000000000000000000000000000000000602082015250565b7f4552433732313a20617070726f76652063616c6c6572206973206e6f74206f7760008201527f6e6572206e6f7220617070726f76656420666f7220616c6c0000000000000000602082015250565b7f4552433732313a2062616c616e636520717565727920666f7220746865207a6560008201527f726f206164647265737300000000000000000000000000000000000000000000602082015250565b7f4552433732313a206f776e657220717565727920666f72206e6f6e657869737460008201527f656e7420746f6b656e0000000000000000000000000000000000000000000000602082015250565b7f4552433732313a206d696e7420746f20746865207a65726f2061646472657373600082015250565b7f4552433732313a20617070726f76656420717565727920666f72206e6f6e657860008201527f697374656e7420746f6b656e0000000000000000000000000000000000000000602082015250565b7f4f776e61626c653a2063616c6c6572206973206e6f7420746865206f776e6572600082015250565b7f4552433732313a207472616e73666572206f6620746f6b656e2074686174206960008201527f73206e6f74206f776e0000000000000000000000000000000000000000000000602082015250565b7f4552433732314d657461646174613a2055524920717565727920666f72206e6f60008201527f6e6578697374656e7420746f6b656e0000000000000000000000000000000000602082015250565b7f4552433732313a20617070726f76616c20746f2063757272656e74206f776e6560008201527f7200000000000000000000000000000000000000000000000000000000000000602082015250565b7f4552433732313a207472616e736665722063616c6c6572206973206e6f74206f60008201527f776e6572206e6f7220617070726f766564000000000000000000000000000000602082015250565b612c2f8161256e565b8114612c3a57600080fd5b50565b612c4681612580565b8114612c5157600080fd5b50565b612c5d8161258c565b8114612c6857600080fd5b50565b612c74816125d8565b8114612c7f57600080fd5b5056fea2646970667358221220c7e574fe8ed6ff3c78bcc9b58fd53ec7d25d71f3f4fff786f42977b6ddf5d60a64736f6c63430008040033",
  "linkReferences": {},
  "deployedLinkReferences": {}
}