{
  "_format": "hh-sol-artifact-1",
  "contractName": "OwnershipToken",
  "sourceName": "contracts/OwnershipToken.sol",
  "abi": [
    {
      "inputs": [],
      "stateMutability": "nonpayable",
      "type": "constructor"
    },
    {
      "anonymous": false,
      "inputs": [
        {
          "indexed": true,
          "internalType": "address",
          "name": "owner",
          "type": "address"
        },
        {
          "indexed": true,
          "internalType": "address",
          "name": "approved",
          "type": "address"
        },
        {
          "indexed": true,
          "internalType": "uint256",
          "name": "tokenId",
          "type": "uint256"
        }
      ],
      "name": "Approval",
      "type": "event"
    },
    {
      "anonymous": false,
      "inputs": [
        {
          "indexed": true,
          "internalType": "address",
          "name": "owner",
          "type": "address"
        },
        {
          "indexed": true,
          "internalType": "address",
          "name": "operator",
          "type": "address"
        },
        {
          "indexed": false,
          "internalType": "bool",
          "name": "approved",
          "type": "bool"
        }
      ],
      "name": "ApprovalForAll",
      "type": "event"
    },
    {
      "anonymous": false,
      "inputs": [
        {
          "indexed": true,
          "internalType": "bytes32",
          "name": "role",
          "type": "bytes32"
        },
        {
          "indexed": true,
          "internalType": "bytes32",
          "name": "previousAdminRole",
          "type": "bytes32"
        },
        {
          "indexed": true,
          "internalType": "bytes32",
          "name": "newAdminRole",
          "type": "bytes32"
        }
      ],
      "name": "RoleAdminChanged",
      "type": "event"
    },
    {
      "anonymous": false,
      "inputs": [
        {
          "indexed": true,
          "internalType": "bytes32",
          "name": "role",
          "type": "bytes32"
        },
        {
          "indexed": true,
          "internalType": "address",
          "name": "account",
          "type": "address"
        },
        {
          "indexed": true,
          "internalType": "address",
          "name": "sender",
          "type": "address"
        }
      ],
      "name": "RoleGranted",
      "type": "event"
    },
    {
      "anonymous": false,
      "inputs": [
        {
          "indexed": true,
          "internalType": "bytes32",
          "name": "role",
          "type": "bytes32"
        },
        {
          "indexed": true,
          "internalType": "address",
          "name": "account",
          "type": "address"
        },
        {
          "indexed": true,
          "internalType": "address",
          "name": "sender",
          "type": "address"
        }
      ],
      "name": "RoleRevoked",
      "type": "event"
    },
    {
      "anonymous": false,
      "inputs": [
        {
          "indexed": true,
          "internalType": "address",
          "name": "from",
          "type": "address"
        },
        {
          "indexed": true,
          "internalType": "address",
          "name": "to",
          "type": "address"
        },
        {
          "indexed": true,
          "internalType": "uint256",
          "name": "tokenId",
          "type": "uint256"
        }
      ],
      "name": "Transfer",
      "type": "event"
    },
    {
      "inputs": [],
      "name": "DEFAULT_ADMIN_ROLE",
      "outputs": [
        {
          "internalType": "bytes32",
          "name": "",
          "type": "bytes32"
        }
      ],
      "stateMutability": "view",
      "type": "function"
    },
    {
      "inputs": [],
      "name": "MINTER_ROLE",
      "outputs": [
        {
          "internalType": "bytes32",
          "name": "",
          "type": "bytes32"
        }
      ],
      "stateMutability": "view",
      "type": "function"
    },
    {
      "inputs": [
        {
          "internalType": "address",
          "name": "to",
          "type": "address"
        },
        {
          "internalType": "uint256",
          "name": "tokenId",
          "type": "uint256"
        }
      ],
      "name": "approve",
      "outputs": [],
      "stateMutability": "nonpayable",
      "type": "function"
    },
    {
      "inputs": [
        {
          "internalType": "address",
          "name": "owner",
          "type": "address"
        }
      ],
      "name": "balanceOf",
      "outputs": [
        {
          "internalType": "uint256",
          "name": "",
          "type": "uint256"
        }
      ],
      "stateMutability": "view",
      "type": "function"
    },
    {
      "inputs": [
        {
          "internalType": "uint256",
          "name": "tokenId",
          "type": "uint256"
        }
      ],
      "name": "getApproved",
      "outputs": [
        {
          "internalType": "address",
          "name": "",
          "type": "address"
        }
      ],
      "stateMutability": "view",
      "type": "function"
    },
    {
      "inputs": [
        {
          "internalType": "bytes32",
          "name": "role",
          "type": "bytes32"
        }
      ],
      "name": "getRoleAdmin",
      "outputs": [
        {
          "internalType": "bytes32",
          "name": "",
          "type": "bytes32"
        }
      ],
      "stateMutability": "view",
      "type": "function"
    },
    {
      "inputs": [
        {
          "internalType": "bytes32",
          "name": "role",
          "type": "bytes32"
        },
        {
          "internalType": "address",
          "name": "account",
          "type": "address"
        }
      ],
      "name": "grantRole",
      "outputs": [],
      "stateMutability": "nonpayable",
      "type": "function"
    },
    {
      "inputs": [
        {
          "internalType": "bytes32",
          "name": "role",
          "type": "bytes32"
        },
        {
          "internalType": "address",
          "name": "account",
          "type": "address"
        }
      ],
      "name": "hasRole",
      "outputs": [
        {
          "internalType": "bool",
          "name": "",
          "type": "bool"
        }
      ],
      "stateMutability": "view",
      "type": "function"
    },
    {
      "inputs": [
        {
          "internalType": "address",
          "name": "owner",
          "type": "address"
        },
        {
          "internalType": "address",
          "name": "operator",
          "type": "address"
        }
      ],
      "name": "isApprovedForAll",
      "outputs": [
        {
          "internalType": "bool",
          "name": "",
          "type": "bool"
        }
      ],
      "stateMutability": "view",
      "type": "function"
    },
    {
      "inputs": [],
      "name": "name",
      "outputs": [
        {
          "internalType": "string",
          "name": "",
          "type": "string"
        }
      ],
      "stateMutability": "view",
      "type": "function"
    },
    {
      "inputs": [
        {
          "internalType": "uint256",
          "name": "tokenId",
          "type": "uint256"
        }
      ],
      "name": "ownerOf",
      "outputs": [
        {
          "internalType": "address",
          "name": "",
          "type": "address"
        }
      ],
      "stateMutability": "view",
      "type": "function"
    },
    {
      "inputs": [
        {
          "internalType": "bytes32",
          "name": "role",
          "type": "bytes32"
        },
        {
          "internalType": "address",
          "name": "account",
          "type": "address"
        }
      ],
      "name": "renounceRole",
      "outputs": [],
      "stateMutability": "nonpayable",
      "type": "function"
    },
    {
      "inputs": [
        {
          "internalType": "bytes32",
          "name": "role",
          "type": "bytes32"
        },
        {
          "internalType": "address",
          "name": "account",
          "type": "address"
        }
      ],
      "name": "revokeRole",
      "outputs": [],
      "stateMutability": "nonpayable",
      "type": "function"
    },
    {
      "inputs": [
        {
          "internalType": "address",
          "name": "to",
          "type": "address"
        }
      ],
      "name": "safeMint",
      "outputs": [],
      "stateMutability": "nonpayable",
      "type": "function"
    },
    {
      "inputs": [
        {
          "internalType": "address",
          "name": "from",
          "type": "address"
        },
        {
          "internalType": "address",
          "name": "to",
          "type": "address"
        },
        {
          "internalType": "uint256",
          "name": "tokenId",
          "type": "uint256"
        }
      ],
      "name": "safeTransferFrom",
      "outputs": [],
      "stateMutability": "nonpayable",
      "type": "function"
    },
    {
      "inputs": [
        {
          "internalType": "address",
          "name": "from",
          "type": "address"
        },
        {
          "internalType": "address",
          "name": "to",
          "type": "address"
        },
        {
          "internalType": "uint256",
          "name": "tokenId",
          "type": "uint256"
        },
        {
          "internalType": "bytes",
          "name": "_data",
          "type": "bytes"
        }
      ],
      "name": "safeTransferFrom",
      "outputs": [],
      "stateMutability": "nonpayable",
      "type": "function"
    },
    {
      "inputs": [
        {
          "internalType": "address",
          "name": "operator",
          "type": "address"
        },
        {
          "internalType": "bool",
          "name": "approved",
          "type": "bool"
        }
      ],
      "name": "setApprovalForAll",
      "outputs": [],
      "stateMutability": "nonpayable",
      "type": "function"
    },
    {
      "inputs": [
        {
          "internalType": "bytes4",
          "name": "interfaceId",
          "type": "bytes4"
        }
      ],
      "name": "supportsInterface",
      "outputs": [
        {
          "internalType": "bool",
          "name": "",
          "type": "bool"
        }
      ],
      "stateMutability": "view",
      "type": "function"
    },
    {
      "inputs": [],
      "name": "symbol",
      "outputs": [
        {
          "internalType": "string",
          "name": "",
          "type": "string"
        }
      ],
      "stateMutability": "view",
      "type": "function"
    },
    {
      "inputs": [
        {
          "internalType": "uint256",
          "name": "tokenId",
          "type": "uint256"
        }
      ],
      "name": "tokenURI",
      "outputs": [
        {
          "internalType": "string",
          "name": "",
          "type": "string"
        }
      ],
      "stateMutability": "view",
      "type": "function"
    },
    {
      "inputs": [
        {
          "internalType": "address",
          "name": "from",
          "type": "address"
        },
        {
          "internalType": "address",
          "name": "to",
          "type": "address"
        },
        {
          "internalType": "uint256",
          "name": "tokenId",
          "type": "uint256"
        }
      ],
      "name": "transferFrom",
      "outputs": [],
      "stateMutability": "nonpayable",
      "type": "function"
    }
  ],
  "bytecode": "0x60806040523480156200001157600080fd5b506040518060400160405280600e81526020017f4f776e657273686970546f6b656e0000000000000000000000000000000000008152506040518060400160405280600381526020017f4a53490000000000000000000000000000000000000000000000000000000000815250816000908051906020019062000096929190620000b8565b508060019080519060200190620000af929190620000b8565b505050620001cd565b828054620000c69062000197565b90600052602060002090601f016020900481019282620000ea576000855562000136565b82601f106200010557805160ff191683800117855562000136565b8280016001018555821562000136579182015b828111156200013557825182559160200191906001019062000118565b5b50905062000145919062000149565b5090565b5b80821115620001645760008160009055506001016200014a565b5090565b7f4e487b7100000000000000000000000000000000000000000000000000000000600052602260045260246000fd5b60006002820490506001821680620001b057607f821691505b60208210811415620001c757620001c662000168565b5b50919050565b61332380620001dd6000396000f3fe608060405234801561001057600080fd5b50600436106101375760003560e01c80636352211e116100b8578063a22cb4651161007c578063a22cb4651461035e578063b88d4fde1461037a578063c87b56dd14610396578063d5391393146103c6578063d547741f146103e4578063e985e9c51461040057610137565b80636352211e1461029257806370a08231146102c257806391d14854146102f257806395d89b4114610322578063a217fddf1461034057610137565b8063248a9ca3116100ff578063248a9ca3146101f25780632f2ff15d1461022257806336568abe1461023e57806340d097c31461025a57806342842e0e1461027657610137565b806301ffc9a71461013c57806306fdde031461016c578063081812fc1461018a578063095ea7b3146101ba57806323b872dd146101d6575b600080fd5b61015660048036038101906101519190611f85565b610430565b6040516101639190611fcd565b60405180910390f35b610174610442565b6040516101819190612081565b60405180910390f35b6101a4600480360381019061019f91906120d9565b6104d4565b6040516101b19190612147565b60405180910390f35b6101d460048036038101906101cf919061218e565b610559565b005b6101f060048036038101906101eb91906121ce565b610671565b005b61020c60048036038101906102079190612257565b6106d1565b6040516102199190612293565b60405180910390f35b61023c600480360381019061023791906122ae565b6106f1565b005b610258600480360381019061025391906122ae565b61071a565b005b610274600480360381019061026f91906122ee565b61079d565b005b610290600480360381019061028b91906121ce565b610878565b005b6102ac60048036038101906102a791906120d9565b610898565b6040516102b99190612147565b60405180910390f35b6102dc60048036038101906102d791906122ee565b61094a565b6040516102e9919061232a565b60405180910390f35b61030c600480360381019061030791906122ae565b610a02565b6040516103199190611fcd565b60405180910390f35b61032a610a6d565b6040516103379190612081565b60405180910390f35b610348610aff565b6040516103559190612293565b60405180910390f35b61037860048036038101906103739190612371565b610b06565b005b610394600480360381019061038f91906124e6565b610c87565b005b6103b060048036038101906103ab91906120d9565b610ce9565b6040516103bd9190612081565b60405180910390f35b6103ce610d90565b6040516103db9190612293565b60405180910390f35b6103fe60048036038101906103f991906122ae565b610db4565b005b61041a60048036038101906104159190612569565b610ddd565b6040516104279190611fcd565b60405180910390f35b600061043b82610e71565b9050919050565b606060008054610451906125d8565b80601f016020809104026020016040519081016040528092919081815260200182805461047d906125d8565b80156104ca5780601f1061049f576101008083540402835291602001916104ca565b820191906000526020600020905b8154815290600101906020018083116104ad57829003601f168201915b5050505050905090565b60006104df82610eeb565b61051e576040517f08c379a00000000000000000000000000000000000000000000000000000000081526004016105159061267c565b60405180910390fd5b6004600083815260200190815260200160002060009054906101000a900473ffffffffffffffffffffffffffffffffffffffff169050919050565b600061056482610898565b90508073ffffffffffffffffffffffffffffffffffffffff168373ffffffffffffffffffffffffffffffffffffffff1614156105d5576040517f08c379a00000000000000000000000000000000000000000000000000000000081526004016105cc9061270e565b60405180910390fd5b8073ffffffffffffffffffffffffffffffffffffffff166105f4610f57565b73ffffffffffffffffffffffffffffffffffffffff16148061062357506106228161061d610f57565b610ddd565b5b610662576040517f08c379a0000000000000000000000000000000000000000000000000000000008152600401610659906127a0565b60405180910390fd5b61066c8383610f5f565b505050565b61068261067c610f57565b82611018565b6106c1576040517f08c379a00000000000000000000000000000000000000000000000000000000081526004016106b890612832565b60405180910390fd5b6106cc8383836110f6565b505050565b600060066000838152602001908152602001600020600101549050919050565b6106fa826106d1565b61070b81610706610f57565b611352565b61071583836113ef565b505050565b610722610f57565b73ffffffffffffffffffffffffffffffffffffffff168173ffffffffffffffffffffffffffffffffffffffff161461078f576040517f08c379a0000000000000000000000000000000000000000000000000000000008152600401610786906128c4565b60405180910390fd5b61079982826114d0565b5050565b60001515600860003373ffffffffffffffffffffffffffffffffffffffff1673ffffffffffffffffffffffffffffffffffffffff16815260200190815260200160002060009054906101000a900460ff161515146107fa57600080fd5b6001600860003373ffffffffffffffffffffffffffffffffffffffff1673ffffffffffffffffffffffffffffffffffffffff16815260200190815260200160002060006101000a81548160ff021916908315150217905550600061085e60076115b2565b905061086a60076115c0565b61087482826115d6565b5050565b61089383838360405180602001604052806000815250610c87565b505050565b6000806002600084815260200190815260200160002060009054906101000a900473ffffffffffffffffffffffffffffffffffffffff169050600073ffffffffffffffffffffffffffffffffffffffff168173ffffffffffffffffffffffffffffffffffffffff161415610941576040517f08c379a000000000000000000000000000000000000000000000000000000000815260040161093890612956565b60405180910390fd5b80915050919050565b60008073ffffffffffffffffffffffffffffffffffffffff168273ffffffffffffffffffffffffffffffffffffffff1614156109bb576040517f08c379a00000000000000000000000000000000000000000000000000000000081526004016109b2906129e8565b60405180910390fd5b600360008373ffffffffffffffffffffffffffffffffffffffff1673ffffffffffffffffffffffffffffffffffffffff168152602001908152602001600020549050919050565b60006006600084815260200190815260200160002060000160008373ffffffffffffffffffffffffffffffffffffffff1673ffffffffffffffffffffffffffffffffffffffff16815260200190815260200160002060009054906101000a900460ff16905092915050565b606060018054610a7c906125d8565b80601f0160208091040260200160405190810160405280929190818152602001828054610aa8906125d8565b8015610af55780601f10610aca57610100808354040283529160200191610af5565b820191906000526020600020905b815481529060010190602001808311610ad857829003601f168201915b5050505050905090565b6000801b81565b610b0e610f57565b73ffffffffffffffffffffffffffffffffffffffff168273ffffffffffffffffffffffffffffffffffffffff161415610b7c576040517f08c379a0000000000000000000000000000000000000000000000000000000008152600401610b7390612a54565b60405180910390fd5b8060056000610b89610f57565b73ffffffffffffffffffffffffffffffffffffffff1673ffffffffffffffffffffffffffffffffffffffff16815260200190815260200160002060008473ffffffffffffffffffffffffffffffffffffffff1673ffffffffffffffffffffffffffffffffffffffff16815260200190815260200160002060006101000a81548160ff0219169083151502179055508173ffffffffffffffffffffffffffffffffffffffff16610c36610f57565b73ffffffffffffffffffffffffffffffffffffffff167f17307eab39ab6107e8899845ad3d59bd9653f200f220920489ca2b5937696c3183604051610c7b9190611fcd565b60405180910390a35050565b610c98610c92610f57565b83611018565b610cd7576040517f08c379a0000000000000000000000000000000000000000000000000000000008152600401610cce90612832565b60405180910390fd5b610ce3848484846115f4565b50505050565b6060610cf482610eeb565b610d33576040517f08c379a0000000000000000000000000000000000000000000000000000000008152600401610d2a90612ae6565b60405180910390fd5b6000610d3d611650565b90506000815111610d5d5760405180602001604052806000815250610d88565b80610d6784611667565b604051602001610d78929190612b42565b6040516020818303038152906040525b915050919050565b7f9f2df0fed2c77648de5860a4cc508cd0818c85b8b8a1ab4ceeef8d981c8956a681565b610dbd826106d1565b610dce81610dc9610f57565b611352565b610dd883836114d0565b505050565b6000600560008473ffffffffffffffffffffffffffffffffffffffff1673ffffffffffffffffffffffffffffffffffffffff16815260200190815260200160002060008373ffffffffffffffffffffffffffffffffffffffff1673ffffffffffffffffffffffffffffffffffffffff16815260200190815260200160002060009054906101000a900460ff16905092915050565b60007f7965db0b000000000000000000000000000000000000000000000000000000007bffffffffffffffffffffffffffffffffffffffffffffffffffffffff1916827bffffffffffffffffffffffffffffffffffffffffffffffffffffffff19161480610ee45750610ee3826117c8565b5b9050919050565b60008073ffffffffffffffffffffffffffffffffffffffff166002600084815260200190815260200160002060009054906101000a900473ffffffffffffffffffffffffffffffffffffffff1673ffffffffffffffffffffffffffffffffffffffff1614159050919050565b600033905090565b816004600083815260200190815260200160002060006101000a81548173ffffffffffffffffffffffffffffffffffffffff021916908373ffffffffffffffffffffffffffffffffffffffff160217905550808273ffffffffffffffffffffffffffffffffffffffff16610fd283610898565b73ffffffffffffffffffffffffffffffffffffffff167f8c5be1e5ebec7d5bd14f71427d1e84f3dd0314c0f7b2291e5b200ac8c7c3b92560405160405180910390a45050565b600061102382610eeb565b611062576040517f08c379a000000000000000000000000000000000000000000000000000000000815260040161105990612bd8565b60405180910390fd5b600061106d83610898565b90508073ffffffffffffffffffffffffffffffffffffffff168473ffffffffffffffffffffffffffffffffffffffff1614806110dc57508373ffffffffffffffffffffffffffffffffffffffff166110c4846104d4565b73ffffffffffffffffffffffffffffffffffffffff16145b806110ed57506110ec8185610ddd565b5b91505092915050565b8273ffffffffffffffffffffffffffffffffffffffff1661111682610898565b73ffffffffffffffffffffffffffffffffffffffff161461116c576040517f08c379a000000000000000000000000000000000000000000000000000000000815260040161116390612c6a565b60405180910390fd5b600073ffffffffffffffffffffffffffffffffffffffff168273ffffffffffffffffffffffffffffffffffffffff1614156111dc576040517f08c379a00000000000000000000000000000000000000000000000000000000081526004016111d390612cfc565b60405180910390fd5b6111e78383836118aa565b6111f2600082610f5f565b6001600360008573ffffffffffffffffffffffffffffffffffffffff1673ffffffffffffffffffffffffffffffffffffffff16815260200190815260200160002060008282546112429190612d4b565b925050819055506001600360008473ffffffffffffffffffffffffffffffffffffffff1673ffffffffffffffffffffffffffffffffffffffff16815260200190815260200160002060008282546112999190612d7f565b92505081905550816002600083815260200190815260200160002060006101000a81548173ffffffffffffffffffffffffffffffffffffffff021916908373ffffffffffffffffffffffffffffffffffffffff160217905550808273ffffffffffffffffffffffffffffffffffffffff168473ffffffffffffffffffffffffffffffffffffffff167fddf252ad1be2c89b69c2b068fc378daa952ba7f163c4a11628f55a4df523b3ef60405160405180910390a4505050565b61135c8282610a02565b6113eb576113818173ffffffffffffffffffffffffffffffffffffffff1660146118af565b61138f8360001c60206118af565b6040516020016113a0929190612e6d565b6040516020818303038152906040526040517f08c379a00000000000000000000000000000000000000000000000000000000081526004016113e29190612081565b60405180910390fd5b5050565b6113f98282610a02565b6114cc5760016006600084815260200190815260200160002060000160008373ffffffffffffffffffffffffffffffffffffffff1673ffffffffffffffffffffffffffffffffffffffff16815260200190815260200160002060006101000a81548160ff021916908315150217905550611471610f57565b73ffffffffffffffffffffffffffffffffffffffff168173ffffffffffffffffffffffffffffffffffffffff16837f2f8788117e7eff1d82e926ec794901d17c78024a50270940304540a733656f0d60405160405180910390a45b5050565b6114da8282610a02565b156115ae5760006006600084815260200190815260200160002060000160008373ffffffffffffffffffffffffffffffffffffffff1673ffffffffffffffffffffffffffffffffffffffff16815260200190815260200160002060006101000a81548160ff021916908315150217905550611553610f57565b73ffffffffffffffffffffffffffffffffffffffff168173ffffffffffffffffffffffffffffffffffffffff16837ff6391f5c32d9c69d2a47ea670b442974b53935d1edc7fd64eb21e047a839171b60405160405180910390a45b5050565b600081600001549050919050565b6001816000016000828254019250508190555050565b6115f0828260405180602001604052806000815250611aeb565b5050565b6115ff8484846110f6565b61160b84848484611b46565b61164a576040517f08c379a000000000000000000000000000000000000000000000000000000000815260040161164190612f19565b60405180910390fd5b50505050565b606060405180602001604052806000815250905090565b606060008214156116af576040518060400160405280600181526020017f300000000000000000000000000000000000000000000000000000000000000081525090506117c3565b600082905060005b600082146116e15780806116ca90612f39565b915050600a826116da9190612fb1565b91506116b7565b60008167ffffffffffffffff8111156116fd576116fc6123bb565b5b6040519080825280601f01601f19166020018201604052801561172f5781602001600182028036833780820191505090505b5090505b600085146117bc576001826117489190612d4b565b9150600a856117579190612fe2565b60306117639190612d7f565b60f81b81838151811061177957611778613013565b5b60200101907effffffffffffffffffffffffffffffffffffffffffffffffffffffffffffff1916908160001a905350600a856117b59190612fb1565b9450611733565b8093505050505b919050565b60007f80ac58cd000000000000000000000000000000000000000000000000000000007bffffffffffffffffffffffffffffffffffffffffffffffffffffffff1916827bffffffffffffffffffffffffffffffffffffffffffffffffffffffff1916148061189357507f5b5e139f000000000000000000000000000000000000000000000000000000007bffffffffffffffffffffffffffffffffffffffffffffffffffffffff1916827bffffffffffffffffffffffffffffffffffffffffffffffffffffffff1916145b806118a357506118a282611cce565b5b9050919050565b505050565b6060600060028360026118c29190613042565b6118cc9190612d7f565b67ffffffffffffffff8111156118e5576118e46123bb565b5b6040519080825280601f01601f1916602001820160405280156119175781602001600182028036833780820191505090505b5090507f30000000000000000000000000000000000000000000000000000000000000008160008151811061194f5761194e613013565b5b60200101907effffffffffffffffffffffffffffffffffffffffffffffffffffffffffffff1916908160001a9053507f7800000000000000000000000000000000000000000000000000000000000000816001815181106119b3576119b2613013565b5b60200101907effffffffffffffffffffffffffffffffffffffffffffffffffffffffffffff1916908160001a905350600060018460026119f39190613042565b6119fd9190612d7f565b90505b6001811115611a9d577f3031323334353637383961626364656600000000000000000000000000000000600f861660108110611a3f57611a3e613013565b5b1a60f81b828281518110611a5657611a55613013565b5b60200101907effffffffffffffffffffffffffffffffffffffffffffffffffffffffffffff1916908160001a905350600485901c945080611a969061309c565b9050611a00565b5060008414611ae1576040517f08c379a0000000000000000000000000000000000000000000000000000000008152600401611ad890613112565b60405180910390fd5b8091505092915050565b611af58383611d38565b611b026000848484611b46565b611b41576040517f08c379a0000000000000000000000000000000000000000000000000000000008152600401611b3890612f19565b60405180910390fd5b505050565b6000611b678473ffffffffffffffffffffffffffffffffffffffff16611f06565b15611cc1578373ffffffffffffffffffffffffffffffffffffffff1663150b7a02611b90610f57565b8786866040518563ffffffff1660e01b8152600401611bb29493929190613187565b6020604051808303816000875af1925050508015611bee57506040513d601f19601f82011682018060405250810190611beb91906131e8565b60015b611c71573d8060008114611c1e576040519150601f19603f3d011682016040523d82523d6000602084013e611c23565b606091505b50600081511415611c69576040517f08c379a0000000000000000000000000000000000000000000000000000000008152600401611c6090612f19565b60405180910390fd5b805181602001fd5b63150b7a0260e01b7bffffffffffffffffffffffffffffffffffffffffffffffffffffffff1916817bffffffffffffffffffffffffffffffffffffffffffffffffffffffff191614915050611cc6565b600190505b949350505050565b60007f01ffc9a7000000000000000000000000000000000000000000000000000000007bffffffffffffffffffffffffffffffffffffffffffffffffffffffff1916827bffffffffffffffffffffffffffffffffffffffffffffffffffffffff1916149050919050565b600073ffffffffffffffffffffffffffffffffffffffff168273ffffffffffffffffffffffffffffffffffffffff161415611da8576040517f08c379a0000000000000000000000000000000000000000000000000000000008152600401611d9f90613261565b60405180910390fd5b611db181610eeb565b15611df1576040517f08c379a0000000000000000000000000000000000000000000000000000000008152600401611de8906132cd565b60405180910390fd5b611dfd600083836118aa565b6001600360008473ffffffffffffffffffffffffffffffffffffffff1673ffffffffffffffffffffffffffffffffffffffff1681526020019081526020016000206000828254611e4d9190612d7f565b92505081905550816002600083815260200190815260200160002060006101000a81548173ffffffffffffffffffffffffffffffffffffffff021916908373ffffffffffffffffffffffffffffffffffffffff160217905550808273ffffffffffffffffffffffffffffffffffffffff16600073ffffffffffffffffffffffffffffffffffffffff167fddf252ad1be2c89b69c2b068fc378daa952ba7f163c4a11628f55a4df523b3ef60405160405180910390a45050565b600080823b905060008111915050919050565b6000604051905090565b600080fd5b600080fd5b60007fffffffff0000000000000000000000000000000000000000000000000000000082169050919050565b611f6281611f2d565b8114611f6d57600080fd5b50565b600081359050611f7f81611f59565b92915050565b600060208284031215611f9b57611f9a611f23565b5b6000611fa984828501611f70565b91505092915050565b60008115159050919050565b611fc781611fb2565b82525050565b6000602082019050611fe26000830184611fbe565b92915050565b600081519050919050565b600082825260208201905092915050565b60005b83811015612022578082015181840152602081019050612007565b83811115612031576000848401525b50505050565b6000601f19601f8301169050919050565b600061205382611fe8565b61205d8185611ff3565b935061206d818560208601612004565b61207681612037565b840191505092915050565b6000602082019050818103600083015261209b8184612048565b905092915050565b6000819050919050565b6120b6816120a3565b81146120c157600080fd5b50565b6000813590506120d3816120ad565b92915050565b6000602082840312156120ef576120ee611f23565b5b60006120fd848285016120c4565b91505092915050565b600073ffffffffffffffffffffffffffffffffffffffff82169050919050565b600061213182612106565b9050919050565b61214181612126565b82525050565b600060208201905061215c6000830184612138565b92915050565b61216b81612126565b811461217657600080fd5b50565b60008135905061218881612162565b92915050565b600080604083850312156121a5576121a4611f23565b5b60006121b385828601612179565b92505060206121c4858286016120c4565b9150509250929050565b6000806000606084860312156121e7576121e6611f23565b5b60006121f586828701612179565b935050602061220686828701612179565b9250506040612217868287016120c4565b9150509250925092565b6000819050919050565b61223481612221565b811461223f57600080fd5b50565b6000813590506122518161222b565b92915050565b60006020828403121561226d5761226c611f23565b5b600061227b84828501612242565b91505092915050565b61228d81612221565b82525050565b60006020820190506122a86000830184612284565b92915050565b600080604083850312156122c5576122c4611f23565b5b60006122d385828601612242565b92505060206122e485828601612179565b9150509250929050565b60006020828403121561230457612303611f23565b5b600061231284828501612179565b91505092915050565b612324816120a3565b82525050565b600060208201905061233f600083018461231b565b92915050565b61234e81611fb2565b811461235957600080fd5b50565b60008135905061236b81612345565b92915050565b6000806040838503121561238857612387611f23565b5b600061239685828601612179565b92505060206123a78582860161235c565b9150509250929050565b600080fd5b600080fd5b7f4e487b7100000000000000000000000000000000000000000000000000000000600052604160045260246000fd5b6123f382612037565b810181811067ffffffffffffffff82111715612412576124116123bb565b5b80604052505050565b6000612425611f19565b905061243182826123ea565b919050565b600067ffffffffffffffff821115612451576124506123bb565b5b61245a82612037565b9050602081019050919050565b82818337600083830152505050565b600061248961248484612436565b61241b565b9050828152602081018484840111156124a5576124a46123b6565b5b6124b0848285612467565b509392505050565b600082601f8301126124cd576124cc6123b1565b5b81356124dd848260208601612476565b91505092915050565b60008060008060808587031215612500576124ff611f23565b5b600061250e87828801612179565b945050602061251f87828801612179565b9350506040612530878288016120c4565b925050606085013567ffffffffffffffff81111561255157612550611f28565b5b61255d878288016124b8565b91505092959194509250565b600080604083850312156125805761257f611f23565b5b600061258e85828601612179565b925050602061259f85828601612179565b9150509250929050565b7f4e487b7100000000000000000000000000000000000000000000000000000000600052602260045260246000fd5b600060028204905060018216806125f057607f821691505b60208210811415612604576126036125a9565b5b50919050565b7f4552433732313a20617070726f76656420717565727920666f72206e6f6e657860008201527f697374656e7420746f6b656e0000000000000000000000000000000000000000602082015250565b6000612666602c83611ff3565b91506126718261260a565b604082019050919050565b6000602082019050818103600083015261269581612659565b9050919050565b7f4552433732313a20617070726f76616c20746f2063757272656e74206f776e6560008201527f7200000000000000000000000000000000000000000000000000000000000000602082015250565b60006126f8602183611ff3565b91506127038261269c565b604082019050919050565b60006020820190508181036000830152612727816126eb565b9050919050565b7f4552433732313a20617070726f76652063616c6c6572206973206e6f74206f7760008201527f6e6572206e6f7220617070726f76656420666f7220616c6c0000000000000000602082015250565b600061278a603883611ff3565b91506127958261272e565b604082019050919050565b600060208201905081810360008301526127b98161277d565b9050919050565b7f4552433732313a207472616e736665722063616c6c6572206973206e6f74206f60008201527f776e6572206e6f7220617070726f766564000000000000000000000000000000602082015250565b600061281c603183611ff3565b9150612827826127c0565b604082019050919050565b6000602082019050818103600083015261284b8161280f565b9050919050565b7f416363657373436f6e74726f6c3a2063616e206f6e6c792072656e6f756e636560008201527f20726f6c657320666f722073656c660000000000000000000000000000000000602082015250565b60006128ae602f83611ff3565b91506128b982612852565b604082019050919050565b600060208201905081810360008301526128dd816128a1565b9050919050565b7f4552433732313a206f776e657220717565727920666f72206e6f6e657869737460008201527f656e7420746f6b656e0000000000000000000000000000000000000000000000602082015250565b6000612940602983611ff3565b915061294b826128e4565b604082019050919050565b6000602082019050818103600083015261296f81612933565b9050919050565b7f4552433732313a2062616c616e636520717565727920666f7220746865207a6560008201527f726f206164647265737300000000000000000000000000000000000000000000602082015250565b60006129d2602a83611ff3565b91506129dd82612976565b604082019050919050565b60006020820190508181036000830152612a01816129c5565b9050919050565b7f4552433732313a20617070726f766520746f2063616c6c657200000000000000600082015250565b6000612a3e601983611ff3565b9150612a4982612a08565b602082019050919050565b60006020820190508181036000830152612a6d81612a31565b9050919050565b7f4552433732314d657461646174613a2055524920717565727920666f72206e6f60008201527f6e6578697374656e7420746f6b656e0000000000000000000000000000000000602082015250565b6000612ad0602f83611ff3565b9150612adb82612a74565b604082019050919050565b60006020820190508181036000830152612aff81612ac3565b9050919050565b600081905092915050565b6000612b1c82611fe8565b612b268185612b06565b9350612b36818560208601612004565b80840191505092915050565b6000612b4e8285612b11565b9150612b5a8284612b11565b91508190509392505050565b7f4552433732313a206f70657261746f7220717565727920666f72206e6f6e657860008201527f697374656e7420746f6b656e0000000000000000000000000000000000000000602082015250565b6000612bc2602c83611ff3565b9150612bcd82612b66565b604082019050919050565b60006020820190508181036000830152612bf181612bb5565b9050919050565b7f4552433732313a207472616e73666572206f6620746f6b656e2074686174206960008201527f73206e6f74206f776e0000000000000000000000000000000000000000000000602082015250565b6000612c54602983611ff3565b9150612c5f82612bf8565b604082019050919050565b60006020820190508181036000830152612c8381612c47565b9050919050565b7f4552433732313a207472616e7366657220746f20746865207a65726f2061646460008201527f7265737300000000000000000000000000000000000000000000000000000000602082015250565b6000612ce6602483611ff3565b9150612cf182612c8a565b604082019050919050565b60006020820190508181036000830152612d1581612cd9565b9050919050565b7f4e487b7100000000000000000000000000000000000000000000000000000000600052601160045260246000fd5b6000612d56826120a3565b9150612d61836120a3565b925082821015612d7457612d73612d1c565b5b828203905092915050565b6000612d8a826120a3565b9150612d95836120a3565b9250827fffffffffffffffffffffffffffffffffffffffffffffffffffffffffffffffff03821115612dca57612dc9612d1c565b5b828201905092915050565b7f416363657373436f6e74726f6c3a206163636f756e7420000000000000000000600082015250565b6000612e0b601783612b06565b9150612e1682612dd5565b601782019050919050565b7f206973206d697373696e6720726f6c6520000000000000000000000000000000600082015250565b6000612e57601183612b06565b9150612e6282612e21565b601182019050919050565b6000612e7882612dfe565b9150612e848285612b11565b9150612e8f82612e4a565b9150612e9b8284612b11565b91508190509392505050565b7f4552433732313a207472616e7366657220746f206e6f6e20455243373231526560008201527f63656976657220696d706c656d656e7465720000000000000000000000000000602082015250565b6000612f03603283611ff3565b9150612f0e82612ea7565b604082019050919050565b60006020820190508181036000830152612f3281612ef6565b9050919050565b6000612f44826120a3565b91507fffffffffffffffffffffffffffffffffffffffffffffffffffffffffffffffff821415612f7757612f76612d1c565b5b600182019050919050565b7f4e487b7100000000000000000000000000000000000000000000000000000000600052601260045260246000fd5b6000612fbc826120a3565b9150612fc7836120a3565b925082612fd757612fd6612f82565b5b828204905092915050565b6000612fed826120a3565b9150612ff8836120a3565b92508261300857613007612f82565b5b828206905092915050565b7f4e487b7100000000000000000000000000000000000000000000000000000000600052603260045260246000fd5b600061304d826120a3565b9150613058836120a3565b9250817fffffffffffffffffffffffffffffffffffffffffffffffffffffffffffffffff048311821515161561309157613090612d1c565b5b828202905092915050565b60006130a7826120a3565b915060008214156130bb576130ba612d1c565b5b600182039050919050565b7f537472696e67733a20686578206c656e67746820696e73756666696369656e74600082015250565b60006130fc602083611ff3565b9150613107826130c6565b602082019050919050565b6000602082019050818103600083015261312b816130ef565b9050919050565b600081519050919050565b600082825260208201905092915050565b600061315982613132565b613163818561313d565b9350613173818560208601612004565b61317c81612037565b840191505092915050565b600060808201905061319c6000830187612138565b6131a96020830186612138565b6131b6604083018561231b565b81810360608301526131c8818461314e565b905095945050505050565b6000815190506131e281611f59565b92915050565b6000602082840312156131fe576131fd611f23565b5b600061320c848285016131d3565b91505092915050565b7f4552433732313a206d696e7420746f20746865207a65726f2061646472657373600082015250565b600061324b602083611ff3565b915061325682613215565b602082019050919050565b6000602082019050818103600083015261327a8161323e565b9050919050565b7f4552433732313a20746f6b656e20616c7265616479206d696e74656400000000600082015250565b60006132b7601c83611ff3565b91506132c282613281565b602082019050919050565b600060208201905081810360008301526132e6816132aa565b905091905056fea264697066735822122049b62b5a6ad89f8f96afd54a2c16ba9c9497ea6c76c73288967b6d66078116ca64736f6c634300080a0033",
  "linkReferences": {},
  "deployedLinkReferences": {}
}