{
  "_format": "hh-sol-artifact-1",
  "contractName": "ArtistRegistration",
  "sourceName": "contracts/ArtistRegistration.sol",
  "abi": [
    {
      "stateMutability": "payable",
      "type": "fallback"
    },
    {
      "inputs": [],
      "name": "RegisterAddress",
      "outputs": [
        {
          "internalType": "bool",
          "name": "",
          "type": "bool"
        }
      ],
      "stateMutability": "nonpayable",
      "type": "function"
    },
    {
      "inputs": [
        {
          "internalType": "uint256",
          "name": "",
          "type": "uint256"
        }
      ],
      "name": "albumDirectory",
      "outputs": [
        {
          "internalType": "uint256",
          "name": "albumID",
          "type": "uint256"
        },
        {
          "internalType": "address",
          "name": "artist",
          "type": "address"
        },
        {
          "internalType": "string",
          "name": "albumName",
          "type": "string"
        },
        {
          "internalType": "uint256",
          "name": "totalAlbumPurchases",
          "type": "uint256"
        },
        {
          "internalType": "uint256",
          "name": "totalSongPlays",
          "type": "uint256"
        }
      ],
      "stateMutability": "view",
      "type": "function"
    },
    {
      "inputs": [
        {
          "internalType": "address",
          "name": "",
          "type": "address"
        },
        {
          "internalType": "uint256",
          "name": "",
          "type": "uint256"
        }
      ],
      "name": "albumStats",
      "outputs": [
        {
          "internalType": "uint256",
          "name": "albumID",
          "type": "uint256"
        },
        {
          "internalType": "address",
          "name": "artist",
          "type": "address"
        },
        {
          "internalType": "string",
          "name": "albumName",
          "type": "string"
        },
        {
          "internalType": "uint256",
          "name": "totalAlbumPurchases",
          "type": "uint256"
        },
        {
          "internalType": "uint256",
          "name": "totalSongPlays",
          "type": "uint256"
        }
      ],
      "stateMutability": "view",
      "type": "function"
    },
    {
      "inputs": [
        {
          "internalType": "address",
          "name": "",
          "type": "address"
        },
        {
          "internalType": "uint256",
          "name": "",
          "type": "uint256"
        }
      ],
      "name": "artistAlbums",
      "outputs": [
        {
          "internalType": "uint256",
          "name": "albumID",
          "type": "uint256"
        },
        {
          "internalType": "address",
          "name": "artist",
          "type": "address"
        },
        {
          "internalType": "string",
          "name": "albumName",
          "type": "string"
        },
        {
          "internalType": "uint256",
          "name": "totalAlbumPurchases",
          "type": "uint256"
        },
        {
          "internalType": "uint256",
          "name": "totalSongPlays",
          "type": "uint256"
        }
      ],
      "stateMutability": "view",
      "type": "function"
    },
    {
      "inputs": [
        {
          "internalType": "address",
          "name": "userAddress",
          "type": "address"
        }
      ],
      "name": "getRegisteredAddress",
      "outputs": [
        {
          "internalType": "bool",
          "name": "",
          "type": "bool"
        }
      ],
      "stateMutability": "view",
      "type": "function"
    },
    {
      "inputs": [],
      "name": "owner",
      "outputs": [
        {
          "internalType": "address",
          "name": "",
          "type": "address"
        }
      ],
      "stateMutability": "view",
      "type": "function"
    },
    {
      "inputs": [
        {
          "internalType": "address",
          "name": "",
          "type": "address"
        }
      ],
      "name": "registeredArtists",
      "outputs": [
        {
          "internalType": "bool",
          "name": "registered",
          "type": "bool"
        },
        {
          "internalType": "uint256",
          "name": "totalAlbumSales",
          "type": "uint256"
        },
        {
          "internalType": "uint256",
          "name": "totalSongPlays",
          "type": "uint256"
        }
      ],
      "stateMutability": "view",
      "type": "function"
    },
    {
      "inputs": [
        {
          "internalType": "address",
          "name": "",
          "type": "address"
        }
      ],
      "name": "registeredUsers",
      "outputs": [
        {
          "internalType": "bool",
          "name": "registered",
          "type": "bool"
        }
      ],
      "stateMutability": "view",
      "type": "function"
    },
    {
      "inputs": [],
      "name": "verifyRegistration",
      "outputs": [
        {
          "internalType": "bool",
          "name": "",
          "type": "bool"
        }
      ],
      "stateMutability": "view",
      "type": "function"
    },
    {
      "stateMutability": "payable",
      "type": "receive"
    }
  ],
  "bytecode": "0x608060405234801561001057600080fd5b50336000806101000a81548173ffffffffffffffffffffffffffffffffffffffff021916908373ffffffffffffffffffffffffffffffffffffffff160217905550610a55806100606000396000f3fe60806040526004361061008a5760003560e01c8063a786eef811610059578063a786eef814610167578063d9e73f3b146101a8578063dd9b4767146101d3578063f558369f14610214578063f6dc26b71461025357610091565b80630e50cee5146100935780634b64b2e9146100d05780635ade5020146100fb5780638da5cb5b1461013c57610091565b3661009157005b005b34801561009f57600080fd5b506100ba60048036038101906100b5919061072d565b610290565b6040516100c7919061083c565b60405180910390f35b3480156100dc57600080fd5b506100e56102bb565b6040516100f2919061083c565b60405180910390f35b34801561010757600080fd5b50610122600480360381019061011d9190610792565b61032a565b60405161013395949392919061088e565b60405180910390f35b34801561014857600080fd5b50610151610408565b60405161015e9190610821565b60405180910390f35b34801561017357600080fd5b5061018e60048036038101906101899190610756565b61042c565b60405161019f95949392919061088e565b60405180910390f35b3480156101b457600080fd5b506101bd610517565b6040516101ca919061083c565b60405180910390f35b3480156101df57600080fd5b506101fa60048036038101906101f59190610756565b610578565b60405161020b95949392919061088e565b60405180910390f35b34801561022057600080fd5b5061023b6004803603810190610236919061072d565b610673565b60405161024a93929190610857565b60405180910390f35b34801561025f57600080fd5b5061027a6004803603810190610275919061072d565b6106aa565b604051610287919061083c565b60405180910390f35b60036020528060005260406000206000915090508060000160009054906101000a900460ff16905081565b600060011515600360003373ffffffffffffffffffffffffffffffffffffffff1673ffffffffffffffffffffffffffffffffffffffff16815260200190815260200160002060000160009054906101000a900460ff16151514156103225760019050610327565b600090505b90565b60056020528060005260406000206000915090508060000154908060010160009054906101000a900473ffffffffffffffffffffffffffffffffffffffff16908060020180546103799061097f565b80601f01602080910402602001604051908101604052809291908181526020018280546103a59061097f565b80156103f25780601f106103c7576101008083540402835291602001916103f2565b820191906000526020600020905b8154815290600101906020018083116103d557829003601f168201915b5050505050908060050154908060060154905085565b60008054906101000a900473ffffffffffffffffffffffffffffffffffffffff1681565b6006602052816000526040600020602052806000526040600020600091509150508060000154908060010160009054906101000a900473ffffffffffffffffffffffffffffffffffffffff16908060020180546104889061097f565b80601f01602080910402602001604051908101604052809291908181526020018280546104b49061097f565b80156105015780601f106104d657610100808354040283529160200191610501565b820191906000526020600020905b8154815290600101906020018083116104e457829003601f168201915b5050505050908060050154908060060154905085565b60006001600360003373ffffffffffffffffffffffffffffffffffffffff1673ffffffffffffffffffffffffffffffffffffffff16815260200190815260200160002060000160006101000a81548160ff0219169083151502179055905090565b6008602052816000526040600020818154811061059457600080fd5b9060005260206000209060070201600091509150508060000154908060010160009054906101000a900473ffffffffffffffffffffffffffffffffffffffff16908060020180546105e49061097f565b80601f01602080910402602001604051908101604052809291908181526020018280546106109061097f565b801561065d5780601f106106325761010080835404028352916020019161065d565b820191906000526020600020905b81548152906001019060200180831161064057829003601f168201915b5050505050908060050154908060060154905085565b60046020528060005260406000206000915090508060000160009054906101000a900460ff16908060020154908060030154905083565b6000600360008373ffffffffffffffffffffffffffffffffffffffff1673ffffffffffffffffffffffffffffffffffffffff16815260200190815260200160002060000160009054906101000a900460ff169050919050565b600081359050610712816109f1565b92915050565b60008135905061072781610a08565b92915050565b60006020828403121561073f57600080fd5b600061074d84828501610703565b91505092915050565b6000806040838503121561076957600080fd5b600061077785828601610703565b925050602061078885828601610718565b9150509250929050565b6000602082840312156107a457600080fd5b60006107b284828501610718565b91505092915050565b6107c481610904565b82525050565b6107d381610916565b82525050565b60006107e4826108e8565b6107ee81856108f3565b93506107fe81856020860161094c565b610807816109e0565b840191505092915050565b61081b81610942565b82525050565b600060208201905061083660008301846107bb565b92915050565b600060208201905061085160008301846107ca565b92915050565b600060608201905061086c60008301866107ca565b6108796020830185610812565b6108866040830184610812565b949350505050565b600060a0820190506108a36000830188610812565b6108b060208301876107bb565b81810360408301526108c281866107d9565b90506108d16060830185610812565b6108de6080830184610812565b9695505050505050565b600081519050919050565b600082825260208201905092915050565b600061090f82610922565b9050919050565b60008115159050919050565b600073ffffffffffffffffffffffffffffffffffffffff82169050919050565b6000819050919050565b60005b8381101561096a57808201518184015260208101905061094f565b83811115610979576000848401525b50505050565b6000600282049050600182168061099757607f821691505b602082108114156109ab576109aa6109b1565b5b50919050565b7f4e487b7100000000000000000000000000000000000000000000000000000000600052602260045260246000fd5b6000601f19601f8301169050919050565b6109fa81610904565b8114610a0557600080fd5b50565b610a1181610942565b8114610a1c57600080fd5b5056fea2646970667358221220013387ca95c7ba9ed632f9f44a3694bd88ba1edb7a8d3d12a5bbeba326d5647e64736f6c63430008040033",
  "linkReferences": {},
  "deployedLinkReferences": {}
}