{
  "_format": "hh-sol-artifact-1",
  "contractName": "RootContract",
  "sourceName": "contracts/RootContract.sol",
  "abi": [
    {
      "inputs": [],
      "stateMutability": "nonpayable",
      "type": "constructor"
    },
    {
      "stateMutability": "payable",
      "type": "fallback"
    },
    {
      "inputs": [],
      "name": "RegisterAddress",
      "outputs": [
        {
          "internalType": "bool",
          "name": "",
          "type": "bool"
        }
      ],
      "stateMutability": "nonpayable",
      "type": "function"
    },
    {
      "inputs": [],
      "name": "albumCounter",
      "outputs": [
        {
          "internalType": "uint256",
          "name": "",
          "type": "uint256"
        }
      ],
      "stateMutability": "view",
      "type": "function"
    },
    {
      "inputs": [
        {
          "internalType": "address",
          "name": "",
          "type": "address"
        },
        {
          "internalType": "uint256",
          "name": "",
          "type": "uint256"
        }
      ],
      "name": "albumStats",
      "outputs": [
        {
          "internalType": "uint256",
          "name": "albumID",
          "type": "uint256"
        },
        {
          "internalType": "address",
          "name": "artist",
          "type": "address"
        },
        {
          "internalType": "string",
          "name": "albumName",
          "type": "string"
        },
        {
          "internalType": "uint256",
          "name": "totalAlbumPurchases",
          "type": "uint256"
        },
        {
          "internalType": "uint256",
          "name": "totalSongPlays",
          "type": "uint256"
        }
      ],
      "stateMutability": "view",
      "type": "function"
    },
    {
      "inputs": [
        {
          "internalType": "address",
          "name": "userAddress",
          "type": "address"
        }
      ],
      "name": "getRegisteredAddress",
      "outputs": [
        {
          "internalType": "bool",
          "name": "registration",
          "type": "bool"
        },
        {
          "internalType": "uint256[]",
          "name": "albumsOwned",
          "type": "uint256[]"
        }
      ],
      "stateMutability": "view",
      "type": "function"
    },
    {
      "inputs": [
        {
          "internalType": "uint256",
          "name": "songNumber",
          "type": "uint256"
        }
      ],
      "name": "getSongInfo",
      "outputs": [
        {
          "internalType": "uint256",
          "name": "id",
          "type": "uint256"
        },
        {
          "internalType": "string",
          "name": "title",
          "type": "string"
        },
        {
          "internalType": "uint256",
          "name": "playCount",
          "type": "uint256"
        }
      ],
      "stateMutability": "view",
      "type": "function"
    },
    {
      "inputs": [],
      "name": "owner",
      "outputs": [
        {
          "internalType": "address",
          "name": "",
          "type": "address"
        }
      ],
      "stateMutability": "view",
      "type": "function"
    },
    {
      "inputs": [
        {
          "internalType": "address",
          "name": "",
          "type": "address"
        }
      ],
      "name": "registeredUsers",
      "outputs": [
        {
          "internalType": "bool",
          "name": "registered",
          "type": "bool"
        }
      ],
      "stateMutability": "view",
      "type": "function"
    },
    {
      "inputs": [
        {
          "internalType": "uint256",
          "name": "",
          "type": "uint256"
        }
      ],
      "name": "songList",
      "outputs": [
        {
          "internalType": "uint256",
          "name": "songID",
          "type": "uint256"
        },
        {
          "internalType": "string",
          "name": "songName",
          "type": "string"
        },
        {
          "internalType": "uint256",
          "name": "playCount",
          "type": "uint256"
        }
      ],
      "stateMutability": "view",
      "type": "function"
    },
    {
      "inputs": [],
      "name": "verifyRegistration",
      "outputs": [
        {
          "internalType": "bool",
          "name": "",
          "type": "bool"
        }
      ],
      "stateMutability": "view",
      "type": "function"
    },
    {
      "stateMutability": "payable",
      "type": "receive"
    }
  ],
  "bytecode": "0x60806040523480156200001157600080fd5b50336000806101000a81548173ffffffffffffffffffffffffffffffffffffffff021916908373ffffffffffffffffffffffffffffffffffffffff160217905550600180819055506040518060600160405280600181526020016040518060400160405280600a81526020017f467574757265436c756200000000000000000000000000000000000000000000815250815260200160008152506003600060018152602001908152602001600020600082015181600001556020820151816001019080519060200190620000e7929190620000fb565b506040820151816002015590505062000210565b8280546200010990620001ab565b90600052602060002090601f0160209004810192826200012d576000855562000179565b82601f106200014857805160ff191683800117855562000179565b8280016001018555821562000179579182015b82811115620001785782518255916020019190600101906200015b565b5b5090506200018891906200018c565b5090565b5b80821115620001a75760008160009055506001016200018d565b5090565b60006002820490506001821680620001c457607f821691505b60208210811415620001db57620001da620001e1565b5b50919050565b7f4e487b7100000000000000000000000000000000000000000000000000000000600052602260045260246000fd5b610bde80620002206000396000f3fe60806040526004361061008a5760003560e01c8063a786eef811610059578063a786eef814610165578063d9e73f3b146101a6578063de2ea5dc146101d1578063f6dc26b714610210578063f99bf3da1461024e57610091565b80630e50cee5146100935780633a562377146100d05780634b64b2e91461010f5780638da5cb5b1461013a57610091565b3661009157005b005b34801561009f57600080fd5b506100ba60048036038101906100b591906107a6565b610279565b6040516100c7919061093a565b60405180910390f35b3480156100dc57600080fd5b506100f760048036038101906100f2919061080b565b6102a4565b604051610106939291906109fa565b60405180910390f35b34801561011b57600080fd5b50610124610356565b604051610131919061093a565b60405180910390f35b34801561014657600080fd5b5061014f6103c5565b60405161015c919061091f565b60405180910390f35b34801561017157600080fd5b5061018c600480360381019061018791906107cf565b6103e9565b60405161019d9594939291906109a0565b60405180910390f35b3480156101b257600080fd5b506101bb6104d4565b6040516101c8919061093a565b60405180910390f35b3480156101dd57600080fd5b506101f860048036038101906101f3919061080b565b6105a2565b604051610207939291906109fa565b60405180910390f35b34801561021c57600080fd5b50610237600480360381019061023291906107a6565b610685565b604051610245929190610955565b60405180910390f35b34801561025a57600080fd5b50610263610776565b6040516102709190610985565b60405180910390f35b60026020528060005260406000206000915090508060000160009054906101000a900460ff16905081565b60036020528060005260406000206000915090508060000154908060010180546102cd90610b08565b80601f01602080910402602001604051908101604052809291908181526020018280546102f990610b08565b80156103465780601f1061031b57610100808354040283529160200191610346565b820191906000526020600020905b81548152906001019060200180831161032957829003601f168201915b5050505050908060020154905083565b600060011515600260003373ffffffffffffffffffffffffffffffffffffffff1673ffffffffffffffffffffffffffffffffffffffff16815260200190815260200160002060000160009054906101000a900460ff16151514156103bd57600190506103c2565b600090505b90565b60008054906101000a900473ffffffffffffffffffffffffffffffffffffffff1681565b6004602052816000526040600020602052806000526040600020600091509150508060000154908060010160009054906101000a900473ffffffffffffffffffffffffffffffffffffffff169080600201805461044590610b08565b80601f016020809104026020016040519081016040528092919081815260200182805461047190610b08565b80156104be5780601f10610493576101008083540402835291602001916104be565b820191906000526020600020905b8154815290600101906020018083116104a157829003601f168201915b5050505050908060050154908060060154905085565b60006001600260003373ffffffffffffffffffffffffffffffffffffffff1673ffffffffffffffffffffffffffffffffffffffff16815260200190815260200160002060000160006101000a81548160ff021916908315150217905550600260003373ffffffffffffffffffffffffffffffffffffffff1673ffffffffffffffffffffffffffffffffffffffff168152602001908152602001600020600101600090806001815401808255809150506001900390600052602060002001600090919091909150556001905090565b60006060600060036000858152602001908152602001600020600001546003600086815260200190815260200160002060010160036000878152602001908152602001600020600201548180546105f890610b08565b80601f016020809104026020016040519081016040528092919081815260200182805461062490610b08565b80156106715780601f1061064657610100808354040283529160200191610671565b820191906000526020600020905b81548152906001019060200180831161065457829003601f168201915b505050505091509250925092509193909250565b60006060600260008473ffffffffffffffffffffffffffffffffffffffff1673ffffffffffffffffffffffffffffffffffffffff16815260200190815260200160002060000160009054906101000a900460ff16600260008573ffffffffffffffffffffffffffffffffffffffff1673ffffffffffffffffffffffffffffffffffffffff1681526020019081526020016000206001018080548060200260200160405190810160405280929190818152602001828054801561076657602002820191906000526020600020905b815481526020019060010190808311610752575b5050505050905091509150915091565b60015481565b60008135905061078b81610b7a565b92915050565b6000813590506107a081610b91565b92915050565b6000602082840312156107b857600080fd5b60006107c68482850161077c565b91505092915050565b600080604083850312156107e257600080fd5b60006107f08582860161077c565b925050602061080185828601610791565b9150509250929050565b60006020828403121561081d57600080fd5b600061082b84828501610791565b91505092915050565b60006108408383610901565b60208301905092915050565b61085581610a8d565b82525050565b600061086682610a48565b6108708185610a6b565b935061087b83610a38565b8060005b838110156108ac5781516108938882610834565b975061089e83610a5e565b92505060018101905061087f565b5085935050505092915050565b6108c281610a9f565b82525050565b60006108d382610a53565b6108dd8185610a7c565b93506108ed818560208601610ad5565b6108f681610b69565b840191505092915050565b61090a81610acb565b82525050565b61091981610acb565b82525050565b6000602082019050610934600083018461084c565b92915050565b600060208201905061094f60008301846108b9565b92915050565b600060408201905061096a60008301856108b9565b818103602083015261097c818461085b565b90509392505050565b600060208201905061099a6000830184610910565b92915050565b600060a0820190506109b56000830188610910565b6109c2602083018761084c565b81810360408301526109d481866108c8565b90506109e36060830185610910565b6109f06080830184610910565b9695505050505050565b6000606082019050610a0f6000830186610910565b8181036020830152610a2181856108c8565b9050610a306040830184610910565b949350505050565b6000819050602082019050919050565b600081519050919050565b600081519050919050565b6000602082019050919050565b600082825260208201905092915050565b600082825260208201905092915050565b6000610a9882610aab565b9050919050565b60008115159050919050565b600073ffffffffffffffffffffffffffffffffffffffff82169050919050565b6000819050919050565b60005b83811015610af3578082015181840152602081019050610ad8565b83811115610b02576000848401525b50505050565b60006002820490506001821680610b2057607f821691505b60208210811415610b3457610b33610b3a565b5b50919050565b7f4e487b7100000000000000000000000000000000000000000000000000000000600052602260045260246000fd5b6000601f19601f8301169050919050565b610b8381610a8d565b8114610b8e57600080fd5b50565b610b9a81610acb565b8114610ba557600080fd5b5056fea26469706673582212209b641867f2f05fc04e1ce72cbf671269e382fda16a13ab38980a125972d09bfc64736f6c63430008040033",
  "linkReferences": {},
  "deployedLinkReferences": {}
}