{
  "_format": "hh-sol-artifact-1",
  "contractName": "RootContract",
  "sourceName": "contracts/RootContract.sol",
  "abi": [
    {
      "inputs": [],
      "stateMutability": "nonpayable",
      "type": "constructor"
    },
    {
      "stateMutability": "payable",
      "type": "fallback"
    },
    {
      "inputs": [],
      "name": "RegisterAddress",
      "outputs": [
        {
          "internalType": "bool",
          "name": "",
          "type": "bool"
        }
      ],
      "stateMutability": "nonpayable",
      "type": "function"
    },
    {
      "inputs": [
        {
          "internalType": "uint256",
          "name": "",
          "type": "uint256"
        }
      ],
      "name": "albumDirectory",
      "outputs": [
        {
          "internalType": "uint256",
          "name": "albumID",
          "type": "uint256"
        },
        {
          "internalType": "address",
          "name": "artist",
          "type": "address"
        },
        {
          "internalType": "string",
          "name": "albumName",
          "type": "string"
        },
        {
          "internalType": "uint256",
          "name": "totalAlbumPurchases",
          "type": "uint256"
        },
        {
          "internalType": "uint256",
          "name": "totalSongPlays",
          "type": "uint256"
        }
      ],
      "stateMutability": "view",
      "type": "function"
    },
    {
      "inputs": [
        {
          "internalType": "address",
          "name": "",
          "type": "address"
        },
        {
          "internalType": "uint256",
          "name": "",
          "type": "uint256"
        }
      ],
      "name": "albumStats",
      "outputs": [
        {
          "internalType": "uint256",
          "name": "albumID",
          "type": "uint256"
        },
        {
          "internalType": "address",
          "name": "artist",
          "type": "address"
        },
        {
          "internalType": "string",
          "name": "albumName",
          "type": "string"
        },
        {
          "internalType": "uint256",
          "name": "totalAlbumPurchases",
          "type": "uint256"
        },
        {
          "internalType": "uint256",
          "name": "totalSongPlays",
          "type": "uint256"
        }
      ],
      "stateMutability": "view",
      "type": "function"
    },
    {
      "inputs": [
        {
          "internalType": "address",
          "name": "userAddress",
          "type": "address"
        }
      ],
      "name": "getRegisteredAddress",
      "outputs": [
        {
          "internalType": "bool",
          "name": "",
          "type": "bool"
        }
      ],
      "stateMutability": "view",
      "type": "function"
    },
    {
      "inputs": [],
      "name": "owner",
      "outputs": [
        {
          "internalType": "address",
          "name": "",
          "type": "address"
        }
      ],
      "stateMutability": "view",
      "type": "function"
    },
    {
      "inputs": [
        {
          "internalType": "address",
          "name": "",
          "type": "address"
        }
      ],
      "name": "registeredArtists",
      "outputs": [
        {
          "internalType": "bool",
          "name": "registered",
          "type": "bool"
        },
        {
          "internalType": "uint256",
          "name": "totalAlbumSales",
          "type": "uint256"
        },
        {
          "internalType": "uint256",
          "name": "totalSongPlays",
          "type": "uint256"
        }
      ],
      "stateMutability": "view",
      "type": "function"
    },
    {
      "inputs": [
        {
          "internalType": "address",
          "name": "",
          "type": "address"
        }
      ],
      "name": "registeredUsers",
      "outputs": [
        {
          "internalType": "bool",
          "name": "registered",
          "type": "bool"
        }
      ],
      "stateMutability": "view",
      "type": "function"
    },
    {
      "inputs": [],
      "name": "verifyRegistration",
      "outputs": [
        {
          "internalType": "bool",
          "name": "",
          "type": "bool"
        }
      ],
      "stateMutability": "view",
      "type": "function"
    },
    {
      "stateMutability": "payable",
      "type": "receive"
    }
  ],
  "bytecode": "0x608060405234801561001057600080fd5b50336000806101000a81548173ffffffffffffffffffffffffffffffffffffffff021916908373ffffffffffffffffffffffffffffffffffffffff16021790555061090e806100606000396000f3fe60806040526004361061007f5760003560e01c8063a786eef81161004e578063a786eef81461015c578063d9e73f3b1461019d578063f558369f146101c8578063f6dc26b71461020757610086565b80630e50cee5146100885780634b64b2e9146100c55780635ade5020146100f05780638da5cb5b1461013157610086565b3661008657005b005b34801561009457600080fd5b506100af60048036038101906100aa91906105e6565b610244565b6040516100bc91906106f5565b60405180910390f35b3480156100d157600080fd5b506100da61026f565b6040516100e791906106f5565b60405180910390f35b3480156100fc57600080fd5b506101176004803603810190610112919061064b565b6102de565b604051610128959493929190610747565b60405180910390f35b34801561013d57600080fd5b506101466103bc565b60405161015391906106da565b60405180910390f35b34801561016857600080fd5b50610183600480360381019061017e919061060f565b6103e0565b604051610194959493929190610747565b60405180910390f35b3480156101a957600080fd5b506101b26104cb565b6040516101bf91906106f5565b60405180910390f35b3480156101d457600080fd5b506101ef60048036038101906101ea91906105e6565b61052c565b6040516101fe93929190610710565b60405180910390f35b34801561021357600080fd5b5061022e600480360381019061022991906105e6565b610563565b60405161023b91906106f5565b60405180910390f35b60036020528060005260406000206000915090508060000160009054906101000a900460ff16905081565b600060011515600360003373ffffffffffffffffffffffffffffffffffffffff1673ffffffffffffffffffffffffffffffffffffffff16815260200190815260200160002060000160009054906101000a900460ff16151514156102d657600190506102db565b600090505b90565b60056020528060005260406000206000915090508060000154908060010160009054906101000a900473ffffffffffffffffffffffffffffffffffffffff169080600201805461032d90610838565b80601f016020809104026020016040519081016040528092919081815260200182805461035990610838565b80156103a65780601f1061037b576101008083540402835291602001916103a6565b820191906000526020600020905b81548152906001019060200180831161038957829003601f168201915b5050505050908060050154908060060154905085565b60008054906101000a900473ffffffffffffffffffffffffffffffffffffffff1681565b6006602052816000526040600020602052806000526040600020600091509150508060000154908060010160009054906101000a900473ffffffffffffffffffffffffffffffffffffffff169080600201805461043c90610838565b80601f016020809104026020016040519081016040528092919081815260200182805461046890610838565b80156104b55780601f1061048a576101008083540402835291602001916104b5565b820191906000526020600020905b81548152906001019060200180831161049857829003601f168201915b5050505050908060050154908060060154905085565b60006001600360003373ffffffffffffffffffffffffffffffffffffffff1673ffffffffffffffffffffffffffffffffffffffff16815260200190815260200160002060000160006101000a81548160ff0219169083151502179055905090565b60046020528060005260406000206000915090508060000160009054906101000a900460ff16908060020154908060030154905083565b6000600360008373ffffffffffffffffffffffffffffffffffffffff1673ffffffffffffffffffffffffffffffffffffffff16815260200190815260200160002060000160009054906101000a900460ff169050919050565b6000813590506105cb816108aa565b92915050565b6000813590506105e0816108c1565b92915050565b6000602082840312156105f857600080fd5b6000610606848285016105bc565b91505092915050565b6000806040838503121561062257600080fd5b6000610630858286016105bc565b9250506020610641858286016105d1565b9150509250929050565b60006020828403121561065d57600080fd5b600061066b848285016105d1565b91505092915050565b61067d816107bd565b82525050565b61068c816107cf565b82525050565b600061069d826107a1565b6106a781856107ac565b93506106b7818560208601610805565b6106c081610899565b840191505092915050565b6106d4816107fb565b82525050565b60006020820190506106ef6000830184610674565b92915050565b600060208201905061070a6000830184610683565b92915050565b60006060820190506107256000830186610683565b61073260208301856106cb565b61073f60408301846106cb565b949350505050565b600060a08201905061075c60008301886106cb565b6107696020830187610674565b818103604083015261077b8186610692565b905061078a60608301856106cb565b61079760808301846106cb565b9695505050505050565b600081519050919050565b600082825260208201905092915050565b60006107c8826107db565b9050919050565b60008115159050919050565b600073ffffffffffffffffffffffffffffffffffffffff82169050919050565b6000819050919050565b60005b83811015610823578082015181840152602081019050610808565b83811115610832576000848401525b50505050565b6000600282049050600182168061085057607f821691505b602082108114156108645761086361086a565b5b50919050565b7f4e487b7100000000000000000000000000000000000000000000000000000000600052602260045260246000fd5b6000601f19601f8301169050919050565b6108b3816107bd565b81146108be57600080fd5b50565b6108ca816107fb565b81146108d557600080fd5b5056fea2646970667358221220ad96f7591373245161e9715e84bf754f092a141648255de3f3bab4585043bd6d64736f6c63430008040033",
  "linkReferences": {},
  "deployedLinkReferences": {}
}